{
  "_format": "hh-sol-artifact-1",
  "contractName": "OptimizerDAO",
  "sourceName": "contracts/OptimizerDAO.sol",
  "abi": [
    {
      "inputs": [],
      "stateMutability": "nonpayable",
      "type": "constructor"
    },
    {
      "anonymous": false,
      "inputs": [
        {
          "indexed": true,
          "internalType": "address",
          "name": "owner",
          "type": "address"
        },
        {
          "indexed": true,
          "internalType": "address",
          "name": "spender",
          "type": "address"
        },
        {
          "indexed": false,
          "internalType": "uint256",
          "name": "value",
          "type": "uint256"
        }
      ],
      "name": "Approval",
      "type": "event"
    },
    {
      "anonymous": false,
      "inputs": [
        {
          "indexed": true,
          "internalType": "address",
          "name": "previousOwner",
          "type": "address"
        },
        {
          "indexed": true,
          "internalType": "address",
          "name": "newOwner",
          "type": "address"
        }
      ],
      "name": "OwnershipTransferred",
      "type": "event"
    },
    {
      "anonymous": false,
      "inputs": [
        {
          "indexed": true,
          "internalType": "address",
          "name": "from",
          "type": "address"
        },
        {
          "indexed": true,
          "internalType": "address",
          "name": "to",
          "type": "address"
        },
        {
          "indexed": false,
          "internalType": "uint256",
          "name": "value",
          "type": "uint256"
        }
      ],
      "name": "Transfer",
      "type": "event"
    },
    {
      "inputs": [
        {
          "internalType": "address",
          "name": "_tokenIn",
          "type": "address"
        },
        {
          "internalType": "address",
          "name": "_tokenOut",
          "type": "address"
        },
        {
          "internalType": "uint256",
          "name": "_amountIn",
          "type": "uint256"
        },
        {
          "internalType": "uint256",
          "name": "_amountOutMin",
          "type": "uint256"
        },
        {
          "internalType": "address",
          "name": "_to",
          "type": "address"
        }
      ],
      "name": "_swap",
      "outputs": [],
      "stateMutability": "nonpayable",
      "type": "function"
    },
    {
      "inputs": [
        {
          "internalType": "address",
          "name": "owner",
          "type": "address"
        },
        {
          "internalType": "address",
          "name": "spender",
          "type": "address"
        }
      ],
      "name": "allowance",
      "outputs": [
        {
          "internalType": "uint256",
          "name": "",
          "type": "uint256"
        }
      ],
      "stateMutability": "view",
      "type": "function"
    },
    {
      "inputs": [
        {
          "internalType": "address",
          "name": "spender",
          "type": "address"
        },
        {
          "internalType": "uint256",
          "name": "amount",
          "type": "uint256"
        }
      ],
      "name": "approve",
      "outputs": [
        {
          "internalType": "bool",
          "name": "",
          "type": "bool"
        }
      ],
      "stateMutability": "nonpayable",
      "type": "function"
    },
    {
      "inputs": [
        {
          "internalType": "string",
          "name": "",
          "type": "string"
        }
      ],
      "name": "assetWeightings",
      "outputs": [
        {
          "internalType": "uint256",
          "name": "",
          "type": "uint256"
        }
      ],
      "stateMutability": "view",
      "type": "function"
    },
    {
      "inputs": [
        {
          "internalType": "address",
          "name": "account",
          "type": "address"
        }
      ],
      "name": "balanceOf",
      "outputs": [
        {
          "internalType": "uint256",
          "name": "",
          "type": "uint256"
        }
      ],
      "stateMutability": "view",
      "type": "function"
    },
    {
      "inputs": [],
      "name": "decimals",
      "outputs": [
        {
          "internalType": "uint8",
          "name": "",
          "type": "uint8"
        }
      ],
      "stateMutability": "view",
      "type": "function"
    },
    {
      "inputs": [
        {
          "internalType": "address",
          "name": "spender",
          "type": "address"
        },
        {
          "internalType": "uint256",
          "name": "subtractedValue",
          "type": "uint256"
        }
      ],
      "name": "decreaseAllowance",
      "outputs": [
        {
          "internalType": "bool",
          "name": "",
          "type": "bool"
        }
      ],
      "stateMutability": "nonpayable",
      "type": "function"
    },
    {
      "inputs": [
        {
          "internalType": "uint256",
          "name": "_index",
          "type": "uint256"
        }
      ],
      "name": "getHoldingsDataOfProposal",
      "outputs": [
        {
          "internalType": "string[10]",
          "name": "",
          "type": "string[10]"
        },
        {
          "internalType": "uint256[10]",
          "name": "",
          "type": "uint256[10]"
        },
        {
          "internalType": "uint256[10]",
          "name": "",
          "type": "uint256[10]"
        },
        {
          "internalType": "uint256[2]",
          "name": "",
          "type": "uint256[2]"
        }
      ],
      "stateMutability": "view",
      "type": "function"
    },
    {
      "inputs": [
        {
          "internalType": "string",
          "name": "_token",
          "type": "string"
        }
      ],
      "name": "getProposalVotes",
      "outputs": [
        {
          "internalType": "uint256[]",
          "name": "",
          "type": "uint256[]"
        },
        {
          "internalType": "uint256[]",
          "name": "",
          "type": "uint256[]"
        },
        {
          "internalType": "uint256[]",
          "name": "",
          "type": "uint256[]"
        },
        {
          "internalType": "string[]",
          "name": "",
          "type": "string[]"
        },
        {
          "internalType": "string[]",
          "name": "",
          "type": "string[]"
        }
      ],
      "stateMutability": "view",
      "type": "function"
    },
    {
      "inputs": [
        {
          "internalType": "address",
          "name": "spender",
          "type": "address"
        },
        {
          "internalType": "uint256",
          "name": "addedValue",
          "type": "uint256"
        }
      ],
      "name": "increaseAllowance",
      "outputs": [
        {
          "internalType": "bool",
          "name": "",
          "type": "bool"
        }
      ],
      "stateMutability": "nonpayable",
      "type": "function"
    },
    {
      "inputs": [
        {
          "internalType": "string[]",
          "name": "_assets",
          "type": "string[]"
        },
        {
          "internalType": "uint256[]",
          "name": "_percentage",
          "type": "uint256[]"
        }
      ],
      "name": "initiateTradesOnUniswap",
      "outputs": [],
      "stateMutability": "nonpayable",
      "type": "function"
    },
    {
      "inputs": [],
      "name": "joinDAO",
      "outputs": [],
      "stateMutability": "payable",
      "type": "function"
    },
    {
      "inputs": [],
      "name": "lengthOfProposals",
      "outputs": [
        {
          "internalType": "uint256",
          "name": "",
          "type": "uint256"
        }
      ],
      "stateMutability": "view",
      "type": "function"
    },
    {
      "inputs": [],
      "name": "name",
      "outputs": [
        {
          "internalType": "string",
          "name": "",
          "type": "string"
        }
      ],
      "stateMutability": "view",
      "type": "function"
    },
    {
      "inputs": [],
      "name": "owner",
      "outputs": [
        {
          "internalType": "address",
          "name": "",
          "type": "address"
        }
      ],
      "stateMutability": "view",
      "type": "function"
    },
    {
      "inputs": [
        {
          "internalType": "uint256",
          "name": "",
          "type": "uint256"
        }
      ],
      "name": "proposals",
      "outputs": [
        {
          "internalType": "uint256",
          "name": "startTime",
          "type": "uint256"
        },
        {
          "internalType": "uint256",
          "name": "endTime",
          "type": "uint256"
        },
        {
          "internalType": "uint256",
          "name": "startEth",
          "type": "uint256"
        },
        {
          "internalType": "uint256",
          "name": "endEth",
          "type": "uint256"
        }
      ],
      "stateMutability": "view",
      "type": "function"
    },
    {
      "inputs": [],
      "name": "renounceOwnership",
      "outputs": [],
      "stateMutability": "nonpayable",
      "type": "function"
    },
    {
      "inputs": [
        {
          "internalType": "string[]",
          "name": "_token",
          "type": "string[]"
        },
        {
          "internalType": "uint256[]",
          "name": "_prefOfToken",
          "type": "uint256[]"
        },
        {
          "internalType": "uint256[]",
          "name": "_confidenceLevels",
          "type": "uint256[]"
        },
        {
          "internalType": "string[]",
          "name": "_userViewsType",
          "type": "string[]"
        },
        {
          "internalType": "string[]",
          "name": "_userViewsRelativeToken",
          "type": "string[]"
        }
      ],
      "name": "submitVote",
      "outputs": [],
      "stateMutability": "nonpayable",
      "type": "function"
    },
    {
      "inputs": [],
      "name": "symbol",
      "outputs": [
        {
          "internalType": "string",
          "name": "",
          "type": "string"
        }
      ],
      "stateMutability": "view",
      "type": "function"
    },
    {
      "inputs": [],
      "name": "totalSupply",
      "outputs": [
        {
          "internalType": "uint256",
          "name": "",
          "type": "uint256"
        }
      ],
      "stateMutability": "view",
      "type": "function"
    },
    {
      "inputs": [
        {
          "internalType": "address",
          "name": "to",
          "type": "address"
        },
        {
          "internalType": "uint256",
          "name": "amount",
          "type": "uint256"
        }
      ],
      "name": "transfer",
      "outputs": [
        {
          "internalType": "bool",
          "name": "",
          "type": "bool"
        }
      ],
      "stateMutability": "nonpayable",
      "type": "function"
    },
    {
      "inputs": [
        {
          "internalType": "address",
          "name": "from",
          "type": "address"
        },
        {
          "internalType": "address",
          "name": "to",
          "type": "address"
        },
        {
          "internalType": "uint256",
          "name": "amount",
          "type": "uint256"
        }
      ],
      "name": "transferFrom",
      "outputs": [
        {
          "internalType": "bool",
          "name": "",
          "type": "bool"
        }
      ],
      "stateMutability": "nonpayable",
      "type": "function"
    },
    {
      "inputs": [
        {
          "internalType": "address",
          "name": "newOwner",
          "type": "address"
        }
      ],
      "name": "transferOwnership",
      "outputs": [],
      "stateMutability": "nonpayable",
      "type": "function"
    }
  ],
  "bytecode": "0x608060405273e592427a0aece92de3edee1f18e0157c05861564600860006101000a81548173ffffffffffffffffffffffffffffffffffffffff021916908373ffffffffffffffffffffffffffffffffffffffff1602179055503480156200006657600080fd5b506040518060400160405280601381526020017f4f7074696d697a65722044414f20546f6b656e000000000000000000000000008152506040518060400160405280600381526020017f4f445000000000000000000000000000000000000000000000000000000000008152508160039081620000e4919062000661565b508060049081620000f6919062000661565b505050620001196200010d6200031960201b60201c565b6200032160201b60201c565b6000600c6001816001815401808255809150500390600052602060002090600c02019050600060405180604001604052806040518060400160405280600381526020017f455448000000000000000000000000000000000000000000000000000000000081525081526020016040518060400160405280600381526020017f554e49000000000000000000000000000000000000000000000000000000000081525081525090506000604051806040016040528073b4fbf271143f4fbf7b91a5ded31805e42b2208d673ffffffffffffffffffffffffffffffffffffffff1673ffffffffffffffffffffffffffffffffffffffff168152602001731f9840a85d5af5bf1d1762f925bdaddc4201f98473ffffffffffffffffffffffffffffffffffffffff1673ffffffffffffffffffffffffffffffffffffffff16815250905060005b60028110156200030f578181600281106200027c576200027b62000748565b5b6020020151600984836002811062000299576200029862000748565b5b6020020151604051620002ad9190620007e5565b908152602001604051809103902060006101000a81548173ffffffffffffffffffffffffffffffffffffffff021916908373ffffffffffffffffffffffffffffffffffffffff160217905550808062000306906200082d565b9150506200025c565b505050506200087a565b600033905090565b6000600560009054906101000a900473ffffffffffffffffffffffffffffffffffffffff16905081600560006101000a81548173ffffffffffffffffffffffffffffffffffffffff021916908373ffffffffffffffffffffffffffffffffffffffff1602179055508173ffffffffffffffffffffffffffffffffffffffff168173ffffffffffffffffffffffffffffffffffffffff167f8be0079c531659141344cd1fd0a4f28419497f9722a3daafe3b4186f6b6457e060405160405180910390a35050565b600081519050919050565b7f4e487b7100000000000000000000000000000000000000000000000000000000600052604160045260246000fd5b7f4e487b7100000000000000000000000000000000000000000000000000000000600052602260045260246000fd5b600060028204905060018216806200046957607f821691505b6020821081036200047f576200047e62000421565b5b50919050565b60008190508160005260206000209050919050565b60006020601f8301049050919050565b600082821b905092915050565b600060088302620004e97fffffffffffffffffffffffffffffffffffffffffffffffffffffffffffffffff82620004aa565b620004f58683620004aa565b95508019841693508086168417925050509392505050565b6000819050919050565b6000819050919050565b6000620005426200053c62000536846200050d565b62000517565b6200050d565b9050919050565b6000819050919050565b6200055e8362000521565b620005766200056d8262000549565b848454620004b7565b825550505050565b600090565b6200058d6200057e565b6200059a81848462000553565b505050565b5b81811015620005c257620005b660008262000583565b600181019050620005a0565b5050565b601f8211156200061157620005db8162000485565b620005e6846200049a565b81016020851015620005f6578190505b6200060e62000605856200049a565b8301826200059f565b50505b505050565b600082821c905092915050565b6000620006366000198460080262000616565b1980831691505092915050565b600062000651838362000623565b9150826002028217905092915050565b6200066c82620003e7565b67ffffffffffffffff811115620006885762000687620003f2565b5b62000694825462000450565b620006a1828285620005c6565b600060209050601f831160018114620006d95760008415620006c4578287015190505b620006d0858262000643565b86555062000740565b601f198416620006e98662000485565b60005b828110156200071357848901518255600182019150602085019450602081019050620006ec565b868310156200073357848901516200072f601f89168262000623565b8355505b6001600288020188555050505b505050505050565b7f4e487b7100000000000000000000000000000000000000000000000000000000600052603260045260246000fd5b600081905092915050565b60005b83811015620007a257808201518184015260208101905062000785565b60008484015250505050565b6000620007bb82620003e7565b620007c7818562000777565b9350620007d981856020860162000782565b80840191505092915050565b6000620007f38284620007ae565b915081905092915050565b7f4e487b7100000000000000000000000000000000000000000000000000000000600052601160045260246000fd5b60006200083a826200050d565b91507fffffffffffffffffffffffffffffffffffffffffffffffffffffffffffffffff82036200086f576200086e620007fe565b5b600182019050919050565b616432806200088a6000396000f3fe6080604052600436106101405760003560e01c80638b1fdf24116100b6578063dd62ed3e1161006f578063dd62ed3e146104c8578063e430fcb614610505578063e47b22791461052e578063ef2091bc14610557578063f2fde38b14610582578063f63d13d7146105ab57610140565b80638b1fdf241461037a5780638da5cb5b146103bb57806395d89b41146103e6578063a457c2d714610411578063a9059cbb1461044e578063b4f301c81461048b57610140565b8063313ce56711610108578063313ce567146102555780633950935114610280578063472ad1f4146102bd5780634c26b8a2146102e657806370a0823114610326578063715018a61461036357610140565b8063013cf08b1461014557806306fdde0314610185578063095ea7b3146101b057806318160ddd146101ed57806323b872dd14610218575b600080fd5b34801561015157600080fd5b5061016c60048036038101906101679190614886565b6105b5565b60405161017c94939291906148c2565b60405180910390f35b34801561019157600080fd5b5061019a6105f5565b6040516101a79190614997565b60405180910390f35b3480156101bc57600080fd5b506101d760048036038101906101d29190614a17565b610687565b6040516101e49190614a72565b60405180910390f35b3480156101f957600080fd5b506102026106aa565b60405161020f9190614a8d565b60405180910390f35b34801561022457600080fd5b5061023f600480360381019061023a9190614aa8565b6106b4565b60405161024c9190614a72565b60405180910390f35b34801561026157600080fd5b5061026a6106e3565b6040516102779190614b17565b60405180910390f35b34801561028c57600080fd5b506102a760048036038101906102a29190614a17565b6106ec565b6040516102b49190614a72565b60405180910390f35b3480156102c957600080fd5b506102e460048036038101906102df9190614e10565b610723565b005b3480156102f257600080fd5b5061030d60048036038101906103089190614886565b610b53565b60405161031d9493929190615146565b60405180910390f35b34801561033257600080fd5b5061034d60048036038101906103489190615195565b61147e565b60405161035a9190614a8d565b60405180910390f35b34801561036f57600080fd5b506103786114c6565b005b34801561038657600080fd5b506103a1600480360381019061039c91906151c2565b6114da565b6040516103b2959493929190615350565b60405180910390f35b3480156103c757600080fd5b506103d0611a29565b6040516103dd91906153d5565b60405180910390f35b3480156103f257600080fd5b506103fb611a53565b6040516104089190614997565b60405180910390f35b34801561041d57600080fd5b5061043860048036038101906104339190614a17565b611ae5565b6040516104459190614a72565b60405180910390f35b34801561045a57600080fd5b5061047560048036038101906104709190614a17565b611b5c565b6040516104829190614a72565b60405180910390f35b34801561049757600080fd5b506104b260048036038101906104ad91906151c2565b611b7f565b6040516104bf9190614a8d565b60405180910390f35b3480156104d457600080fd5b506104ef60048036038101906104ea91906153f0565b611bad565b6040516104fc9190614a8d565b60405180910390f35b34801561051157600080fd5b5061052c60048036038101906105279190615430565b611c34565b005b34801561053a57600080fd5b50610555600480360381019061055091906154a8565b61393f565b005b34801561056357600080fd5b5061056c613d49565b6040516105799190614a8d565b60405180910390f35b34801561058e57600080fd5b506105a960048036038101906105a49190615195565b613d62565b005b6105b3613de5565b005b600c81815481106105c557600080fd5b90600052602060002090600c02016000915090508060000154908060010154908060020154908060030154905084565b60606003805461060490615552565b80601f016020809104026020016040519081016040528092919081815260200182805461063090615552565b801561067d5780601f106106525761010080835404028352916020019161067d565b820191906000526020600020905b81548152906001019060200180831161066057829003601f168201915b5050505050905090565b600080610692613ed6565b905061069f818585613ede565b600191505092915050565b6000600254905090565b6000806106bf613ed6565b90506106cc8582856140a7565b6106d7858585614133565b60019150509392505050565b60006012905090565b6000806106f7613ed6565b90506107188185856107098589611bad565b61071391906155b2565b613ede565b600191505092915050565b600061072e3361147e565b1161076e576040517f08c379a000000000000000000000000000000000000000000000000000000000815260040161076590615658565b60405180910390fd5b83518551148015610780575082518451145b6107bf576040517f08c379a00000000000000000000000000000000000000000000000000000000081526004016107b6906156c4565b60405180910390fd5b60006107ca3361147e565b905060005b8651811015610b4a57600c6001600c805490506107ec91906156e4565b815481106107fd576107fc615718565b5b90600052602060002090600c020160080187828151811061082157610820615718565b5b60200260200101516040516108369190615783565b908152602001604051809103902086828151811061085757610856615718565b5b60200260200101519080600181540180825580915050600190039060005260206000200160009091909190915055600c6001600c8054905061089991906156e4565b815481106108aa576108a9615718565b5b90600052602060002090600c02016007018782815181106108ce576108cd615718565b5b60200260200101516040516108e39190615783565b9081526020016040518091039020829080600181540180825580915050600190039060005260206000200160009091909190915055600c6001600c8054905061092c91906156e4565b8154811061093d5761093c615718565b5b90600052602060002090600c020160090187828151811061096157610960615718565b5b60200260200101516040516109769190615783565b908152602001604051809103902085828151811061099757610996615718565b5b60200260200101519080600181540180825580915050600190039060005260206000200160009091909190915055600c6001600c805490506109d991906156e4565b815481106109ea576109e9615718565b5b90600052602060002090600c0201600a01878281518110610a0e57610a0d615718565b5b6020026020010151604051610a239190615783565b9081526020016040518091039020848281518110610a4457610a43615718565b5b6020026020010151908060018154018082558091505060019003906000526020600020016000909190919091509081610a7d9190615946565b50600c6001600c80549050610a9291906156e4565b81548110610aa357610aa2615718565b5b90600052602060002090600c0201600b01878281518110610ac757610ac6615718565b5b6020026020010151604051610adc9190615783565b9081526020016040518091039020838281518110610afd57610afc615718565b5b6020026020010151908060018154018082558091505060019003906000526020600020016000909190919091509081610b369190615946565b508080610b4290615a18565b9150506107cf565b50505050505050565b610b5b6147c5565b610b636147ed565b610b6b6147ed565b610b73614810565b60006040518061014001604052806040518060400160405280600481526020017f574554480000000000000000000000000000000000000000000000000000000081525081526020016040518060400160405280600381526020017f424154000000000000000000000000000000000000000000000000000000000081525081526020016040518060400160405280600481526020017f574254430000000000000000000000000000000000000000000000000000000081525081526020016040518060400160405280600381526020017f554e49000000000000000000000000000000000000000000000000000000000081525081526020016040518060400160405280600481526020017f555344540000000000000000000000000000000000000000000000000000000081525081526020016040518060400160405280600581526020017f735745544800000000000000000000000000000000000000000000000000000081525081526020016040518060400160405280600481526020017f734241540000000000000000000000000000000000000000000000000000000081525081526020016040518060400160405280600581526020017f735742544300000000000000000000000000000000000000000000000000000081525081526020016040518060400160405280600481526020017f73554e490000000000000000000000000000000000000000000000000000000081525081526020016040518060400160405280600581526020017f73555344540000000000000000000000000000000000000000000000000000008152508152509050610dd76147ed565b610ddf6147ed565b610de7614810565b600c8981548110610dfb57610dfa615718565b5b90600052602060002090600c02016000015481600060028110610e2157610e20615718565b5b602002018181525050600c8981548110610e3e57610e3d615718565b5b90600052602060002090600c02016001015481600160028110610e6457610e63615718565b5b602002018181525050600c8981548110610e8157610e80615718565b5b90600052602060002090600c0201600601600081548110610ea557610ea4615718565b5b9060005260206000200154826000600a8110610ec457610ec3615718565b5b602002018181525050600c8981548110610ee157610ee0615718565b5b90600052602060002090600c0201600501600081548110610f0557610f04615718565b5b9060005260206000200154836000600a8110610f2457610f23615718565b5b602002018181525050610f5e600c8a81548110610f4457610f43615718565b5b90600052602060002090600c0201600401805490506143a9565b6000600190505b600a81101561144557600c8a81548110610f8257610f81615718565b5b90600052602060002090600c02016006018181548110610fa557610fa4615718565b5b90600052602060002001548382600a8110610fc357610fc2615718565b5b602002018181525050600073ffffffffffffffffffffffffffffffffffffffff1660098683600a8110610ff957610ff8615718565b5b602002015160405161100b9190615783565b908152602001604051809103902060009054906101000a900473ffffffffffffffffffffffffffffffffffffffff1673ffffffffffffffffffffffffffffffffffffffff16141580156110f3575073c778417e063141139fce010982780140aa0cd5ab73ffffffffffffffffffffffffffffffffffffffff1660098683600a811061109957611098615718565b5b60200201516040516110ab9190615783565b908152602001604051809103902060009054906101000a900473ffffffffffffffffffffffffffffffffffffffff1673ffffffffffffffffffffffffffffffffffffffff1614155b801561114157506000600c8b815481106111105761110f615718565b5b90600052602060002090600c0201600601828154811061113357611132615718565b5b906000526020600020015414155b15611251576111668582600a811061115c5761115b615718565b5b6020020151614442565b6111b0600c8b8154811061117d5761117c615718565b5b90600052602060002090600c020160050182815481106111a05761119f615718565b5b90600052602060002001546143a9565b600c8a815481106111c4576111c3615718565b5b90600052602060002090600c020160050181815481106111e7576111e6615718565b5b90600052602060002001548482600a811061120557611204615718565b5b60200201818152505061124c6040518060400160405280600b81526020017f6c6f6e6720746f6b656e73000000000000000000000000000000000000000000815250614442565b611432565b600073ffffffffffffffffffffffffffffffffffffffff16600a8683600a811061127e5761127d615718565b5b60200201516040516112909190615783565b908152602001604051809103902060009054906101000a900473ffffffffffffffffffffffffffffffffffffffff1673ffffffffffffffffffffffffffffffffffffffff161415801561132557506000600c8b815481106112f4576112f3615718565b5b90600052602060002090600c0201600601828154811061131757611316615718565b5b906000526020600020015414155b156114315761134a8582600a81106113405761133f615718565b5b6020020151614442565b611394600c8b8154811061136157611360615718565b5b90600052602060002090600c0201600501828154811061138457611383615718565b5b90600052602060002001546143a9565b600c8a815481106113a8576113a7615718565b5b90600052602060002090600c020160050181815481106113cb576113ca615718565b5b90600052602060002001548482600a81106113e9576113e8615718565b5b6020020181815250506114306040518060400160405280600c81526020017f73686f727420746f6b656e730000000000000000000000000000000000000000815250614442565b5b5b808061143d90615a18565b915050610f65565b50611467836000600a811061145d5761145c615718565b5b60200201516143a9565b838383839750975097509750505050509193509193565b60008060008373ffffffffffffffffffffffffffffffffffffffff1673ffffffffffffffffffffffffffffffffffffffff168152602001908152602001600020549050919050565b6114ce6144db565b6114d86000614559565b565b60608060608060606000600c6001600c805490506114f891906156e4565b8154811061150957611508615718565b5b90600052602060002090600c020190506000816007018860405161152d9190615783565b908152602001604051809103902080549050905060008167ffffffffffffffff81111561155d5761155c614b37565b5b60405190808252806020026020018201604052801561158b5781602001602082028036833780820191505090505b50905060008267ffffffffffffffff8111156115aa576115a9614b37565b5b6040519080825280602002602001820160405280156115d85781602001602082028036833780820191505090505b50905060008367ffffffffffffffff8111156115f7576115f6614b37565b5b6040519080825280602002602001820160405280156116255781602001602082028036833780820191505090505b50905060008467ffffffffffffffff81111561164457611643614b37565b5b60405190808252806020026020018201604052801561167757816020015b60608152602001906001900390816116625790505b50905060008567ffffffffffffffff81111561169657611695614b37565b5b6040519080825280602002602001820160405280156116c957816020015b60608152602001906001900390816116b45790505b50905060005b86811015611a095761171c886007018f6040516116ec9190615783565b9081526020016040518091039020828154811061170c5761170b615718565b5b90600052602060002001546143a9565b876007018e60405161172e9190615783565b9081526020016040518091039020818154811061174e5761174d615718565b5b906000526020600020015486828151811061176c5761176b615718565b5b602002602001018181525050876008018e60405161178a9190615783565b908152602001604051809103902081815481106117aa576117a9615718565b5b90600052602060002001548582815181106117c8576117c7615718565b5b602002602001018181525050876009018e6040516117e69190615783565b9081526020016040518091039020818154811061180657611805615718565b5b906000526020600020015484828151811061182457611823615718565b5b60200260200101818152505087600a018e6040516118429190615783565b9081526020016040518091039020818154811061186257611861615718565b5b90600052602060002001805461187790615552565b80601f01602080910402602001604051908101604052809291908181526020018280546118a390615552565b80156118f05780601f106118c5576101008083540402835291602001916118f0565b820191906000526020600020905b8154815290600101906020018083116118d357829003601f168201915b505050505083828151811061190857611907615718565b5b602002602001018190525087600b018e6040516119259190615783565b9081526020016040518091039020818154811061194557611944615718565b5b90600052602060002001805461195a90615552565b80601f016020809104026020016040519081016040528092919081815260200182805461198690615552565b80156119d35780601f106119a8576101008083540402835291602001916119d3565b820191906000526020600020905b8154815290600101906020018083116119b657829003601f168201915b50505050508282815181106119eb576119ea615718565b5b60200260200101819052508080611a0190615a18565b9150506116cf565b5084848484849b509b509b509b509b505050505050505091939590929450565b6000600560009054906101000a900473ffffffffffffffffffffffffffffffffffffffff16905090565b606060048054611a6290615552565b80601f0160208091040260200160405190810160405280929190818152602001828054611a8e90615552565b8015611adb5780601f10611ab057610100808354040283529160200191611adb565b820191906000526020600020905b815481529060010190602001808311611abe57829003601f168201915b5050505050905090565b600080611af0613ed6565b90506000611afe8286611bad565b905083811015611b43576040517f08c379a0000000000000000000000000000000000000000000000000000000008152600401611b3a90615ad2565b60405180910390fd5b611b508286868403613ede565b60019250505092915050565b600080611b67613ed6565b9050611b74818585614133565b600191505092915050565b600b818051602081018201805184825260208301602085012081835280955050505050506000915090505481565b6000600160008473ffffffffffffffffffffffffffffffffffffffff1673ffffffffffffffffffffffffffffffffffffffff16815260200190815260200160002060008373ffffffffffffffffffffffffffffffffffffffff1673ffffffffffffffffffffffffffffffffffffffff16815260200190815260200160002054905092915050565b6000604051602001611c4590615b3e565b6040516020818303038152906040528051906020012090506001600c805490501115612eba5760005b835181101561229057600073ffffffffffffffffffffffffffffffffffffffff166009858381518110611ca457611ca3615718565b5b6020026020010151604051611cb99190615783565b908152602001604051809103902060009054906101000a900473ffffffffffffffffffffffffffffffffffffffff1673ffffffffffffffffffffffffffffffffffffffff1614611f7a5760006009858381518110611d1a57611d19615718565b5b6020026020010151604051611d2f9190615783565b908152602001604051809103902060009054906101000a900473ffffffffffffffffffffffffffffffffffffffff1673ffffffffffffffffffffffffffffffffffffffff166370a08231306040518263ffffffff1660e01b8152600401611d9691906153d5565b602060405180830381865afa158015611db3573d6000803e3d6000fd5b505050506040513d601f19601f82011682018060405250810190611dd79190615b68565b118015611e24575081848281518110611df357611df2615718565b5b6020026020010151604051602001611e0b9190615783565b6040516020818303038152906040528051906020012014155b15611f7557611f746009858381518110611e4157611e40615718565b5b6020026020010151604051611e569190615783565b908152602001604051809103902060009054906101000a900473ffffffffffffffffffffffffffffffffffffffff1673c778417e063141139fce010982780140aa0cd5ab6009878581518110611eaf57611eae615718565b5b6020026020010151604051611ec49190615783565b908152602001604051809103902060009054906101000a900473ffffffffffffffffffffffffffffffffffffffff1673ffffffffffffffffffffffffffffffffffffffff166370a08231306040518263ffffffff1660e01b8152600401611f2b91906153d5565b602060405180830381865afa158015611f48573d6000803e3d6000fd5b505050506040513d601f19601f82011682018060405250810190611f6c9190615b68565b60003061393f565b5b61227d565b600073ffffffffffffffffffffffffffffffffffffffff16600a858381518110611fa757611fa6615718565b5b6020026020010151604051611fbc9190615783565b908152602001604051809103902060009054906101000a900473ffffffffffffffffffffffffffffffffffffffff1673ffffffffffffffffffffffffffffffffffffffff16141580156120e057506000600a85838151811061202157612020615718565b5b60200260200101516040516120369190615783565b908152602001604051809103902060009054906101000a900473ffffffffffffffffffffffffffffffffffffffff1673ffffffffffffffffffffffffffffffffffffffff166370a08231306040518263ffffffff1660e01b815260040161209d91906153d5565b602060405180830381865afa1580156120ba573d6000803e3d6000fd5b505050506040513d601f19601f820116820180604052508101906120de9190615b68565b115b1561227c57600a8482815181106120fa576120f9615718565b5b602002602001015160405161210f9190615783565b908152602001604051809103902060009054906101000a900473ffffffffffffffffffffffffffffffffffffffff1673ffffffffffffffffffffffffffffffffffffffff16639dc29fac30600a87858151811061216f5761216e615718565b5b60200260200101516040516121849190615783565b908152602001604051809103902060009054906101000a900473ffffffffffffffffffffffffffffffffffffffff1673ffffffffffffffffffffffffffffffffffffffff166370a08231306040518263ffffffff1660e01b81526004016121eb91906153d5565b602060405180830381865afa158015612208573d6000803e3d6000fd5b505050506040513d601f19601f8201168201806040525081019061222c9190615b68565b6040518363ffffffff1660e01b8152600401612249929190615b95565b600060405180830381600087803b15801561226357600080fd5b505af1158015612277573d6000803e3d6000fd5b505050505b5b808061228890615a18565b915050611c6e565b5073c778417e063141139fce010982780140aa0cd5ab73ffffffffffffffffffffffffffffffffffffffff166370a08231306040518263ffffffff1660e01b81526004016122de91906153d5565b6020604051808303816000875af11580156122fd573d6000803e3d6000fd5b505050506040513d601f19601f820116820180604052508101906123219190615b68565b600c6002600c8054905061233591906156e4565b8154811061234657612345615718565b5b90600052602060002090600c02016003018190555042600c6002600c8054905061237091906156e4565b8154811061238157612380615718565b5b90600052602060002090600c02016001018190555073c778417e063141139fce010982780140aa0cd5ab73ffffffffffffffffffffffffffffffffffffffff166370a08231306040518263ffffffff1660e01b81526004016123e391906153d5565b6020604051808303816000875af1158015612402573d6000803e3d6000fd5b505050506040513d601f19601f820116820180604052508101906124269190615b68565b600c6001600c8054905061243a91906156e4565b8154811061244b5761244a615718565b5b90600052602060002090600c02016002018190555042600c6001600c8054905061247591906156e4565b8154811061248657612485615718565b5b90600052602060002090600c02016000018190555073c778417e063141139fce010982780140aa0cd5ab73ffffffffffffffffffffffffffffffffffffffff166370a08231306040518263ffffffff1660e01b81526004016124e891906153d5565b6020604051808303816000875af1158015612507573d6000803e3d6000fd5b505050506040513d601f19601f8201168201806040525081019061252b9190615b68565b60078190555073c778417e063141139fce010982780140aa0cd5ab73ffffffffffffffffffffffffffffffffffffffff1663d0e30db0476040518263ffffffff1660e01b81526004016000604051808303818588803b15801561258d57600080fd5b505af11580156125a1573d6000803e3d6000fd5b505050505060005b8351811015612e93578281815181106125c5576125c4615718565b5b6020026020010151600b8583815181106125e2576125e1615718565b5b60200260200101516040516125f79190615783565b908152602001604051809103902081905550600c6001600c8054905061261d91906156e4565b8154811061262e5761262d615718565b5b90600052602060002090600c020160060183828151811061265257612651615718565b5b60200260200101519080600181540180825580915050600190039060005260206000200160009091909190915055600c6001600c8054905061269491906156e4565b815481106126a5576126a4615718565b5b90600052602060002090600c02016004018482815181106126c9576126c8615718565b5b60200260200101519080600181540180825580915050600190039060005260206000200160009091909190915090816127029190615946565b50600083828151811061271857612717615718565b5b60200260200101510361278857600c6001600c8054905061273991906156e4565b8154811061274a57612749615718565b5b90600052602060002090600c020160050160009080600181540180825580915050600190039060005260206000200160009091909190915055612e80565b73c778417e063141139fce010982780140aa0cd5ab73ffffffffffffffffffffffffffffffffffffffff1660098583815181106127c8576127c7615718565b5b60200260200101516040516127dd9190615783565b908152602001604051809103902060009054906101000a900473ffffffffffffffffffffffffffffffffffffffff1673ffffffffffffffffffffffffffffffffffffffff16036128be576000606484838151811061283e5761283d615718565b5b60200260200101516007546128539190615bbe565b61285d9190615c2f565b9050600c6001600c8054905061287391906156e4565b8154811061288457612883615718565b5b90600052602060002090600c0201600501819080600181540180825580915050600190039060005260206000200160009091909190915055505b60008382815181106128d3576128d2615718565b5b6020026020010151141580156129295750818482815181106128f8576128f7615718565b5b60200260200101516040516020016129109190615783565b6040516020818303038152906040528051906020012014155b15612e7f57600073ffffffffffffffffffffffffffffffffffffffff16600985838151811061295b5761295a615718565b5b60200260200101516040516129709190615783565b908152602001604051809103902060009054906101000a900473ffffffffffffffffffffffffffffffffffffffff1673ffffffffffffffffffffffffffffffffffffffff16141580156129de575060008382815181106129d3576129d2615718565b5b602002602001015114155b15612bc557600060648483815181106129fa576129f9615718565b5b6020026020010151600754612a0f9190615bbe565b612a199190615c2f565b9050612a9573c778417e063141139fce010982780140aa0cd5ab6009878581518110612a4857612a47615718565b5b6020026020010151604051612a5d9190615783565b908152602001604051809103902060009054906101000a900473ffffffffffffffffffffffffffffffffffffffff168360003061393f565b600c6001600c80549050612aa991906156e4565b81548110612aba57612ab9615718565b5b90600052602060002090600c02016005016009868481518110612ae057612adf615718565b5b6020026020010151604051612af59190615783565b908152602001604051809103902060009054906101000a900473ffffffffffffffffffffffffffffffffffffffff1673ffffffffffffffffffffffffffffffffffffffff166370a08231306040518263ffffffff1660e01b8152600401612b5c91906153d5565b602060405180830381865afa158015612b79573d6000803e3d6000fd5b505050506040513d601f19601f82011682018060405250810190612b9d9190615b68565b9080600181540180825580915050600190039060005260206000200160009091909190915055505b600073ffffffffffffffffffffffffffffffffffffffff16600a858381518110612bf257612bf1615718565b5b6020026020010151604051612c079190615783565b908152602001604051809103902060009054906101000a900473ffffffffffffffffffffffffffffffffffffffff1673ffffffffffffffffffffffffffffffffffffffff1614612e7e5760006064848381518110612c6857612c67615718565b5b6020026020010151600754612c7d9190615bbe565b612c879190615c2f565b9050600a858381518110612c9e57612c9d615718565b5b6020026020010151604051612cb39190615783565b908152602001604051809103902060009054906101000a900473ffffffffffffffffffffffffffffffffffffffff1673ffffffffffffffffffffffffffffffffffffffff166340c10f1930836040518363ffffffff1660e01b8152600401612d1c929190615b95565b600060405180830381600087803b158015612d3657600080fd5b505af1158015612d4a573d6000803e3d6000fd5b50505050600c6001600c80549050612d6291906156e4565b81548110612d7357612d72615718565b5b90600052602060002090600c0201600501600a868481518110612d9957612d98615718565b5b6020026020010151604051612dae9190615783565b908152602001604051809103902060009054906101000a900473ffffffffffffffffffffffffffffffffffffffff1673ffffffffffffffffffffffffffffffffffffffff166370a08231306040518263ffffffff1660e01b8152600401612e1591906153d5565b602060405180830381865afa158015612e32573d6000803e3d6000fd5b505050506040513d601f19601f82011682018060405250810190612e569190615b68565b9080600181540180825580915050600190039060005260206000200160009091909190915055505b5b5b8080612e8b90615a18565b9150506125a9565b506000600c6001816001815401808255809150500390600052602060002090600c02019050505b6001600c805490500361393a5773c778417e063141139fce010982780140aa0cd5ab73ffffffffffffffffffffffffffffffffffffffff1663d0e30db0476040518263ffffffff1660e01b81526004016000604051808303818588803b158015612f2357600080fd5b505af1158015612f37573d6000803e3d6000fd5b505050505073c778417e063141139fce010982780140aa0cd5ab73ffffffffffffffffffffffffffffffffffffffff166370a08231306040518263ffffffff1660e01b8152600401612f8991906153d5565b6020604051808303816000875af1158015612fa8573d6000803e3d6000fd5b505050506040513d601f19601f82011682018060405250810190612fcc9190615b68565b60078190555042600c6001600c80549050612fe791906156e4565b81548110612ff857612ff7615718565b5b90600052602060002090600c020160000181905550600754600c6001600c8054905061302491906156e4565b8154811061303557613034615718565b5b90600052602060002090600c02016002018190555060005b83518110156139135782818151811061306957613068615718565b5b6020026020010151600b85838151811061308657613085615718565b5b602002602001015160405161309b9190615783565b908152602001604051809103902081905550600c6001600c805490506130c191906156e4565b815481106130d2576130d1615718565b5b90600052602060002090600c02016006018382815181106130f6576130f5615718565b5b60200260200101519080600181540180825580915050600190039060005260206000200160009091909190915055600c6001600c8054905061313891906156e4565b8154811061314957613148615718565b5b90600052602060002090600c020160040184828151811061316d5761316c615718565b5b60200260200101519080600181540180825580915050600190039060005260206000200160009091909190915090816131a69190615946565b5060008382815181106131bc576131bb615718565b5b60200260200101510361322c57600c6001600c805490506131dd91906156e4565b815481106131ee576131ed615718565b5b90600052602060002090600c020160050160009080600181540180825580915050600190039060005260206000200160009091909190915055613900565b73c778417e063141139fce010982780140aa0cd5ab73ffffffffffffffffffffffffffffffffffffffff16600985838151811061326c5761326b615718565b5b60200260200101516040516132819190615783565b908152602001604051809103902060009054906101000a900473ffffffffffffffffffffffffffffffffffffffff1673ffffffffffffffffffffffffffffffffffffffff160361336257600060648483815181106132e2576132e1615718565b5b60200260200101516007546132f79190615bbe565b6133019190615c2f565b9050600c6001600c8054905061331791906156e4565b8154811061332857613327615718565b5b90600052602060002090600c0201600501819080600181540180825580915050600190039060005260206000200160009091909190915055505b600083828151811061337757613376615718565b5b6020026020010151141580156133cd57508184828151811061339c5761339b615718565b5b60200260200101516040516020016133b49190615783565b6040516020818303038152906040528051906020012014155b156138ff57600073ffffffffffffffffffffffffffffffffffffffff1660098583815181106133ff576133fe615718565b5b60200260200101516040516134149190615783565b908152602001604051809103902060009054906101000a900473ffffffffffffffffffffffffffffffffffffffff1673ffffffffffffffffffffffffffffffffffffffff1614613644576000606484838151811061347557613474615718565b5b602002602001015160075461348a9190615bbe565b6134949190615c2f565b905061351073c778417e063141139fce010982780140aa0cd5ab60098785815181106134c3576134c2615718565b5b60200260200101516040516134d89190615783565b908152602001604051809103902060009054906101000a900473ffffffffffffffffffffffffffffffffffffffff168360003061393f565b600c6001600c8054905061352491906156e4565b8154811061353557613534615718565b5b90600052602060002090600c0201600501600986848151811061355b5761355a615718565b5b60200260200101516040516135709190615783565b908152602001604051809103902060009054906101000a900473ffffffffffffffffffffffffffffffffffffffff1673ffffffffffffffffffffffffffffffffffffffff166370a08231306040518263ffffffff1660e01b81526004016135d791906153d5565b602060405180830381865afa1580156135f4573d6000803e3d6000fd5b505050506040513d601f19601f820116820180604052508101906136189190615b68565b9080600181540180825580915050600190039060005260206000200160009091909190915055506138fe565b600073ffffffffffffffffffffffffffffffffffffffff16600a85838151811061367157613670615718565b5b60200260200101516040516136869190615783565b908152602001604051809103902060009054906101000a900473ffffffffffffffffffffffffffffffffffffffff1673ffffffffffffffffffffffffffffffffffffffff16146138fd57600060648483815181106136e7576136e6615718565b5b60200260200101516007546136fc9190615bbe565b6137069190615c2f565b9050600a85838151811061371d5761371c615718565b5b60200260200101516040516137329190615783565b908152602001604051809103902060009054906101000a900473ffffffffffffffffffffffffffffffffffffffff1673ffffffffffffffffffffffffffffffffffffffff166340c10f1930836040518363ffffffff1660e01b815260040161379b929190615b95565b600060405180830381600087803b1580156137b557600080fd5b505af11580156137c9573d6000803e3d6000fd5b50505050600c6001600c805490506137e191906156e4565b815481106137f2576137f1615718565b5b90600052602060002090600c0201600501600a86848151811061381857613817615718565b5b602002602001015160405161382d9190615783565b908152602001604051809103902060009054906101000a900473ffffffffffffffffffffffffffffffffffffffff1673ffffffffffffffffffffffffffffffffffffffff166370a08231306040518263ffffffff1660e01b815260040161389491906153d5565b602060405180830381865afa1580156138b1573d6000803e3d6000fd5b505050506040513d601f19601f820116820180604052508101906138d59190615b68565b9080600181540180825580915050600190039060005260206000200160009091909190915055505b5b5b5b808061390b90615a18565b91505061304d565b506000600c6001816001815401808255809150500390600052602060002090600c02019050505b505050565b8473ffffffffffffffffffffffffffffffffffffffff1663095ea7b3737a250d5630b4cf539739df2c5dacb4c659f2488d856040518363ffffffff1660e01b815260040161398e929190615b95565b6020604051808303816000875af11580156139ad573d6000803e3d6000fd5b505050506040513d601f19601f820116820180604052508101906139d19190615c8c565b50606073c778417e063141139fce010982780140aa0cd5ab73ffffffffffffffffffffffffffffffffffffffff168673ffffffffffffffffffffffffffffffffffffffff161480613a61575073c778417e063141139fce010982780140aa0cd5ab73ffffffffffffffffffffffffffffffffffffffff168573ffffffffffffffffffffffffffffffffffffffff16145b15613b5557600267ffffffffffffffff811115613a8157613a80614b37565b5b604051908082528060200260200182016040528015613aaf5781602001602082028036833780820191505090505b5090508581600081518110613ac757613ac6615718565b5b602002602001019073ffffffffffffffffffffffffffffffffffffffff16908173ffffffffffffffffffffffffffffffffffffffff16815250508481600181518110613b1657613b15615718565b5b602002602001019073ffffffffffffffffffffffffffffffffffffffff16908173ffffffffffffffffffffffffffffffffffffffff1681525050613ca3565b600367ffffffffffffffff811115613b7057613b6f614b37565b5b604051908082528060200260200182016040528015613b9e5781602001602082028036833780820191505090505b5090508581600081518110613bb657613bb5615718565b5b602002602001019073ffffffffffffffffffffffffffffffffffffffff16908173ffffffffffffffffffffffffffffffffffffffff168152505073c778417e063141139fce010982780140aa0cd5ab81600181518110613c1957613c18615718565b5b602002602001019073ffffffffffffffffffffffffffffffffffffffff16908173ffffffffffffffffffffffffffffffffffffffff16815250508481600281518110613c6857613c67615718565b5b602002602001019073ffffffffffffffffffffffffffffffffffffffff16908173ffffffffffffffffffffffffffffffffffffffff16815250505b737a250d5630b4cf539739df2c5dacb4c659f2488d73ffffffffffffffffffffffffffffffffffffffff166338ed173985858486426040518663ffffffff1660e01b8152600401613cf8959493929190615d77565b6000604051808303816000875af1158015613d17573d6000803e3d6000fd5b505050506040513d6000823e3d601f19601f82011682018060405250810190613d409190615e68565b50505050505050565b60006001600c80549050613d5d91906156e4565b905090565b613d6a6144db565b600073ffffffffffffffffffffffffffffffffffffffff168173ffffffffffffffffffffffffffffffffffffffff1603613dd9576040517f08c379a0000000000000000000000000000000000000000000000000000000008152600401613dd090615f23565b60405180910390fd5b613de281614559565b50565b67016345785d8a0000341015613e30576040517f08c379a0000000000000000000000000000000000000000000000000000000008152600401613e2790615f8f565b60405180910390fd5b60003447613e3e91906156e4565b905060008103613e735734600681905550613e6e33670de0b6b3a7640000600654613e699190615bbe565b61461f565b613ed3565b3481613e7f91906155b2565b905060003482613e8f91906156e4565b9050600081613e9c6106aa565b34613ea79190615bbe565b613eb19190615c2f565b9050613ed033670de0b6b3a764000083613ecb9190615bbe565b61461f565b50505b50565b600033905090565b600073ffffffffffffffffffffffffffffffffffffffff168373ffffffffffffffffffffffffffffffffffffffff1603613f4d576040517f08c379a0000000000000000000000000000000000000000000000000000000008152600401613f4490616021565b60405180910390fd5b600073ffffffffffffffffffffffffffffffffffffffff168273ffffffffffffffffffffffffffffffffffffffff1603613fbc576040517f08c379a0000000000000000000000000000000000000000000000000000000008152600401613fb3906160b3565b60405180910390fd5b80600160008573ffffffffffffffffffffffffffffffffffffffff1673ffffffffffffffffffffffffffffffffffffffff16815260200190815260200160002060008473ffffffffffffffffffffffffffffffffffffffff1673ffffffffffffffffffffffffffffffffffffffff168152602001908152602001600020819055508173ffffffffffffffffffffffffffffffffffffffff168373ffffffffffffffffffffffffffffffffffffffff167f8c5be1e5ebec7d5bd14f71427d1e84f3dd0314c0f7b2291e5b200ac8c7c3b9258360405161409a9190614a8d565b60405180910390a3505050565b60006140b38484611bad565b90507fffffffffffffffffffffffffffffffffffffffffffffffffffffffffffffffff811461412d578181101561411f576040517f08c379a00000000000000000000000000000000000000000000000000000000081526004016141169061611f565b60405180910390fd5b61412c8484848403613ede565b5b50505050565b600073ffffffffffffffffffffffffffffffffffffffff168373ffffffffffffffffffffffffffffffffffffffff16036141a2576040517f08c379a0000000000000000000000000000000000000000000000000000000008152600401614199906161b1565b60405180910390fd5b600073ffffffffffffffffffffffffffffffffffffffff168273ffffffffffffffffffffffffffffffffffffffff1603614211576040517f08c379a000000000000000000000000000000000000000000000000000000000815260040161420890616243565b60405180910390fd5b61421c838383614775565b60008060008573ffffffffffffffffffffffffffffffffffffffff1673ffffffffffffffffffffffffffffffffffffffff168152602001908152602001600020549050818110156142a2576040517f08c379a0000000000000000000000000000000000000000000000000000000008152600401614299906162d5565b60405180910390fd5b8181036000808673ffffffffffffffffffffffffffffffffffffffff1673ffffffffffffffffffffffffffffffffffffffff16815260200190815260200160002081905550816000808573ffffffffffffffffffffffffffffffffffffffff1673ffffffffffffffffffffffffffffffffffffffff168152602001908152602001600020600082825401925050819055508273ffffffffffffffffffffffffffffffffffffffff168473ffffffffffffffffffffffffffffffffffffffff167fddf252ad1be2c89b69c2b068fc378daa952ba7f163c4a11628f55a4df523b3ef846040516143909190614a8d565b60405180910390a36143a384848461477a565b50505050565b61443f816040516024016143bd9190614a8d565b6040516020818303038152906040527ff82c50f1000000000000000000000000000000000000000000000000000000007bffffffffffffffffffffffffffffffffffffffffffffffffffffffff19166020820180517bffffffffffffffffffffffffffffffffffffffffffffffffffffffff838183161783525050505061477f565b50565b6144d8816040516024016144569190614997565b6040516020818303038152906040527f41304fac000000000000000000000000000000000000000000000000000000007bffffffffffffffffffffffffffffffffffffffffffffffffffffffff19166020820180517bffffffffffffffffffffffffffffffffffffffffffffffffffffffff838183161783525050505061477f565b50565b6144e3613ed6565b73ffffffffffffffffffffffffffffffffffffffff16614501611a29565b73ffffffffffffffffffffffffffffffffffffffff1614614557576040517f08c379a000000000000000000000000000000000000000000000000000000000815260040161454e90616341565b60405180910390fd5b565b6000600560009054906101000a900473ffffffffffffffffffffffffffffffffffffffff16905081600560006101000a81548173ffffffffffffffffffffffffffffffffffffffff021916908373ffffffffffffffffffffffffffffffffffffffff1602179055508173ffffffffffffffffffffffffffffffffffffffff168173ffffffffffffffffffffffffffffffffffffffff167f8be0079c531659141344cd1fd0a4f28419497f9722a3daafe3b4186f6b6457e060405160405180910390a35050565b600073ffffffffffffffffffffffffffffffffffffffff168273ffffffffffffffffffffffffffffffffffffffff160361468e576040517f08c379a0000000000000000000000000000000000000000000000000000000008152600401614685906163ad565b60405180910390fd5b61469a60008383614775565b80600260008282546146ac91906155b2565b92505081905550806000808473ffffffffffffffffffffffffffffffffffffffff1673ffffffffffffffffffffffffffffffffffffffff168152602001908152602001600020600082825401925050819055508173ffffffffffffffffffffffffffffffffffffffff16600073ffffffffffffffffffffffffffffffffffffffff167fddf252ad1be2c89b69c2b068fc378daa952ba7f163c4a11628f55a4df523b3ef8360405161475d9190614a8d565b60405180910390a36147716000838361477a565b5050565b505050565b505050565b6147968161478e6147996147ba565b63ffffffff16565b50565b60006a636f6e736f6c652e6c6f679050600080835160208501845afa505050565b614832819050919050565b604051806101400160405280600a905b60608152602001906001900390816147d55790505090565b604051806101400160405280600a90602082028036833780820191505090505090565b6040518060400160405280600290602082028036833780820191505090505090565b61483a6163cd565b565b6000604051905090565b600080fd5b600080fd5b6000819050919050565b61486381614850565b811461486e57600080fd5b50565b6000813590506148808161485a565b92915050565b60006020828403121561489c5761489b614846565b5b60006148aa84828501614871565b91505092915050565b6148bc81614850565b82525050565b60006080820190506148d760008301876148b3565b6148e460208301866148b3565b6148f160408301856148b3565b6148fe60608301846148b3565b95945050505050565b600081519050919050565b600082825260208201905092915050565b60005b83811015614941578082015181840152602081019050614926565b60008484015250505050565b6000601f19601f8301169050919050565b600061496982614907565b6149738185614912565b9350614983818560208601614923565b61498c8161494d565b840191505092915050565b600060208201905081810360008301526149b1818461495e565b905092915050565b600073ffffffffffffffffffffffffffffffffffffffff82169050919050565b60006149e4826149b9565b9050919050565b6149f4816149d9565b81146149ff57600080fd5b50565b600081359050614a11816149eb565b92915050565b60008060408385031215614a2e57614a2d614846565b5b6000614a3c85828601614a02565b9250506020614a4d85828601614871565b9150509250929050565b60008115159050919050565b614a6c81614a57565b82525050565b6000602082019050614a876000830184614a63565b92915050565b6000602082019050614aa260008301846148b3565b92915050565b600080600060608486031215614ac157614ac0614846565b5b6000614acf86828701614a02565b9350506020614ae086828701614a02565b9250506040614af186828701614871565b9150509250925092565b600060ff82169050919050565b614b1181614afb565b82525050565b6000602082019050614b2c6000830184614b08565b92915050565b600080fd5b7f4e487b7100000000000000000000000000000000000000000000000000000000600052604160045260246000fd5b614b6f8261494d565b810181811067ffffffffffffffff82111715614b8e57614b8d614b37565b5b80604052505050565b6000614ba161483c565b9050614bad8282614b66565b919050565b600067ffffffffffffffff821115614bcd57614bcc614b37565b5b602082029050602081019050919050565b600080fd5b600080fd5b600067ffffffffffffffff821115614c0357614c02614b37565b5b614c0c8261494d565b9050602081019050919050565b82818337600083830152505050565b6000614c3b614c3684614be8565b614b97565b905082815260208101848484011115614c5757614c56614be3565b5b614c62848285614c19565b509392505050565b600082601f830112614c7f57614c7e614b32565b5b8135614c8f848260208601614c28565b91505092915050565b6000614cab614ca684614bb2565b614b97565b90508083825260208201905060208402830185811115614cce57614ccd614bde565b5b835b81811015614d1557803567ffffffffffffffff811115614cf357614cf2614b32565b5b808601614d008982614c6a565b85526020850194505050602081019050614cd0565b5050509392505050565b600082601f830112614d3457614d33614b32565b5b8135614d44848260208601614c98565b91505092915050565b600067ffffffffffffffff821115614d6857614d67614b37565b5b602082029050602081019050919050565b6000614d8c614d8784614d4d565b614b97565b90508083825260208201905060208402830185811115614daf57614dae614bde565b5b835b81811015614dd85780614dc48882614871565b845260208401935050602081019050614db1565b5050509392505050565b600082601f830112614df757614df6614b32565b5b8135614e07848260208601614d79565b91505092915050565b600080600080600060a08688031215614e2c57614e2b614846565b5b600086013567ffffffffffffffff811115614e4a57614e4961484b565b5b614e5688828901614d1f565b955050602086013567ffffffffffffffff811115614e7757614e7661484b565b5b614e8388828901614de2565b945050604086013567ffffffffffffffff811115614ea457614ea361484b565b5b614eb088828901614de2565b935050606086013567ffffffffffffffff811115614ed157614ed061484b565b5b614edd88828901614d1f565b925050608086013567ffffffffffffffff811115614efe57614efd61484b565b5b614f0a88828901614d1f565b9150509295509295909350565b6000600a9050919050565b600081905092915050565b6000819050919050565b600082825260208201905092915050565b6000614f5382614907565b614f5d8185614f37565b9350614f6d818560208601614923565b614f768161494d565b840191505092915050565b6000614f8d8383614f48565b905092915050565b6000602082019050919050565b6000614fad82614f17565b614fb78185614f22565b935083602082028501614fc985614f2d565b8060005b858110156150055784840389528151614fe68582614f81565b9450614ff183614f95565b925060208a01995050600181019050614fcd565b50829750879550505050505092915050565b6000600a9050919050565b600081905092915050565b6000819050919050565b61504081614850565b82525050565b60006150528383615037565b60208301905092915050565b6000602082019050919050565b61507481615017565b61507e8184615022565b92506150898261502d565b8060005b838110156150ba5781516150a18782615046565b96506150ac8361505e565b92505060018101905061508d565b505050505050565b600060029050919050565b600081905092915050565b6000819050919050565b6000602082019050919050565b6150f8816150c2565b61510281846150cd565b925061510d826150d8565b8060005b8381101561513e5781516151258782615046565b9650615130836150e2565b925050600181019050615111565b505050505050565b60006102e08201905081810360008301526151618187614fa2565b9050615170602083018661506b565b61517e61016083018561506b565b61518c6102a08301846150ef565b95945050505050565b6000602082840312156151ab576151aa614846565b5b60006151b984828501614a02565b91505092915050565b6000602082840312156151d8576151d7614846565b5b600082013567ffffffffffffffff8111156151f6576151f561484b565b5b61520284828501614c6a565b91505092915050565b600081519050919050565b600082825260208201905092915050565b6000819050602082019050919050565b6000602082019050919050565b600061524f8261520b565b6152598185615216565b935061526483615227565b8060005b8381101561529557815161527c8882615046565b975061528783615237565b925050600181019050615268565b5085935050505092915050565b600081519050919050565b600082825260208201905092915050565b6000819050602082019050919050565b6000602082019050919050565b60006152e6826152a2565b6152f081856152ad565b935083602082028501615302856152be565b8060005b8581101561533e578484038952815161531f8582614f81565b945061532a836152ce565b925060208a01995050600181019050615306565b50829750879550505050505092915050565b600060a082019050818103600083015261536a8188615244565b9050818103602083015261537e8187615244565b905081810360408301526153928186615244565b905081810360608301526153a681856152db565b905081810360808301526153ba81846152db565b90509695505050505050565b6153cf816149d9565b82525050565b60006020820190506153ea60008301846153c6565b92915050565b6000806040838503121561540757615406614846565b5b600061541585828601614a02565b925050602061542685828601614a02565b9150509250929050565b6000806040838503121561544757615446614846565b5b600083013567ffffffffffffffff8111156154655761546461484b565b5b61547185828601614d1f565b925050602083013567ffffffffffffffff8111156154925761549161484b565b5b61549e85828601614de2565b9150509250929050565b600080600080600060a086880312156154c4576154c3614846565b5b60006154d288828901614a02565b95505060206154e388828901614a02565b94505060406154f488828901614871565b935050606061550588828901614871565b925050608061551688828901614a02565b9150509295509295909350565b7f4e487b7100000000000000000000000000000000000000000000000000000000600052602260045260246000fd5b6000600282049050600182168061556a57607f821691505b60208210810361557d5761557c615523565b5b50919050565b7f4e487b7100000000000000000000000000000000000000000000000000000000600052601160045260246000fd5b60006155bd82614850565b91506155c883614850565b92508282019050808211156155e0576155df615583565b5b92915050565b7f4d7573742062652061206d656d62657220746f207573652044414f2066756e6360008201527f74696f6e00000000000000000000000000000000000000000000000000000000602082015250565b6000615642602483614912565b915061564d826155e6565b604082019050919050565b6000602082019050818103600083015261567181615635565b9050919050565b7f417272617973206d757374206265207468652073616d652073697a6500000000600082015250565b60006156ae601c83614912565b91506156b982615678565b602082019050919050565b600060208201905081810360008301526156dd816156a1565b9050919050565b60006156ef82614850565b91506156fa83614850565b925082820390508181111561571257615711615583565b5b92915050565b7f4e487b7100000000000000000000000000000000000000000000000000000000600052603260045260246000fd5b600081905092915050565b600061575d82614907565b6157678185615747565b9350615777818560208601614923565b80840191505092915050565b600061578f8284615752565b915081905092915050565b60008190508160005260206000209050919050565b60006020601f8301049050919050565b600082821b905092915050565b6000600883026157fc7fffffffffffffffffffffffffffffffffffffffffffffffffffffffffffffffff826157bf565b61580686836157bf565b95508019841693508086168417925050509392505050565b6000819050919050565b600061584361583e61583984614850565b61581e565b614850565b9050919050565b6000819050919050565b61585d83615828565b6158716158698261584a565b8484546157cc565b825550505050565b600090565b615886615879565b615891818484615854565b505050565b5b818110156158b5576158aa60008261587e565b600181019050615897565b5050565b601f8211156158fa576158cb8161579a565b6158d4846157af565b810160208510156158e3578190505b6158f76158ef856157af565b830182615896565b50505b505050565b600082821c905092915050565b600061591d600019846008026158ff565b1980831691505092915050565b6000615936838361590c565b9150826002028217905092915050565b61594f82614907565b67ffffffffffffffff81111561596857615967614b37565b5b6159728254615552565b61597d8282856158b9565b600060209050601f8311600181146159b0576000841561599e578287015190505b6159a8858261592a565b865550615a10565b601f1984166159be8661579a565b60005b828110156159e6578489015182556001820191506020850194506020810190506159c1565b86831015615a0357848901516159ff601f89168261590c565b8355505b6001600288020188555050505b505050505050565b6000615a2382614850565b91507fffffffffffffffffffffffffffffffffffffffffffffffffffffffffffffffff8203615a5557615a54615583565b5b600182019050919050565b7f45524332303a2064656372656173656420616c6c6f77616e63652062656c6f7760008201527f207a65726f000000000000000000000000000000000000000000000000000000602082015250565b6000615abc602583614912565b9150615ac782615a60565b604082019050919050565b60006020820190508181036000830152615aeb81615aaf565b9050919050565b7f5745544800000000000000000000000000000000000000000000000000000000600082015250565b6000615b28600483615747565b9150615b3382615af2565b600482019050919050565b6000615b4982615b1b565b9150819050919050565b600081519050615b628161485a565b92915050565b600060208284031215615b7e57615b7d614846565b5b6000615b8c84828501615b53565b91505092915050565b6000604082019050615baa60008301856153c6565b615bb760208301846148b3565b9392505050565b6000615bc982614850565b9150615bd483614850565b9250828202615be281614850565b91508282048414831517615bf957615bf8615583565b5b5092915050565b7f4e487b7100000000000000000000000000000000000000000000000000000000600052601260045260246000fd5b6000615c3a82614850565b9150615c4583614850565b925082615c5557615c54615c00565b5b828204905092915050565b615c6981614a57565b8114615c7457600080fd5b50565b600081519050615c8681615c60565b92915050565b600060208284031215615ca257615ca1614846565b5b6000615cb084828501615c77565b91505092915050565b600081519050919050565b600082825260208201905092915050565b6000819050602082019050919050565b615cee816149d9565b82525050565b6000615d008383615ce5565b60208301905092915050565b6000602082019050919050565b6000615d2482615cb9565b615d2e8185615cc4565b9350615d3983615cd5565b8060005b83811015615d6a578151615d518882615cf4565b9750615d5c83615d0c565b925050600181019050615d3d565b5085935050505092915050565b600060a082019050615d8c60008301886148b3565b615d9960208301876148b3565b8181036040830152615dab8186615d19565b9050615dba60608301856153c6565b615dc760808301846148b3565b9695505050505050565b6000615de4615ddf84614d4d565b614b97565b90508083825260208201905060208402830185811115615e0757615e06614bde565b5b835b81811015615e305780615e1c8882615b53565b845260208401935050602081019050615e09565b5050509392505050565b600082601f830112615e4f57615e4e614b32565b5b8151615e5f848260208601615dd1565b91505092915050565b600060208284031215615e7e57615e7d614846565b5b600082015167ffffffffffffffff811115615e9c57615e9b61484b565b5b615ea884828501615e3a565b91505092915050565b7f4f776e61626c653a206e6577206f776e657220697320746865207a65726f206160008201527f6464726573730000000000000000000000000000000000000000000000000000602082015250565b6000615f0d602683614912565b9150615f1882615eb1565b604082019050919050565b60006020820190508181036000830152615f3c81615f00565b9050919050565b7f4d696e696d756d2062757920696e20697320302e312065746865720000000000600082015250565b6000615f79601b83614912565b9150615f8482615f43565b602082019050919050565b60006020820190508181036000830152615fa881615f6c565b9050919050565b7f45524332303a20617070726f76652066726f6d20746865207a65726f2061646460008201527f7265737300000000000000000000000000000000000000000000000000000000602082015250565b600061600b602483614912565b915061601682615faf565b604082019050919050565b6000602082019050818103600083015261603a81615ffe565b9050919050565b7f45524332303a20617070726f766520746f20746865207a65726f20616464726560008201527f7373000000000000000000000000000000000000000000000000000000000000602082015250565b600061609d602283614912565b91506160a882616041565b604082019050919050565b600060208201905081810360008301526160cc81616090565b9050919050565b7f45524332303a20696e73756666696369656e7420616c6c6f77616e6365000000600082015250565b6000616109601d83614912565b9150616114826160d3565b602082019050919050565b60006020820190508181036000830152616138816160fc565b9050919050565b7f45524332303a207472616e736665722066726f6d20746865207a65726f20616460008201527f6472657373000000000000000000000000000000000000000000000000000000602082015250565b600061619b602583614912565b91506161a68261613f565b604082019050919050565b600060208201905081810360008301526161ca8161618e565b9050919050565b7f45524332303a207472616e7366657220746f20746865207a65726f206164647260008201527f6573730000000000000000000000000000000000000000000000000000000000602082015250565b600061622d602383614912565b9150616238826161d1565b604082019050919050565b6000602082019050818103600083015261625c81616220565b9050919050565b7f45524332303a207472616e7366657220616d6f756e742065786365656473206260008201527f616c616e63650000000000000000000000000000000000000000000000000000602082015250565b60006162bf602683614912565b91506162ca82616263565b604082019050919050565b600060208201905081810360008301526162ee816162b2565b9050919050565b7f4f776e61626c653a2063616c6c6572206973206e6f7420746865206f776e6572600082015250565b600061632b602083614912565b9150616336826162f5565b602082019050919050565b6000602082019050818103600083015261635a8161631e565b9050919050565b7f45524332303a206d696e7420746f20746865207a65726f206164647265737300600082015250565b6000616397601f83614912565b91506163a282616361565b602082019050919050565b600060208201905081810360008301526163c68161638a565b9050919050565b7f4e487b7100000000000000000000000000000000000000000000000000000000600052605160045260246000fdfea26469706673582212208f7d8098cb365061279d34059653751deada98a2c3f728a137f97ef7240bce9964736f6c63430008130033",
  "linkReferences": {},
  "deployedLinkReferences": {}
}