{
  "_format": "hh-sol-artifact-1",
  "contractName": "OptimizerDAO",
  "sourceName": "contracts/OptimizerDAO.sol",
  "abi": [
    {
      "inputs": [],
      "stateMutability": "nonpayable",
      "type": "constructor"
    },
    {
      "anonymous": false,
      "inputs": [
        {
          "indexed": true,
          "internalType": "address",
          "name": "owner",
          "type": "address"
        },
        {
          "indexed": true,
          "internalType": "address",
          "name": "spender",
          "type": "address"
        },
        {
          "indexed": false,
          "internalType": "uint256",
          "name": "value",
          "type": "uint256"
        }
      ],
      "name": "Approval",
      "type": "event"
    },
    {
      "anonymous": false,
      "inputs": [
        {
          "indexed": true,
          "internalType": "address",
          "name": "from",
          "type": "address"
        },
        {
          "indexed": true,
          "internalType": "address",
          "name": "to",
          "type": "address"
        },
        {
          "indexed": false,
          "internalType": "uint256",
          "name": "value",
          "type": "uint256"
        }
      ],
      "name": "Transfer",
      "type": "event"
    },
    {
      "inputs": [
        {
          "internalType": "address",
          "name": "_tokenIn",
          "type": "address"
        },
        {
          "internalType": "address",
          "name": "_tokenOut",
          "type": "address"
        },
        {
          "internalType": "uint256",
          "name": "_amountIn",
          "type": "uint256"
        },
        {
          "internalType": "uint256",
          "name": "_amountOutMin",
          "type": "uint256"
        },
        {
          "internalType": "address",
          "name": "_to",
          "type": "address"
        }
      ],
      "name": "_swap",
      "outputs": [],
      "stateMutability": "nonpayable",
      "type": "function"
    },
    {
      "inputs": [
        {
          "internalType": "address",
          "name": "owner",
          "type": "address"
        },
        {
          "internalType": "address",
          "name": "spender",
          "type": "address"
        }
      ],
      "name": "allowance",
      "outputs": [
        {
          "internalType": "uint256",
          "name": "",
          "type": "uint256"
        }
      ],
      "stateMutability": "view",
      "type": "function"
    },
    {
      "inputs": [
        {
          "internalType": "address",
          "name": "spender",
          "type": "address"
        },
        {
          "internalType": "uint256",
          "name": "amount",
          "type": "uint256"
        }
      ],
      "name": "approve",
      "outputs": [
        {
          "internalType": "bool",
          "name": "",
          "type": "bool"
        }
      ],
      "stateMutability": "nonpayable",
      "type": "function"
    },
    {
      "inputs": [
        {
          "internalType": "string",
          "name": "",
          "type": "string"
        }
      ],
      "name": "assetWeightings",
      "outputs": [
        {
          "internalType": "uint256",
          "name": "",
          "type": "uint256"
        }
      ],
      "stateMutability": "view",
      "type": "function"
    },
    {
      "inputs": [
        {
          "internalType": "address",
          "name": "account",
          "type": "address"
        }
      ],
      "name": "balanceOf",
      "outputs": [
        {
          "internalType": "uint256",
          "name": "",
          "type": "uint256"
        }
      ],
      "stateMutability": "view",
      "type": "function"
    },
    {
      "inputs": [],
      "name": "decimals",
      "outputs": [
        {
          "internalType": "uint8",
          "name": "",
          "type": "uint8"
        }
      ],
      "stateMutability": "view",
      "type": "function"
    },
    {
      "inputs": [
        {
          "internalType": "address",
          "name": "spender",
          "type": "address"
        },
        {
          "internalType": "uint256",
          "name": "subtractedValue",
          "type": "uint256"
        }
      ],
      "name": "decreaseAllowance",
      "outputs": [
        {
          "internalType": "bool",
          "name": "",
          "type": "bool"
        }
      ],
      "stateMutability": "nonpayable",
      "type": "function"
    },
    {
      "inputs": [
        {
          "internalType": "uint256",
          "name": "_index",
          "type": "uint256"
        }
      ],
      "name": "getHoldingsDataOfProposal",
      "outputs": [
        {
          "internalType": "string[10]",
          "name": "",
          "type": "string[10]"
        },
        {
          "internalType": "uint256[10]",
          "name": "",
          "type": "uint256[10]"
        },
        {
          "internalType": "uint256[10]",
          "name": "",
          "type": "uint256[10]"
        },
        {
          "internalType": "uint256[2]",
          "name": "",
          "type": "uint256[2]"
        }
      ],
      "stateMutability": "view",
      "type": "function"
    },
    {
      "inputs": [
        {
          "internalType": "string",
          "name": "_token",
          "type": "string"
        }
      ],
      "name": "getProposalVotes",
      "outputs": [
        {
          "internalType": "uint256[]",
          "name": "",
          "type": "uint256[]"
        },
        {
          "internalType": "uint256[]",
          "name": "",
          "type": "uint256[]"
        },
        {
          "internalType": "uint256[]",
          "name": "",
          "type": "uint256[]"
        },
        {
          "internalType": "string[]",
          "name": "",
          "type": "string[]"
        },
        {
          "internalType": "string[]",
          "name": "",
          "type": "string[]"
        }
      ],
      "stateMutability": "view",
      "type": "function"
    },
    {
      "inputs": [
        {
          "internalType": "address",
          "name": "spender",
          "type": "address"
        },
        {
          "internalType": "uint256",
          "name": "addedValue",
          "type": "uint256"
        }
      ],
      "name": "increaseAllowance",
      "outputs": [
        {
          "internalType": "bool",
          "name": "",
          "type": "bool"
        }
      ],
      "stateMutability": "nonpayable",
      "type": "function"
    },
    {
      "inputs": [
        {
          "internalType": "string[]",
          "name": "_assets",
          "type": "string[]"
        },
        {
          "internalType": "uint256[]",
          "name": "_percentage",
          "type": "uint256[]"
        }
      ],
      "name": "initiateTradesOnUniswap",
      "outputs": [],
      "stateMutability": "nonpayable",
      "type": "function"
    },
    {
      "inputs": [],
      "name": "joinDAO",
      "outputs": [],
      "stateMutability": "payable",
      "type": "function"
    },
    {
      "inputs": [],
      "name": "lastSnapshotEth",
      "outputs": [
        {
          "internalType": "uint256",
          "name": "",
          "type": "uint256"
        }
      ],
      "stateMutability": "view",
      "type": "function"
    },
    {
      "inputs": [],
      "name": "leaveDAO",
      "outputs": [],
      "stateMutability": "nonpayable",
      "type": "function"
    },
    {
      "inputs": [],
      "name": "lengthOfProposals",
      "outputs": [
        {
          "internalType": "uint256",
          "name": "",
          "type": "uint256"
        }
      ],
      "stateMutability": "view",
      "type": "function"
    },
    {
      "inputs": [],
      "name": "name",
      "outputs": [
        {
          "internalType": "string",
          "name": "",
          "type": "string"
        }
      ],
      "stateMutability": "view",
      "type": "function"
    },
    {
      "inputs": [
        {
          "internalType": "uint256",
          "name": "",
          "type": "uint256"
        }
      ],
      "name": "proposals",
      "outputs": [
        {
          "internalType": "uint256",
          "name": "startTime",
          "type": "uint256"
        },
        {
          "internalType": "uint256",
          "name": "endTime",
          "type": "uint256"
        },
        {
          "internalType": "uint256",
          "name": "startEth",
          "type": "uint256"
        },
        {
          "internalType": "uint256",
          "name": "endEth",
          "type": "uint256"
        }
      ],
      "stateMutability": "view",
      "type": "function"
    },
    {
      "inputs": [],
      "name": "startingEth",
      "outputs": [
        {
          "internalType": "uint256",
          "name": "",
          "type": "uint256"
        }
      ],
      "stateMutability": "view",
      "type": "function"
    },
    {
      "inputs": [
        {
          "internalType": "string[]",
          "name": "_token",
          "type": "string[]"
        },
        {
          "internalType": "uint256[]",
          "name": "_perfOfToken",
          "type": "uint256[]"
        },
        {
          "internalType": "uint256[]",
          "name": "_confidenceLevels",
          "type": "uint256[]"
        },
        {
          "internalType": "string[]",
          "name": "_userViewsType",
          "type": "string[]"
        },
        {
          "internalType": "string[]",
          "name": "_userViewsRelativeToken",
          "type": "string[]"
        }
      ],
      "name": "submitVote",
      "outputs": [],
      "stateMutability": "nonpayable",
      "type": "function"
    },
    {
      "inputs": [],
      "name": "symbol",
      "outputs": [
        {
          "internalType": "string",
          "name": "",
          "type": "string"
        }
      ],
      "stateMutability": "view",
      "type": "function"
    },
    {
      "inputs": [],
      "name": "totalSupply",
      "outputs": [
        {
          "internalType": "uint256",
          "name": "",
          "type": "uint256"
        }
      ],
      "stateMutability": "view",
      "type": "function"
    },
    {
      "inputs": [
        {
          "internalType": "address",
          "name": "to",
          "type": "address"
        },
        {
          "internalType": "uint256",
          "name": "amount",
          "type": "uint256"
        }
      ],
      "name": "transfer",
      "outputs": [
        {
          "internalType": "bool",
          "name": "",
          "type": "bool"
        }
      ],
      "stateMutability": "nonpayable",
      "type": "function"
    },
    {
      "inputs": [
        {
          "internalType": "address",
          "name": "from",
          "type": "address"
        },
        {
          "internalType": "address",
          "name": "to",
          "type": "address"
        },
        {
          "internalType": "uint256",
          "name": "amount",
          "type": "uint256"
        }
      ],
      "name": "transferFrom",
      "outputs": [
        {
          "internalType": "bool",
          "name": "",
          "type": "bool"
        }
      ],
      "stateMutability": "nonpayable",
      "type": "function"
    },
    {
      "inputs": [],
      "name": "treasuryEth",
      "outputs": [
        {
          "internalType": "uint256",
          "name": "",
          "type": "uint256"
        }
      ],
      "stateMutability": "view",
      "type": "function"
    }
  ],
  "bytecode": "0x608060405273e592427a0aece92de3edee1f18e0157c05861564600860006101000a81548173ffffffffffffffffffffffffffffffffffffffff021916908373ffffffffffffffffffffffffffffffffffffffff1602179055503480156200006657600080fd5b506040518060400160405280601381526020017f4f7074696d697a65722044414f20546f6b656e000000000000000000000000008152506040518060400160405280600381526020017f4f445000000000000000000000000000000000000000000000000000000000008152508160039081620000e4919062000a2a565b508060049081620000f6919062000a2a565b5050506000600c6001816001815401808255809150500390600052602060002090600c0201905060006040518060a001604052806040518060400160405280600481526020017f574554480000000000000000000000000000000000000000000000000000000081525081526020016040518060400160405280600381526020017f424154000000000000000000000000000000000000000000000000000000000081525081526020016040518060400160405280600481526020017f574254430000000000000000000000000000000000000000000000000000000081525081526020016040518060400160405280600381526020017f554e49000000000000000000000000000000000000000000000000000000000081525081526020016040518060400160405280600481526020017f5553445400000000000000000000000000000000000000000000000000000000815250815250905060006040518060a0016040528073c778417e063141139fce010982780140aa0cd5ab73ffffffffffffffffffffffffffffffffffffffff1673ffffffffffffffffffffffffffffffffffffffff16815260200173da5b056cfb861282b4b59d29c9b395bcc238d29b73ffffffffffffffffffffffffffffffffffffffff1673ffffffffffffffffffffffffffffffffffffffff16815260200173577d296678535e4903d59a4c929b718e1d575e0a73ffffffffffffffffffffffffffffffffffffffff1673ffffffffffffffffffffffffffffffffffffffff168152602001731f9840a85d5af5bf1d1762f925bdaddc4201f98473ffffffffffffffffffffffffffffffffffffffff1673ffffffffffffffffffffffffffffffffffffffff168152602001732fb298bdbef468638ad6653ff8376575ea41e76873ffffffffffffffffffffffffffffffffffffffff1673ffffffffffffffffffffffffffffffffffffffff16815250905060006040518060a001604052806040518060400160405280600581526020017f735745544800000000000000000000000000000000000000000000000000000081525081526020016040518060400160405280600481526020017f734241540000000000000000000000000000000000000000000000000000000081525081526020016040518060400160405280600581526020017f735742544300000000000000000000000000000000000000000000000000000081525081526020016040518060400160405280600481526020017f73554e490000000000000000000000000000000000000000000000000000000081525081526020016040518060400160405280600581526020017f7355534454000000000000000000000000000000000000000000000000000000815250815250905060006040518060a0016040528073982cd41387dd65e659279c4efcf05c25c4b586d673ffffffffffffffffffffffffffffffffffffffff1673ffffffffffffffffffffffffffffffffffffffff16815260200173f760954e01e53c3f7f08733ca1dc62b14b4bf50e73ffffffffffffffffffffffffffffffffffffffff1673ffffffffffffffffffffffffffffffffffffffff16815260200173a18533ba93407a54bb1bcadb7e9f3d34e46039f973ffffffffffffffffffffffffffffffffffffffff1673ffffffffffffffffffffffffffffffffffffffff1681526020017395552ca5cc9f329e5376659ead39f880307b7a1373ffffffffffffffffffffffffffffffffffffffff1673ffffffffffffffffffffffffffffffffffffffff168152602001731c0b9527210b427ad9bdff41bb3a3b78c9cee7d973ffffffffffffffffffffffffffffffffffffffff1673ffffffffffffffffffffffffffffffffffffffff16815250905060005b6005811015620007a4578381600581106200067e576200067d62000b11565b5b602002015160098683600581106200069b576200069a62000b11565b5b6020020151604051620006af919062000bae565b908152602001604051809103902060006101000a81548173ffffffffffffffffffffffffffffffffffffffff021916908373ffffffffffffffffffffffffffffffffffffffff16021790555081816005811062000711576200071062000b11565b5b6020020151600a8483600581106200072e576200072d62000b11565b5b602002015160405162000742919062000bae565b908152602001604051809103902060006101000a81548173ffffffffffffffffffffffffffffffffffffffff021916908373ffffffffffffffffffffffffffffffffffffffff16021790555080806200079b9062000bf6565b9150506200065e565b50505050505062000c43565b600081519050919050565b7f4e487b7100000000000000000000000000000000000000000000000000000000600052604160045260246000fd5b7f4e487b7100000000000000000000000000000000000000000000000000000000600052602260045260246000fd5b600060028204905060018216806200083257607f821691505b602082108103620008485762000847620007ea565b5b50919050565b60008190508160005260206000209050919050565b60006020601f8301049050919050565b600082821b905092915050565b600060088302620008b27fffffffffffffffffffffffffffffffffffffffffffffffffffffffffffffffff8262000873565b620008be868362000873565b95508019841693508086168417925050509392505050565b6000819050919050565b6000819050919050565b60006200090b62000905620008ff84620008d6565b620008e0565b620008d6565b9050919050565b6000819050919050565b6200092783620008ea565b6200093f620009368262000912565b84845462000880565b825550505050565b600090565b6200095662000947565b620009638184846200091c565b505050565b5b818110156200098b576200097f6000826200094c565b60018101905062000969565b5050565b601f821115620009da57620009a4816200084e565b620009af8462000863565b81016020851015620009bf578190505b620009d7620009ce8562000863565b83018262000968565b50505b505050565b600082821c905092915050565b6000620009ff60001984600802620009df565b1980831691505092915050565b600062000a1a8383620009ec565b9150826002028217905092915050565b62000a3582620007b0565b67ffffffffffffffff81111562000a515762000a50620007bb565b5b62000a5d825462000819565b62000a6a8282856200098f565b600060209050601f83116001811462000aa2576000841562000a8d578287015190505b62000a99858262000a0c565b86555062000b09565b601f19841662000ab2866200084e565b60005b8281101562000adc5784890151825560018201915060208501945060208101905062000ab5565b8683101562000afc578489015162000af8601f891682620009ec565b8355505b6001600288020188555050505b505050505050565b7f4e487b7100000000000000000000000000000000000000000000000000000000600052603260045260246000fd5b600081905092915050565b60005b8381101562000b6b57808201518184015260208101905062000b4e565b60008484015250505050565b600062000b8482620007b0565b62000b90818562000b40565b935062000ba281856020860162000b4b565b80840191505092915050565b600062000bbc828462000b77565b915081905092915050565b7f4e487b7100000000000000000000000000000000000000000000000000000000600052601160045260246000fd5b600062000c0382620008d6565b91507fffffffffffffffffffffffffffffffffffffffffffffffffffffffffffffffff820362000c385762000c3762000bc7565b5b600182019050919050565b6164fe8062000c536000396000f3fe60806040526004361061014a5760003560e01c806370a08231116100b6578063b4f301c81161006f578063b4f301c8146104eb578063dd62ed3e14610528578063e430fcb614610565578063e47b22791461058e578063ef2091bc146105b7578063f63d13d7146105e25761014a565b806370a082311461039d5780638b1fdf24146103da57806395d89b411461041b578063a457c2d714610446578063a9059cbb14610483578063a91f3b51146104c05761014a565b806323b872dd1161010857806323b872dd14610264578063313ce567146102a157806332d184dc146102cc57806339509351146102f7578063472ad1f4146103345780634c26b8a21461035d5761014a565b8062c7f3fb1461014f578063013cf08b1461017a57806306fdde03146101ba578063095ea7b3146101e557806318160ddd146102225780631de7df411461024d575b600080fd5b34801561015b57600080fd5b506101646105ec565b60405161017191906148fb565b60405180910390f35b34801561018657600080fd5b506101a1600480360381019061019c9190614956565b6105f2565b6040516101b19493929190614983565b60405180910390f35b3480156101c657600080fd5b506101cf610632565b6040516101dc9190614a58565b60405180910390f35b3480156101f157600080fd5b5061020c60048036038101906102079190614ad8565b6106c4565b6040516102199190614b33565b60405180910390f35b34801561022e57600080fd5b506102376106e7565b60405161024491906148fb565b60405180910390f35b34801561025957600080fd5b506102626106f1565b005b34801561027057600080fd5b5061028b60048036038101906102869190614b4e565b61079d565b6040516102989190614b33565b60405180910390f35b3480156102ad57600080fd5b506102b66107cc565b6040516102c39190614bbd565b60405180910390f35b3480156102d857600080fd5b506102e16107d5565b6040516102ee91906148fb565b60405180910390f35b34801561030357600080fd5b5061031e60048036038101906103199190614ad8565b6107db565b60405161032b9190614b33565b60405180910390f35b34801561034057600080fd5b5061035b60048036038101906103569190614eb6565b610812565b005b34801561036957600080fd5b50610384600480360381019061037f9190614956565b610c42565b60405161039494939291906151ec565b60405180910390f35b3480156103a957600080fd5b506103c460048036038101906103bf919061523b565b61156d565b6040516103d191906148fb565b60405180910390f35b3480156103e657600080fd5b5061040160048036038101906103fc9190615268565b6115b5565b6040516104129594939291906153f6565b60405180910390f35b34801561042757600080fd5b50610430611b04565b60405161043d9190614a58565b60405180910390f35b34801561045257600080fd5b5061046d60048036038101906104689190614ad8565b611b96565b60405161047a9190614b33565b60405180910390f35b34801561048f57600080fd5b506104aa60048036038101906104a59190614ad8565b611c0d565b6040516104b79190614b33565b60405180910390f35b3480156104cc57600080fd5b506104d5611c30565b6040516104e291906148fb565b60405180910390f35b3480156104f757600080fd5b50610512600480360381019061050d9190615268565b611c36565b60405161051f91906148fb565b60405180910390f35b34801561053457600080fd5b5061054f600480360381019061054a919061546c565b611c64565b60405161055c91906148fb565b60405180910390f35b34801561057157600080fd5b5061058c600480360381019061058791906154ac565b611ceb565b005b34801561059a57600080fd5b506105b560048036038101906105b09190615524565b6139f6565b005b3480156105c357600080fd5b506105cc613e00565b6040516105d991906148fb565b60405180910390f35b6105ea613e19565b005b60055481565b600c818154811061060257600080fd5b90600052602060002090600c02016000915090508060000154908060010154908060020154908060030154905084565b606060038054610641906155ce565b80601f016020809104026020016040519081016040528092919081815260200182805461066d906155ce565b80156106ba5780601f1061068f576101008083540402835291602001916106ba565b820191906000526020600020905b81548152906001019060200180831161069d57829003601f168201915b5050505050905090565b6000806106cf613ef3565b90506106dc818585613efb565b600191505092915050565b6000600254905090565b60006106fc3361156d565b90506000811161070b57600080fd5b60006005546107186106e7565b83610723919061565d565b61072d919061568e565b905061073933836140c4565b3373ffffffffffffffffffffffffffffffffffffffff166108fc829081150290604051600060405180830381858888f1935050505015801561077f573d6000803e3d6000fd5b50806005600082825461079291906156d0565b925050819055505050565b6000806107a8613ef3565b90506107b5858285614291565b6107c085858561431d565b60019150509392505050565b60006012905090565b60065481565b6000806107e6613ef3565b90506108078185856107f88589611c64565b6108029190615704565b613efb565b600191505092915050565b600061081d3361156d565b1161085d576040517f08c379a0000000000000000000000000000000000000000000000000000000008152600401610854906157aa565b60405180910390fd5b8351855114801561086f575082518451145b6108ae576040517f08c379a00000000000000000000000000000000000000000000000000000000081526004016108a590615816565b60405180910390fd5b60006108b93361156d565b905060005b8651811015610c3957600c6001600c805490506108db91906156d0565b815481106108ec576108eb615836565b5b90600052602060002090600c02016008018782815181106109105761090f615836565b5b602002602001015160405161092591906158a1565b908152602001604051809103902086828151811061094657610945615836565b5b60200260200101519080600181540180825580915050600190039060005260206000200160009091909190915055600c6001600c8054905061098891906156d0565b8154811061099957610998615836565b5b90600052602060002090600c02016007018782815181106109bd576109bc615836565b5b60200260200101516040516109d291906158a1565b9081526020016040518091039020829080600181540180825580915050600190039060005260206000200160009091909190915055600c6001600c80549050610a1b91906156d0565b81548110610a2c57610a2b615836565b5b90600052602060002090600c0201600901878281518110610a5057610a4f615836565b5b6020026020010151604051610a6591906158a1565b9081526020016040518091039020858281518110610a8657610a85615836565b5b60200260200101519080600181540180825580915050600190039060005260206000200160009091909190915055600c6001600c80549050610ac891906156d0565b81548110610ad957610ad8615836565b5b90600052602060002090600c0201600a01878281518110610afd57610afc615836565b5b6020026020010151604051610b1291906158a1565b9081526020016040518091039020848281518110610b3357610b32615836565b5b6020026020010151908060018154018082558091505060019003906000526020600020016000909190919091509081610b6c9190615a64565b50600c6001600c80549050610b8191906156d0565b81548110610b9257610b91615836565b5b90600052602060002090600c0201600b01878281518110610bb657610bb5615836565b5b6020026020010151604051610bcb91906158a1565b9081526020016040518091039020838281518110610bec57610beb615836565b5b6020026020010151908060018154018082558091505060019003906000526020600020016000909190919091509081610c259190615a64565b508080610c3190615b36565b9150506108be565b50505050505050565b610c4a61486b565b610c52614893565b610c5a614893565b610c626148b6565b60006040518061014001604052806040518060400160405280600481526020017f574554480000000000000000000000000000000000000000000000000000000081525081526020016040518060400160405280600381526020017f424154000000000000000000000000000000000000000000000000000000000081525081526020016040518060400160405280600481526020017f574254430000000000000000000000000000000000000000000000000000000081525081526020016040518060400160405280600381526020017f554e49000000000000000000000000000000000000000000000000000000000081525081526020016040518060400160405280600481526020017f555344540000000000000000000000000000000000000000000000000000000081525081526020016040518060400160405280600581526020017f735745544800000000000000000000000000000000000000000000000000000081525081526020016040518060400160405280600481526020017f734241540000000000000000000000000000000000000000000000000000000081525081526020016040518060400160405280600581526020017f735742544300000000000000000000000000000000000000000000000000000081525081526020016040518060400160405280600481526020017f73554e490000000000000000000000000000000000000000000000000000000081525081526020016040518060400160405280600581526020017f73555344540000000000000000000000000000000000000000000000000000008152508152509050610ec6614893565b610ece614893565b610ed66148b6565b600c8981548110610eea57610ee9615836565b5b90600052602060002090600c02016000015481600060028110610f1057610f0f615836565b5b602002018181525050600c8981548110610f2d57610f2c615836565b5b90600052602060002090600c02016001015481600160028110610f5357610f52615836565b5b602002018181525050600c8981548110610f7057610f6f615836565b5b90600052602060002090600c0201600601600081548110610f9457610f93615836565b5b9060005260206000200154826000600a8110610fb357610fb2615836565b5b602002018181525050600c8981548110610fd057610fcf615836565b5b90600052602060002090600c0201600501600081548110610ff457610ff3615836565b5b9060005260206000200154836000600a811061101357611012615836565b5b60200201818152505061104d600c8a8154811061103357611032615836565b5b90600052602060002090600c020160040180549050614593565b6000600190505b600a81101561153457600c8a8154811061107157611070615836565b5b90600052602060002090600c0201600601818154811061109457611093615836565b5b90600052602060002001548382600a81106110b2576110b1615836565b5b602002018181525050600073ffffffffffffffffffffffffffffffffffffffff1660098683600a81106110e8576110e7615836565b5b60200201516040516110fa91906158a1565b908152602001604051809103902060009054906101000a900473ffffffffffffffffffffffffffffffffffffffff1673ffffffffffffffffffffffffffffffffffffffff16141580156111e2575073c778417e063141139fce010982780140aa0cd5ab73ffffffffffffffffffffffffffffffffffffffff1660098683600a811061118857611187615836565b5b602002015160405161119a91906158a1565b908152602001604051809103902060009054906101000a900473ffffffffffffffffffffffffffffffffffffffff1673ffffffffffffffffffffffffffffffffffffffff1614155b801561123057506000600c8b815481106111ff576111fe615836565b5b90600052602060002090600c0201600601828154811061122257611221615836565b5b906000526020600020015414155b15611340576112558582600a811061124b5761124a615836565b5b602002015161462c565b61129f600c8b8154811061126c5761126b615836565b5b90600052602060002090600c0201600501828154811061128f5761128e615836565b5b9060005260206000200154614593565b600c8a815481106112b3576112b2615836565b5b90600052602060002090600c020160050181815481106112d6576112d5615836565b5b90600052602060002001548482600a81106112f4576112f3615836565b5b60200201818152505061133b6040518060400160405280600b81526020017f6c6f6e6720746f6b656e7300000000000000000000000000000000000000000081525061462c565b611521565b600073ffffffffffffffffffffffffffffffffffffffff16600a8683600a811061136d5761136c615836565b5b602002015160405161137f91906158a1565b908152602001604051809103902060009054906101000a900473ffffffffffffffffffffffffffffffffffffffff1673ffffffffffffffffffffffffffffffffffffffff161415801561141457506000600c8b815481106113e3576113e2615836565b5b90600052602060002090600c0201600601828154811061140657611405615836565b5b906000526020600020015414155b15611520576114398582600a811061142f5761142e615836565b5b602002015161462c565b611483600c8b815481106114505761144f615836565b5b90600052602060002090600c0201600501828154811061147357611472615836565b5b9060005260206000200154614593565b600c8a8154811061149757611496615836565b5b90600052602060002090600c020160050181815481106114ba576114b9615836565b5b90600052602060002001548482600a81106114d8576114d7615836565b5b60200201818152505061151f6040518060400160405280600c81526020017f73686f727420746f6b656e73000000000000000000000000000000000000000081525061462c565b5b5b808061152c90615b36565b915050611054565b50611556836000600a811061154c5761154b615836565b5b6020020151614593565b838383839750975097509750505050509193509193565b60008060008373ffffffffffffffffffffffffffffffffffffffff1673ffffffffffffffffffffffffffffffffffffffff168152602001908152602001600020549050919050565b60608060608060606000600c6001600c805490506115d391906156d0565b815481106115e4576115e3615836565b5b90600052602060002090600c020190506000816007018860405161160891906158a1565b908152602001604051809103902080549050905060008167ffffffffffffffff81111561163857611637614bdd565b5b6040519080825280602002602001820160405280156116665781602001602082028036833780820191505090505b50905060008267ffffffffffffffff81111561168557611684614bdd565b5b6040519080825280602002602001820160405280156116b35781602001602082028036833780820191505090505b50905060008367ffffffffffffffff8111156116d2576116d1614bdd565b5b6040519080825280602002602001820160405280156117005781602001602082028036833780820191505090505b50905060008467ffffffffffffffff81111561171f5761171e614bdd565b5b60405190808252806020026020018201604052801561175257816020015b606081526020019060019003908161173d5790505b50905060008567ffffffffffffffff81111561177157611770614bdd565b5b6040519080825280602002602001820160405280156117a457816020015b606081526020019060019003908161178f5790505b50905060005b86811015611ae4576117f7886007018f6040516117c791906158a1565b908152602001604051809103902082815481106117e7576117e6615836565b5b9060005260206000200154614593565b876007018e60405161180991906158a1565b9081526020016040518091039020818154811061182957611828615836565b5b906000526020600020015486828151811061184757611846615836565b5b602002602001018181525050876008018e60405161186591906158a1565b9081526020016040518091039020818154811061188557611884615836565b5b90600052602060002001548582815181106118a3576118a2615836565b5b602002602001018181525050876009018e6040516118c191906158a1565b908152602001604051809103902081815481106118e1576118e0615836565b5b90600052602060002001548482815181106118ff576118fe615836565b5b60200260200101818152505087600a018e60405161191d91906158a1565b9081526020016040518091039020818154811061193d5761193c615836565b5b906000526020600020018054611952906155ce565b80601f016020809104026020016040519081016040528092919081815260200182805461197e906155ce565b80156119cb5780601f106119a0576101008083540402835291602001916119cb565b820191906000526020600020905b8154815290600101906020018083116119ae57829003601f168201915b50505050508382815181106119e3576119e2615836565b5b602002602001018190525087600b018e604051611a0091906158a1565b90815260200160405180910390208181548110611a2057611a1f615836565b5b906000526020600020018054611a35906155ce565b80601f0160208091040260200160405190810160405280929190818152602001828054611a61906155ce565b8015611aae5780601f10611a8357610100808354040283529160200191611aae565b820191906000526020600020905b815481529060010190602001808311611a9157829003601f168201915b5050505050828281518110611ac657611ac5615836565b5b60200260200101819052508080611adc90615b36565b9150506117aa565b5084848484849b509b509b509b509b505050505050505091939590929450565b606060048054611b13906155ce565b80601f0160208091040260200160405190810160405280929190818152602001828054611b3f906155ce565b8015611b8c5780601f10611b6157610100808354040283529160200191611b8c565b820191906000526020600020905b815481529060010190602001808311611b6f57829003601f168201915b5050505050905090565b600080611ba1613ef3565b90506000611baf8286611c64565b905083811015611bf4576040517f08c379a0000000000000000000000000000000000000000000000000000000008152600401611beb90615bf0565b60405180910390fd5b611c018286868403613efb565b60019250505092915050565b600080611c18613ef3565b9050611c2581858561431d565b600191505092915050565b60075481565b600b818051602081018201805184825260208301602085012081835280955050505050506000915090505481565b6000600160008473ffffffffffffffffffffffffffffffffffffffff1673ffffffffffffffffffffffffffffffffffffffff16815260200190815260200160002060008373ffffffffffffffffffffffffffffffffffffffff1673ffffffffffffffffffffffffffffffffffffffff16815260200190815260200160002054905092915050565b6000604051602001611cfc90615c5c565b6040516020818303038152906040528051906020012090506001600c805490501115612f715760005b835181101561234757600073ffffffffffffffffffffffffffffffffffffffff166009858381518110611d5b57611d5a615836565b5b6020026020010151604051611d7091906158a1565b908152602001604051809103902060009054906101000a900473ffffffffffffffffffffffffffffffffffffffff1673ffffffffffffffffffffffffffffffffffffffff16146120315760006009858381518110611dd157611dd0615836565b5b6020026020010151604051611de691906158a1565b908152602001604051809103902060009054906101000a900473ffffffffffffffffffffffffffffffffffffffff1673ffffffffffffffffffffffffffffffffffffffff166370a08231306040518263ffffffff1660e01b8152600401611e4d9190615c80565b602060405180830381865afa158015611e6a573d6000803e3d6000fd5b505050506040513d601f19601f82011682018060405250810190611e8e9190615cb0565b118015611edb575081848281518110611eaa57611ea9615836565b5b6020026020010151604051602001611ec291906158a1565b6040516020818303038152906040528051906020012014155b1561202c5761202b6009858381518110611ef857611ef7615836565b5b6020026020010151604051611f0d91906158a1565b908152602001604051809103902060009054906101000a900473ffffffffffffffffffffffffffffffffffffffff1673c778417e063141139fce010982780140aa0cd5ab6009878581518110611f6657611f65615836565b5b6020026020010151604051611f7b91906158a1565b908152602001604051809103902060009054906101000a900473ffffffffffffffffffffffffffffffffffffffff1673ffffffffffffffffffffffffffffffffffffffff166370a08231306040518263ffffffff1660e01b8152600401611fe29190615c80565b602060405180830381865afa158015611fff573d6000803e3d6000fd5b505050506040513d601f19601f820116820180604052508101906120239190615cb0565b6000306139f6565b5b612334565b600073ffffffffffffffffffffffffffffffffffffffff16600a85838151811061205e5761205d615836565b5b602002602001015160405161207391906158a1565b908152602001604051809103902060009054906101000a900473ffffffffffffffffffffffffffffffffffffffff1673ffffffffffffffffffffffffffffffffffffffff161415801561219757506000600a8583815181106120d8576120d7615836565b5b60200260200101516040516120ed91906158a1565b908152602001604051809103902060009054906101000a900473ffffffffffffffffffffffffffffffffffffffff1673ffffffffffffffffffffffffffffffffffffffff166370a08231306040518263ffffffff1660e01b81526004016121549190615c80565b602060405180830381865afa158015612171573d6000803e3d6000fd5b505050506040513d601f19601f820116820180604052508101906121959190615cb0565b115b1561233357600a8482815181106121b1576121b0615836565b5b60200260200101516040516121c691906158a1565b908152602001604051809103902060009054906101000a900473ffffffffffffffffffffffffffffffffffffffff1673ffffffffffffffffffffffffffffffffffffffff16639dc29fac30600a87858151811061222657612225615836565b5b602002602001015160405161223b91906158a1565b908152602001604051809103902060009054906101000a900473ffffffffffffffffffffffffffffffffffffffff1673ffffffffffffffffffffffffffffffffffffffff166370a08231306040518263ffffffff1660e01b81526004016122a29190615c80565b602060405180830381865afa1580156122bf573d6000803e3d6000fd5b505050506040513d601f19601f820116820180604052508101906122e39190615cb0565b6040518363ffffffff1660e01b8152600401612300929190615cdd565b600060405180830381600087803b15801561231a57600080fd5b505af115801561232e573d6000803e3d6000fd5b505050505b5b808061233f90615b36565b915050611d25565b5073c778417e063141139fce010982780140aa0cd5ab73ffffffffffffffffffffffffffffffffffffffff166370a08231306040518263ffffffff1660e01b81526004016123959190615c80565b6020604051808303816000875af11580156123b4573d6000803e3d6000fd5b505050506040513d601f19601f820116820180604052508101906123d89190615cb0565b600c6002600c805490506123ec91906156d0565b815481106123fd576123fc615836565b5b90600052602060002090600c02016003018190555042600c6002600c8054905061242791906156d0565b8154811061243857612437615836565b5b90600052602060002090600c02016001018190555073c778417e063141139fce010982780140aa0cd5ab73ffffffffffffffffffffffffffffffffffffffff166370a08231306040518263ffffffff1660e01b815260040161249a9190615c80565b6020604051808303816000875af11580156124b9573d6000803e3d6000fd5b505050506040513d601f19601f820116820180604052508101906124dd9190615cb0565b600c6001600c805490506124f191906156d0565b8154811061250257612501615836565b5b90600052602060002090600c02016002018190555042600c6001600c8054905061252c91906156d0565b8154811061253d5761253c615836565b5b90600052602060002090600c02016000018190555073c778417e063141139fce010982780140aa0cd5ab73ffffffffffffffffffffffffffffffffffffffff166370a08231306040518263ffffffff1660e01b815260040161259f9190615c80565b6020604051808303816000875af11580156125be573d6000803e3d6000fd5b505050506040513d601f19601f820116820180604052508101906125e29190615cb0565b60078190555073c778417e063141139fce010982780140aa0cd5ab73ffffffffffffffffffffffffffffffffffffffff1663d0e30db0476040518263ffffffff1660e01b81526004016000604051808303818588803b15801561264457600080fd5b505af1158015612658573d6000803e3d6000fd5b505050505060005b8351811015612f4a5782818151811061267c5761267b615836565b5b6020026020010151600b85838151811061269957612698615836565b5b60200260200101516040516126ae91906158a1565b908152602001604051809103902081905550600c6001600c805490506126d491906156d0565b815481106126e5576126e4615836565b5b90600052602060002090600c020160060183828151811061270957612708615836565b5b60200260200101519080600181540180825580915050600190039060005260206000200160009091909190915055600c6001600c8054905061274b91906156d0565b8154811061275c5761275b615836565b5b90600052602060002090600c02016004018482815181106127805761277f615836565b5b60200260200101519080600181540180825580915050600190039060005260206000200160009091909190915090816127b99190615a64565b5060008382815181106127cf576127ce615836565b5b60200260200101510361283f57600c6001600c805490506127f091906156d0565b8154811061280157612800615836565b5b90600052602060002090600c020160050160009080600181540180825580915050600190039060005260206000200160009091909190915055612f37565b73c778417e063141139fce010982780140aa0cd5ab73ffffffffffffffffffffffffffffffffffffffff16600985838151811061287f5761287e615836565b5b602002602001015160405161289491906158a1565b908152602001604051809103902060009054906101000a900473ffffffffffffffffffffffffffffffffffffffff1673ffffffffffffffffffffffffffffffffffffffff160361297557600060648483815181106128f5576128f4615836565b5b602002602001015160075461290a919061568e565b612914919061565d565b9050600c6001600c8054905061292a91906156d0565b8154811061293b5761293a615836565b5b90600052602060002090600c0201600501819080600181540180825580915050600190039060005260206000200160009091909190915055505b600083828151811061298a57612989615836565b5b6020026020010151141580156129e05750818482815181106129af576129ae615836565b5b60200260200101516040516020016129c791906158a1565b6040516020818303038152906040528051906020012014155b15612f3657600073ffffffffffffffffffffffffffffffffffffffff166009858381518110612a1257612a11615836565b5b6020026020010151604051612a2791906158a1565b908152602001604051809103902060009054906101000a900473ffffffffffffffffffffffffffffffffffffffff1673ffffffffffffffffffffffffffffffffffffffff1614158015612a9557506000838281518110612a8a57612a89615836565b5b602002602001015114155b15612c7c5760006064848381518110612ab157612ab0615836565b5b6020026020010151600754612ac6919061568e565b612ad0919061565d565b9050612b4c73c778417e063141139fce010982780140aa0cd5ab6009878581518110612aff57612afe615836565b5b6020026020010151604051612b1491906158a1565b908152602001604051809103902060009054906101000a900473ffffffffffffffffffffffffffffffffffffffff16836000306139f6565b600c6001600c80549050612b6091906156d0565b81548110612b7157612b70615836565b5b90600052602060002090600c02016005016009868481518110612b9757612b96615836565b5b6020026020010151604051612bac91906158a1565b908152602001604051809103902060009054906101000a900473ffffffffffffffffffffffffffffffffffffffff1673ffffffffffffffffffffffffffffffffffffffff166370a08231306040518263ffffffff1660e01b8152600401612c139190615c80565b602060405180830381865afa158015612c30573d6000803e3d6000fd5b505050506040513d601f19601f82011682018060405250810190612c549190615cb0565b9080600181540180825580915050600190039060005260206000200160009091909190915055505b600073ffffffffffffffffffffffffffffffffffffffff16600a858381518110612ca957612ca8615836565b5b6020026020010151604051612cbe91906158a1565b908152602001604051809103902060009054906101000a900473ffffffffffffffffffffffffffffffffffffffff1673ffffffffffffffffffffffffffffffffffffffff1614612f355760006064848381518110612d1f57612d1e615836565b5b6020026020010151600754612d34919061568e565b612d3e919061565d565b9050600a858381518110612d5557612d54615836565b5b6020026020010151604051612d6a91906158a1565b908152602001604051809103902060009054906101000a900473ffffffffffffffffffffffffffffffffffffffff1673ffffffffffffffffffffffffffffffffffffffff166340c10f1930836040518363ffffffff1660e01b8152600401612dd3929190615cdd565b600060405180830381600087803b158015612ded57600080fd5b505af1158015612e01573d6000803e3d6000fd5b50505050600c6001600c80549050612e1991906156d0565b81548110612e2a57612e29615836565b5b90600052602060002090600c0201600501600a868481518110612e5057612e4f615836565b5b6020026020010151604051612e6591906158a1565b908152602001604051809103902060009054906101000a900473ffffffffffffffffffffffffffffffffffffffff1673ffffffffffffffffffffffffffffffffffffffff166370a08231306040518263ffffffff1660e01b8152600401612ecc9190615c80565b602060405180830381865afa158015612ee9573d6000803e3d6000fd5b505050506040513d601f19601f82011682018060405250810190612f0d9190615cb0565b9080600181540180825580915050600190039060005260206000200160009091909190915055505b5b5b8080612f4290615b36565b915050612660565b506000600c6001816001815401808255809150500390600052602060002090600c02019050505b6001600c80549050036139f15773c778417e063141139fce010982780140aa0cd5ab73ffffffffffffffffffffffffffffffffffffffff1663d0e30db0476040518263ffffffff1660e01b81526004016000604051808303818588803b158015612fda57600080fd5b505af1158015612fee573d6000803e3d6000fd5b505050505073c778417e063141139fce010982780140aa0cd5ab73ffffffffffffffffffffffffffffffffffffffff166370a08231306040518263ffffffff1660e01b81526004016130409190615c80565b6020604051808303816000875af115801561305f573d6000803e3d6000fd5b505050506040513d601f19601f820116820180604052508101906130839190615cb0565b60078190555042600c6001600c8054905061309e91906156d0565b815481106130af576130ae615836565b5b90600052602060002090600c020160000181905550600754600c6001600c805490506130db91906156d0565b815481106130ec576130eb615836565b5b90600052602060002090600c02016002018190555060005b83518110156139ca578281815181106131205761311f615836565b5b6020026020010151600b85838151811061313d5761313c615836565b5b602002602001015160405161315291906158a1565b908152602001604051809103902081905550600c6001600c8054905061317891906156d0565b8154811061318957613188615836565b5b90600052602060002090600c02016006018382815181106131ad576131ac615836565b5b60200260200101519080600181540180825580915050600190039060005260206000200160009091909190915055600c6001600c805490506131ef91906156d0565b81548110613200576131ff615836565b5b90600052602060002090600c020160040184828151811061322457613223615836565b5b602002602001015190806001815401808255809150506001900390600052602060002001600090919091909150908161325d9190615a64565b50600083828151811061327357613272615836565b5b6020026020010151036132e357600c6001600c8054905061329491906156d0565b815481106132a5576132a4615836565b5b90600052602060002090600c0201600501600090806001815401808255809150506001900390600052602060002001600090919091909150556139b7565b73c778417e063141139fce010982780140aa0cd5ab73ffffffffffffffffffffffffffffffffffffffff16600985838151811061332357613322615836565b5b602002602001015160405161333891906158a1565b908152602001604051809103902060009054906101000a900473ffffffffffffffffffffffffffffffffffffffff1673ffffffffffffffffffffffffffffffffffffffff1603613419576000606484838151811061339957613398615836565b5b60200260200101516007546133ae919061568e565b6133b8919061565d565b9050600c6001600c805490506133ce91906156d0565b815481106133df576133de615836565b5b90600052602060002090600c0201600501819080600181540180825580915050600190039060005260206000200160009091909190915055505b600083828151811061342e5761342d615836565b5b60200260200101511415801561348457508184828151811061345357613452615836565b5b602002602001015160405160200161346b91906158a1565b6040516020818303038152906040528051906020012014155b156139b657600073ffffffffffffffffffffffffffffffffffffffff1660098583815181106134b6576134b5615836565b5b60200260200101516040516134cb91906158a1565b908152602001604051809103902060009054906101000a900473ffffffffffffffffffffffffffffffffffffffff1673ffffffffffffffffffffffffffffffffffffffff16146136fb576000606484838151811061352c5761352b615836565b5b6020026020010151600754613541919061568e565b61354b919061565d565b90506135c773c778417e063141139fce010982780140aa0cd5ab600987858151811061357a57613579615836565b5b602002602001015160405161358f91906158a1565b908152602001604051809103902060009054906101000a900473ffffffffffffffffffffffffffffffffffffffff16836000306139f6565b600c6001600c805490506135db91906156d0565b815481106135ec576135eb615836565b5b90600052602060002090600c0201600501600986848151811061361257613611615836565b5b602002602001015160405161362791906158a1565b908152602001604051809103902060009054906101000a900473ffffffffffffffffffffffffffffffffffffffff1673ffffffffffffffffffffffffffffffffffffffff166370a08231306040518263ffffffff1660e01b815260040161368e9190615c80565b602060405180830381865afa1580156136ab573d6000803e3d6000fd5b505050506040513d601f19601f820116820180604052508101906136cf9190615cb0565b9080600181540180825580915050600190039060005260206000200160009091909190915055506139b5565b600073ffffffffffffffffffffffffffffffffffffffff16600a85838151811061372857613727615836565b5b602002602001015160405161373d91906158a1565b908152602001604051809103902060009054906101000a900473ffffffffffffffffffffffffffffffffffffffff1673ffffffffffffffffffffffffffffffffffffffff16146139b4576000606484838151811061379e5761379d615836565b5b60200260200101516007546137b3919061568e565b6137bd919061565d565b9050600a8583815181106137d4576137d3615836565b5b60200260200101516040516137e991906158a1565b908152602001604051809103902060009054906101000a900473ffffffffffffffffffffffffffffffffffffffff1673ffffffffffffffffffffffffffffffffffffffff166340c10f1930836040518363ffffffff1660e01b8152600401613852929190615cdd565b600060405180830381600087803b15801561386c57600080fd5b505af1158015613880573d6000803e3d6000fd5b50505050600c6001600c8054905061389891906156d0565b815481106138a9576138a8615836565b5b90600052602060002090600c0201600501600a8684815181106138cf576138ce615836565b5b60200260200101516040516138e491906158a1565b908152602001604051809103902060009054906101000a900473ffffffffffffffffffffffffffffffffffffffff1673ffffffffffffffffffffffffffffffffffffffff166370a08231306040518263ffffffff1660e01b815260040161394b9190615c80565b602060405180830381865afa158015613968573d6000803e3d6000fd5b505050506040513d601f19601f8201168201806040525081019061398c9190615cb0565b9080600181540180825580915050600190039060005260206000200160009091909190915055505b5b5b5b80806139c290615b36565b915050613104565b506000600c6001816001815401808255809150500390600052602060002090600c02019050505b505050565b8473ffffffffffffffffffffffffffffffffffffffff1663095ea7b3737a250d5630b4cf539739df2c5dacb4c659f2488d856040518363ffffffff1660e01b8152600401613a45929190615cdd565b6020604051808303816000875af1158015613a64573d6000803e3d6000fd5b505050506040513d601f19601f82011682018060405250810190613a889190615d32565b50606073c778417e063141139fce010982780140aa0cd5ab73ffffffffffffffffffffffffffffffffffffffff168673ffffffffffffffffffffffffffffffffffffffff161480613b18575073c778417e063141139fce010982780140aa0cd5ab73ffffffffffffffffffffffffffffffffffffffff168573ffffffffffffffffffffffffffffffffffffffff16145b15613c0c57600267ffffffffffffffff811115613b3857613b37614bdd565b5b604051908082528060200260200182016040528015613b665781602001602082028036833780820191505090505b5090508581600081518110613b7e57613b7d615836565b5b602002602001019073ffffffffffffffffffffffffffffffffffffffff16908173ffffffffffffffffffffffffffffffffffffffff16815250508481600181518110613bcd57613bcc615836565b5b602002602001019073ffffffffffffffffffffffffffffffffffffffff16908173ffffffffffffffffffffffffffffffffffffffff1681525050613d5a565b600367ffffffffffffffff811115613c2757613c26614bdd565b5b604051908082528060200260200182016040528015613c555781602001602082028036833780820191505090505b5090508581600081518110613c6d57613c6c615836565b5b602002602001019073ffffffffffffffffffffffffffffffffffffffff16908173ffffffffffffffffffffffffffffffffffffffff168152505073c778417e063141139fce010982780140aa0cd5ab81600181518110613cd057613ccf615836565b5b602002602001019073ffffffffffffffffffffffffffffffffffffffff16908173ffffffffffffffffffffffffffffffffffffffff16815250508481600281518110613d1f57613d1e615836565b5b602002602001019073ffffffffffffffffffffffffffffffffffffffff16908173ffffffffffffffffffffffffffffffffffffffff16815250505b737a250d5630b4cf539739df2c5dacb4c659f2488d73ffffffffffffffffffffffffffffffffffffffff166338ed173985858486426040518663ffffffff1660e01b8152600401613daf959493929190615e1d565b6000604051808303816000875af1158015613dce573d6000803e3d6000fd5b505050506040513d6000823e3d601f19601f82011682018060405250810190613df79190615f0e565b50505050505050565b60006001600c80549050613e1491906156d0565b905090565b66b1a2bc2ec50000341015613e63576040517f08c379a0000000000000000000000000000000000000000000000000000000008152600401613e5a90615fa3565b60405180910390fd5b600060055403613e8e5734600581905550600554600681905550613e89336005546146c5565b613ef1565b3460056000828254613ea09190615704565b92505081905550600554600681905550600034600554613ec091906156d0565b9050600081613ecd6106e7565b34613ed8919061568e565b613ee2919061565d565b9050613eee33826146c5565b50505b565b600033905090565b600073ffffffffffffffffffffffffffffffffffffffff168373ffffffffffffffffffffffffffffffffffffffff1603613f6a576040517f08c379a0000000000000000000000000000000000000000000000000000000008152600401613f6190616035565b60405180910390fd5b600073ffffffffffffffffffffffffffffffffffffffff168273ffffffffffffffffffffffffffffffffffffffff1603613fd9576040517f08c379a0000000000000000000000000000000000000000000000000000000008152600401613fd0906160c7565b60405180910390fd5b80600160008573ffffffffffffffffffffffffffffffffffffffff1673ffffffffffffffffffffffffffffffffffffffff16815260200190815260200160002060008473ffffffffffffffffffffffffffffffffffffffff1673ffffffffffffffffffffffffffffffffffffffff168152602001908152602001600020819055508173ffffffffffffffffffffffffffffffffffffffff168373ffffffffffffffffffffffffffffffffffffffff167f8c5be1e5ebec7d5bd14f71427d1e84f3dd0314c0f7b2291e5b200ac8c7c3b925836040516140b791906148fb565b60405180910390a3505050565b600073ffffffffffffffffffffffffffffffffffffffff168273ffffffffffffffffffffffffffffffffffffffff1603614133576040517f08c379a000000000000000000000000000000000000000000000000000000000815260040161412a90616159565b60405180910390fd5b61413f8260008361481b565b60008060008473ffffffffffffffffffffffffffffffffffffffff1673ffffffffffffffffffffffffffffffffffffffff168152602001908152602001600020549050818110156141c5576040517f08c379a00000000000000000000000000000000000000000000000000000000081526004016141bc906161eb565b60405180910390fd5b8181036000808573ffffffffffffffffffffffffffffffffffffffff1673ffffffffffffffffffffffffffffffffffffffff1681526020019081526020016000208190555081600260008282540392505081905550600073ffffffffffffffffffffffffffffffffffffffff168373ffffffffffffffffffffffffffffffffffffffff167fddf252ad1be2c89b69c2b068fc378daa952ba7f163c4a11628f55a4df523b3ef8460405161427891906148fb565b60405180910390a361428c83600084614820565b505050565b600061429d8484611c64565b90507fffffffffffffffffffffffffffffffffffffffffffffffffffffffffffffffff81146143175781811015614309576040517f08c379a000000000000000000000000000000000000000000000000000000000815260040161430090616257565b60405180910390fd5b6143168484848403613efb565b5b50505050565b600073ffffffffffffffffffffffffffffffffffffffff168373ffffffffffffffffffffffffffffffffffffffff160361438c576040517f08c379a0000000000000000000000000000000000000000000000000000000008152600401614383906162e9565b60405180910390fd5b600073ffffffffffffffffffffffffffffffffffffffff168273ffffffffffffffffffffffffffffffffffffffff16036143fb576040517f08c379a00000000000000000000000000000000000000000000000000000000081526004016143f29061637b565b60405180910390fd5b61440683838361481b565b60008060008573ffffffffffffffffffffffffffffffffffffffff1673ffffffffffffffffffffffffffffffffffffffff1681526020019081526020016000205490508181101561448c576040517f08c379a00000000000000000000000000000000000000000000000000000000081526004016144839061640d565b60405180910390fd5b8181036000808673ffffffffffffffffffffffffffffffffffffffff1673ffffffffffffffffffffffffffffffffffffffff16815260200190815260200160002081905550816000808573ffffffffffffffffffffffffffffffffffffffff1673ffffffffffffffffffffffffffffffffffffffff168152602001908152602001600020600082825401925050819055508273ffffffffffffffffffffffffffffffffffffffff168473ffffffffffffffffffffffffffffffffffffffff167fddf252ad1be2c89b69c2b068fc378daa952ba7f163c4a11628f55a4df523b3ef8460405161457a91906148fb565b60405180910390a361458d848484614820565b50505050565b614629816040516024016145a791906148fb565b6040516020818303038152906040527ff82c50f1000000000000000000000000000000000000000000000000000000007bffffffffffffffffffffffffffffffffffffffffffffffffffffffff19166020820180517bffffffffffffffffffffffffffffffffffffffffffffffffffffffff8381831617835250505050614825565b50565b6146c2816040516024016146409190614a58565b6040516020818303038152906040527f41304fac000000000000000000000000000000000000000000000000000000007bffffffffffffffffffffffffffffffffffffffffffffffffffffffff19166020820180517bffffffffffffffffffffffffffffffffffffffffffffffffffffffff8381831617835250505050614825565b50565b600073ffffffffffffffffffffffffffffffffffffffff168273ffffffffffffffffffffffffffffffffffffffff1603614734576040517f08c379a000000000000000000000000000000000000000000000000000000000815260040161472b90616479565b60405180910390fd5b6147406000838361481b565b80600260008282546147529190615704565b92505081905550806000808473ffffffffffffffffffffffffffffffffffffffff1673ffffffffffffffffffffffffffffffffffffffff168152602001908152602001600020600082825401925050819055508173ffffffffffffffffffffffffffffffffffffffff16600073ffffffffffffffffffffffffffffffffffffffff167fddf252ad1be2c89b69c2b068fc378daa952ba7f163c4a11628f55a4df523b3ef8360405161480391906148fb565b60405180910390a361481760008383614820565b5050565b505050565b505050565b61483c8161483461483f614860565b63ffffffff16565b50565b60006a636f6e736f6c652e6c6f679050600080835160208501845afa505050565b6148d8819050919050565b604051806101400160405280600a905b606081526020019060019003908161487b5790505090565b604051806101400160405280600a90602082028036833780820191505090505090565b6040518060400160405280600290602082028036833780820191505090505090565b6148e0616499565b565b6000819050919050565b6148f5816148e2565b82525050565b600060208201905061491060008301846148ec565b92915050565b6000604051905090565b600080fd5b600080fd5b614933816148e2565b811461493e57600080fd5b50565b6000813590506149508161492a565b92915050565b60006020828403121561496c5761496b614920565b5b600061497a84828501614941565b91505092915050565b600060808201905061499860008301876148ec565b6149a560208301866148ec565b6149b260408301856148ec565b6149bf60608301846148ec565b95945050505050565b600081519050919050565b600082825260208201905092915050565b60005b83811015614a025780820151818401526020810190506149e7565b60008484015250505050565b6000601f19601f8301169050919050565b6000614a2a826149c8565b614a3481856149d3565b9350614a448185602086016149e4565b614a4d81614a0e565b840191505092915050565b60006020820190508181036000830152614a728184614a1f565b905092915050565b600073ffffffffffffffffffffffffffffffffffffffff82169050919050565b6000614aa582614a7a565b9050919050565b614ab581614a9a565b8114614ac057600080fd5b50565b600081359050614ad281614aac565b92915050565b60008060408385031215614aef57614aee614920565b5b6000614afd85828601614ac3565b9250506020614b0e85828601614941565b9150509250929050565b60008115159050919050565b614b2d81614b18565b82525050565b6000602082019050614b486000830184614b24565b92915050565b600080600060608486031215614b6757614b66614920565b5b6000614b7586828701614ac3565b9350506020614b8686828701614ac3565b9250506040614b9786828701614941565b9150509250925092565b600060ff82169050919050565b614bb781614ba1565b82525050565b6000602082019050614bd26000830184614bae565b92915050565b600080fd5b7f4e487b7100000000000000000000000000000000000000000000000000000000600052604160045260246000fd5b614c1582614a0e565b810181811067ffffffffffffffff82111715614c3457614c33614bdd565b5b80604052505050565b6000614c47614916565b9050614c538282614c0c565b919050565b600067ffffffffffffffff821115614c7357614c72614bdd565b5b602082029050602081019050919050565b600080fd5b600080fd5b600067ffffffffffffffff821115614ca957614ca8614bdd565b5b614cb282614a0e565b9050602081019050919050565b82818337600083830152505050565b6000614ce1614cdc84614c8e565b614c3d565b905082815260208101848484011115614cfd57614cfc614c89565b5b614d08848285614cbf565b509392505050565b600082601f830112614d2557614d24614bd8565b5b8135614d35848260208601614cce565b91505092915050565b6000614d51614d4c84614c58565b614c3d565b90508083825260208201905060208402830185811115614d7457614d73614c84565b5b835b81811015614dbb57803567ffffffffffffffff811115614d9957614d98614bd8565b5b808601614da68982614d10565b85526020850194505050602081019050614d76565b5050509392505050565b600082601f830112614dda57614dd9614bd8565b5b8135614dea848260208601614d3e565b91505092915050565b600067ffffffffffffffff821115614e0e57614e0d614bdd565b5b602082029050602081019050919050565b6000614e32614e2d84614df3565b614c3d565b90508083825260208201905060208402830185811115614e5557614e54614c84565b5b835b81811015614e7e5780614e6a8882614941565b845260208401935050602081019050614e57565b5050509392505050565b600082601f830112614e9d57614e9c614bd8565b5b8135614ead848260208601614e1f565b91505092915050565b600080600080600060a08688031215614ed257614ed1614920565b5b600086013567ffffffffffffffff811115614ef057614eef614925565b5b614efc88828901614dc5565b955050602086013567ffffffffffffffff811115614f1d57614f1c614925565b5b614f2988828901614e88565b945050604086013567ffffffffffffffff811115614f4a57614f49614925565b5b614f5688828901614e88565b935050606086013567ffffffffffffffff811115614f7757614f76614925565b5b614f8388828901614dc5565b925050608086013567ffffffffffffffff811115614fa457614fa3614925565b5b614fb088828901614dc5565b9150509295509295909350565b6000600a9050919050565b600081905092915050565b6000819050919050565b600082825260208201905092915050565b6000614ff9826149c8565b6150038185614fdd565b93506150138185602086016149e4565b61501c81614a0e565b840191505092915050565b60006150338383614fee565b905092915050565b6000602082019050919050565b600061505382614fbd565b61505d8185614fc8565b93508360208202850161506f85614fd3565b8060005b858110156150ab578484038952815161508c8582615027565b94506150978361503b565b925060208a01995050600181019050615073565b50829750879550505050505092915050565b6000600a9050919050565b600081905092915050565b6000819050919050565b6150e6816148e2565b82525050565b60006150f883836150dd565b60208301905092915050565b6000602082019050919050565b61511a816150bd565b61512481846150c8565b925061512f826150d3565b8060005b8381101561516057815161514787826150ec565b965061515283615104565b925050600181019050615133565b505050505050565b600060029050919050565b600081905092915050565b6000819050919050565b6000602082019050919050565b61519e81615168565b6151a88184615173565b92506151b38261517e565b8060005b838110156151e45781516151cb87826150ec565b96506151d683615188565b9250506001810190506151b7565b505050505050565b60006102e08201905081810360008301526152078187615048565b90506152166020830186615111565b615224610160830185615111565b6152326102a0830184615195565b95945050505050565b60006020828403121561525157615250614920565b5b600061525f84828501614ac3565b91505092915050565b60006020828403121561527e5761527d614920565b5b600082013567ffffffffffffffff81111561529c5761529b614925565b5b6152a884828501614d10565b91505092915050565b600081519050919050565b600082825260208201905092915050565b6000819050602082019050919050565b6000602082019050919050565b60006152f5826152b1565b6152ff81856152bc565b935061530a836152cd565b8060005b8381101561533b57815161532288826150ec565b975061532d836152dd565b92505060018101905061530e565b5085935050505092915050565b600081519050919050565b600082825260208201905092915050565b6000819050602082019050919050565b6000602082019050919050565b600061538c82615348565b6153968185615353565b9350836020820285016153a885615364565b8060005b858110156153e457848403895281516153c58582615027565b94506153d083615374565b925060208a019950506001810190506153ac565b50829750879550505050505092915050565b600060a082019050818103600083015261541081886152ea565b9050818103602083015261542481876152ea565b9050818103604083015261543881866152ea565b9050818103606083015261544c8185615381565b905081810360808301526154608184615381565b90509695505050505050565b6000806040838503121561548357615482614920565b5b600061549185828601614ac3565b92505060206154a285828601614ac3565b9150509250929050565b600080604083850312156154c3576154c2614920565b5b600083013567ffffffffffffffff8111156154e1576154e0614925565b5b6154ed85828601614dc5565b925050602083013567ffffffffffffffff81111561550e5761550d614925565b5b61551a85828601614e88565b9150509250929050565b600080600080600060a086880312156155405761553f614920565b5b600061554e88828901614ac3565b955050602061555f88828901614ac3565b945050604061557088828901614941565b935050606061558188828901614941565b925050608061559288828901614ac3565b9150509295509295909350565b7f4e487b7100000000000000000000000000000000000000000000000000000000600052602260045260246000fd5b600060028204905060018216806155e657607f821691505b6020821081036155f9576155f861559f565b5b50919050565b7f4e487b7100000000000000000000000000000000000000000000000000000000600052601260045260246000fd5b7f4e487b7100000000000000000000000000000000000000000000000000000000600052601160045260246000fd5b6000615668826148e2565b9150615673836148e2565b925082615683576156826155ff565b5b828204905092915050565b6000615699826148e2565b91506156a4836148e2565b92508282026156b2816148e2565b915082820484148315176156c9576156c861562e565b5b5092915050565b60006156db826148e2565b91506156e6836148e2565b92508282039050818111156156fe576156fd61562e565b5b92915050565b600061570f826148e2565b915061571a836148e2565b92508282019050808211156157325761573161562e565b5b92915050565b7f4d7573742062652061206d656d62657220746f207573652044414f2066756e6360008201527f74696f6e00000000000000000000000000000000000000000000000000000000602082015250565b60006157946024836149d3565b915061579f82615738565b604082019050919050565b600060208201905081810360008301526157c381615787565b9050919050565b7f417272617973206d757374206265207468652073616d652073697a6500000000600082015250565b6000615800601c836149d3565b915061580b826157ca565b602082019050919050565b6000602082019050818103600083015261582f816157f3565b9050919050565b7f4e487b7100000000000000000000000000000000000000000000000000000000600052603260045260246000fd5b600081905092915050565b600061587b826149c8565b6158858185615865565b93506158958185602086016149e4565b80840191505092915050565b60006158ad8284615870565b915081905092915050565b60008190508160005260206000209050919050565b60006020601f8301049050919050565b600082821b905092915050565b60006008830261591a7fffffffffffffffffffffffffffffffffffffffffffffffffffffffffffffffff826158dd565b61592486836158dd565b95508019841693508086168417925050509392505050565b6000819050919050565b600061596161595c615957846148e2565b61593c565b6148e2565b9050919050565b6000819050919050565b61597b83615946565b61598f61598782615968565b8484546158ea565b825550505050565b600090565b6159a4615997565b6159af818484615972565b505050565b5b818110156159d3576159c860008261599c565b6001810190506159b5565b5050565b601f821115615a18576159e9816158b8565b6159f2846158cd565b81016020851015615a01578190505b615a15615a0d856158cd565b8301826159b4565b50505b505050565b600082821c905092915050565b6000615a3b60001984600802615a1d565b1980831691505092915050565b6000615a548383615a2a565b9150826002028217905092915050565b615a6d826149c8565b67ffffffffffffffff811115615a8657615a85614bdd565b5b615a9082546155ce565b615a9b8282856159d7565b600060209050601f831160018114615ace5760008415615abc578287015190505b615ac68582615a48565b865550615b2e565b601f198416615adc866158b8565b60005b82811015615b0457848901518255600182019150602085019450602081019050615adf565b86831015615b215784890151615b1d601f891682615a2a565b8355505b6001600288020188555050505b505050505050565b6000615b41826148e2565b91507fffffffffffffffffffffffffffffffffffffffffffffffffffffffffffffffff8203615b7357615b7261562e565b5b600182019050919050565b7f45524332303a2064656372656173656420616c6c6f77616e63652062656c6f7760008201527f207a65726f000000000000000000000000000000000000000000000000000000602082015250565b6000615bda6025836149d3565b9150615be582615b7e565b604082019050919050565b60006020820190508181036000830152615c0981615bcd565b9050919050565b7f5745544800000000000000000000000000000000000000000000000000000000600082015250565b6000615c46600483615865565b9150615c5182615c10565b600482019050919050565b6000615c6782615c39565b9150819050919050565b615c7a81614a9a565b82525050565b6000602082019050615c956000830184615c71565b92915050565b600081519050615caa8161492a565b92915050565b600060208284031215615cc657615cc5614920565b5b6000615cd484828501615c9b565b91505092915050565b6000604082019050615cf26000830185615c71565b615cff60208301846148ec565b9392505050565b615d0f81614b18565b8114615d1a57600080fd5b50565b600081519050615d2c81615d06565b92915050565b600060208284031215615d4857615d47614920565b5b6000615d5684828501615d1d565b91505092915050565b600081519050919050565b600082825260208201905092915050565b6000819050602082019050919050565b615d9481614a9a565b82525050565b6000615da68383615d8b565b60208301905092915050565b6000602082019050919050565b6000615dca82615d5f565b615dd48185615d6a565b9350615ddf83615d7b565b8060005b83811015615e10578151615df78882615d9a565b9750615e0283615db2565b925050600181019050615de3565b5085935050505092915050565b600060a082019050615e3260008301886148ec565b615e3f60208301876148ec565b8181036040830152615e518186615dbf565b9050615e606060830185615c71565b615e6d60808301846148ec565b9695505050505050565b6000615e8a615e8584614df3565b614c3d565b90508083825260208201905060208402830185811115615ead57615eac614c84565b5b835b81811015615ed65780615ec28882615c9b565b845260208401935050602081019050615eaf565b5050509392505050565b600082601f830112615ef557615ef4614bd8565b5b8151615f05848260208601615e77565b91505092915050565b600060208284031215615f2457615f23614920565b5b600082015167ffffffffffffffff811115615f4257615f41614925565b5b615f4e84828501615ee0565b91505092915050565b7f4d696e696d756d2062757920696e20697320302e312065746865720000000000600082015250565b6000615f8d601b836149d3565b9150615f9882615f57565b602082019050919050565b60006020820190508181036000830152615fbc81615f80565b9050919050565b7f45524332303a20617070726f76652066726f6d20746865207a65726f2061646460008201527f7265737300000000000000000000000000000000000000000000000000000000602082015250565b600061601f6024836149d3565b915061602a82615fc3565b604082019050919050565b6000602082019050818103600083015261604e81616012565b9050919050565b7f45524332303a20617070726f766520746f20746865207a65726f20616464726560008201527f7373000000000000000000000000000000000000000000000000000000000000602082015250565b60006160b16022836149d3565b91506160bc82616055565b604082019050919050565b600060208201905081810360008301526160e0816160a4565b9050919050565b7f45524332303a206275726e2066726f6d20746865207a65726f2061646472657360008201527f7300000000000000000000000000000000000000000000000000000000000000602082015250565b60006161436021836149d3565b915061614e826160e7565b604082019050919050565b6000602082019050818103600083015261617281616136565b9050919050565b7f45524332303a206275726e20616d6f756e7420657863656564732062616c616e60008201527f6365000000000000000000000000000000000000000000000000000000000000602082015250565b60006161d56022836149d3565b91506161e082616179565b604082019050919050565b60006020820190508181036000830152616204816161c8565b9050919050565b7f45524332303a20696e73756666696369656e7420616c6c6f77616e6365000000600082015250565b6000616241601d836149d3565b915061624c8261620b565b602082019050919050565b6000602082019050818103600083015261627081616234565b9050919050565b7f45524332303a207472616e736665722066726f6d20746865207a65726f20616460008201527f6472657373000000000000000000000000000000000000000000000000000000602082015250565b60006162d36025836149d3565b91506162de82616277565b604082019050919050565b60006020820190508181036000830152616302816162c6565b9050919050565b7f45524332303a207472616e7366657220746f20746865207a65726f206164647260008201527f6573730000000000000000000000000000000000000000000000000000000000602082015250565b60006163656023836149d3565b915061637082616309565b604082019050919050565b6000602082019050818103600083015261639481616358565b9050919050565b7f45524332303a207472616e7366657220616d6f756e742065786365656473206260008201527f616c616e63650000000000000000000000000000000000000000000000000000602082015250565b60006163f76026836149d3565b91506164028261639b565b604082019050919050565b60006020820190508181036000830152616426816163ea565b9050919050565b7f45524332303a206d696e7420746f20746865207a65726f206164647265737300600082015250565b6000616463601f836149d3565b915061646e8261642d565b602082019050919050565b6000602082019050818103600083015261649281616456565b9050919050565b7f4e487b7100000000000000000000000000000000000000000000000000000000600052605160045260246000fdfea2646970667358221220da7e0b0366b5c77dc956be4df1817ff5b7e393654058a91fd6cd4c8b8feaa5df64736f6c63430008130033",
  "linkReferences": {},
  "deployedLinkReferences": {}
}