{
  "_format": "hh-sol-artifact-1",
  "contractName": "OptimizerDAO",
  "sourceName": "contracts/OptimizerDAO.sol",
  "abi": [
    {
      "inputs": [],
      "stateMutability": "nonpayable",
      "type": "constructor"
    },
    {
      "anonymous": false,
      "inputs": [
        {
          "indexed": true,
          "internalType": "address",
          "name": "owner",
          "type": "address"
        },
        {
          "indexed": true,
          "internalType": "address",
          "name": "spender",
          "type": "address"
        },
        {
          "indexed": false,
          "internalType": "uint256",
          "name": "value",
          "type": "uint256"
        }
      ],
      "name": "Approval",
      "type": "event"
    },
    {
      "anonymous": false,
      "inputs": [
        {
          "indexed": true,
          "internalType": "address",
          "name": "from",
          "type": "address"
        },
        {
          "indexed": true,
          "internalType": "address",
          "name": "to",
          "type": "address"
        },
        {
          "indexed": false,
          "internalType": "uint256",
          "name": "value",
          "type": "uint256"
        }
      ],
      "name": "Transfer",
      "type": "event"
    },
    {
      "inputs": [
        {
          "internalType": "address",
          "name": "_tokenIn",
          "type": "address"
        },
        {
          "internalType": "address",
          "name": "_tokenOut",
          "type": "address"
        },
        {
          "internalType": "uint256",
          "name": "_amountIn",
          "type": "uint256"
        },
        {
          "internalType": "uint256",
          "name": "_amountOutMin",
          "type": "uint256"
        },
        {
          "internalType": "address",
          "name": "_to",
          "type": "address"
        }
      ],
      "name": "_swap",
      "outputs": [],
      "stateMutability": "nonpayable",
      "type": "function"
    },
    {
      "inputs": [
        {
          "internalType": "address",
          "name": "owner",
          "type": "address"
        },
        {
          "internalType": "address",
          "name": "spender",
          "type": "address"
        }
      ],
      "name": "allowance",
      "outputs": [
        {
          "internalType": "uint256",
          "name": "",
          "type": "uint256"
        }
      ],
      "stateMutability": "view",
      "type": "function"
    },
    {
      "inputs": [
        {
          "internalType": "address",
          "name": "spender",
          "type": "address"
        },
        {
          "internalType": "uint256",
          "name": "amount",
          "type": "uint256"
        }
      ],
      "name": "approve",
      "outputs": [
        {
          "internalType": "bool",
          "name": "",
          "type": "bool"
        }
      ],
      "stateMutability": "nonpayable",
      "type": "function"
    },
    {
      "inputs": [
        {
          "internalType": "string",
          "name": "",
          "type": "string"
        }
      ],
      "name": "assetWeightings",
      "outputs": [
        {
          "internalType": "uint256",
          "name": "",
          "type": "uint256"
        }
      ],
      "stateMutability": "view",
      "type": "function"
    },
    {
      "inputs": [
        {
          "internalType": "address",
          "name": "account",
          "type": "address"
        }
      ],
      "name": "balanceOf",
      "outputs": [
        {
          "internalType": "uint256",
          "name": "",
          "type": "uint256"
        }
      ],
      "stateMutability": "view",
      "type": "function"
    },
    {
      "inputs": [],
      "name": "decimals",
      "outputs": [
        {
          "internalType": "uint8",
          "name": "",
          "type": "uint8"
        }
      ],
      "stateMutability": "view",
      "type": "function"
    },
    {
      "inputs": [
        {
          "internalType": "address",
          "name": "spender",
          "type": "address"
        },
        {
          "internalType": "uint256",
          "name": "subtractedValue",
          "type": "uint256"
        }
      ],
      "name": "decreaseAllowance",
      "outputs": [
        {
          "internalType": "bool",
          "name": "",
          "type": "bool"
        }
      ],
      "stateMutability": "nonpayable",
      "type": "function"
    },
    {
      "inputs": [
        {
          "internalType": "string",
          "name": "_token",
          "type": "string"
        }
      ],
      "name": "getProposalVotes",
      "outputs": [
        {
          "internalType": "uint256[]",
          "name": "",
          "type": "uint256[]"
        },
        {
          "internalType": "uint256[]",
          "name": "",
          "type": "uint256[]"
        },
        {
          "internalType": "uint256[]",
          "name": "",
          "type": "uint256[]"
        },
        {
          "internalType": "string[]",
          "name": "",
          "type": "string[]"
        },
        {
          "internalType": "string[]",
          "name": "",
          "type": "string[]"
        }
      ],
      "stateMutability": "view",
      "type": "function"
    },
    {
      "inputs": [
        {
          "internalType": "address",
          "name": "spender",
          "type": "address"
        },
        {
          "internalType": "uint256",
          "name": "addedValue",
          "type": "uint256"
        }
      ],
      "name": "increaseAllowance",
      "outputs": [
        {
          "internalType": "bool",
          "name": "",
          "type": "bool"
        }
      ],
      "stateMutability": "nonpayable",
      "type": "function"
    },
    {
      "inputs": [
        {
          "internalType": "string[]",
          "name": "_assets",
          "type": "string[]"
        },
        {
          "internalType": "uint256[]",
          "name": "_percentage",
          "type": "uint256[]"
        }
      ],
      "name": "initiateTradesOnUniswap",
      "outputs": [],
      "stateMutability": "nonpayable",
      "type": "function"
    },
    {
      "inputs": [],
      "name": "joinDAO",
      "outputs": [],
      "stateMutability": "payable",
      "type": "function"
    },
    {
      "inputs": [],
      "name": "lastSnapshotEth",
      "outputs": [
        {
          "internalType": "uint256",
          "name": "",
          "type": "uint256"
        }
      ],
      "stateMutability": "view",
      "type": "function"
    },
    {
      "inputs": [],
      "name": "leaveDAO",
      "outputs": [],
      "stateMutability": "nonpayable",
      "type": "function"
    },
    {
      "inputs": [],
      "name": "name",
      "outputs": [
        {
          "internalType": "string",
          "name": "",
          "type": "string"
        }
      ],
      "stateMutability": "view",
      "type": "function"
    },
    {
      "inputs": [
        {
          "internalType": "uint256",
          "name": "",
          "type": "uint256"
        }
      ],
      "name": "proposals",
      "outputs": [
        {
          "internalType": "uint256",
          "name": "date",
          "type": "uint256"
        },
        {
          "internalType": "uint256",
          "name": "endDate",
          "type": "uint256"
        }
      ],
      "stateMutability": "view",
      "type": "function"
    },
    {
      "inputs": [],
      "name": "startingEth",
      "outputs": [
        {
          "internalType": "uint256",
          "name": "",
          "type": "uint256"
        }
      ],
      "stateMutability": "view",
      "type": "function"
    },
    {
      "inputs": [
        {
          "internalType": "string[]",
          "name": "_token",
          "type": "string[]"
        },
        {
          "internalType": "uint256[]",
          "name": "_perfOfToken",
          "type": "uint256[]"
        },
        {
          "internalType": "uint256[]",
          "name": "_confidenceLevels",
          "type": "uint256[]"
        },
        {
          "internalType": "string[]",
          "name": "_userViewsType",
          "type": "string[]"
        },
        {
          "internalType": "string[]",
          "name": "_userViewsRelativeToken",
          "type": "string[]"
        }
      ],
      "name": "submbitVote",
      "outputs": [],
      "stateMutability": "nonpayable",
      "type": "function"
    },
    {
      "inputs": [],
      "name": "symbol",
      "outputs": [
        {
          "internalType": "string",
          "name": "",
          "type": "string"
        }
      ],
      "stateMutability": "view",
      "type": "function"
    },
    {
      "inputs": [],
      "name": "totalSupply",
      "outputs": [
        {
          "internalType": "uint256",
          "name": "",
          "type": "uint256"
        }
      ],
      "stateMutability": "view",
      "type": "function"
    },
    {
      "inputs": [
        {
          "internalType": "address",
          "name": "to",
          "type": "address"
        },
        {
          "internalType": "uint256",
          "name": "amount",
          "type": "uint256"
        }
      ],
      "name": "transfer",
      "outputs": [
        {
          "internalType": "bool",
          "name": "",
          "type": "bool"
        }
      ],
      "stateMutability": "nonpayable",
      "type": "function"
    },
    {
      "inputs": [
        {
          "internalType": "address",
          "name": "from",
          "type": "address"
        },
        {
          "internalType": "address",
          "name": "to",
          "type": "address"
        },
        {
          "internalType": "uint256",
          "name": "amount",
          "type": "uint256"
        }
      ],
      "name": "transferFrom",
      "outputs": [
        {
          "internalType": "bool",
          "name": "",
          "type": "bool"
        }
      ],
      "stateMutability": "nonpayable",
      "type": "function"
    },
    {
      "inputs": [],
      "name": "treasuryEth",
      "outputs": [
        {
          "internalType": "uint256",
          "name": "",
          "type": "uint256"
        }
      ],
      "stateMutability": "view",
      "type": "function"
    }
  ],
  "bytecode": "0x60806040523480156200001157600080fd5b506040518060400160405280601381526020017f4f7074696d697a65722044414f20546f6b656e000000000000000000000000008152506040518060400160405280600381526020017f4f4450000000000000000000000000000000000000000000000000000000000081525081600390805190602001906200009692919062000485565b508060049080519060200190620000af92919062000485565b5050506000600a600181600181540180825580915050039060005260206000209060080201905042816000018190555060006040518060a001604052806040518060400160405280600481526020017f574554480000000000000000000000000000000000000000000000000000000081525081526020016040518060400160405280600381526020017f424154000000000000000000000000000000000000000000000000000000000081525081526020016040518060400160405280600481526020017f574254430000000000000000000000000000000000000000000000000000000081525081526020016040518060400160405280600381526020017f554e49000000000000000000000000000000000000000000000000000000000081525081526020016040518060400160405280600381526020017f4d4b520000000000000000000000000000000000000000000000000000000000815250815250905060006040518060a0016040528073c778417e063141139fce010982780140aa0cd5ab73ffffffffffffffffffffffffffffffffffffffff1673ffffffffffffffffffffffffffffffffffffffff16815260200173da5b056cfb861282b4b59d29c9b395bcc238d29b73ffffffffffffffffffffffffffffffffffffffff1673ffffffffffffffffffffffffffffffffffffffff1681526020017214f450b8ae7708593f4a46f8fa6e5d50620f9673ffffffffffffffffffffffffffffffffffffffff1673ffffffffffffffffffffffffffffffffffffffff168152602001731f9840a85d5af5bf1d1762f925bdaddc4201f98473ffffffffffffffffffffffffffffffffffffffff1673ffffffffffffffffffffffffffffffffffffffff16815260200173f9ba5210f91d0474bd1e1dcdaec4c58e359aad8573ffffffffffffffffffffffffffffffffffffffff1673ffffffffffffffffffffffffffffffffffffffff16815250905060005b60058110156200047b57818160058110620003c4577f4e487b7100000000000000000000000000000000000000000000000000000000600052603260045260246000fd5b6020020151600884836005811062000405577f4e487b7100000000000000000000000000000000000000000000000000000000600052603260045260246000fd5b60200201516040516200041991906200056c565b908152602001604051809103902060006101000a81548173ffffffffffffffffffffffffffffffffffffffff021916908373ffffffffffffffffffffffffffffffffffffffff1602179055508080620004729062000611565b91505062000380565b50505050620006bd565b8280546200049390620005db565b90600052602060002090601f016020900481019282620004b7576000855562000503565b82601f10620004d257805160ff191683800117855562000503565b8280016001018555821562000503579182015b8281111562000502578251825591602001919060010190620004e5565b5b50905062000512919062000516565b5090565b5b808211156200053157600081600090555060010162000517565b5090565b6000620005428262000585565b6200054e818562000590565b935062000560818560208601620005a5565b80840191505092915050565b60006200057a828462000535565b915081905092915050565b600081519050919050565b600081905092915050565b6000819050919050565b60005b83811015620005c5578082015181840152602081019050620005a8565b83811115620005d5576000848401525b50505050565b60006002820490506001821680620005f457607f821691505b602082108114156200060b576200060a6200068e565b5b50919050565b60006200061e826200059b565b91507fffffffffffffffffffffffffffffffffffffffffffffffffffffffffffffffff8214156200065457620006536200065f565b5b600182019050919050565b7f4e487b7100000000000000000000000000000000000000000000000000000000600052601160045260246000fd5b7f4e487b7100000000000000000000000000000000000000000000000000000000600052602260045260246000fd5b6147ad80620006cd6000396000f3fe6080604052600436106101345760003560e01c8063856e7678116100ab578063a91f3b511161006f578063a91f3b5114610468578063b4f301c814610493578063dd62ed3e146104d0578063e430fcb61461050d578063e47b227914610536578063f63d13d71461055f57610134565b8063856e7678146103595780638b1fdf241461038257806395d89b41146103c3578063a457c2d7146103ee578063a9059cbb1461042b57610134565b80631de7df41116100fd5780631de7df411461023557806323b872dd1461024c578063313ce5671461028957806332d184dc146102b457806339509351146102df57806370a082311461031c57610134565b8062c7f3fb14610139578063013cf08b1461016457806306fdde03146101a2578063095ea7b3146101cd57806318160ddd1461020a575b600080fd5b34801561014557600080fd5b5061014e610569565b60405161015b91906141d3565b60405180910390f35b34801561017057600080fd5b5061018b60048036038101906101869190613754565b61056f565b6040516101999291906141ee565b60405180910390f35b3480156101ae57600080fd5b506101b76105a3565b6040516101c49190614011565b60405180910390f35b3480156101d957600080fd5b506101f460048036038101906101ef9190613512565b610635565b6040516102019190613ff6565b60405180910390f35b34801561021657600080fd5b5061021f610658565b60405161022c91906141d3565b60405180910390f35b34801561024157600080fd5b5061024a610662565b005b34801561025857600080fd5b50610273600480360381019061026e919061344c565b61070e565b6040516102809190613ff6565b60405180910390f35b34801561029557600080fd5b5061029e61073d565b6040516102ab9190614271565b60405180910390f35b3480156102c057600080fd5b506102c9610746565b6040516102d691906141d3565b60405180910390f35b3480156102eb57600080fd5b5061030660048036038101906103019190613512565b61074c565b6040516103139190613ff6565b60405180910390f35b34801561032857600080fd5b50610343600480360381019061033e91906133e7565b610783565b60405161035091906141d3565b60405180910390f35b34801561036557600080fd5b50610380600480360381019061037b91906135ba565b6107cb565b005b34801561038e57600080fd5b506103a960048036038101906103a49190613713565b610ebd565b6040516103ba959493929190613f80565b60405180910390f35b3480156103cf57600080fd5b506103d8611692565b6040516103e59190614011565b60405180910390f35b3480156103fa57600080fd5b5061041560048036038101906104109190613512565b611724565b6040516104229190613ff6565b60405180910390f35b34801561043757600080fd5b50610452600480360381019061044d9190613512565b61179b565b60405161045f9190613ff6565b60405180910390f35b34801561047457600080fd5b5061047d6117be565b60405161048a91906141d3565b60405180910390f35b34801561049f57600080fd5b506104ba60048036038101906104b59190613713565b6117c4565b6040516104c791906141d3565b60405180910390f35b3480156104dc57600080fd5b506104f760048036038101906104f29190613410565b6117f2565b60405161050491906141d3565b60405180910390f35b34801561051957600080fd5b50610534600480360381019061052f919061354e565b611879565b005b34801561054257600080fd5b5061055d6004803603810190610558919061349b565b6121da565b005b61056761270c565b005b60055481565b600a818154811061057f57600080fd5b90600052602060002090600802016000915090508060000154908060010154905082565b6060600380546105b2906145ea565b80601f01602080910402602001604051908101604052809291908181526020018280546105de906145ea565b801561062b5780601f106106005761010080835404028352916020019161062b565b820191906000526020600020905b81548152906001019060200180831161060e57829003601f168201915b5050505050905090565b6000806106406127f2565b905061064d8185856127fa565b600191505092915050565b6000600254905090565b600061066d33610783565b90506000811161067c57600080fd5b6000600554610689610658565b836106949190614494565b61069e91906144c5565b90506106aa33836129c5565b3373ffffffffffffffffffffffffffffffffffffffff166108fc829081150290604051600060405180830381858888f193505050501580156106f0573d6000803e3d6000fd5b508060056000828254610703919061451f565b925050819055505050565b6000806107196127f2565b9050610726858285612b9c565b610731858585612c28565b60019150509392505050565b60006012905090565b60065481565b6000806107576127f2565b905061077881858561076985896117f2565b610773919061443e565b6127fa565b600191505092915050565b60008060008373ffffffffffffffffffffffffffffffffffffffff1673ffffffffffffffffffffffffffffffffffffffff168152602001908152602001600020549050919050565b60006107d633610783565b116107e057600080fd5b835185511480156107f2575082518451145b610831576040517f08c379a000000000000000000000000000000000000000000000000000000000815260040161082890614173565b60405180910390fd5b600061083c33610783565b905060005b8651811015610eb457600a6001600a8054905061085e919061451f565b81548110610895577f4e487b7100000000000000000000000000000000000000000000000000000000600052603260045260246000fd5b90600052602060002090600802016002018782815181106108df577f4e487b7100000000000000000000000000000000000000000000000000000000600052603260045260246000fd5b602002602001015190806001815401808255809150506001900390600052602060002001600090919091909150908051906020019061091f9291906130d5565b50600a6001600a80549050610934919061451f565b8154811061096b577f4e487b7100000000000000000000000000000000000000000000000000000000600052603260045260246000fd5b90600052602060002090600802016004018782815181106109b5577f4e487b7100000000000000000000000000000000000000000000000000000000600052603260045260246000fd5b60200260200101516040516109ca9190613f10565b9081526020016040518091039020868281518110610a11577f4e487b7100000000000000000000000000000000000000000000000000000000600052603260045260246000fd5b60200260200101519080600181540180825580915050600190039060005260206000200160009091909190915055600a6001600a80549050610a53919061451f565b81548110610a8a577f4e487b7100000000000000000000000000000000000000000000000000000000600052603260045260246000fd5b9060005260206000209060080201600301878281518110610ad4577f4e487b7100000000000000000000000000000000000000000000000000000000600052603260045260246000fd5b6020026020010151604051610ae99190613f10565b9081526020016040518091039020829080600181540180825580915050600190039060005260206000200160009091909190915055600a6001600a80549050610b32919061451f565b81548110610b69577f4e487b7100000000000000000000000000000000000000000000000000000000600052603260045260246000fd5b9060005260206000209060080201600501878281518110610bb3577f4e487b7100000000000000000000000000000000000000000000000000000000600052603260045260246000fd5b6020026020010151604051610bc89190613f10565b9081526020016040518091039020858281518110610c0f577f4e487b7100000000000000000000000000000000000000000000000000000000600052603260045260246000fd5b60200260200101519080600181540180825580915050600190039060005260206000200160009091909190915055600a6001600a80549050610c51919061451f565b81548110610c88577f4e487b7100000000000000000000000000000000000000000000000000000000600052603260045260246000fd5b9060005260206000209060080201600601878281518110610cd2577f4e487b7100000000000000000000000000000000000000000000000000000000600052603260045260246000fd5b6020026020010151604051610ce79190613f10565b9081526020016040518091039020848281518110610d2e577f4e487b7100000000000000000000000000000000000000000000000000000000600052603260045260246000fd5b6020026020010151908060018154018082558091505060019003906000526020600020016000909190919091509080519060200190610d6e9291906130d5565b50600a6001600a80549050610d83919061451f565b81548110610dba577f4e487b7100000000000000000000000000000000000000000000000000000000600052603260045260246000fd5b9060005260206000209060080201600701878281518110610e04577f4e487b7100000000000000000000000000000000000000000000000000000000600052603260045260246000fd5b6020026020010151604051610e199190613f10565b9081526020016040518091039020838281518110610e60577f4e487b7100000000000000000000000000000000000000000000000000000000600052603260045260246000fd5b6020026020010151908060018154018082558091505060019003906000526020600020016000909190919091509080519060200190610ea09291906130d5565b508080610eac9061461c565b915050610841565b50505050505050565b60608060608060606000600a6001600a80549050610edb919061451f565b81548110610f12577f4e487b7100000000000000000000000000000000000000000000000000000000600052603260045260246000fd5b9060005260206000209060080201905060008160030188604051610f369190613f10565b908152602001604051809103902080549050905060008167ffffffffffffffff811115610f8c577f4e487b7100000000000000000000000000000000000000000000000000000000600052604160045260246000fd5b604051908082528060200260200182016040528015610fba5781602001602082028036833780820191505090505b50905060008267ffffffffffffffff811115610fff577f4e487b7100000000000000000000000000000000000000000000000000000000600052604160045260246000fd5b60405190808252806020026020018201604052801561102d5781602001602082028036833780820191505090505b50905060008367ffffffffffffffff811115611072577f4e487b7100000000000000000000000000000000000000000000000000000000600052604160045260246000fd5b6040519080825280602002602001820160405280156110a05781602001602082028036833780820191505090505b50905060008467ffffffffffffffff8111156110e5577f4e487b7100000000000000000000000000000000000000000000000000000000600052604160045260246000fd5b60405190808252806020026020018201604052801561111857816020015b60608152602001906001900390816111035790505b50905060008567ffffffffffffffff81111561115d577f4e487b7100000000000000000000000000000000000000000000000000000000600052604160045260246000fd5b60405190808252806020026020018201604052801561119057816020015b606081526020019060019003908161117b5790505b50905060005b8681101561167257611209886003018f6040516111b39190613f10565b908152602001604051809103902082815481106111f9577f4e487b7100000000000000000000000000000000000000000000000000000000600052603260045260246000fd5b9060005260206000200154612ea9565b876003018e60405161121b9190613f10565b90815260200160405180910390208181548110611261577f4e487b7100000000000000000000000000000000000000000000000000000000600052603260045260246000fd5b90600052602060002001548682815181106112a5577f4e487b7100000000000000000000000000000000000000000000000000000000600052603260045260246000fd5b602002602001018181525050876004018e6040516112c39190613f10565b90815260200160405180910390208181548110611309577f4e487b7100000000000000000000000000000000000000000000000000000000600052603260045260246000fd5b906000526020600020015485828151811061134d577f4e487b7100000000000000000000000000000000000000000000000000000000600052603260045260246000fd5b602002602001018181525050876005018e60405161136b9190613f10565b908152602001604051809103902081815481106113b1577f4e487b7100000000000000000000000000000000000000000000000000000000600052603260045260246000fd5b90600052602060002001548482815181106113f5577f4e487b7100000000000000000000000000000000000000000000000000000000600052603260045260246000fd5b602002602001018181525050876006018e6040516114139190613f10565b90815260200160405180910390208181548110611459577f4e487b7100000000000000000000000000000000000000000000000000000000600052603260045260246000fd5b90600052602060002001805461146e906145ea565b80601f016020809104026020016040519081016040528092919081815260200182805461149a906145ea565b80156114e75780601f106114bc576101008083540402835291602001916114e7565b820191906000526020600020905b8154815290600101906020018083116114ca57829003601f168201915b5050505050838281518110611525577f4e487b7100000000000000000000000000000000000000000000000000000000600052603260045260246000fd5b6020026020010181905250876007018e6040516115429190613f10565b90815260200160405180910390208181548110611588577f4e487b7100000000000000000000000000000000000000000000000000000000600052603260045260246000fd5b90600052602060002001805461159d906145ea565b80601f01602080910402602001604051908101604052809291908181526020018280546115c9906145ea565b80156116165780601f106115eb57610100808354040283529160200191611616565b820191906000526020600020905b8154815290600101906020018083116115f957829003601f168201915b5050505050828281518110611654577f4e487b7100000000000000000000000000000000000000000000000000000000600052603260045260246000fd5b6020026020010181905250808061166a9061461c565b915050611196565b5084848484849b509b509b509b509b505050505050505091939590929450565b6060600480546116a1906145ea565b80601f01602080910402602001604051908101604052809291908181526020018280546116cd906145ea565b801561171a5780601f106116ef5761010080835404028352916020019161171a565b820191906000526020600020905b8154815290600101906020018083116116fd57829003601f168201915b5050505050905090565b60008061172f6127f2565b9050600061173d82866117f2565b905083811015611782576040517f08c379a000000000000000000000000000000000000000000000000000000000815260040161177990614193565b60405180910390fd5b61178f82868684036127fa565b60019250505092915050565b6000806117a66127f2565b90506117b3818585612c28565b600191505092915050565b60075481565b6009818051602081018201805184825260208301602085012081835280955050505050506000915090505481565b6000600160008473ffffffffffffffffffffffffffffffffffffffff1673ffffffffffffffffffffffffffffffffffffffff16815260200190815260200160002060008373ffffffffffffffffffffffffffffffffffffffff1673ffffffffffffffffffffffffffffffffffffffff16815260200190815260200160002054905092915050565b6000600a805490501115611e8d5760005b8251811015611a7457611a6160088483815181106118d1577f4e487b7100000000000000000000000000000000000000000000000000000000600052603260045260246000fd5b60200260200101516040516118e69190613f10565b908152602001604051809103902060009054906101000a900473ffffffffffffffffffffffffffffffffffffffff16600860405161192390613f27565b908152602001604051809103902060009054906101000a900473ffffffffffffffffffffffffffffffffffffffff16600886858151811061198d577f4e487b7100000000000000000000000000000000000000000000000000000000600052603260045260246000fd5b60200260200101516040516119a29190613f10565b908152602001604051809103902060009054906101000a900473ffffffffffffffffffffffffffffffffffffffff1673ffffffffffffffffffffffffffffffffffffffff166370a08231306040518263ffffffff1660e01b8152600401611a099190613f3c565b60206040518083038186803b158015611a2157600080fd5b505afa158015611a35573d6000803e3d6000fd5b505050506040513d601f19601f82011682018060405250810190611a59919061377d565b6000306121da565b8080611a6c9061461c565b91505061188a565b506008604051611a8390613f27565b908152602001604051809103902060009054906101000a900473ffffffffffffffffffffffffffffffffffffffff1673ffffffffffffffffffffffffffffffffffffffff166370a08231306040518263ffffffff1660e01b8152600401611aea9190613f3c565b60206040518083038186803b158015611b0257600080fd5b505afa158015611b16573d6000803e3d6000fd5b505050506040513d601f19601f82011682018060405250810190611b3a919061377d565b600781905550600073c778417e063141139fce010982780140aa0cd5ab73ffffffffffffffffffffffffffffffffffffffff16476040516024016040516020818303038152906040527fd0e30db0000000000000000000000000000000000000000000000000000000007bffffffffffffffffffffffffffffffffffffffffffffffffffffffff19166020820180517bffffffffffffffffffffffffffffffffffffffffffffffffffffffff8381831617835250505050604051611bfe9190613ef9565b60006040518083038185875af1925050503d8060008114611c3b576040519150601f19603f3d011682016040523d82523d6000602084013e611c40565b606091505b5050905080611c84576040517f08c379a0000000000000000000000000000000000000000000000000000000008152600401611c7b90614133565b60405180910390fd5b60005b8351811015611e585760006008604051611ca090613f27565b908152602001604051809103902060009054906101000a900473ffffffffffffffffffffffffffffffffffffffff1673ffffffffffffffffffffffffffffffffffffffff166370a08231306040518263ffffffff1660e01b8152600401611d079190613f3c565b60206040518083038186803b158015611d1f57600080fd5b505afa158015611d33573d6000803e3d6000fd5b505050506040513d601f19601f82011682018060405250810190611d57919061377d565b848381518110611d90577f4e487b7100000000000000000000000000000000000000000000000000000000600052603260045260246000fd5b6020026020010151611da291906144c5565b9050611e4473c778417e063141139fce010982780140aa0cd5ab6008878581518110611df7577f4e487b7100000000000000000000000000000000000000000000000000000000600052603260045260246000fd5b6020026020010151604051611e0c9190613f10565b908152602001604051809103902060009054906101000a900473ffffffffffffffffffffffffffffffffffffffff16836000306121da565b508080611e509061461c565b915050611c87565b506000600a600181600181540180825580915050039060005260206000209060080201905042816000018190555050506121d6565b600073c778417e063141139fce010982780140aa0cd5ab73ffffffffffffffffffffffffffffffffffffffff16476040516024016040516020818303038152906040527fd0e30db0000000000000000000000000000000000000000000000000000000007bffffffffffffffffffffffffffffffffffffffffffffffffffffffff19166020820180517bffffffffffffffffffffffffffffffffffffffffffffffffffffffff8381831617835250505050604051611f4b9190613ef9565b60006040518083038185875af1925050503d8060008114611f88576040519150601f19603f3d011682016040523d82523d6000602084013e611f8d565b606091505b5050905080611fd1576040517f08c379a0000000000000000000000000000000000000000000000000000000008152600401611fc890614133565b60405180910390fd5b60005b83518110156121a55760006008604051611fed90613f27565b908152602001604051809103902060009054906101000a900473ffffffffffffffffffffffffffffffffffffffff1673ffffffffffffffffffffffffffffffffffffffff166370a08231306040518263ffffffff1660e01b81526004016120549190613f3c565b60206040518083038186803b15801561206c57600080fd5b505afa158015612080573d6000803e3d6000fd5b505050506040513d601f19601f820116820180604052508101906120a4919061377d565b8483815181106120dd577f4e487b7100000000000000000000000000000000000000000000000000000000600052603260045260246000fd5b60200260200101516120ef91906144c5565b905061219173c778417e063141139fce010982780140aa0cd5ab6008878581518110612144577f4e487b7100000000000000000000000000000000000000000000000000000000600052603260045260246000fd5b60200260200101516040516121599190613f10565b908152602001604051809103902060009054906101000a900473ffffffffffffffffffffffffffffffffffffffff16836000306121da565b50808061219d9061461c565b915050611fd4565b506000600a600181600181540180825580915050039060005260206000209060080201905042816000018190555050505b5050565b8473ffffffffffffffffffffffffffffffffffffffff1663095ea7b3735c69bee701ef814a2b6a3edd4b1652cb9cc5aa6f856040518363ffffffff1660e01b8152600401612229929190613f57565b602060405180830381600087803b15801561224357600080fd5b505af1158015612257573d6000803e3d6000fd5b505050506040513d601f19601f8201168201806040525081019061227b91906136ea565b50606073c778417e063141139fce010982780140aa0cd5ab73ffffffffffffffffffffffffffffffffffffffff168673ffffffffffffffffffffffffffffffffffffffff16148061230b575073c778417e063141139fce010982780140aa0cd5ab73ffffffffffffffffffffffffffffffffffffffff168573ffffffffffffffffffffffffffffffffffffffff16145b1561247157600267ffffffffffffffff811115612351577f4e487b7100000000000000000000000000000000000000000000000000000000600052604160045260246000fd5b60405190808252806020026020018201604052801561237f5781602001602082028036833780820191505090505b50905085816000815181106123bd577f4e487b7100000000000000000000000000000000000000000000000000000000600052603260045260246000fd5b602002602001019073ffffffffffffffffffffffffffffffffffffffff16908173ffffffffffffffffffffffffffffffffffffffff16815250508481600181518110612432577f4e487b7100000000000000000000000000000000000000000000000000000000600052603260045260246000fd5b602002602001019073ffffffffffffffffffffffffffffffffffffffff16908173ffffffffffffffffffffffffffffffffffffffff1681525050612657565b600367ffffffffffffffff8111156124b2577f4e487b7100000000000000000000000000000000000000000000000000000000600052604160045260246000fd5b6040519080825280602002602001820160405280156124e05781602001602082028036833780820191505090505b509050858160008151811061251e577f4e487b7100000000000000000000000000000000000000000000000000000000600052603260045260246000fd5b602002602001019073ffffffffffffffffffffffffffffffffffffffff16908173ffffffffffffffffffffffffffffffffffffffff168152505073c778417e063141139fce010982780140aa0cd5ab816001815181106125a7577f4e487b7100000000000000000000000000000000000000000000000000000000600052603260045260246000fd5b602002602001019073ffffffffffffffffffffffffffffffffffffffff16908173ffffffffffffffffffffffffffffffffffffffff1681525050848160028151811061261c577f4e487b7100000000000000000000000000000000000000000000000000000000600052603260045260246000fd5b602002602001019073ffffffffffffffffffffffffffffffffffffffff16908173ffffffffffffffffffffffffffffffffffffffff16815250505b735c69bee701ef814a2b6a3edd4b1652cb9cc5aa6f73ffffffffffffffffffffffffffffffffffffffff166338ed173985858486426040518663ffffffff1660e01b81526004016126ac959493929190614217565b600060405180830381600087803b1580156126c657600080fd5b505af11580156126da573d6000803e3d6000fd5b505050506040513d6000823e3d601f19601f8201168201806040525081019061270391906136a9565b50505050505050565b66926ea644f09600341015612756576040517f08c379a000000000000000000000000000000000000000000000000000000000815260040161274d906140b3565b60405180910390fd5b6000600554141561278d573460058190555060055460068190555061277c600554612ea9565b61278833600554612f42565b6127f0565b346005600082825461279f919061443e565b925050819055506005546006819055506000346005546127bf919061451f565b90506000816127cc610658565b346127d791906144c5565b6127e19190614494565b90506127ed3382612f42565b50505b565b600033905090565b600073ffffffffffffffffffffffffffffffffffffffff168373ffffffffffffffffffffffffffffffffffffffff16141561286a576040517f08c379a000000000000000000000000000000000000000000000000000000000815260040161286190614153565b60405180910390fd5b600073ffffffffffffffffffffffffffffffffffffffff168273ffffffffffffffffffffffffffffffffffffffff1614156128da576040517f08c379a00000000000000000000000000000000000000000000000000000000081526004016128d190614073565b60405180910390fd5b80600160008573ffffffffffffffffffffffffffffffffffffffff1673ffffffffffffffffffffffffffffffffffffffff16815260200190815260200160002060008473ffffffffffffffffffffffffffffffffffffffff1673ffffffffffffffffffffffffffffffffffffffff168152602001908152602001600020819055508173ffffffffffffffffffffffffffffffffffffffff168373ffffffffffffffffffffffffffffffffffffffff167f8c5be1e5ebec7d5bd14f71427d1e84f3dd0314c0f7b2291e5b200ac8c7c3b925836040516129b891906141d3565b60405180910390a3505050565b600073ffffffffffffffffffffffffffffffffffffffff168273ffffffffffffffffffffffffffffffffffffffff161415612a35576040517f08c379a0000000000000000000000000000000000000000000000000000000008152600401612a2c906140f3565b60405180910390fd5b612a41826000836130a2565b60008060008473ffffffffffffffffffffffffffffffffffffffff1673ffffffffffffffffffffffffffffffffffffffff16815260200190815260200160002054905081811015612ac7576040517f08c379a0000000000000000000000000000000000000000000000000000000008152600401612abe90614053565b60405180910390fd5b8181036000808573ffffffffffffffffffffffffffffffffffffffff1673ffffffffffffffffffffffffffffffffffffffff168152602001908152602001600020819055508160026000828254612b1e919061451f565b92505081905550600073ffffffffffffffffffffffffffffffffffffffff168373ffffffffffffffffffffffffffffffffffffffff167fddf252ad1be2c89b69c2b068fc378daa952ba7f163c4a11628f55a4df523b3ef84604051612b8391906141d3565b60405180910390a3612b97836000846130a7565b505050565b6000612ba884846117f2565b90507fffffffffffffffffffffffffffffffffffffffffffffffffffffffffffffffff8114612c225781811015612c14576040517f08c379a0000000000000000000000000000000000000000000000000000000008152600401612c0b90614093565b60405180910390fd5b612c2184848484036127fa565b5b50505050565b600073ffffffffffffffffffffffffffffffffffffffff168373ffffffffffffffffffffffffffffffffffffffff161415612c98576040517f08c379a0000000000000000000000000000000000000000000000000000000008152600401612c8f90614113565b60405180910390fd5b600073ffffffffffffffffffffffffffffffffffffffff168273ffffffffffffffffffffffffffffffffffffffff161415612d08576040517f08c379a0000000000000000000000000000000000000000000000000000000008152600401612cff90614033565b60405180910390fd5b612d138383836130a2565b60008060008573ffffffffffffffffffffffffffffffffffffffff1673ffffffffffffffffffffffffffffffffffffffff16815260200190815260200160002054905081811015612d99576040517f08c379a0000000000000000000000000000000000000000000000000000000008152600401612d90906140d3565b60405180910390fd5b8181036000808673ffffffffffffffffffffffffffffffffffffffff1673ffffffffffffffffffffffffffffffffffffffff16815260200190815260200160002081905550816000808573ffffffffffffffffffffffffffffffffffffffff1673ffffffffffffffffffffffffffffffffffffffff1681526020019081526020016000206000828254612e2c919061443e565b925050819055508273ffffffffffffffffffffffffffffffffffffffff168473ffffffffffffffffffffffffffffffffffffffff167fddf252ad1be2c89b69c2b068fc378daa952ba7f163c4a11628f55a4df523b3ef84604051612e9091906141d3565b60405180910390a3612ea38484846130a7565b50505050565b612f3f81604051602401612ebd91906141d3565b6040516020818303038152906040527ff5b1bba9000000000000000000000000000000000000000000000000000000007bffffffffffffffffffffffffffffffffffffffffffffffffffffffff19166020820180517bffffffffffffffffffffffffffffffffffffffffffffffffffffffff83818316178352505050506130ac565b50565b600073ffffffffffffffffffffffffffffffffffffffff168273ffffffffffffffffffffffffffffffffffffffff161415612fb2576040517f08c379a0000000000000000000000000000000000000000000000000000000008152600401612fa9906141b3565b60405180910390fd5b612fbe600083836130a2565b8060026000828254612fd0919061443e565b92505081905550806000808473ffffffffffffffffffffffffffffffffffffffff1673ffffffffffffffffffffffffffffffffffffffff1681526020019081526020016000206000828254613025919061443e565b925050819055508173ffffffffffffffffffffffffffffffffffffffff16600073ffffffffffffffffffffffffffffffffffffffff167fddf252ad1be2c89b69c2b068fc378daa952ba7f163c4a11628f55a4df523b3ef8360405161308a91906141d3565b60405180910390a361309e600083836130a7565b5050565b505050565b505050565b60008151905060006a636f6e736f6c652e6c6f679050602083016000808483855afa5050505050565b8280546130e1906145ea565b90600052602060002090601f016020900481019282613103576000855561314a565b82601f1061311c57805160ff191683800117855561314a565b8280016001018555821561314a579182015b8281111561314957825182559160200191906001019061312e565b5b509050613157919061315b565b5090565b5b8082111561317457600081600090555060010161315c565b5090565b600061318b613186846142bd565b61428c565b9050808382526020820190508260005b858110156131cb57813585016131b18882613393565b84526020840193506020830192505060018101905061319b565b5050509392505050565b60006131e86131e3846142e9565b61428c565b9050808382526020820190508285602086028201111561320757600080fd5b60005b85811015613237578161321d88826133bd565b84526020840193506020830192505060018101905061320a565b5050509392505050565b600061325461324f846142e9565b61428c565b9050808382526020820190508285602086028201111561327357600080fd5b60005b858110156132a3578161328988826133d2565b845260208401935060208301925050600181019050613276565b5050509392505050565b60006132c06132bb84614315565b61428c565b9050828152602081018484840111156132d857600080fd5b6132e38482856145a8565b509392505050565b6000813590506132fa81614732565b92915050565b600082601f83011261331157600080fd5b8135613321848260208601613178565b91505092915050565b600082601f83011261333b57600080fd5b813561334b8482602086016131d5565b91505092915050565b600082601f83011261336557600080fd5b8151613375848260208601613241565b91505092915050565b60008151905061338d81614749565b92915050565b600082601f8301126133a457600080fd5b81356133b48482602086016132ad565b91505092915050565b6000813590506133cc81614760565b92915050565b6000815190506133e181614760565b92915050565b6000602082840312156133f957600080fd5b6000613407848285016132eb565b91505092915050565b6000806040838503121561342357600080fd5b6000613431858286016132eb565b9250506020613442858286016132eb565b9150509250929050565b60008060006060848603121561346157600080fd5b600061346f868287016132eb565b9350506020613480868287016132eb565b9250506040613491868287016133bd565b9150509250925092565b600080600080600060a086880312156134b357600080fd5b60006134c1888289016132eb565b95505060206134d2888289016132eb565b94505060406134e3888289016133bd565b93505060606134f4888289016133bd565b9250506080613505888289016132eb565b9150509295509295909350565b6000806040838503121561352557600080fd5b6000613533858286016132eb565b9250506020613544858286016133bd565b9150509250929050565b6000806040838503121561356157600080fd5b600083013567ffffffffffffffff81111561357b57600080fd5b61358785828601613300565b925050602083013567ffffffffffffffff8111156135a457600080fd5b6135b08582860161332a565b9150509250929050565b600080600080600060a086880312156135d257600080fd5b600086013567ffffffffffffffff8111156135ec57600080fd5b6135f888828901613300565b955050602086013567ffffffffffffffff81111561361557600080fd5b6136218882890161332a565b945050604086013567ffffffffffffffff81111561363e57600080fd5b61364a8882890161332a565b935050606086013567ffffffffffffffff81111561366757600080fd5b61367388828901613300565b925050608086013567ffffffffffffffff81111561369057600080fd5b61369c88828901613300565b9150509295509295909350565b6000602082840312156136bb57600080fd5b600082015167ffffffffffffffff8111156136d557600080fd5b6136e184828501613354565b91505092915050565b6000602082840312156136fc57600080fd5b600061370a8482850161337e565b91505092915050565b60006020828403121561372557600080fd5b600082013567ffffffffffffffff81111561373f57600080fd5b61374b84828501613393565b91505092915050565b60006020828403121561376657600080fd5b6000613774848285016133bd565b91505092915050565b60006020828403121561378f57600080fd5b600061379d848285016133d2565b91505092915050565b60006137b283836137ea565b60208301905092915050565b60006137ca8383613979565b905092915050565b60006137de8383613ecc565b60208301905092915050565b6137f381614553565b82525050565b61380281614553565b82525050565b600061381382614375565b61381d81856143d3565b935061382883614345565b8060005b8381101561385957815161384088826137a6565b975061384b836143ac565b92505060018101905061382c565b5085935050505092915050565b600061387182614380565b61387b81856143e4565b93508360208202850161388d85614355565b8060005b858110156138c957848403895281516138aa85826137be565b94506138b5836143b9565b925060208a01995050600181019050613891565b50829750879550505050505092915050565b60006138e68261438b565b6138f081856143f5565b93506138fb83614365565b8060005b8381101561392c57815161391388826137d2565b975061391e836143c6565b9250506001810190506138ff565b5085935050505092915050565b61394281614565565b82525050565b600061395382614396565b61395d8185614406565b935061396d8185602086016145b7565b80840191505092915050565b6000613984826143a1565b61398e8185614411565b935061399e8185602086016145b7565b6139a781614721565b840191505092915050565b60006139bd826143a1565b6139c78185614422565b93506139d78185602086016145b7565b6139e081614721565b840191505092915050565b60006139f6826143a1565b613a008185614433565b9350613a108185602086016145b7565b80840191505092915050565b6000613a29602383614422565b91507f45524332303a207472616e7366657220746f20746865207a65726f206164647260008301527f65737300000000000000000000000000000000000000000000000000000000006020830152604082019050919050565b6000613a8f600483614433565b91507f57455448000000000000000000000000000000000000000000000000000000006000830152600482019050919050565b6000613acf602283614422565b91507f45524332303a206275726e20616d6f756e7420657863656564732062616c616e60008301527f63650000000000000000000000000000000000000000000000000000000000006020830152604082019050919050565b6000613b35602283614422565b91507f45524332303a20617070726f766520746f20746865207a65726f20616464726560008301527f73730000000000000000000000000000000000000000000000000000000000006020830152604082019050919050565b6000613b9b601d83614422565b91507f45524332303a20696e73756666696369656e7420616c6c6f77616e63650000006000830152602082019050919050565b6000613bdb601b83614422565b91507f4d696e696d756d2062757920696e20697320302e3120657468657200000000006000830152602082019050919050565b6000613c1b602683614422565b91507f45524332303a207472616e7366657220616d6f756e742065786365656473206260008301527f616c616e636500000000000000000000000000000000000000000000000000006020830152604082019050919050565b6000613c81602183614422565b91507f45524332303a206275726e2066726f6d20746865207a65726f2061646472657360008301527f73000000000000000000000000000000000000000000000000000000000000006020830152604082019050919050565b6000613ce7602583614422565b91507f45524332303a207472616e736665722066726f6d20746865207a65726f20616460008301527f64726573730000000000000000000000000000000000000000000000000000006020830152604082019050919050565b6000613d4d601683614422565b91507f546865207472616e73616374696f6e206661696c6564000000000000000000006000830152602082019050919050565b6000613d8d602483614422565b91507f45524332303a20617070726f76652066726f6d20746865207a65726f2061646460008301527f72657373000000000000000000000000000000000000000000000000000000006020830152604082019050919050565b6000613df3601c83614422565b91507f417272617973206d757374206265207468652073616d652073697a65000000006000830152602082019050919050565b6000613e33602583614422565b91507f45524332303a2064656372656173656420616c6c6f77616e63652062656c6f7760008301527f207a65726f0000000000000000000000000000000000000000000000000000006020830152604082019050919050565b6000613e99601f83614422565b91507f45524332303a206d696e7420746f20746865207a65726f2061646472657373006000830152602082019050919050565b613ed581614591565b82525050565b613ee481614591565b82525050565b613ef38161459b565b82525050565b6000613f058284613948565b915081905092915050565b6000613f1c82846139eb565b915081905092915050565b6000613f3282613a82565b9150819050919050565b6000602082019050613f5160008301846137f9565b92915050565b6000604082019050613f6c60008301856137f9565b613f796020830184613edb565b9392505050565b600060a0820190508181036000830152613f9a81886138db565b90508181036020830152613fae81876138db565b90508181036040830152613fc281866138db565b90508181036060830152613fd68185613866565b90508181036080830152613fea8184613866565b90509695505050505050565b600060208201905061400b6000830184613939565b92915050565b6000602082019050818103600083015261402b81846139b2565b905092915050565b6000602082019050818103600083015261404c81613a1c565b9050919050565b6000602082019050818103600083015261406c81613ac2565b9050919050565b6000602082019050818103600083015261408c81613b28565b9050919050565b600060208201905081810360008301526140ac81613b8e565b9050919050565b600060208201905081810360008301526140cc81613bce565b9050919050565b600060208201905081810360008301526140ec81613c0e565b9050919050565b6000602082019050818103600083015261410c81613c74565b9050919050565b6000602082019050818103600083015261412c81613cda565b9050919050565b6000602082019050818103600083015261414c81613d40565b9050919050565b6000602082019050818103600083015261416c81613d80565b9050919050565b6000602082019050818103600083015261418c81613de6565b9050919050565b600060208201905081810360008301526141ac81613e26565b9050919050565b600060208201905081810360008301526141cc81613e8c565b9050919050565b60006020820190506141e86000830184613edb565b92915050565b60006040820190506142036000830185613edb565b6142106020830184613edb565b9392505050565b600060a08201905061422c6000830188613edb565b6142396020830187613edb565b818103604083015261424b8186613808565b905061425a60608301856137f9565b6142676080830184613edb565b9695505050505050565b60006020820190506142866000830184613eea565b92915050565b6000604051905081810181811067ffffffffffffffff821117156142b3576142b26146f2565b5b8060405250919050565b600067ffffffffffffffff8211156142d8576142d76146f2565b5b602082029050602081019050919050565b600067ffffffffffffffff821115614304576143036146f2565b5b602082029050602081019050919050565b600067ffffffffffffffff8211156143305761432f6146f2565b5b601f19601f8301169050602081019050919050565b6000819050602082019050919050565b6000819050602082019050919050565b6000819050602082019050919050565b600081519050919050565b600081519050919050565b600081519050919050565b600081519050919050565b600081519050919050565b6000602082019050919050565b6000602082019050919050565b6000602082019050919050565b600082825260208201905092915050565b600082825260208201905092915050565b600082825260208201905092915050565b600081905092915050565b600082825260208201905092915050565b600082825260208201905092915050565b600081905092915050565b600061444982614591565b915061445483614591565b9250827fffffffffffffffffffffffffffffffffffffffffffffffffffffffffffffffff0382111561448957614488614665565b5b828201905092915050565b600061449f82614591565b91506144aa83614591565b9250826144ba576144b9614694565b5b828204905092915050565b60006144d082614591565b91506144db83614591565b9250817fffffffffffffffffffffffffffffffffffffffffffffffffffffffffffffffff048311821515161561451457614513614665565b5b828202905092915050565b600061452a82614591565b915061453583614591565b92508282101561454857614547614665565b5b828203905092915050565b600061455e82614571565b9050919050565b60008115159050919050565b600073ffffffffffffffffffffffffffffffffffffffff82169050919050565b6000819050919050565b600060ff82169050919050565b82818337600083830152505050565b60005b838110156145d55780820151818401526020810190506145ba565b838111156145e4576000848401525b50505050565b6000600282049050600182168061460257607f821691505b60208210811415614616576146156146c3565b5b50919050565b600061462782614591565b91507fffffffffffffffffffffffffffffffffffffffffffffffffffffffffffffffff82141561465a57614659614665565b5b600182019050919050565b7f4e487b7100000000000000000000000000000000000000000000000000000000600052601160045260246000fd5b7f4e487b7100000000000000000000000000000000000000000000000000000000600052601260045260246000fd5b7f4e487b7100000000000000000000000000000000000000000000000000000000600052602260045260246000fd5b7f4e487b7100000000000000000000000000000000000000000000000000000000600052604160045260246000fd5b6000601f19601f8301169050919050565b61473b81614553565b811461474657600080fd5b50565b61475281614565565b811461475d57600080fd5b50565b61476981614591565b811461477457600080fd5b5056fea2646970667358221220b7a9a0d433cc3d009b9063f8882abba8a1e45ee7eee8dc3b4acad5b953783f6564736f6c63430008000033",
  "linkReferences": {},
  "deployedLinkReferences": {}
}