{"contracts/OptimizerDAO.sol":{"OptimizerDAO":{"abi":[{"inputs":[],"stateMutability":"nonpayable","type":"constructor"},{"anonymous":false,"inputs":[{"indexed":true,"internalType":"address","name":"owner","type":"address"},{"indexed":true,"internalType":"address","name":"spender","type":"address"},{"indexed":false,"internalType":"uint256","name":"value","type":"uint256"}],"name":"Approval","type":"event"},{"anonymous":false,"inputs":[{"indexed":true,"internalType":"address","name":"from","type":"address"},{"indexed":true,"internalType":"address","name":"to","type":"address"},{"indexed":false,"internalType":"uint256","name":"value","type":"uint256"}],"name":"Transfer","type":"event"},{"inputs":[{"internalType":"address","name":"_tokenIn","type":"address"},{"internalType":"address","name":"_tokenOut","type":"address"},{"internalType":"uint256","name":"_amountIn","type":"uint256"},{"internalType":"uint256","name":"_amountOutMin","type":"uint256"},{"internalType":"address","name":"_to","type":"address"}],"name":"_swap","outputs":[],"stateMutability":"nonpayable","type":"function"},{"inputs":[{"internalType":"address","name":"owner","type":"address"},{"internalType":"address","name":"spender","type":"address"}],"name":"allowance","outputs":[{"internalType":"uint256","name":"","type":"uint256"}],"stateMutability":"view","type":"function"},{"inputs":[{"internalType":"address","name":"spender","type":"address"},{"internalType":"uint256","name":"amount","type":"uint256"}],"name":"approve","outputs":[{"internalType":"bool","name":"","type":"bool"}],"stateMutability":"nonpayable","type":"function"},{"inputs":[{"internalType":"string","name":"","type":"string"}],"name":"assetWeightings","outputs":[{"internalType":"uint256","name":"","type":"uint256"}],"stateMutability":"view","type":"function"},{"inputs":[{"internalType":"address","name":"account","type":"address"}],"name":"balanceOf","outputs":[{"internalType":"uint256","name":"","type":"uint256"}],"stateMutability":"view","type":"function"},{"inputs":[],"name":"decimals","outputs":[{"internalType":"uint8","name":"","type":"uint8"}],"stateMutability":"view","type":"function"},{"inputs":[{"internalType":"address","name":"spender","type":"address"},{"internalType":"uint256","name":"subtractedValue","type":"uint256"}],"name":"decreaseAllowance","outputs":[{"internalType":"bool","name":"","type":"bool"}],"stateMutability":"nonpayable","type":"function"},{"inputs":[{"internalType":"uint256","name":"_index","type":"uint256"}],"name":"getHoldingsDataOfProposal","outputs":[{"internalType":"string[10]","name":"","type":"string[10]"},{"internalType":"uint256[10]","name":"","type":"uint256[10]"},{"internalType":"uint256[10]","name":"","type":"uint256[10]"},{"internalType":"uint256[2]","name":"","type":"uint256[2]"}],"stateMutability":"view","type":"function"},{"inputs":[{"internalType":"string","name":"_token","type":"string"}],"name":"getProposalVotes","outputs":[{"internalType":"uint256[]","name":"","type":"uint256[]"},{"internalType":"uint256[]","name":"","type":"uint256[]"},{"internalType":"uint256[]","name":"","type":"uint256[]"},{"internalType":"string[]","name":"","type":"string[]"},{"internalType":"string[]","name":"","type":"string[]"}],"stateMutability":"view","type":"function"},{"inputs":[{"internalType":"address","name":"spender","type":"address"},{"internalType":"uint256","name":"addedValue","type":"uint256"}],"name":"increaseAllowance","outputs":[{"internalType":"bool","name":"","type":"bool"}],"stateMutability":"nonpayable","type":"function"},{"inputs":[{"internalType":"string[]","name":"_assets","type":"string[]"},{"internalType":"uint256[]","name":"_percentage","type":"uint256[]"}],"name":"initiateTradesOnUniswap","outputs":[],"stateMutability":"nonpayable","type":"function"},{"inputs":[],"name":"joinDAO","outputs":[],"stateMutability":"payable","type":"function"},{"inputs":[],"name":"lastSnapshotEth","outputs":[{"internalType":"uint256","name":"","type":"uint256"}],"stateMutability":"view","type":"function"},{"inputs":[],"name":"leaveDAO","outputs":[],"stateMutability":"nonpayable","type":"function"},{"inputs":[],"name":"lengthOfProposals","outputs":[{"internalType":"uint256","name":"","type":"uint256"}],"stateMutability":"view","type":"function"},{"inputs":[],"name":"name","outputs":[{"internalType":"string","name":"","type":"string"}],"stateMutability":"view","type":"function"},{"inputs":[{"internalType":"uint256","name":"","type":"uint256"}],"name":"proposals","outputs":[{"internalType":"uint256","name":"startTime","type":"uint256"},{"internalType":"uint256","name":"endTime","type":"uint256"},{"internalType":"uint256","name":"startEth","type":"uint256"},{"internalType":"uint256","name":"endEth","type":"uint256"}],"stateMutability":"view","type":"function"},{"inputs":[],"name":"startingEth","outputs":[{"internalType":"uint256","name":"","type":"uint256"}],"stateMutability":"view","type":"function"},{"inputs":[{"internalType":"string[]","name":"_token","type":"string[]"},{"internalType":"uint256[]","name":"_perfOfToken","type":"uint256[]"},{"internalType":"uint256[]","name":"_confidenceLevels","type":"uint256[]"},{"internalType":"string[]","name":"_userViewsType","type":"string[]"},{"internalType":"string[]","name":"_userViewsRelativeToken","type":"string[]"}],"name":"submitVote","outputs":[],"stateMutability":"nonpayable","type":"function"},{"inputs":[],"name":"symbol","outputs":[{"internalType":"string","name":"","type":"string"}],"stateMutability":"view","type":"function"},{"inputs":[],"name":"totalSupply","outputs":[{"internalType":"uint256","name":"","type":"uint256"}],"stateMutability":"view","type":"function"},{"inputs":[{"internalType":"address","name":"to","type":"address"},{"internalType":"uint256","name":"amount","type":"uint256"}],"name":"transfer","outputs":[{"internalType":"bool","name":"","type":"bool"}],"stateMutability":"nonpayable","type":"function"},{"inputs":[{"internalType":"address","name":"from","type":"address"},{"internalType":"address","name":"to","type":"address"},{"internalType":"uint256","name":"amount","type":"uint256"}],"name":"transferFrom","outputs":[{"internalType":"bool","name":"","type":"bool"}],"stateMutability":"nonpayable","type":"function"},{"inputs":[],"name":"treasuryEth","outputs":[{"internalType":"uint256","name":"","type":"uint256"}],"stateMutability":"view","type":"function"}],"evm":{"bytecode":{"linkReferences":{},"object":"608060405273e592427a0aece92de3edee1f18e0157c05861564600860006101000a81548173ffffffffffffffffffffffffffffffffffffffff021916908373ffffffffffffffffffffffffffffffffffffffff1602179055503480156200006657600080fd5b506040518060400160405280601381526020017f4f7074696d697a65722044414f20546f6b656e000000000000000000000000008152506040518060400160405280600381526020017f4f445000000000000000000000000000000000000000000000000000000000008152508160039081620000e4919062000a2a565b508060049081620000f6919062000a2a565b5050506000600c6001816001815401808255809150500390600052602060002090600c0201905060006040518060a001604052806040518060400160405280600481526020017f574554480000000000000000000000000000000000000000000000000000000081525081526020016040518060400160405280600381526020017f424154000000000000000000000000000000000000000000000000000000000081525081526020016040518060400160405280600481526020017f574254430000000000000000000000000000000000000000000000000000000081525081526020016040518060400160405280600381526020017f554e49000000000000000000000000000000000000000000000000000000000081525081526020016040518060400160405280600481526020017f5553445400000000000000000000000000000000000000000000000000000000815250815250905060006040518060a0016040528073c778417e063141139fce010982780140aa0cd5ab73ffffffffffffffffffffffffffffffffffffffff1673ffffffffffffffffffffffffffffffffffffffff16815260200173da5b056cfb861282b4b59d29c9b395bcc238d29b73ffffffffffffffffffffffffffffffffffffffff1673ffffffffffffffffffffffffffffffffffffffff16815260200173577d296678535e4903d59a4c929b718e1d575e0a73ffffffffffffffffffffffffffffffffffffffff1673ffffffffffffffffffffffffffffffffffffffff168152602001731f9840a85d5af5bf1d1762f925bdaddc4201f98473ffffffffffffffffffffffffffffffffffffffff1673ffffffffffffffffffffffffffffffffffffffff168152602001732fb298bdbef468638ad6653ff8376575ea41e76873ffffffffffffffffffffffffffffffffffffffff1673ffffffffffffffffffffffffffffffffffffffff16815250905060006040518060a001604052806040518060400160405280600581526020017f735745544800000000000000000000000000000000000000000000000000000081525081526020016040518060400160405280600481526020017f734241540000000000000000000000000000000000000000000000000000000081525081526020016040518060400160405280600581526020017f735742544300000000000000000000000000000000000000000000000000000081525081526020016040518060400160405280600481526020017f73554e490000000000000000000000000000000000000000000000000000000081525081526020016040518060400160405280600581526020017f7355534454000000000000000000000000000000000000000000000000000000815250815250905060006040518060a0016040528073982cd41387dd65e659279c4efcf05c25c4b586d673ffffffffffffffffffffffffffffffffffffffff1673ffffffffffffffffffffffffffffffffffffffff16815260200173f760954e01e53c3f7f08733ca1dc62b14b4bf50e73ffffffffffffffffffffffffffffffffffffffff1673ffffffffffffffffffffffffffffffffffffffff16815260200173a18533ba93407a54bb1bcadb7e9f3d34e46039f973ffffffffffffffffffffffffffffffffffffffff1673ffffffffffffffffffffffffffffffffffffffff1681526020017395552ca5cc9f329e5376659ead39f880307b7a1373ffffffffffffffffffffffffffffffffffffffff1673ffffffffffffffffffffffffffffffffffffffff168152602001731c0b9527210b427ad9bdff41bb3a3b78c9cee7d973ffffffffffffffffffffffffffffffffffffffff1673ffffffffffffffffffffffffffffffffffffffff16815250905060005b6005811015620007a4578381600581106200067e576200067d62000b11565b5b602002015160098683600581106200069b576200069a62000b11565b5b6020020151604051620006af919062000bae565b908152602001604051809103902060006101000a81548173ffffffffffffffffffffffffffffffffffffffff021916908373ffffffffffffffffffffffffffffffffffffffff16021790555081816005811062000711576200071062000b11565b5b6020020151600a8483600581106200072e576200072d62000b11565b5b602002015160405162000742919062000bae565b908152602001604051809103902060006101000a81548173ffffffffffffffffffffffffffffffffffffffff021916908373ffffffffffffffffffffffffffffffffffffffff16021790555080806200079b9062000bf6565b9150506200065e565b50505050505062000c43565b600081519050919050565b7f4e487b7100000000000000000000000000000000000000000000000000000000600052604160045260246000fd5b7f4e487b7100000000000000000000000000000000000000000000000000000000600052602260045260246000fd5b600060028204905060018216806200083257607f821691505b602082108103620008485762000847620007ea565b5b50919050565b60008190508160005260206000209050919050565b60006020601f8301049050919050565b600082821b905092915050565b600060088302620008b27fffffffffffffffffffffffffffffffffffffffffffffffffffffffffffffffff8262000873565b620008be868362000873565b95508019841693508086168417925050509392505050565b6000819050919050565b6000819050919050565b60006200090b62000905620008ff84620008d6565b620008e0565b620008d6565b9050919050565b6000819050919050565b6200092783620008ea565b6200093f620009368262000912565b84845462000880565b825550505050565b600090565b6200095662000947565b620009638184846200091c565b505050565b5b818110156200098b576200097f6000826200094c565b60018101905062000969565b5050565b601f821115620009da57620009a4816200084e565b620009af8462000863565b81016020851015620009bf578190505b620009d7620009ce8562000863565b83018262000968565b50505b505050565b600082821c905092915050565b6000620009ff60001984600802620009df565b1980831691505092915050565b600062000a1a8383620009ec565b9150826002028217905092915050565b62000a3582620007b0565b67ffffffffffffffff81111562000a515762000a50620007bb565b5b62000a5d825462000819565b62000a6a8282856200098f565b600060209050601f83116001811462000aa2576000841562000a8d578287015190505b62000a99858262000a0c565b86555062000b09565b601f19841662000ab2866200084e565b60005b8281101562000adc5784890151825560018201915060208501945060208101905062000ab5565b8683101562000afc578489015162000af8601f891682620009ec565b8355505b6001600288020188555050505b505050505050565b7f4e487b7100000000000000000000000000000000000000000000000000000000600052603260045260246000fd5b600081905092915050565b60005b8381101562000b6b57808201518184015260208101905062000b4e565b60008484015250505050565b600062000b8482620007b0565b62000b90818562000b40565b935062000ba281856020860162000b4b565b80840191505092915050565b600062000bbc828462000b77565b915081905092915050565b7f4e487b7100000000000000000000000000000000000000000000000000000000600052601160045260246000fd5b600062000c0382620008d6565b91507fffffffffffffffffffffffffffffffffffffffffffffffffffffffffffffffff820362000c385762000c3762000bc7565b5b600182019050919050565b6164fe8062000c536000396000f3fe60806040526004361061014a5760003560e01c806370a08231116100b6578063b4f301c81161006f578063b4f301c8146104eb578063dd62ed3e14610528578063e430fcb614610565578063e47b22791461058e578063ef2091bc146105b7578063f63d13d7146105e25761014a565b806370a082311461039d5780638b1fdf24146103da57806395d89b411461041b578063a457c2d714610446578063a9059cbb14610483578063a91f3b51146104c05761014a565b806323b872dd1161010857806323b872dd14610264578063313ce567146102a157806332d184dc146102cc57806339509351146102f7578063472ad1f4146103345780634c26b8a21461035d5761014a565b8062c7f3fb1461014f578063013cf08b1461017a57806306fdde03146101ba578063095ea7b3146101e557806318160ddd146102225780631de7df411461024d575b600080fd5b34801561015b57600080fd5b506101646105ec565b60405161017191906148fb565b60405180910390f35b34801561018657600080fd5b506101a1600480360381019061019c9190614956565b6105f2565b6040516101b19493929190614983565b60405180910390f35b3480156101c657600080fd5b506101cf610632565b6040516101dc9190614a58565b60405180910390f35b3480156101f157600080fd5b5061020c60048036038101906102079190614ad8565b6106c4565b6040516102199190614b33565b60405180910390f35b34801561022e57600080fd5b506102376106e7565b60405161024491906148fb565b60405180910390f35b34801561025957600080fd5b506102626106f1565b005b34801561027057600080fd5b5061028b60048036038101906102869190614b4e565b61079d565b6040516102989190614b33565b60405180910390f35b3480156102ad57600080fd5b506102b66107cc565b6040516102c39190614bbd565b60405180910390f35b3480156102d857600080fd5b506102e16107d5565b6040516102ee91906148fb565b60405180910390f35b34801561030357600080fd5b5061031e60048036038101906103199190614ad8565b6107db565b60405161032b9190614b33565b60405180910390f35b34801561034057600080fd5b5061035b60048036038101906103569190614eb6565b610812565b005b34801561036957600080fd5b50610384600480360381019061037f9190614956565b610c42565b60405161039494939291906151ec565b60405180910390f35b3480156103a957600080fd5b506103c460048036038101906103bf919061523b565b61156d565b6040516103d191906148fb565b60405180910390f35b3480156103e657600080fd5b5061040160048036038101906103fc9190615268565b6115b5565b6040516104129594939291906153f6565b60405180910390f35b34801561042757600080fd5b50610430611b04565b60405161043d9190614a58565b60405180910390f35b34801561045257600080fd5b5061046d60048036038101906104689190614ad8565b611b96565b60405161047a9190614b33565b60405180910390f35b34801561048f57600080fd5b506104aa60048036038101906104a59190614ad8565b611c0d565b6040516104b79190614b33565b60405180910390f35b3480156104cc57600080fd5b506104d5611c30565b6040516104e291906148fb565b60405180910390f35b3480156104f757600080fd5b50610512600480360381019061050d9190615268565b611c36565b60405161051f91906148fb565b60405180910390f35b34801561053457600080fd5b5061054f600480360381019061054a919061546c565b611c64565b60405161055c91906148fb565b60405180910390f35b34801561057157600080fd5b5061058c600480360381019061058791906154ac565b611ceb565b005b34801561059a57600080fd5b506105b560048036038101906105b09190615524565b6139f6565b005b3480156105c357600080fd5b506105cc613e00565b6040516105d991906148fb565b60405180910390f35b6105ea613e19565b005b60055481565b600c818154811061060257600080fd5b90600052602060002090600c02016000915090508060000154908060010154908060020154908060030154905084565b606060038054610641906155ce565b80601f016020809104026020016040519081016040528092919081815260200182805461066d906155ce565b80156106ba5780601f1061068f576101008083540402835291602001916106ba565b820191906000526020600020905b81548152906001019060200180831161069d57829003601f168201915b5050505050905090565b6000806106cf613ef3565b90506106dc818585613efb565b600191505092915050565b6000600254905090565b60006106fc3361156d565b90506000811161070b57600080fd5b60006005546107186106e7565b83610723919061565d565b61072d919061568e565b905061073933836140c4565b3373ffffffffffffffffffffffffffffffffffffffff166108fc829081150290604051600060405180830381858888f1935050505015801561077f573d6000803e3d6000fd5b50806005600082825461079291906156d0565b925050819055505050565b6000806107a8613ef3565b90506107b5858285614291565b6107c085858561431d565b60019150509392505050565b60006012905090565b60065481565b6000806107e6613ef3565b90506108078185856107f88589611c64565b6108029190615704565b613efb565b600191505092915050565b600061081d3361156d565b1161085d576040517f08c379a0000000000000000000000000000000000000000000000000000000008152600401610854906157aa565b60405180910390fd5b8351855114801561086f575082518451145b6108ae576040517f08c379a00000000000000000000000000000000000000000000000000000000081526004016108a590615816565b60405180910390fd5b60006108b93361156d565b905060005b8651811015610c3957600c6001600c805490506108db91906156d0565b815481106108ec576108eb615836565b5b90600052602060002090600c02016008018782815181106109105761090f615836565b5b602002602001015160405161092591906158a1565b908152602001604051809103902086828151811061094657610945615836565b5b60200260200101519080600181540180825580915050600190039060005260206000200160009091909190915055600c6001600c8054905061098891906156d0565b8154811061099957610998615836565b5b90600052602060002090600c02016007018782815181106109bd576109bc615836565b5b60200260200101516040516109d291906158a1565b9081526020016040518091039020829080600181540180825580915050600190039060005260206000200160009091909190915055600c6001600c80549050610a1b91906156d0565b81548110610a2c57610a2b615836565b5b90600052602060002090600c0201600901878281518110610a5057610a4f615836565b5b6020026020010151604051610a6591906158a1565b9081526020016040518091039020858281518110610a8657610a85615836565b5b60200260200101519080600181540180825580915050600190039060005260206000200160009091909190915055600c6001600c80549050610ac891906156d0565b81548110610ad957610ad8615836565b5b90600052602060002090600c0201600a01878281518110610afd57610afc615836565b5b6020026020010151604051610b1291906158a1565b9081526020016040518091039020848281518110610b3357610b32615836565b5b6020026020010151908060018154018082558091505060019003906000526020600020016000909190919091509081610b6c9190615a64565b50600c6001600c80549050610b8191906156d0565b81548110610b9257610b91615836565b5b90600052602060002090600c0201600b01878281518110610bb657610bb5615836565b5b6020026020010151604051610bcb91906158a1565b9081526020016040518091039020838281518110610bec57610beb615836565b5b6020026020010151908060018154018082558091505060019003906000526020600020016000909190919091509081610c259190615a64565b508080610c3190615b36565b9150506108be565b50505050505050565b610c4a61486b565b610c52614893565b610c5a614893565b610c626148b6565b60006040518061014001604052806040518060400160405280600481526020017f574554480000000000000000000000000000000000000000000000000000000081525081526020016040518060400160405280600381526020017f424154000000000000000000000000000000000000000000000000000000000081525081526020016040518060400160405280600481526020017f574254430000000000000000000000000000000000000000000000000000000081525081526020016040518060400160405280600381526020017f554e49000000000000000000000000000000000000000000000000000000000081525081526020016040518060400160405280600481526020017f555344540000000000000000000000000000000000000000000000000000000081525081526020016040518060400160405280600581526020017f735745544800000000000000000000000000000000000000000000000000000081525081526020016040518060400160405280600481526020017f734241540000000000000000000000000000000000000000000000000000000081525081526020016040518060400160405280600581526020017f735742544300000000000000000000000000000000000000000000000000000081525081526020016040518060400160405280600481526020017f73554e490000000000000000000000000000000000000000000000000000000081525081526020016040518060400160405280600581526020017f73555344540000000000000000000000000000000000000000000000000000008152508152509050610ec6614893565b610ece614893565b610ed66148b6565b600c8981548110610eea57610ee9615836565b5b90600052602060002090600c02016000015481600060028110610f1057610f0f615836565b5b602002018181525050600c8981548110610f2d57610f2c615836565b5b90600052602060002090600c02016001015481600160028110610f5357610f52615836565b5b602002018181525050600c8981548110610f7057610f6f615836565b5b90600052602060002090600c0201600601600081548110610f9457610f93615836565b5b9060005260206000200154826000600a8110610fb357610fb2615836565b5b602002018181525050600c8981548110610fd057610fcf615836565b5b90600052602060002090600c0201600501600081548110610ff457610ff3615836565b5b9060005260206000200154836000600a811061101357611012615836565b5b60200201818152505061104d600c8a8154811061103357611032615836565b5b90600052602060002090600c020160040180549050614593565b6000600190505b600a81101561153457600c8a8154811061107157611070615836565b5b90600052602060002090600c0201600601818154811061109457611093615836565b5b90600052602060002001548382600a81106110b2576110b1615836565b5b602002018181525050600073ffffffffffffffffffffffffffffffffffffffff1660098683600a81106110e8576110e7615836565b5b60200201516040516110fa91906158a1565b908152602001604051809103902060009054906101000a900473ffffffffffffffffffffffffffffffffffffffff1673ffffffffffffffffffffffffffffffffffffffff16141580156111e2575073c778417e063141139fce010982780140aa0cd5ab73ffffffffffffffffffffffffffffffffffffffff1660098683600a811061118857611187615836565b5b602002015160405161119a91906158a1565b908152602001604051809103902060009054906101000a900473ffffffffffffffffffffffffffffffffffffffff1673ffffffffffffffffffffffffffffffffffffffff1614155b801561123057506000600c8b815481106111ff576111fe615836565b5b90600052602060002090600c0201600601828154811061122257611221615836565b5b906000526020600020015414155b15611340576112558582600a811061124b5761124a615836565b5b602002015161462c565b61129f600c8b8154811061126c5761126b615836565b5b90600052602060002090600c0201600501828154811061128f5761128e615836565b5b9060005260206000200154614593565b600c8a815481106112b3576112b2615836565b5b90600052602060002090600c020160050181815481106112d6576112d5615836565b5b90600052602060002001548482600a81106112f4576112f3615836565b5b60200201818152505061133b6040518060400160405280600b81526020017f6c6f6e6720746f6b656e7300000000000000000000000000000000000000000081525061462c565b611521565b600073ffffffffffffffffffffffffffffffffffffffff16600a8683600a811061136d5761136c615836565b5b602002015160405161137f91906158a1565b908152602001604051809103902060009054906101000a900473ffffffffffffffffffffffffffffffffffffffff1673ffffffffffffffffffffffffffffffffffffffff161415801561141457506000600c8b815481106113e3576113e2615836565b5b90600052602060002090600c0201600601828154811061140657611405615836565b5b906000526020600020015414155b15611520576114398582600a811061142f5761142e615836565b5b602002015161462c565b611483600c8b815481106114505761144f615836565b5b90600052602060002090600c0201600501828154811061147357611472615836565b5b9060005260206000200154614593565b600c8a8154811061149757611496615836565b5b90600052602060002090600c020160050181815481106114ba576114b9615836565b5b90600052602060002001548482600a81106114d8576114d7615836565b5b60200201818152505061151f6040518060400160405280600c81526020017f73686f727420746f6b656e73000000000000000000000000000000000000000081525061462c565b5b5b808061152c90615b36565b915050611054565b50611556836000600a811061154c5761154b615836565b5b6020020151614593565b838383839750975097509750505050509193509193565b60008060008373ffffffffffffffffffffffffffffffffffffffff1673ffffffffffffffffffffffffffffffffffffffff168152602001908152602001600020549050919050565b60608060608060606000600c6001600c805490506115d391906156d0565b815481106115e4576115e3615836565b5b90600052602060002090600c020190506000816007018860405161160891906158a1565b908152602001604051809103902080549050905060008167ffffffffffffffff81111561163857611637614bdd565b5b6040519080825280602002602001820160405280156116665781602001602082028036833780820191505090505b50905060008267ffffffffffffffff81111561168557611684614bdd565b5b6040519080825280602002602001820160405280156116b35781602001602082028036833780820191505090505b50905060008367ffffffffffffffff8111156116d2576116d1614bdd565b5b6040519080825280602002602001820160405280156117005781602001602082028036833780820191505090505b50905060008467ffffffffffffffff81111561171f5761171e614bdd565b5b60405190808252806020026020018201604052801561175257816020015b606081526020019060019003908161173d5790505b50905060008567ffffffffffffffff81111561177157611770614bdd565b5b6040519080825280602002602001820160405280156117a457816020015b606081526020019060019003908161178f5790505b50905060005b86811015611ae4576117f7886007018f6040516117c791906158a1565b908152602001604051809103902082815481106117e7576117e6615836565b5b9060005260206000200154614593565b876007018e60405161180991906158a1565b9081526020016040518091039020818154811061182957611828615836565b5b906000526020600020015486828151811061184757611846615836565b5b602002602001018181525050876008018e60405161186591906158a1565b9081526020016040518091039020818154811061188557611884615836565b5b90600052602060002001548582815181106118a3576118a2615836565b5b602002602001018181525050876009018e6040516118c191906158a1565b908152602001604051809103902081815481106118e1576118e0615836565b5b90600052602060002001548482815181106118ff576118fe615836565b5b60200260200101818152505087600a018e60405161191d91906158a1565b9081526020016040518091039020818154811061193d5761193c615836565b5b906000526020600020018054611952906155ce565b80601f016020809104026020016040519081016040528092919081815260200182805461197e906155ce565b80156119cb5780601f106119a0576101008083540402835291602001916119cb565b820191906000526020600020905b8154815290600101906020018083116119ae57829003601f168201915b50505050508382815181106119e3576119e2615836565b5b602002602001018190525087600b018e604051611a0091906158a1565b90815260200160405180910390208181548110611a2057611a1f615836565b5b906000526020600020018054611a35906155ce565b80601f0160208091040260200160405190810160405280929190818152602001828054611a61906155ce565b8015611aae5780601f10611a8357610100808354040283529160200191611aae565b820191906000526020600020905b815481529060010190602001808311611a9157829003601f168201915b5050505050828281518110611ac657611ac5615836565b5b60200260200101819052508080611adc90615b36565b9150506117aa565b5084848484849b509b509b509b509b505050505050505091939590929450565b606060048054611b13906155ce565b80601f0160208091040260200160405190810160405280929190818152602001828054611b3f906155ce565b8015611b8c5780601f10611b6157610100808354040283529160200191611b8c565b820191906000526020600020905b815481529060010190602001808311611b6f57829003601f168201915b5050505050905090565b600080611ba1613ef3565b90506000611baf8286611c64565b905083811015611bf4576040517f08c379a0000000000000000000000000000000000000000000000000000000008152600401611beb90615bf0565b60405180910390fd5b611c018286868403613efb565b60019250505092915050565b600080611c18613ef3565b9050611c2581858561431d565b600191505092915050565b60075481565b600b818051602081018201805184825260208301602085012081835280955050505050506000915090505481565b6000600160008473ffffffffffffffffffffffffffffffffffffffff1673ffffffffffffffffffffffffffffffffffffffff16815260200190815260200160002060008373ffffffffffffffffffffffffffffffffffffffff1673ffffffffffffffffffffffffffffffffffffffff16815260200190815260200160002054905092915050565b6000604051602001611cfc90615c5c565b6040516020818303038152906040528051906020012090506001600c805490501115612f715760005b835181101561234757600073ffffffffffffffffffffffffffffffffffffffff166009858381518110611d5b57611d5a615836565b5b6020026020010151604051611d7091906158a1565b908152602001604051809103902060009054906101000a900473ffffffffffffffffffffffffffffffffffffffff1673ffffffffffffffffffffffffffffffffffffffff16146120315760006009858381518110611dd157611dd0615836565b5b6020026020010151604051611de691906158a1565b908152602001604051809103902060009054906101000a900473ffffffffffffffffffffffffffffffffffffffff1673ffffffffffffffffffffffffffffffffffffffff166370a08231306040518263ffffffff1660e01b8152600401611e4d9190615c80565b602060405180830381865afa158015611e6a573d6000803e3d6000fd5b505050506040513d601f19601f82011682018060405250810190611e8e9190615cb0565b118015611edb575081848281518110611eaa57611ea9615836565b5b6020026020010151604051602001611ec291906158a1565b6040516020818303038152906040528051906020012014155b1561202c5761202b6009858381518110611ef857611ef7615836565b5b6020026020010151604051611f0d91906158a1565b908152602001604051809103902060009054906101000a900473ffffffffffffffffffffffffffffffffffffffff1673c778417e063141139fce010982780140aa0cd5ab6009878581518110611f6657611f65615836565b5b6020026020010151604051611f7b91906158a1565b908152602001604051809103902060009054906101000a900473ffffffffffffffffffffffffffffffffffffffff1673ffffffffffffffffffffffffffffffffffffffff166370a08231306040518263ffffffff1660e01b8152600401611fe29190615c80565b602060405180830381865afa158015611fff573d6000803e3d6000fd5b505050506040513d601f19601f820116820180604052508101906120239190615cb0565b6000306139f6565b5b612334565b600073ffffffffffffffffffffffffffffffffffffffff16600a85838151811061205e5761205d615836565b5b602002602001015160405161207391906158a1565b908152602001604051809103902060009054906101000a900473ffffffffffffffffffffffffffffffffffffffff1673ffffffffffffffffffffffffffffffffffffffff161415801561219757506000600a8583815181106120d8576120d7615836565b5b60200260200101516040516120ed91906158a1565b908152602001604051809103902060009054906101000a900473ffffffffffffffffffffffffffffffffffffffff1673ffffffffffffffffffffffffffffffffffffffff166370a08231306040518263ffffffff1660e01b81526004016121549190615c80565b602060405180830381865afa158015612171573d6000803e3d6000fd5b505050506040513d601f19601f820116820180604052508101906121959190615cb0565b115b1561233357600a8482815181106121b1576121b0615836565b5b60200260200101516040516121c691906158a1565b908152602001604051809103902060009054906101000a900473ffffffffffffffffffffffffffffffffffffffff1673ffffffffffffffffffffffffffffffffffffffff16639dc29fac30600a87858151811061222657612225615836565b5b602002602001015160405161223b91906158a1565b908152602001604051809103902060009054906101000a900473ffffffffffffffffffffffffffffffffffffffff1673ffffffffffffffffffffffffffffffffffffffff166370a08231306040518263ffffffff1660e01b81526004016122a29190615c80565b602060405180830381865afa1580156122bf573d6000803e3d6000fd5b505050506040513d601f19601f820116820180604052508101906122e39190615cb0565b6040518363ffffffff1660e01b8152600401612300929190615cdd565b600060405180830381600087803b15801561231a57600080fd5b505af115801561232e573d6000803e3d6000fd5b505050505b5b808061233f90615b36565b915050611d25565b5073c778417e063141139fce010982780140aa0cd5ab73ffffffffffffffffffffffffffffffffffffffff166370a08231306040518263ffffffff1660e01b81526004016123959190615c80565b6020604051808303816000875af11580156123b4573d6000803e3d6000fd5b505050506040513d601f19601f820116820180604052508101906123d89190615cb0565b600c6002600c805490506123ec91906156d0565b815481106123fd576123fc615836565b5b90600052602060002090600c02016003018190555042600c6002600c8054905061242791906156d0565b8154811061243857612437615836565b5b90600052602060002090600c02016001018190555073c778417e063141139fce010982780140aa0cd5ab73ffffffffffffffffffffffffffffffffffffffff166370a08231306040518263ffffffff1660e01b815260040161249a9190615c80565b6020604051808303816000875af11580156124b9573d6000803e3d6000fd5b505050506040513d601f19601f820116820180604052508101906124dd9190615cb0565b600c6001600c805490506124f191906156d0565b8154811061250257612501615836565b5b90600052602060002090600c02016002018190555042600c6001600c8054905061252c91906156d0565b8154811061253d5761253c615836565b5b90600052602060002090600c02016000018190555073c778417e063141139fce010982780140aa0cd5ab73ffffffffffffffffffffffffffffffffffffffff166370a08231306040518263ffffffff1660e01b815260040161259f9190615c80565b6020604051808303816000875af11580156125be573d6000803e3d6000fd5b505050506040513d601f19601f820116820180604052508101906125e29190615cb0565b60078190555073c778417e063141139fce010982780140aa0cd5ab73ffffffffffffffffffffffffffffffffffffffff1663d0e30db0476040518263ffffffff1660e01b81526004016000604051808303818588803b15801561264457600080fd5b505af1158015612658573d6000803e3d6000fd5b505050505060005b8351811015612f4a5782818151811061267c5761267b615836565b5b6020026020010151600b85838151811061269957612698615836565b5b60200260200101516040516126ae91906158a1565b908152602001604051809103902081905550600c6001600c805490506126d491906156d0565b815481106126e5576126e4615836565b5b90600052602060002090600c020160060183828151811061270957612708615836565b5b60200260200101519080600181540180825580915050600190039060005260206000200160009091909190915055600c6001600c8054905061274b91906156d0565b8154811061275c5761275b615836565b5b90600052602060002090600c02016004018482815181106127805761277f615836565b5b60200260200101519080600181540180825580915050600190039060005260206000200160009091909190915090816127b99190615a64565b5060008382815181106127cf576127ce615836565b5b60200260200101510361283f57600c6001600c805490506127f091906156d0565b8154811061280157612800615836565b5b90600052602060002090600c020160050160009080600181540180825580915050600190039060005260206000200160009091909190915055612f37565b73c778417e063141139fce010982780140aa0cd5ab73ffffffffffffffffffffffffffffffffffffffff16600985838151811061287f5761287e615836565b5b602002602001015160405161289491906158a1565b908152602001604051809103902060009054906101000a900473ffffffffffffffffffffffffffffffffffffffff1673ffffffffffffffffffffffffffffffffffffffff160361297557600060648483815181106128f5576128f4615836565b5b602002602001015160075461290a919061568e565b612914919061565d565b9050600c6001600c8054905061292a91906156d0565b8154811061293b5761293a615836565b5b90600052602060002090600c0201600501819080600181540180825580915050600190039060005260206000200160009091909190915055505b600083828151811061298a57612989615836565b5b6020026020010151141580156129e05750818482815181106129af576129ae615836565b5b60200260200101516040516020016129c791906158a1565b6040516020818303038152906040528051906020012014155b15612f3657600073ffffffffffffffffffffffffffffffffffffffff166009858381518110612a1257612a11615836565b5b6020026020010151604051612a2791906158a1565b908152602001604051809103902060009054906101000a900473ffffffffffffffffffffffffffffffffffffffff1673ffffffffffffffffffffffffffffffffffffffff1614158015612a9557506000838281518110612a8a57612a89615836565b5b602002602001015114155b15612c7c5760006064848381518110612ab157612ab0615836565b5b6020026020010151600754612ac6919061568e565b612ad0919061565d565b9050612b4c73c778417e063141139fce010982780140aa0cd5ab6009878581518110612aff57612afe615836565b5b6020026020010151604051612b1491906158a1565b908152602001604051809103902060009054906101000a900473ffffffffffffffffffffffffffffffffffffffff16836000306139f6565b600c6001600c80549050612b6091906156d0565b81548110612b7157612b70615836565b5b90600052602060002090600c02016005016009868481518110612b9757612b96615836565b5b6020026020010151604051612bac91906158a1565b908152602001604051809103902060009054906101000a900473ffffffffffffffffffffffffffffffffffffffff1673ffffffffffffffffffffffffffffffffffffffff166370a08231306040518263ffffffff1660e01b8152600401612c139190615c80565b602060405180830381865afa158015612c30573d6000803e3d6000fd5b505050506040513d601f19601f82011682018060405250810190612c549190615cb0565b9080600181540180825580915050600190039060005260206000200160009091909190915055505b600073ffffffffffffffffffffffffffffffffffffffff16600a858381518110612ca957612ca8615836565b5b6020026020010151604051612cbe91906158a1565b908152602001604051809103902060009054906101000a900473ffffffffffffffffffffffffffffffffffffffff1673ffffffffffffffffffffffffffffffffffffffff1614612f355760006064848381518110612d1f57612d1e615836565b5b6020026020010151600754612d34919061568e565b612d3e919061565d565b9050600a858381518110612d5557612d54615836565b5b6020026020010151604051612d6a91906158a1565b908152602001604051809103902060009054906101000a900473ffffffffffffffffffffffffffffffffffffffff1673ffffffffffffffffffffffffffffffffffffffff166340c10f1930836040518363ffffffff1660e01b8152600401612dd3929190615cdd565b600060405180830381600087803b158015612ded57600080fd5b505af1158015612e01573d6000803e3d6000fd5b50505050600c6001600c80549050612e1991906156d0565b81548110612e2a57612e29615836565b5b90600052602060002090600c0201600501600a868481518110612e5057612e4f615836565b5b6020026020010151604051612e6591906158a1565b908152602001604051809103902060009054906101000a900473ffffffffffffffffffffffffffffffffffffffff1673ffffffffffffffffffffffffffffffffffffffff166370a08231306040518263ffffffff1660e01b8152600401612ecc9190615c80565b602060405180830381865afa158015612ee9573d6000803e3d6000fd5b505050506040513d601f19601f82011682018060405250810190612f0d9190615cb0565b9080600181540180825580915050600190039060005260206000200160009091909190915055505b5b5b8080612f4290615b36565b915050612660565b506000600c6001816001815401808255809150500390600052602060002090600c02019050505b6001600c80549050036139f15773c778417e063141139fce010982780140aa0cd5ab73ffffffffffffffffffffffffffffffffffffffff1663d0e30db0476040518263ffffffff1660e01b81526004016000604051808303818588803b158015612fda57600080fd5b505af1158015612fee573d6000803e3d6000fd5b505050505073c778417e063141139fce010982780140aa0cd5ab73ffffffffffffffffffffffffffffffffffffffff166370a08231306040518263ffffffff1660e01b81526004016130409190615c80565b6020604051808303816000875af115801561305f573d6000803e3d6000fd5b505050506040513d601f19601f820116820180604052508101906130839190615cb0565b60078190555042600c6001600c8054905061309e91906156d0565b815481106130af576130ae615836565b5b90600052602060002090600c020160000181905550600754600c6001600c805490506130db91906156d0565b815481106130ec576130eb615836565b5b90600052602060002090600c02016002018190555060005b83518110156139ca578281815181106131205761311f615836565b5b6020026020010151600b85838151811061313d5761313c615836565b5b602002602001015160405161315291906158a1565b908152602001604051809103902081905550600c6001600c8054905061317891906156d0565b8154811061318957613188615836565b5b90600052602060002090600c02016006018382815181106131ad576131ac615836565b5b60200260200101519080600181540180825580915050600190039060005260206000200160009091909190915055600c6001600c805490506131ef91906156d0565b81548110613200576131ff615836565b5b90600052602060002090600c020160040184828151811061322457613223615836565b5b602002602001015190806001815401808255809150506001900390600052602060002001600090919091909150908161325d9190615a64565b50600083828151811061327357613272615836565b5b6020026020010151036132e357600c6001600c8054905061329491906156d0565b815481106132a5576132a4615836565b5b90600052602060002090600c0201600501600090806001815401808255809150506001900390600052602060002001600090919091909150556139b7565b73c778417e063141139fce010982780140aa0cd5ab73ffffffffffffffffffffffffffffffffffffffff16600985838151811061332357613322615836565b5b602002602001015160405161333891906158a1565b908152602001604051809103902060009054906101000a900473ffffffffffffffffffffffffffffffffffffffff1673ffffffffffffffffffffffffffffffffffffffff1603613419576000606484838151811061339957613398615836565b5b60200260200101516007546133ae919061568e565b6133b8919061565d565b9050600c6001600c805490506133ce91906156d0565b815481106133df576133de615836565b5b90600052602060002090600c0201600501819080600181540180825580915050600190039060005260206000200160009091909190915055505b600083828151811061342e5761342d615836565b5b60200260200101511415801561348457508184828151811061345357613452615836565b5b602002602001015160405160200161346b91906158a1565b6040516020818303038152906040528051906020012014155b156139b657600073ffffffffffffffffffffffffffffffffffffffff1660098583815181106134b6576134b5615836565b5b60200260200101516040516134cb91906158a1565b908152602001604051809103902060009054906101000a900473ffffffffffffffffffffffffffffffffffffffff1673ffffffffffffffffffffffffffffffffffffffff16146136fb576000606484838151811061352c5761352b615836565b5b6020026020010151600754613541919061568e565b61354b919061565d565b90506135c773c778417e063141139fce010982780140aa0cd5ab600987858151811061357a57613579615836565b5b602002602001015160405161358f91906158a1565b908152602001604051809103902060009054906101000a900473ffffffffffffffffffffffffffffffffffffffff16836000306139f6565b600c6001600c805490506135db91906156d0565b815481106135ec576135eb615836565b5b90600052602060002090600c0201600501600986848151811061361257613611615836565b5b602002602001015160405161362791906158a1565b908152602001604051809103902060009054906101000a900473ffffffffffffffffffffffffffffffffffffffff1673ffffffffffffffffffffffffffffffffffffffff166370a08231306040518263ffffffff1660e01b815260040161368e9190615c80565b602060405180830381865afa1580156136ab573d6000803e3d6000fd5b505050506040513d601f19601f820116820180604052508101906136cf9190615cb0565b9080600181540180825580915050600190039060005260206000200160009091909190915055506139b5565b600073ffffffffffffffffffffffffffffffffffffffff16600a85838151811061372857613727615836565b5b602002602001015160405161373d91906158a1565b908152602001604051809103902060009054906101000a900473ffffffffffffffffffffffffffffffffffffffff1673ffffffffffffffffffffffffffffffffffffffff16146139b4576000606484838151811061379e5761379d615836565b5b60200260200101516007546137b3919061568e565b6137bd919061565d565b9050600a8583815181106137d4576137d3615836565b5b60200260200101516040516137e991906158a1565b908152602001604051809103902060009054906101000a900473ffffffffffffffffffffffffffffffffffffffff1673ffffffffffffffffffffffffffffffffffffffff166340c10f1930836040518363ffffffff1660e01b8152600401613852929190615cdd565b600060405180830381600087803b15801561386c57600080fd5b505af1158015613880573d6000803e3d6000fd5b50505050600c6001600c8054905061389891906156d0565b815481106138a9576138a8615836565b5b90600052602060002090600c0201600501600a8684815181106138cf576138ce615836565b5b60200260200101516040516138e491906158a1565b908152602001604051809103902060009054906101000a900473ffffffffffffffffffffffffffffffffffffffff1673ffffffffffffffffffffffffffffffffffffffff166370a08231306040518263ffffffff1660e01b815260040161394b9190615c80565b602060405180830381865afa158015613968573d6000803e3d6000fd5b505050506040513d601f19601f8201168201806040525081019061398c9190615cb0565b9080600181540180825580915050600190039060005260206000200160009091909190915055505b5b5b5b80806139c290615b36565b915050613104565b506000600c6001816001815401808255809150500390600052602060002090600c02019050505b505050565b8473ffffffffffffffffffffffffffffffffffffffff1663095ea7b3737a250d5630b4cf539739df2c5dacb4c659f2488d856040518363ffffffff1660e01b8152600401613a45929190615cdd565b6020604051808303816000875af1158015613a64573d6000803e3d6000fd5b505050506040513d601f19601f82011682018060405250810190613a889190615d32565b50606073c778417e063141139fce010982780140aa0cd5ab73ffffffffffffffffffffffffffffffffffffffff168673ffffffffffffffffffffffffffffffffffffffff161480613b18575073c778417e063141139fce010982780140aa0cd5ab73ffffffffffffffffffffffffffffffffffffffff168573ffffffffffffffffffffffffffffffffffffffff16145b15613c0c57600267ffffffffffffffff811115613b3857613b37614bdd565b5b604051908082528060200260200182016040528015613b665781602001602082028036833780820191505090505b5090508581600081518110613b7e57613b7d615836565b5b602002602001019073ffffffffffffffffffffffffffffffffffffffff16908173ffffffffffffffffffffffffffffffffffffffff16815250508481600181518110613bcd57613bcc615836565b5b602002602001019073ffffffffffffffffffffffffffffffffffffffff16908173ffffffffffffffffffffffffffffffffffffffff1681525050613d5a565b600367ffffffffffffffff811115613c2757613c26614bdd565b5b604051908082528060200260200182016040528015613c555781602001602082028036833780820191505090505b5090508581600081518110613c6d57613c6c615836565b5b602002602001019073ffffffffffffffffffffffffffffffffffffffff16908173ffffffffffffffffffffffffffffffffffffffff168152505073c778417e063141139fce010982780140aa0cd5ab81600181518110613cd057613ccf615836565b5b602002602001019073ffffffffffffffffffffffffffffffffffffffff16908173ffffffffffffffffffffffffffffffffffffffff16815250508481600281518110613d1f57613d1e615836565b5b602002602001019073ffffffffffffffffffffffffffffffffffffffff16908173ffffffffffffffffffffffffffffffffffffffff16815250505b737a250d5630b4cf539739df2c5dacb4c659f2488d73ffffffffffffffffffffffffffffffffffffffff166338ed173985858486426040518663ffffffff1660e01b8152600401613daf959493929190615e1d565b6000604051808303816000875af1158015613dce573d6000803e3d6000fd5b505050506040513d6000823e3d601f19601f82011682018060405250810190613df79190615f0e565b50505050505050565b60006001600c80549050613e1491906156d0565b905090565b66b1a2bc2ec50000341015613e63576040517f08c379a0000000000000000000000000000000000000000000000000000000008152600401613e5a90615fa3565b60405180910390fd5b600060055403613e8e5734600581905550600554600681905550613e89336005546146c5565b613ef1565b3460056000828254613ea09190615704565b92505081905550600554600681905550600034600554613ec091906156d0565b9050600081613ecd6106e7565b34613ed8919061568e565b613ee2919061565d565b9050613eee33826146c5565b50505b565b600033905090565b600073ffffffffffffffffffffffffffffffffffffffff168373ffffffffffffffffffffffffffffffffffffffff1603613f6a576040517f08c379a0000000000000000000000000000000000000000000000000000000008152600401613f6190616035565b60405180910390fd5b600073ffffffffffffffffffffffffffffffffffffffff168273ffffffffffffffffffffffffffffffffffffffff1603613fd9576040517f08c379a0000000000000000000000000000000000000000000000000000000008152600401613fd0906160c7565b60405180910390fd5b80600160008573ffffffffffffffffffffffffffffffffffffffff1673ffffffffffffffffffffffffffffffffffffffff16815260200190815260200160002060008473ffffffffffffffffffffffffffffffffffffffff1673ffffffffffffffffffffffffffffffffffffffff168152602001908152602001600020819055508173ffffffffffffffffffffffffffffffffffffffff168373ffffffffffffffffffffffffffffffffffffffff167f8c5be1e5ebec7d5bd14f71427d1e84f3dd0314c0f7b2291e5b200ac8c7c3b925836040516140b791906148fb565b60405180910390a3505050565b600073ffffffffffffffffffffffffffffffffffffffff168273ffffffffffffffffffffffffffffffffffffffff1603614133576040517f08c379a000000000000000000000000000000000000000000000000000000000815260040161412a90616159565b60405180910390fd5b61413f8260008361481b565b60008060008473ffffffffffffffffffffffffffffffffffffffff1673ffffffffffffffffffffffffffffffffffffffff168152602001908152602001600020549050818110156141c5576040517f08c379a00000000000000000000000000000000000000000000000000000000081526004016141bc906161eb565b60405180910390fd5b8181036000808573ffffffffffffffffffffffffffffffffffffffff1673ffffffffffffffffffffffffffffffffffffffff1681526020019081526020016000208190555081600260008282540392505081905550600073ffffffffffffffffffffffffffffffffffffffff168373ffffffffffffffffffffffffffffffffffffffff167fddf252ad1be2c89b69c2b068fc378daa952ba7f163c4a11628f55a4df523b3ef8460405161427891906148fb565b60405180910390a361428c83600084614820565b505050565b600061429d8484611c64565b90507fffffffffffffffffffffffffffffffffffffffffffffffffffffffffffffffff81146143175781811015614309576040517f08c379a000000000000000000000000000000000000000000000000000000000815260040161430090616257565b60405180910390fd5b6143168484848403613efb565b5b50505050565b600073ffffffffffffffffffffffffffffffffffffffff168373ffffffffffffffffffffffffffffffffffffffff160361438c576040517f08c379a0000000000000000000000000000000000000000000000000000000008152600401614383906162e9565b60405180910390fd5b600073ffffffffffffffffffffffffffffffffffffffff168273ffffffffffffffffffffffffffffffffffffffff16036143fb576040517f08c379a00000000000000000000000000000000000000000000000000000000081526004016143f29061637b565b60405180910390fd5b61440683838361481b565b60008060008573ffffffffffffffffffffffffffffffffffffffff1673ffffffffffffffffffffffffffffffffffffffff1681526020019081526020016000205490508181101561448c576040517f08c379a00000000000000000000000000000000000000000000000000000000081526004016144839061640d565b60405180910390fd5b8181036000808673ffffffffffffffffffffffffffffffffffffffff1673ffffffffffffffffffffffffffffffffffffffff16815260200190815260200160002081905550816000808573ffffffffffffffffffffffffffffffffffffffff1673ffffffffffffffffffffffffffffffffffffffff168152602001908152602001600020600082825401925050819055508273ffffffffffffffffffffffffffffffffffffffff168473ffffffffffffffffffffffffffffffffffffffff167fddf252ad1be2c89b69c2b068fc378daa952ba7f163c4a11628f55a4df523b3ef8460405161457a91906148fb565b60405180910390a361458d848484614820565b50505050565b614629816040516024016145a791906148fb565b6040516020818303038152906040527ff82c50f1000000000000000000000000000000000000000000000000000000007bffffffffffffffffffffffffffffffffffffffffffffffffffffffff19166020820180517bffffffffffffffffffffffffffffffffffffffffffffffffffffffff8381831617835250505050614825565b50565b6146c2816040516024016146409190614a58565b6040516020818303038152906040527f41304fac000000000000000000000000000000000000000000000000000000007bffffffffffffffffffffffffffffffffffffffffffffffffffffffff19166020820180517bffffffffffffffffffffffffffffffffffffffffffffffffffffffff8381831617835250505050614825565b50565b600073ffffffffffffffffffffffffffffffffffffffff168273ffffffffffffffffffffffffffffffffffffffff1603614734576040517f08c379a000000000000000000000000000000000000000000000000000000000815260040161472b90616479565b60405180910390fd5b6147406000838361481b565b80600260008282546147529190615704565b92505081905550806000808473ffffffffffffffffffffffffffffffffffffffff1673ffffffffffffffffffffffffffffffffffffffff168152602001908152602001600020600082825401925050819055508173ffffffffffffffffffffffffffffffffffffffff16600073ffffffffffffffffffffffffffffffffffffffff167fddf252ad1be2c89b69c2b068fc378daa952ba7f163c4a11628f55a4df523b3ef8360405161480391906148fb565b60405180910390a361481760008383614820565b5050565b505050565b505050565b61483c8161483461483f614860565b63ffffffff16565b50565b60006a636f6e736f6c652e6c6f679050600080835160208501845afa505050565b6148d8819050919050565b604051806101400160405280600a905b606081526020019060019003908161487b5790505090565b604051806101400160405280600a90602082028036833780820191505090505090565b6040518060400160405280600290602082028036833780820191505090505090565b6148e0616499565b565b6000819050919050565b6148f5816148e2565b82525050565b600060208201905061491060008301846148ec565b92915050565b6000604051905090565b600080fd5b600080fd5b614933816148e2565b811461493e57600080fd5b50565b6000813590506149508161492a565b92915050565b60006020828403121561496c5761496b614920565b5b600061497a84828501614941565b91505092915050565b600060808201905061499860008301876148ec565b6149a560208301866148ec565b6149b260408301856148ec565b6149bf60608301846148ec565b95945050505050565b600081519050919050565b600082825260208201905092915050565b60005b83811015614a025780820151818401526020810190506149e7565b60008484015250505050565b6000601f19601f8301169050919050565b6000614a2a826149c8565b614a3481856149d3565b9350614a448185602086016149e4565b614a4d81614a0e565b840191505092915050565b60006020820190508181036000830152614a728184614a1f565b905092915050565b600073ffffffffffffffffffffffffffffffffffffffff82169050919050565b6000614aa582614a7a565b9050919050565b614ab581614a9a565b8114614ac057600080fd5b50565b600081359050614ad281614aac565b92915050565b60008060408385031215614aef57614aee614920565b5b6000614afd85828601614ac3565b9250506020614b0e85828601614941565b9150509250929050565b60008115159050919050565b614b2d81614b18565b82525050565b6000602082019050614b486000830184614b24565b92915050565b600080600060608486031215614b6757614b66614920565b5b6000614b7586828701614ac3565b9350506020614b8686828701614ac3565b9250506040614b9786828701614941565b9150509250925092565b600060ff82169050919050565b614bb781614ba1565b82525050565b6000602082019050614bd26000830184614bae565b92915050565b600080fd5b7f4e487b7100000000000000000000000000000000000000000000000000000000600052604160045260246000fd5b614c1582614a0e565b810181811067ffffffffffffffff82111715614c3457614c33614bdd565b5b80604052505050565b6000614c47614916565b9050614c538282614c0c565b919050565b600067ffffffffffffffff821115614c7357614c72614bdd565b5b602082029050602081019050919050565b600080fd5b600080fd5b600067ffffffffffffffff821115614ca957614ca8614bdd565b5b614cb282614a0e565b9050602081019050919050565b82818337600083830152505050565b6000614ce1614cdc84614c8e565b614c3d565b905082815260208101848484011115614cfd57614cfc614c89565b5b614d08848285614cbf565b509392505050565b600082601f830112614d2557614d24614bd8565b5b8135614d35848260208601614cce565b91505092915050565b6000614d51614d4c84614c58565b614c3d565b90508083825260208201905060208402830185811115614d7457614d73614c84565b5b835b81811015614dbb57803567ffffffffffffffff811115614d9957614d98614bd8565b5b808601614da68982614d10565b85526020850194505050602081019050614d76565b5050509392505050565b600082601f830112614dda57614dd9614bd8565b5b8135614dea848260208601614d3e565b91505092915050565b600067ffffffffffffffff821115614e0e57614e0d614bdd565b5b602082029050602081019050919050565b6000614e32614e2d84614df3565b614c3d565b90508083825260208201905060208402830185811115614e5557614e54614c84565b5b835b81811015614e7e5780614e6a8882614941565b845260208401935050602081019050614e57565b5050509392505050565b600082601f830112614e9d57614e9c614bd8565b5b8135614ead848260208601614e1f565b91505092915050565b600080600080600060a08688031215614ed257614ed1614920565b5b600086013567ffffffffffffffff811115614ef057614eef614925565b5b614efc88828901614dc5565b955050602086013567ffffffffffffffff811115614f1d57614f1c614925565b5b614f2988828901614e88565b945050604086013567ffffffffffffffff811115614f4a57614f49614925565b5b614f5688828901614e88565b935050606086013567ffffffffffffffff811115614f7757614f76614925565b5b614f8388828901614dc5565b925050608086013567ffffffffffffffff811115614fa457614fa3614925565b5b614fb088828901614dc5565b9150509295509295909350565b6000600a9050919050565b600081905092915050565b6000819050919050565b600082825260208201905092915050565b6000614ff9826149c8565b6150038185614fdd565b93506150138185602086016149e4565b61501c81614a0e565b840191505092915050565b60006150338383614fee565b905092915050565b6000602082019050919050565b600061505382614fbd565b61505d8185614fc8565b93508360208202850161506f85614fd3565b8060005b858110156150ab578484038952815161508c8582615027565b94506150978361503b565b925060208a01995050600181019050615073565b50829750879550505050505092915050565b6000600a9050919050565b600081905092915050565b6000819050919050565b6150e6816148e2565b82525050565b60006150f883836150dd565b60208301905092915050565b6000602082019050919050565b61511a816150bd565b61512481846150c8565b925061512f826150d3565b8060005b8381101561516057815161514787826150ec565b965061515283615104565b925050600181019050615133565b505050505050565b600060029050919050565b600081905092915050565b6000819050919050565b6000602082019050919050565b61519e81615168565b6151a88184615173565b92506151b38261517e565b8060005b838110156151e45781516151cb87826150ec565b96506151d683615188565b9250506001810190506151b7565b505050505050565b60006102e08201905081810360008301526152078187615048565b90506152166020830186615111565b615224610160830185615111565b6152326102a0830184615195565b95945050505050565b60006020828403121561525157615250614920565b5b600061525f84828501614ac3565b91505092915050565b60006020828403121561527e5761527d614920565b5b600082013567ffffffffffffffff81111561529c5761529b614925565b5b6152a884828501614d10565b91505092915050565b600081519050919050565b600082825260208201905092915050565b6000819050602082019050919050565b6000602082019050919050565b60006152f5826152b1565b6152ff81856152bc565b935061530a836152cd565b8060005b8381101561533b57815161532288826150ec565b975061532d836152dd565b92505060018101905061530e565b5085935050505092915050565b600081519050919050565b600082825260208201905092915050565b6000819050602082019050919050565b6000602082019050919050565b600061538c82615348565b6153968185615353565b9350836020820285016153a885615364565b8060005b858110156153e457848403895281516153c58582615027565b94506153d083615374565b925060208a019950506001810190506153ac565b50829750879550505050505092915050565b600060a082019050818103600083015261541081886152ea565b9050818103602083015261542481876152ea565b9050818103604083015261543881866152ea565b9050818103606083015261544c8185615381565b905081810360808301526154608184615381565b90509695505050505050565b6000806040838503121561548357615482614920565b5b600061549185828601614ac3565b92505060206154a285828601614ac3565b9150509250929050565b600080604083850312156154c3576154c2614920565b5b600083013567ffffffffffffffff8111156154e1576154e0614925565b5b6154ed85828601614dc5565b925050602083013567ffffffffffffffff81111561550e5761550d614925565b5b61551a85828601614e88565b9150509250929050565b600080600080600060a086880312156155405761553f614920565b5b600061554e88828901614ac3565b955050602061555f88828901614ac3565b945050604061557088828901614941565b935050606061558188828901614941565b925050608061559288828901614ac3565b9150509295509295909350565b7f4e487b7100000000000000000000000000000000000000000000000000000000600052602260045260246000fd5b600060028204905060018216806155e657607f821691505b6020821081036155f9576155f861559f565b5b50919050565b7f4e487b7100000000000000000000000000000000000000000000000000000000600052601260045260246000fd5b7f4e487b7100000000000000000000000000000000000000000000000000000000600052601160045260246000fd5b6000615668826148e2565b9150615673836148e2565b925082615683576156826155ff565b5b828204905092915050565b6000615699826148e2565b91506156a4836148e2565b92508282026156b2816148e2565b915082820484148315176156c9576156c861562e565b5b5092915050565b60006156db826148e2565b91506156e6836148e2565b92508282039050818111156156fe576156fd61562e565b5b92915050565b600061570f826148e2565b915061571a836148e2565b92508282019050808211156157325761573161562e565b5b92915050565b7f4d7573742062652061206d656d62657220746f207573652044414f2066756e6360008201527f74696f6e00000000000000000000000000000000000000000000000000000000602082015250565b60006157946024836149d3565b915061579f82615738565b604082019050919050565b600060208201905081810360008301526157c381615787565b9050919050565b7f417272617973206d757374206265207468652073616d652073697a6500000000600082015250565b6000615800601c836149d3565b915061580b826157ca565b602082019050919050565b6000602082019050818103600083015261582f816157f3565b9050919050565b7f4e487b7100000000000000000000000000000000000000000000000000000000600052603260045260246000fd5b600081905092915050565b600061587b826149c8565b6158858185615865565b93506158958185602086016149e4565b80840191505092915050565b60006158ad8284615870565b915081905092915050565b60008190508160005260206000209050919050565b60006020601f8301049050919050565b600082821b905092915050565b60006008830261591a7fffffffffffffffffffffffffffffffffffffffffffffffffffffffffffffffff826158dd565b61592486836158dd565b95508019841693508086168417925050509392505050565b6000819050919050565b600061596161595c615957846148e2565b61593c565b6148e2565b9050919050565b6000819050919050565b61597b83615946565b61598f61598782615968565b8484546158ea565b825550505050565b600090565b6159a4615997565b6159af818484615972565b505050565b5b818110156159d3576159c860008261599c565b6001810190506159b5565b5050565b601f821115615a18576159e9816158b8565b6159f2846158cd565b81016020851015615a01578190505b615a15615a0d856158cd565b8301826159b4565b50505b505050565b600082821c905092915050565b6000615a3b60001984600802615a1d565b1980831691505092915050565b6000615a548383615a2a565b9150826002028217905092915050565b615a6d826149c8565b67ffffffffffffffff811115615a8657615a85614bdd565b5b615a9082546155ce565b615a9b8282856159d7565b600060209050601f831160018114615ace5760008415615abc578287015190505b615ac68582615a48565b865550615b2e565b601f198416615adc866158b8565b60005b82811015615b0457848901518255600182019150602085019450602081019050615adf565b86831015615b215784890151615b1d601f891682615a2a565b8355505b6001600288020188555050505b505050505050565b6000615b41826148e2565b91507fffffffffffffffffffffffffffffffffffffffffffffffffffffffffffffffff8203615b7357615b7261562e565b5b600182019050919050565b7f45524332303a2064656372656173656420616c6c6f77616e63652062656c6f7760008201527f207a65726f000000000000000000000000000000000000000000000000000000602082015250565b6000615bda6025836149d3565b9150615be582615b7e565b604082019050919050565b60006020820190508181036000830152615c0981615bcd565b9050919050565b7f5745544800000000000000000000000000000000000000000000000000000000600082015250565b6000615c46600483615865565b9150615c5182615c10565b600482019050919050565b6000615c6782615c39565b9150819050919050565b615c7a81614a9a565b82525050565b6000602082019050615c956000830184615c71565b92915050565b600081519050615caa8161492a565b92915050565b600060208284031215615cc657615cc5614920565b5b6000615cd484828501615c9b565b91505092915050565b6000604082019050615cf26000830185615c71565b615cff60208301846148ec565b9392505050565b615d0f81614b18565b8114615d1a57600080fd5b50565b600081519050615d2c81615d06565b92915050565b600060208284031215615d4857615d47614920565b5b6000615d5684828501615d1d565b91505092915050565b600081519050919050565b600082825260208201905092915050565b6000819050602082019050919050565b615d9481614a9a565b82525050565b6000615da68383615d8b565b60208301905092915050565b6000602082019050919050565b6000615dca82615d5f565b615dd48185615d6a565b9350615ddf83615d7b565b8060005b83811015615e10578151615df78882615d9a565b9750615e0283615db2565b925050600181019050615de3565b5085935050505092915050565b600060a082019050615e3260008301886148ec565b615e3f60208301876148ec565b8181036040830152615e518186615dbf565b9050615e606060830185615c71565b615e6d60808301846148ec565b9695505050505050565b6000615e8a615e8584614df3565b614c3d565b90508083825260208201905060208402830185811115615ead57615eac614c84565b5b835b81811015615ed65780615ec28882615c9b565b845260208401935050602081019050615eaf565b5050509392505050565b600082601f830112615ef557615ef4614bd8565b5b8151615f05848260208601615e77565b91505092915050565b600060208284031215615f2457615f23614920565b5b600082015167ffffffffffffffff811115615f4257615f41614925565b5b615f4e84828501615ee0565b91505092915050565b7f4d696e696d756d2062757920696e20697320302e312065746865720000000000600082015250565b6000615f8d601b836149d3565b9150615f9882615f57565b602082019050919050565b60006020820190508181036000830152615fbc81615f80565b9050919050565b7f45524332303a20617070726f76652066726f6d20746865207a65726f2061646460008201527f7265737300000000000000000000000000000000000000000000000000000000602082015250565b600061601f6024836149d3565b915061602a82615fc3565b604082019050919050565b6000602082019050818103600083015261604e81616012565b9050919050565b7f45524332303a20617070726f766520746f20746865207a65726f20616464726560008201527f7373000000000000000000000000000000000000000000000000000000000000602082015250565b60006160b16022836149d3565b91506160bc82616055565b604082019050919050565b600060208201905081810360008301526160e0816160a4565b9050919050565b7f45524332303a206275726e2066726f6d20746865207a65726f2061646472657360008201527f7300000000000000000000000000000000000000000000000000000000000000602082015250565b60006161436021836149d3565b915061614e826160e7565b604082019050919050565b6000602082019050818103600083015261617281616136565b9050919050565b7f45524332303a206275726e20616d6f756e7420657863656564732062616c616e60008201527f6365000000000000000000000000000000000000000000000000000000000000602082015250565b60006161d56022836149d3565b91506161e082616179565b604082019050919050565b60006020820190508181036000830152616204816161c8565b9050919050565b7f45524332303a20696e73756666696369656e7420616c6c6f77616e6365000000600082015250565b6000616241601d836149d3565b915061624c8261620b565b602082019050919050565b6000602082019050818103600083015261627081616234565b9050919050565b7f45524332303a207472616e736665722066726f6d20746865207a65726f20616460008201527f6472657373000000000000000000000000000000000000000000000000000000602082015250565b60006162d36025836149d3565b91506162de82616277565b604082019050919050565b60006020820190508181036000830152616302816162c6565b9050919050565b7f45524332303a207472616e7366657220746f20746865207a65726f206164647260008201527f6573730000000000000000000000000000000000000000000000000000000000602082015250565b60006163656023836149d3565b915061637082616309565b604082019050919050565b6000602082019050818103600083015261639481616358565b9050919050565b7f45524332303a207472616e7366657220616d6f756e742065786365656473206260008201527f616c616e63650000000000000000000000000000000000000000000000000000602082015250565b60006163f76026836149d3565b91506164028261639b565b604082019050919050565b60006020820190508181036000830152616426816163ea565b9050919050565b7f45524332303a206d696e7420746f20746865207a65726f206164647265737300600082015250565b6000616463601f836149d3565b915061646e8261642d565b602082019050919050565b6000602082019050818103600083015261649281616456565b9050919050565b7f4e487b7100000000000000000000000000000000000000000000000000000000600052605160045260246000fdfea2646970667358221220da7e0b0366b5c77dc956be4df1817ff5b7e393654058a91fd6cd4c8b8feaa5df64736f6c63430008130033","opcodes":"PUSH1 0x80 PUSH1 0x40 MSTORE PUSH20 0xE592427A0AECE92DE3EDEE1F18E0157C05861564 PUSH1 0x8 PUSH1 0x0 PUSH2 0x100 EXP DUP2 SLOAD DUP2 PUSH20 0xFFFFFFFFFFFFFFFFFFFFFFFFFFFFFFFFFFFFFFFF MUL NOT AND SWAP1 DUP4 PUSH20 0xFFFFFFFFFFFFFFFFFFFFFFFFFFFFFFFFFFFFFFFF AND MUL OR SWAP1 SSTORE POP CALLVALUE DUP1 ISZERO PUSH3 0x66 JUMPI PUSH1 0x0 DUP1 REVERT JUMPDEST POP PUSH1 0x40 MLOAD DUP1 PUSH1 0x40 ADD PUSH1 0x40 MSTORE DUP1 PUSH1 0x13 DUP2 MSTORE PUSH1 0x20 ADD PUSH32 0x4F7074696D697A65722044414F20546F6B656E00000000000000000000000000 DUP2 MSTORE POP PUSH1 0x40 MLOAD DUP1 PUSH1 0x40 ADD PUSH1 0x40 MSTORE DUP1 PUSH1 0x3 DUP2 MSTORE PUSH1 0x20 ADD PUSH32 0x4F44500000000000000000000000000000000000000000000000000000000000 DUP2 MSTORE POP DUP2 PUSH1 0x3 SWAP1 DUP2 PUSH3 0xE4 SWAP2 SWAP1 PUSH3 0xA2A JUMP JUMPDEST POP DUP1 PUSH1 0x4 SWAP1 DUP2 PUSH3 0xF6 SWAP2 SWAP1 PUSH3 0xA2A JUMP JUMPDEST POP POP POP PUSH1 0x0 PUSH1 0xC PUSH1 0x1 DUP2 PUSH1 0x1 DUP2 SLOAD ADD DUP1 DUP3 SSTORE DUP1 SWAP2 POP POP SUB SWAP1 PUSH1 0x0 MSTORE PUSH1 0x20 PUSH1 0x0 KECCAK256 SWAP1 PUSH1 0xC MUL ADD SWAP1 POP PUSH1 0x0 PUSH1 0x40 MLOAD DUP1 PUSH1 0xA0 ADD PUSH1 0x40 MSTORE DUP1 PUSH1 0x40 MLOAD DUP1 PUSH1 0x40 ADD PUSH1 0x40 MSTORE DUP1 PUSH1 0x4 DUP2 MSTORE PUSH1 0x20 ADD PUSH32 0x5745544800000000000000000000000000000000000000000000000000000000 DUP2 MSTORE POP DUP2 MSTORE PUSH1 0x20 ADD PUSH1 0x40 MLOAD DUP1 PUSH1 0x40 ADD PUSH1 0x40 MSTORE DUP1 PUSH1 0x3 DUP2 MSTORE PUSH1 0x20 ADD PUSH32 0x4241540000000000000000000000000000000000000000000000000000000000 DUP2 MSTORE POP DUP2 MSTORE PUSH1 0x20 ADD PUSH1 0x40 MLOAD DUP1 PUSH1 0x40 ADD PUSH1 0x40 MSTORE DUP1 PUSH1 0x4 DUP2 MSTORE PUSH1 0x20 ADD PUSH32 0x5742544300000000000000000000000000000000000000000000000000000000 DUP2 MSTORE POP DUP2 MSTORE PUSH1 0x20 ADD PUSH1 0x40 MLOAD DUP1 PUSH1 0x40 ADD PUSH1 0x40 MSTORE DUP1 PUSH1 0x3 DUP2 MSTORE PUSH1 0x20 ADD PUSH32 0x554E490000000000000000000000000000000000000000000000000000000000 DUP2 MSTORE POP DUP2 MSTORE PUSH1 0x20 ADD PUSH1 0x40 MLOAD DUP1 PUSH1 0x40 ADD PUSH1 0x40 MSTORE DUP1 PUSH1 0x4 DUP2 MSTORE PUSH1 0x20 ADD PUSH32 0x5553445400000000000000000000000000000000000000000000000000000000 DUP2 MSTORE POP DUP2 MSTORE POP SWAP1 POP PUSH1 0x0 PUSH1 0x40 MLOAD DUP1 PUSH1 0xA0 ADD PUSH1 0x40 MSTORE DUP1 PUSH20 0xC778417E063141139FCE010982780140AA0CD5AB PUSH20 0xFFFFFFFFFFFFFFFFFFFFFFFFFFFFFFFFFFFFFFFF AND PUSH20 0xFFFFFFFFFFFFFFFFFFFFFFFFFFFFFFFFFFFFFFFF AND DUP2 MSTORE PUSH1 0x20 ADD PUSH20 0xDA5B056CFB861282B4B59D29C9B395BCC238D29B PUSH20 0xFFFFFFFFFFFFFFFFFFFFFFFFFFFFFFFFFFFFFFFF AND PUSH20 0xFFFFFFFFFFFFFFFFFFFFFFFFFFFFFFFFFFFFFFFF AND DUP2 MSTORE PUSH1 0x20 ADD PUSH20 0x577D296678535E4903D59A4C929B718E1D575E0A PUSH20 0xFFFFFFFFFFFFFFFFFFFFFFFFFFFFFFFFFFFFFFFF AND PUSH20 0xFFFFFFFFFFFFFFFFFFFFFFFFFFFFFFFFFFFFFFFF AND DUP2 MSTORE PUSH1 0x20 ADD PUSH20 0x1F9840A85D5AF5BF1D1762F925BDADDC4201F984 PUSH20 0xFFFFFFFFFFFFFFFFFFFFFFFFFFFFFFFFFFFFFFFF AND PUSH20 0xFFFFFFFFFFFFFFFFFFFFFFFFFFFFFFFFFFFFFFFF AND DUP2 MSTORE PUSH1 0x20 ADD PUSH20 0x2FB298BDBEF468638AD6653FF8376575EA41E768 PUSH20 0xFFFFFFFFFFFFFFFFFFFFFFFFFFFFFFFFFFFFFFFF AND PUSH20 0xFFFFFFFFFFFFFFFFFFFFFFFFFFFFFFFFFFFFFFFF AND DUP2 MSTORE POP SWAP1 POP PUSH1 0x0 PUSH1 0x40 MLOAD DUP1 PUSH1 0xA0 ADD PUSH1 0x40 MSTORE DUP1 PUSH1 0x40 MLOAD DUP1 PUSH1 0x40 ADD PUSH1 0x40 MSTORE DUP1 PUSH1 0x5 DUP2 MSTORE PUSH1 0x20 ADD PUSH32 0x7357455448000000000000000000000000000000000000000000000000000000 DUP2 MSTORE POP DUP2 MSTORE PUSH1 0x20 ADD PUSH1 0x40 MLOAD DUP1 PUSH1 0x40 ADD PUSH1 0x40 MSTORE DUP1 PUSH1 0x4 DUP2 MSTORE PUSH1 0x20 ADD PUSH32 0x7342415400000000000000000000000000000000000000000000000000000000 DUP2 MSTORE POP DUP2 MSTORE PUSH1 0x20 ADD PUSH1 0x40 MLOAD DUP1 PUSH1 0x40 ADD PUSH1 0x40 MSTORE DUP1 PUSH1 0x5 DUP2 MSTORE PUSH1 0x20 ADD PUSH32 0x7357425443000000000000000000000000000000000000000000000000000000 DUP2 MSTORE POP DUP2 MSTORE PUSH1 0x20 ADD PUSH1 0x40 MLOAD DUP1 PUSH1 0x40 ADD PUSH1 0x40 MSTORE DUP1 PUSH1 0x4 DUP2 MSTORE PUSH1 0x20 ADD PUSH32 0x73554E4900000000000000000000000000000000000000000000000000000000 DUP2 MSTORE POP DUP2 MSTORE PUSH1 0x20 ADD PUSH1 0x40 MLOAD DUP1 PUSH1 0x40 ADD PUSH1 0x40 MSTORE DUP1 PUSH1 0x5 DUP2 MSTORE PUSH1 0x20 ADD PUSH32 0x7355534454000000000000000000000000000000000000000000000000000000 DUP2 MSTORE POP DUP2 MSTORE POP SWAP1 POP PUSH1 0x0 PUSH1 0x40 MLOAD DUP1 PUSH1 0xA0 ADD PUSH1 0x40 MSTORE DUP1 PUSH20 0x982CD41387DD65E659279C4EFCF05C25C4B586D6 PUSH20 0xFFFFFFFFFFFFFFFFFFFFFFFFFFFFFFFFFFFFFFFF AND PUSH20 0xFFFFFFFFFFFFFFFFFFFFFFFFFFFFFFFFFFFFFFFF AND DUP2 MSTORE PUSH1 0x20 ADD PUSH20 0xF760954E01E53C3F7F08733CA1DC62B14B4BF50E PUSH20 0xFFFFFFFFFFFFFFFFFFFFFFFFFFFFFFFFFFFFFFFF AND PUSH20 0xFFFFFFFFFFFFFFFFFFFFFFFFFFFFFFFFFFFFFFFF AND DUP2 MSTORE PUSH1 0x20 ADD PUSH20 0xA18533BA93407A54BB1BCADB7E9F3D34E46039F9 PUSH20 0xFFFFFFFFFFFFFFFFFFFFFFFFFFFFFFFFFFFFFFFF AND PUSH20 0xFFFFFFFFFFFFFFFFFFFFFFFFFFFFFFFFFFFFFFFF AND DUP2 MSTORE PUSH1 0x20 ADD PUSH20 0x95552CA5CC9F329E5376659EAD39F880307B7A13 PUSH20 0xFFFFFFFFFFFFFFFFFFFFFFFFFFFFFFFFFFFFFFFF AND PUSH20 0xFFFFFFFFFFFFFFFFFFFFFFFFFFFFFFFFFFFFFFFF AND DUP2 MSTORE PUSH1 0x20 ADD PUSH20 0x1C0B9527210B427AD9BDFF41BB3A3B78C9CEE7D9 PUSH20 0xFFFFFFFFFFFFFFFFFFFFFFFFFFFFFFFFFFFFFFFF AND PUSH20 0xFFFFFFFFFFFFFFFFFFFFFFFFFFFFFFFFFFFFFFFF AND DUP2 MSTORE POP SWAP1 POP PUSH1 0x0 JUMPDEST PUSH1 0x5 DUP2 LT ISZERO PUSH3 0x7A4 JUMPI DUP4 DUP2 PUSH1 0x5 DUP2 LT PUSH3 0x67E JUMPI PUSH3 0x67D PUSH3 0xB11 JUMP JUMPDEST JUMPDEST PUSH1 0x20 MUL ADD MLOAD PUSH1 0x9 DUP7 DUP4 PUSH1 0x5 DUP2 LT PUSH3 0x69B JUMPI PUSH3 0x69A PUSH3 0xB11 JUMP JUMPDEST JUMPDEST PUSH1 0x20 MUL ADD MLOAD PUSH1 0x40 MLOAD PUSH3 0x6AF SWAP2 SWAP1 PUSH3 0xBAE JUMP JUMPDEST SWAP1 DUP2 MSTORE PUSH1 0x20 ADD PUSH1 0x40 MLOAD DUP1 SWAP2 SUB SWAP1 KECCAK256 PUSH1 0x0 PUSH2 0x100 EXP DUP2 SLOAD DUP2 PUSH20 0xFFFFFFFFFFFFFFFFFFFFFFFFFFFFFFFFFFFFFFFF MUL NOT AND SWAP1 DUP4 PUSH20 0xFFFFFFFFFFFFFFFFFFFFFFFFFFFFFFFFFFFFFFFF AND MUL OR SWAP1 SSTORE POP DUP2 DUP2 PUSH1 0x5 DUP2 LT PUSH3 0x711 JUMPI PUSH3 0x710 PUSH3 0xB11 JUMP JUMPDEST JUMPDEST PUSH1 0x20 MUL ADD MLOAD PUSH1 0xA DUP5 DUP4 PUSH1 0x5 DUP2 LT PUSH3 0x72E JUMPI PUSH3 0x72D PUSH3 0xB11 JUMP JUMPDEST JUMPDEST PUSH1 0x20 MUL ADD MLOAD PUSH1 0x40 MLOAD PUSH3 0x742 SWAP2 SWAP1 PUSH3 0xBAE JUMP JUMPDEST SWAP1 DUP2 MSTORE PUSH1 0x20 ADD PUSH1 0x40 MLOAD DUP1 SWAP2 SUB SWAP1 KECCAK256 PUSH1 0x0 PUSH2 0x100 EXP DUP2 SLOAD DUP2 PUSH20 0xFFFFFFFFFFFFFFFFFFFFFFFFFFFFFFFFFFFFFFFF MUL NOT AND SWAP1 DUP4 PUSH20 0xFFFFFFFFFFFFFFFFFFFFFFFFFFFFFFFFFFFFFFFF AND MUL OR SWAP1 SSTORE POP DUP1 DUP1 PUSH3 0x79B SWAP1 PUSH3 0xBF6 JUMP JUMPDEST SWAP2 POP POP PUSH3 0x65E JUMP JUMPDEST POP POP POP POP POP POP PUSH3 0xC43 JUMP JUMPDEST PUSH1 0x0 DUP2 MLOAD SWAP1 POP SWAP2 SWAP1 POP JUMP JUMPDEST PUSH32 0x4E487B7100000000000000000000000000000000000000000000000000000000 PUSH1 0x0 MSTORE PUSH1 0x41 PUSH1 0x4 MSTORE PUSH1 0x24 PUSH1 0x0 REVERT JUMPDEST PUSH32 0x4E487B7100000000000000000000000000000000000000000000000000000000 PUSH1 0x0 MSTORE PUSH1 0x22 PUSH1 0x4 MSTORE PUSH1 0x24 PUSH1 0x0 REVERT JUMPDEST PUSH1 0x0 PUSH1 0x2 DUP3 DIV SWAP1 POP PUSH1 0x1 DUP3 AND DUP1 PUSH3 0x832 JUMPI PUSH1 0x7F DUP3 AND SWAP2 POP JUMPDEST PUSH1 0x20 DUP3 LT DUP2 SUB PUSH3 0x848 JUMPI PUSH3 0x847 PUSH3 0x7EA JUMP JUMPDEST JUMPDEST POP SWAP2 SWAP1 POP JUMP JUMPDEST PUSH1 0x0 DUP2 SWAP1 POP DUP2 PUSH1 0x0 MSTORE PUSH1 0x20 PUSH1 0x0 KECCAK256 SWAP1 POP SWAP2 SWAP1 POP JUMP JUMPDEST PUSH1 0x0 PUSH1 0x20 PUSH1 0x1F DUP4 ADD DIV SWAP1 POP SWAP2 SWAP1 POP JUMP JUMPDEST PUSH1 0x0 DUP3 DUP3 SHL SWAP1 POP SWAP3 SWAP2 POP POP JUMP JUMPDEST PUSH1 0x0 PUSH1 0x8 DUP4 MUL PUSH3 0x8B2 PUSH32 0xFFFFFFFFFFFFFFFFFFFFFFFFFFFFFFFFFFFFFFFFFFFFFFFFFFFFFFFFFFFFFFFF DUP3 PUSH3 0x873 JUMP JUMPDEST PUSH3 0x8BE DUP7 DUP4 PUSH3 0x873 JUMP JUMPDEST SWAP6 POP DUP1 NOT DUP5 AND SWAP4 POP DUP1 DUP7 AND DUP5 OR SWAP3 POP POP POP SWAP4 SWAP3 POP POP POP JUMP JUMPDEST PUSH1 0x0 DUP2 SWAP1 POP SWAP2 SWAP1 POP JUMP JUMPDEST PUSH1 0x0 DUP2 SWAP1 POP SWAP2 SWAP1 POP JUMP JUMPDEST PUSH1 0x0 PUSH3 0x90B PUSH3 0x905 PUSH3 0x8FF DUP5 PUSH3 0x8D6 JUMP JUMPDEST PUSH3 0x8E0 JUMP JUMPDEST PUSH3 0x8D6 JUMP JUMPDEST SWAP1 POP SWAP2 SWAP1 POP JUMP JUMPDEST PUSH1 0x0 DUP2 SWAP1 POP SWAP2 SWAP1 POP JUMP JUMPDEST PUSH3 0x927 DUP4 PUSH3 0x8EA JUMP JUMPDEST PUSH3 0x93F PUSH3 0x936 DUP3 PUSH3 0x912 JUMP JUMPDEST DUP5 DUP5 SLOAD PUSH3 0x880 JUMP JUMPDEST DUP3 SSTORE POP POP POP POP JUMP JUMPDEST PUSH1 0x0 SWAP1 JUMP JUMPDEST PUSH3 0x956 PUSH3 0x947 JUMP JUMPDEST PUSH3 0x963 DUP2 DUP5 DUP5 PUSH3 0x91C JUMP JUMPDEST POP POP POP JUMP JUMPDEST JUMPDEST DUP2 DUP2 LT ISZERO PUSH3 0x98B JUMPI PUSH3 0x97F PUSH1 0x0 DUP3 PUSH3 0x94C JUMP JUMPDEST PUSH1 0x1 DUP2 ADD SWAP1 POP PUSH3 0x969 JUMP JUMPDEST POP POP JUMP JUMPDEST PUSH1 0x1F DUP3 GT ISZERO PUSH3 0x9DA JUMPI PUSH3 0x9A4 DUP2 PUSH3 0x84E JUMP JUMPDEST PUSH3 0x9AF DUP5 PUSH3 0x863 JUMP JUMPDEST DUP2 ADD PUSH1 0x20 DUP6 LT ISZERO PUSH3 0x9BF JUMPI DUP2 SWAP1 POP JUMPDEST PUSH3 0x9D7 PUSH3 0x9CE DUP6 PUSH3 0x863 JUMP JUMPDEST DUP4 ADD DUP3 PUSH3 0x968 JUMP JUMPDEST POP POP JUMPDEST POP POP POP JUMP JUMPDEST PUSH1 0x0 DUP3 DUP3 SHR SWAP1 POP SWAP3 SWAP2 POP POP JUMP JUMPDEST PUSH1 0x0 PUSH3 0x9FF PUSH1 0x0 NOT DUP5 PUSH1 0x8 MUL PUSH3 0x9DF JUMP JUMPDEST NOT DUP1 DUP4 AND SWAP2 POP POP SWAP3 SWAP2 POP POP JUMP JUMPDEST PUSH1 0x0 PUSH3 0xA1A DUP4 DUP4 PUSH3 0x9EC JUMP JUMPDEST SWAP2 POP DUP3 PUSH1 0x2 MUL DUP3 OR SWAP1 POP SWAP3 SWAP2 POP POP JUMP JUMPDEST PUSH3 0xA35 DUP3 PUSH3 0x7B0 JUMP JUMPDEST PUSH8 0xFFFFFFFFFFFFFFFF DUP2 GT ISZERO PUSH3 0xA51 JUMPI PUSH3 0xA50 PUSH3 0x7BB JUMP JUMPDEST JUMPDEST PUSH3 0xA5D DUP3 SLOAD PUSH3 0x819 JUMP JUMPDEST PUSH3 0xA6A DUP3 DUP3 DUP6 PUSH3 0x98F JUMP JUMPDEST PUSH1 0x0 PUSH1 0x20 SWAP1 POP PUSH1 0x1F DUP4 GT PUSH1 0x1 DUP2 EQ PUSH3 0xAA2 JUMPI PUSH1 0x0 DUP5 ISZERO PUSH3 0xA8D JUMPI DUP3 DUP8 ADD MLOAD SWAP1 POP JUMPDEST PUSH3 0xA99 DUP6 DUP3 PUSH3 0xA0C JUMP JUMPDEST DUP7 SSTORE POP PUSH3 0xB09 JUMP JUMPDEST PUSH1 0x1F NOT DUP5 AND PUSH3 0xAB2 DUP7 PUSH3 0x84E JUMP JUMPDEST PUSH1 0x0 JUMPDEST DUP3 DUP2 LT ISZERO PUSH3 0xADC JUMPI DUP5 DUP10 ADD MLOAD DUP3 SSTORE PUSH1 0x1 DUP3 ADD SWAP2 POP PUSH1 0x20 DUP6 ADD SWAP5 POP PUSH1 0x20 DUP2 ADD SWAP1 POP PUSH3 0xAB5 JUMP JUMPDEST DUP7 DUP4 LT ISZERO PUSH3 0xAFC JUMPI DUP5 DUP10 ADD MLOAD PUSH3 0xAF8 PUSH1 0x1F DUP10 AND DUP3 PUSH3 0x9EC JUMP JUMPDEST DUP4 SSTORE POP JUMPDEST PUSH1 0x1 PUSH1 0x2 DUP9 MUL ADD DUP9 SSTORE POP POP POP JUMPDEST POP POP POP POP POP POP JUMP JUMPDEST PUSH32 0x4E487B7100000000000000000000000000000000000000000000000000000000 PUSH1 0x0 MSTORE PUSH1 0x32 PUSH1 0x4 MSTORE PUSH1 0x24 PUSH1 0x0 REVERT JUMPDEST PUSH1 0x0 DUP2 SWAP1 POP SWAP3 SWAP2 POP POP JUMP JUMPDEST PUSH1 0x0 JUMPDEST DUP4 DUP2 LT ISZERO PUSH3 0xB6B JUMPI DUP1 DUP3 ADD MLOAD DUP2 DUP5 ADD MSTORE PUSH1 0x20 DUP2 ADD SWAP1 POP PUSH3 0xB4E JUMP JUMPDEST PUSH1 0x0 DUP5 DUP5 ADD MSTORE POP POP POP POP JUMP JUMPDEST PUSH1 0x0 PUSH3 0xB84 DUP3 PUSH3 0x7B0 JUMP JUMPDEST PUSH3 0xB90 DUP2 DUP6 PUSH3 0xB40 JUMP JUMPDEST SWAP4 POP PUSH3 0xBA2 DUP2 DUP6 PUSH1 0x20 DUP7 ADD PUSH3 0xB4B JUMP JUMPDEST DUP1 DUP5 ADD SWAP2 POP POP SWAP3 SWAP2 POP POP JUMP JUMPDEST PUSH1 0x0 PUSH3 0xBBC DUP3 DUP5 PUSH3 0xB77 JUMP JUMPDEST SWAP2 POP DUP2 SWAP1 POP SWAP3 SWAP2 POP POP JUMP JUMPDEST PUSH32 0x4E487B7100000000000000000000000000000000000000000000000000000000 PUSH1 0x0 MSTORE PUSH1 0x11 PUSH1 0x4 MSTORE PUSH1 0x24 PUSH1 0x0 REVERT JUMPDEST PUSH1 0x0 PUSH3 0xC03 DUP3 PUSH3 0x8D6 JUMP JUMPDEST SWAP2 POP PUSH32 0xFFFFFFFFFFFFFFFFFFFFFFFFFFFFFFFFFFFFFFFFFFFFFFFFFFFFFFFFFFFFFFFF DUP3 SUB PUSH3 0xC38 JUMPI PUSH3 0xC37 PUSH3 0xBC7 JUMP JUMPDEST JUMPDEST PUSH1 0x1 DUP3 ADD SWAP1 POP SWAP2 SWAP1 POP JUMP JUMPDEST PUSH2 0x64FE DUP1 PUSH3 0xC53 PUSH1 0x0 CODECOPY PUSH1 0x0 RETURN INVALID PUSH1 0x80 PUSH1 0x40 MSTORE PUSH1 0x4 CALLDATASIZE LT PUSH2 0x14A JUMPI PUSH1 0x0 CALLDATALOAD PUSH1 0xE0 SHR DUP1 PUSH4 0x70A08231 GT PUSH2 0xB6 JUMPI DUP1 PUSH4 0xB4F301C8 GT PUSH2 0x6F JUMPI DUP1 PUSH4 0xB4F301C8 EQ PUSH2 0x4EB JUMPI DUP1 PUSH4 0xDD62ED3E EQ PUSH2 0x528 JUMPI DUP1 PUSH4 0xE430FCB6 EQ PUSH2 0x565 JUMPI DUP1 PUSH4 0xE47B2279 EQ PUSH2 0x58E JUMPI DUP1 PUSH4 0xEF2091BC EQ PUSH2 0x5B7 JUMPI DUP1 PUSH4 0xF63D13D7 EQ PUSH2 0x5E2 JUMPI PUSH2 0x14A JUMP JUMPDEST DUP1 PUSH4 0x70A08231 EQ PUSH2 0x39D JUMPI DUP1 PUSH4 0x8B1FDF24 EQ PUSH2 0x3DA JUMPI DUP1 PUSH4 0x95D89B41 EQ PUSH2 0x41B JUMPI DUP1 PUSH4 0xA457C2D7 EQ PUSH2 0x446 JUMPI DUP1 PUSH4 0xA9059CBB EQ PUSH2 0x483 JUMPI DUP1 PUSH4 0xA91F3B51 EQ PUSH2 0x4C0 JUMPI PUSH2 0x14A JUMP JUMPDEST DUP1 PUSH4 0x23B872DD GT PUSH2 0x108 JUMPI DUP1 PUSH4 0x23B872DD EQ PUSH2 0x264 JUMPI DUP1 PUSH4 0x313CE567 EQ PUSH2 0x2A1 JUMPI DUP1 PUSH4 0x32D184DC EQ PUSH2 0x2CC JUMPI DUP1 PUSH4 0x39509351 EQ PUSH2 0x2F7 JUMPI DUP1 PUSH4 0x472AD1F4 EQ PUSH2 0x334 JUMPI DUP1 PUSH4 0x4C26B8A2 EQ PUSH2 0x35D JUMPI PUSH2 0x14A JUMP JUMPDEST DUP1 PUSH3 0xC7F3FB EQ PUSH2 0x14F JUMPI DUP1 PUSH4 0x13CF08B EQ PUSH2 0x17A JUMPI DUP1 PUSH4 0x6FDDE03 EQ PUSH2 0x1BA JUMPI DUP1 PUSH4 0x95EA7B3 EQ PUSH2 0x1E5 JUMPI DUP1 PUSH4 0x18160DDD EQ PUSH2 0x222 JUMPI DUP1 PUSH4 0x1DE7DF41 EQ PUSH2 0x24D JUMPI JUMPDEST PUSH1 0x0 DUP1 REVERT JUMPDEST CALLVALUE DUP1 ISZERO PUSH2 0x15B JUMPI PUSH1 0x0 DUP1 REVERT JUMPDEST POP PUSH2 0x164 PUSH2 0x5EC JUMP JUMPDEST PUSH1 0x40 MLOAD PUSH2 0x171 SWAP2 SWAP1 PUSH2 0x48FB JUMP JUMPDEST PUSH1 0x40 MLOAD DUP1 SWAP2 SUB SWAP1 RETURN JUMPDEST CALLVALUE DUP1 ISZERO PUSH2 0x186 JUMPI PUSH1 0x0 DUP1 REVERT JUMPDEST POP PUSH2 0x1A1 PUSH1 0x4 DUP1 CALLDATASIZE SUB DUP2 ADD SWAP1 PUSH2 0x19C SWAP2 SWAP1 PUSH2 0x4956 JUMP JUMPDEST PUSH2 0x5F2 JUMP JUMPDEST PUSH1 0x40 MLOAD PUSH2 0x1B1 SWAP5 SWAP4 SWAP3 SWAP2 SWAP1 PUSH2 0x4983 JUMP JUMPDEST PUSH1 0x40 MLOAD DUP1 SWAP2 SUB SWAP1 RETURN JUMPDEST CALLVALUE DUP1 ISZERO PUSH2 0x1C6 JUMPI PUSH1 0x0 DUP1 REVERT JUMPDEST POP PUSH2 0x1CF PUSH2 0x632 JUMP JUMPDEST PUSH1 0x40 MLOAD PUSH2 0x1DC SWAP2 SWAP1 PUSH2 0x4A58 JUMP JUMPDEST PUSH1 0x40 MLOAD DUP1 SWAP2 SUB SWAP1 RETURN JUMPDEST CALLVALUE DUP1 ISZERO PUSH2 0x1F1 JUMPI PUSH1 0x0 DUP1 REVERT JUMPDEST POP PUSH2 0x20C PUSH1 0x4 DUP1 CALLDATASIZE SUB DUP2 ADD SWAP1 PUSH2 0x207 SWAP2 SWAP1 PUSH2 0x4AD8 JUMP JUMPDEST PUSH2 0x6C4 JUMP JUMPDEST PUSH1 0x40 MLOAD PUSH2 0x219 SWAP2 SWAP1 PUSH2 0x4B33 JUMP JUMPDEST PUSH1 0x40 MLOAD DUP1 SWAP2 SUB SWAP1 RETURN JUMPDEST CALLVALUE DUP1 ISZERO PUSH2 0x22E JUMPI PUSH1 0x0 DUP1 REVERT JUMPDEST POP PUSH2 0x237 PUSH2 0x6E7 JUMP JUMPDEST PUSH1 0x40 MLOAD PUSH2 0x244 SWAP2 SWAP1 PUSH2 0x48FB JUMP JUMPDEST PUSH1 0x40 MLOAD DUP1 SWAP2 SUB SWAP1 RETURN JUMPDEST CALLVALUE DUP1 ISZERO PUSH2 0x259 JUMPI PUSH1 0x0 DUP1 REVERT JUMPDEST POP PUSH2 0x262 PUSH2 0x6F1 JUMP JUMPDEST STOP JUMPDEST CALLVALUE DUP1 ISZERO PUSH2 0x270 JUMPI PUSH1 0x0 DUP1 REVERT JUMPDEST POP PUSH2 0x28B PUSH1 0x4 DUP1 CALLDATASIZE SUB DUP2 ADD SWAP1 PUSH2 0x286 SWAP2 SWAP1 PUSH2 0x4B4E JUMP JUMPDEST PUSH2 0x79D JUMP JUMPDEST PUSH1 0x40 MLOAD PUSH2 0x298 SWAP2 SWAP1 PUSH2 0x4B33 JUMP JUMPDEST PUSH1 0x40 MLOAD DUP1 SWAP2 SUB SWAP1 RETURN JUMPDEST CALLVALUE DUP1 ISZERO PUSH2 0x2AD JUMPI PUSH1 0x0 DUP1 REVERT JUMPDEST POP PUSH2 0x2B6 PUSH2 0x7CC JUMP JUMPDEST PUSH1 0x40 MLOAD PUSH2 0x2C3 SWAP2 SWAP1 PUSH2 0x4BBD JUMP JUMPDEST PUSH1 0x40 MLOAD DUP1 SWAP2 SUB SWAP1 RETURN JUMPDEST CALLVALUE DUP1 ISZERO PUSH2 0x2D8 JUMPI PUSH1 0x0 DUP1 REVERT JUMPDEST POP PUSH2 0x2E1 PUSH2 0x7D5 JUMP JUMPDEST PUSH1 0x40 MLOAD PUSH2 0x2EE SWAP2 SWAP1 PUSH2 0x48FB JUMP JUMPDEST PUSH1 0x40 MLOAD DUP1 SWAP2 SUB SWAP1 RETURN JUMPDEST CALLVALUE DUP1 ISZERO PUSH2 0x303 JUMPI PUSH1 0x0 DUP1 REVERT JUMPDEST POP PUSH2 0x31E PUSH1 0x4 DUP1 CALLDATASIZE SUB DUP2 ADD SWAP1 PUSH2 0x319 SWAP2 SWAP1 PUSH2 0x4AD8 JUMP JUMPDEST PUSH2 0x7DB JUMP JUMPDEST PUSH1 0x40 MLOAD PUSH2 0x32B SWAP2 SWAP1 PUSH2 0x4B33 JUMP JUMPDEST PUSH1 0x40 MLOAD DUP1 SWAP2 SUB SWAP1 RETURN JUMPDEST CALLVALUE DUP1 ISZERO PUSH2 0x340 JUMPI PUSH1 0x0 DUP1 REVERT JUMPDEST POP PUSH2 0x35B PUSH1 0x4 DUP1 CALLDATASIZE SUB DUP2 ADD SWAP1 PUSH2 0x356 SWAP2 SWAP1 PUSH2 0x4EB6 JUMP JUMPDEST PUSH2 0x812 JUMP JUMPDEST STOP JUMPDEST CALLVALUE DUP1 ISZERO PUSH2 0x369 JUMPI PUSH1 0x0 DUP1 REVERT JUMPDEST POP PUSH2 0x384 PUSH1 0x4 DUP1 CALLDATASIZE SUB DUP2 ADD SWAP1 PUSH2 0x37F SWAP2 SWAP1 PUSH2 0x4956 JUMP JUMPDEST PUSH2 0xC42 JUMP JUMPDEST PUSH1 0x40 MLOAD PUSH2 0x394 SWAP5 SWAP4 SWAP3 SWAP2 SWAP1 PUSH2 0x51EC JUMP JUMPDEST PUSH1 0x40 MLOAD DUP1 SWAP2 SUB SWAP1 RETURN JUMPDEST CALLVALUE DUP1 ISZERO PUSH2 0x3A9 JUMPI PUSH1 0x0 DUP1 REVERT JUMPDEST POP PUSH2 0x3C4 PUSH1 0x4 DUP1 CALLDATASIZE SUB DUP2 ADD SWAP1 PUSH2 0x3BF SWAP2 SWAP1 PUSH2 0x523B JUMP JUMPDEST PUSH2 0x156D JUMP JUMPDEST PUSH1 0x40 MLOAD PUSH2 0x3D1 SWAP2 SWAP1 PUSH2 0x48FB JUMP JUMPDEST PUSH1 0x40 MLOAD DUP1 SWAP2 SUB SWAP1 RETURN JUMPDEST CALLVALUE DUP1 ISZERO PUSH2 0x3E6 JUMPI PUSH1 0x0 DUP1 REVERT JUMPDEST POP PUSH2 0x401 PUSH1 0x4 DUP1 CALLDATASIZE SUB DUP2 ADD SWAP1 PUSH2 0x3FC SWAP2 SWAP1 PUSH2 0x5268 JUMP JUMPDEST PUSH2 0x15B5 JUMP JUMPDEST PUSH1 0x40 MLOAD PUSH2 0x412 SWAP6 SWAP5 SWAP4 SWAP3 SWAP2 SWAP1 PUSH2 0x53F6 JUMP JUMPDEST PUSH1 0x40 MLOAD DUP1 SWAP2 SUB SWAP1 RETURN JUMPDEST CALLVALUE DUP1 ISZERO PUSH2 0x427 JUMPI PUSH1 0x0 DUP1 REVERT JUMPDEST POP PUSH2 0x430 PUSH2 0x1B04 JUMP JUMPDEST PUSH1 0x40 MLOAD PUSH2 0x43D SWAP2 SWAP1 PUSH2 0x4A58 JUMP JUMPDEST PUSH1 0x40 MLOAD DUP1 SWAP2 SUB SWAP1 RETURN JUMPDEST CALLVALUE DUP1 ISZERO PUSH2 0x452 JUMPI PUSH1 0x0 DUP1 REVERT JUMPDEST POP PUSH2 0x46D PUSH1 0x4 DUP1 CALLDATASIZE SUB DUP2 ADD SWAP1 PUSH2 0x468 SWAP2 SWAP1 PUSH2 0x4AD8 JUMP JUMPDEST PUSH2 0x1B96 JUMP JUMPDEST PUSH1 0x40 MLOAD PUSH2 0x47A SWAP2 SWAP1 PUSH2 0x4B33 JUMP JUMPDEST PUSH1 0x40 MLOAD DUP1 SWAP2 SUB SWAP1 RETURN JUMPDEST CALLVALUE DUP1 ISZERO PUSH2 0x48F JUMPI PUSH1 0x0 DUP1 REVERT JUMPDEST POP PUSH2 0x4AA PUSH1 0x4 DUP1 CALLDATASIZE SUB DUP2 ADD SWAP1 PUSH2 0x4A5 SWAP2 SWAP1 PUSH2 0x4AD8 JUMP JUMPDEST PUSH2 0x1C0D JUMP JUMPDEST PUSH1 0x40 MLOAD PUSH2 0x4B7 SWAP2 SWAP1 PUSH2 0x4B33 JUMP JUMPDEST PUSH1 0x40 MLOAD DUP1 SWAP2 SUB SWAP1 RETURN JUMPDEST CALLVALUE DUP1 ISZERO PUSH2 0x4CC JUMPI PUSH1 0x0 DUP1 REVERT JUMPDEST POP PUSH2 0x4D5 PUSH2 0x1C30 JUMP JUMPDEST PUSH1 0x40 MLOAD PUSH2 0x4E2 SWAP2 SWAP1 PUSH2 0x48FB JUMP JUMPDEST PUSH1 0x40 MLOAD DUP1 SWAP2 SUB SWAP1 RETURN JUMPDEST CALLVALUE DUP1 ISZERO PUSH2 0x4F7 JUMPI PUSH1 0x0 DUP1 REVERT JUMPDEST POP PUSH2 0x512 PUSH1 0x4 DUP1 CALLDATASIZE SUB DUP2 ADD SWAP1 PUSH2 0x50D SWAP2 SWAP1 PUSH2 0x5268 JUMP JUMPDEST PUSH2 0x1C36 JUMP JUMPDEST PUSH1 0x40 MLOAD PUSH2 0x51F SWAP2 SWAP1 PUSH2 0x48FB JUMP JUMPDEST PUSH1 0x40 MLOAD DUP1 SWAP2 SUB SWAP1 RETURN JUMPDEST CALLVALUE DUP1 ISZERO PUSH2 0x534 JUMPI PUSH1 0x0 DUP1 REVERT JUMPDEST POP PUSH2 0x54F PUSH1 0x4 DUP1 CALLDATASIZE SUB DUP2 ADD SWAP1 PUSH2 0x54A SWAP2 SWAP1 PUSH2 0x546C JUMP JUMPDEST PUSH2 0x1C64 JUMP JUMPDEST PUSH1 0x40 MLOAD PUSH2 0x55C SWAP2 SWAP1 PUSH2 0x48FB JUMP JUMPDEST PUSH1 0x40 MLOAD DUP1 SWAP2 SUB SWAP1 RETURN JUMPDEST CALLVALUE DUP1 ISZERO PUSH2 0x571 JUMPI PUSH1 0x0 DUP1 REVERT JUMPDEST POP PUSH2 0x58C PUSH1 0x4 DUP1 CALLDATASIZE SUB DUP2 ADD SWAP1 PUSH2 0x587 SWAP2 SWAP1 PUSH2 0x54AC JUMP JUMPDEST PUSH2 0x1CEB JUMP JUMPDEST STOP JUMPDEST CALLVALUE DUP1 ISZERO PUSH2 0x59A JUMPI PUSH1 0x0 DUP1 REVERT JUMPDEST POP PUSH2 0x5B5 PUSH1 0x4 DUP1 CALLDATASIZE SUB DUP2 ADD SWAP1 PUSH2 0x5B0 SWAP2 SWAP1 PUSH2 0x5524 JUMP JUMPDEST PUSH2 0x39F6 JUMP JUMPDEST STOP JUMPDEST CALLVALUE DUP1 ISZERO PUSH2 0x5C3 JUMPI PUSH1 0x0 DUP1 REVERT JUMPDEST POP PUSH2 0x5CC PUSH2 0x3E00 JUMP JUMPDEST PUSH1 0x40 MLOAD PUSH2 0x5D9 SWAP2 SWAP1 PUSH2 0x48FB JUMP JUMPDEST PUSH1 0x40 MLOAD DUP1 SWAP2 SUB SWAP1 RETURN JUMPDEST PUSH2 0x5EA PUSH2 0x3E19 JUMP JUMPDEST STOP JUMPDEST PUSH1 0x5 SLOAD DUP2 JUMP JUMPDEST PUSH1 0xC DUP2 DUP2 SLOAD DUP2 LT PUSH2 0x602 JUMPI PUSH1 0x0 DUP1 REVERT JUMPDEST SWAP1 PUSH1 0x0 MSTORE PUSH1 0x20 PUSH1 0x0 KECCAK256 SWAP1 PUSH1 0xC MUL ADD PUSH1 0x0 SWAP2 POP SWAP1 POP DUP1 PUSH1 0x0 ADD SLOAD SWAP1 DUP1 PUSH1 0x1 ADD SLOAD SWAP1 DUP1 PUSH1 0x2 ADD SLOAD SWAP1 DUP1 PUSH1 0x3 ADD SLOAD SWAP1 POP DUP5 JUMP JUMPDEST PUSH1 0x60 PUSH1 0x3 DUP1 SLOAD PUSH2 0x641 SWAP1 PUSH2 0x55CE JUMP JUMPDEST DUP1 PUSH1 0x1F ADD PUSH1 0x20 DUP1 SWAP2 DIV MUL PUSH1 0x20 ADD PUSH1 0x40 MLOAD SWAP1 DUP2 ADD PUSH1 0x40 MSTORE DUP1 SWAP3 SWAP2 SWAP1 DUP2 DUP2 MSTORE PUSH1 0x20 ADD DUP3 DUP1 SLOAD PUSH2 0x66D SWAP1 PUSH2 0x55CE JUMP JUMPDEST DUP1 ISZERO PUSH2 0x6BA JUMPI DUP1 PUSH1 0x1F LT PUSH2 0x68F JUMPI PUSH2 0x100 DUP1 DUP4 SLOAD DIV MUL DUP4 MSTORE SWAP2 PUSH1 0x20 ADD SWAP2 PUSH2 0x6BA JUMP JUMPDEST DUP3 ADD SWAP2 SWAP1 PUSH1 0x0 MSTORE PUSH1 0x20 PUSH1 0x0 KECCAK256 SWAP1 JUMPDEST DUP2 SLOAD DUP2 MSTORE SWAP1 PUSH1 0x1 ADD SWAP1 PUSH1 0x20 ADD DUP1 DUP4 GT PUSH2 0x69D JUMPI DUP3 SWAP1 SUB PUSH1 0x1F AND DUP3 ADD SWAP2 JUMPDEST POP POP POP POP POP SWAP1 POP SWAP1 JUMP JUMPDEST PUSH1 0x0 DUP1 PUSH2 0x6CF PUSH2 0x3EF3 JUMP JUMPDEST SWAP1 POP PUSH2 0x6DC DUP2 DUP6 DUP6 PUSH2 0x3EFB JUMP JUMPDEST PUSH1 0x1 SWAP2 POP POP SWAP3 SWAP2 POP POP JUMP JUMPDEST PUSH1 0x0 PUSH1 0x2 SLOAD SWAP1 POP SWAP1 JUMP JUMPDEST PUSH1 0x0 PUSH2 0x6FC CALLER PUSH2 0x156D JUMP JUMPDEST SWAP1 POP PUSH1 0x0 DUP2 GT PUSH2 0x70B JUMPI PUSH1 0x0 DUP1 REVERT JUMPDEST PUSH1 0x0 PUSH1 0x5 SLOAD PUSH2 0x718 PUSH2 0x6E7 JUMP JUMPDEST DUP4 PUSH2 0x723 SWAP2 SWAP1 PUSH2 0x565D JUMP JUMPDEST PUSH2 0x72D SWAP2 SWAP1 PUSH2 0x568E JUMP JUMPDEST SWAP1 POP PUSH2 0x739 CALLER DUP4 PUSH2 0x40C4 JUMP JUMPDEST CALLER PUSH20 0xFFFFFFFFFFFFFFFFFFFFFFFFFFFFFFFFFFFFFFFF AND PUSH2 0x8FC DUP3 SWAP1 DUP2 ISZERO MUL SWAP1 PUSH1 0x40 MLOAD PUSH1 0x0 PUSH1 0x40 MLOAD DUP1 DUP4 SUB DUP2 DUP6 DUP9 DUP9 CALL SWAP4 POP POP POP POP ISZERO DUP1 ISZERO PUSH2 0x77F JUMPI RETURNDATASIZE PUSH1 0x0 DUP1 RETURNDATACOPY RETURNDATASIZE PUSH1 0x0 REVERT JUMPDEST POP DUP1 PUSH1 0x5 PUSH1 0x0 DUP3 DUP3 SLOAD PUSH2 0x792 SWAP2 SWAP1 PUSH2 0x56D0 JUMP JUMPDEST SWAP3 POP POP DUP2 SWAP1 SSTORE POP POP POP JUMP JUMPDEST PUSH1 0x0 DUP1 PUSH2 0x7A8 PUSH2 0x3EF3 JUMP JUMPDEST SWAP1 POP PUSH2 0x7B5 DUP6 DUP3 DUP6 PUSH2 0x4291 JUMP JUMPDEST PUSH2 0x7C0 DUP6 DUP6 DUP6 PUSH2 0x431D JUMP JUMPDEST PUSH1 0x1 SWAP2 POP POP SWAP4 SWAP3 POP POP POP JUMP JUMPDEST PUSH1 0x0 PUSH1 0x12 SWAP1 POP SWAP1 JUMP JUMPDEST PUSH1 0x6 SLOAD DUP2 JUMP JUMPDEST PUSH1 0x0 DUP1 PUSH2 0x7E6 PUSH2 0x3EF3 JUMP JUMPDEST SWAP1 POP PUSH2 0x807 DUP2 DUP6 DUP6 PUSH2 0x7F8 DUP6 DUP10 PUSH2 0x1C64 JUMP JUMPDEST PUSH2 0x802 SWAP2 SWAP1 PUSH2 0x5704 JUMP JUMPDEST PUSH2 0x3EFB JUMP JUMPDEST PUSH1 0x1 SWAP2 POP POP SWAP3 SWAP2 POP POP JUMP JUMPDEST PUSH1 0x0 PUSH2 0x81D CALLER PUSH2 0x156D JUMP JUMPDEST GT PUSH2 0x85D JUMPI PUSH1 0x40 MLOAD PUSH32 0x8C379A000000000000000000000000000000000000000000000000000000000 DUP2 MSTORE PUSH1 0x4 ADD PUSH2 0x854 SWAP1 PUSH2 0x57AA JUMP JUMPDEST PUSH1 0x40 MLOAD DUP1 SWAP2 SUB SWAP1 REVERT JUMPDEST DUP4 MLOAD DUP6 MLOAD EQ DUP1 ISZERO PUSH2 0x86F JUMPI POP DUP3 MLOAD DUP5 MLOAD EQ JUMPDEST PUSH2 0x8AE JUMPI PUSH1 0x40 MLOAD PUSH32 0x8C379A000000000000000000000000000000000000000000000000000000000 DUP2 MSTORE PUSH1 0x4 ADD PUSH2 0x8A5 SWAP1 PUSH2 0x5816 JUMP JUMPDEST PUSH1 0x40 MLOAD DUP1 SWAP2 SUB SWAP1 REVERT JUMPDEST PUSH1 0x0 PUSH2 0x8B9 CALLER PUSH2 0x156D JUMP JUMPDEST SWAP1 POP PUSH1 0x0 JUMPDEST DUP7 MLOAD DUP2 LT ISZERO PUSH2 0xC39 JUMPI PUSH1 0xC PUSH1 0x1 PUSH1 0xC DUP1 SLOAD SWAP1 POP PUSH2 0x8DB SWAP2 SWAP1 PUSH2 0x56D0 JUMP JUMPDEST DUP2 SLOAD DUP2 LT PUSH2 0x8EC JUMPI PUSH2 0x8EB PUSH2 0x5836 JUMP JUMPDEST JUMPDEST SWAP1 PUSH1 0x0 MSTORE PUSH1 0x20 PUSH1 0x0 KECCAK256 SWAP1 PUSH1 0xC MUL ADD PUSH1 0x8 ADD DUP8 DUP3 DUP2 MLOAD DUP2 LT PUSH2 0x910 JUMPI PUSH2 0x90F PUSH2 0x5836 JUMP JUMPDEST JUMPDEST PUSH1 0x20 MUL PUSH1 0x20 ADD ADD MLOAD PUSH1 0x40 MLOAD PUSH2 0x925 SWAP2 SWAP1 PUSH2 0x58A1 JUMP JUMPDEST SWAP1 DUP2 MSTORE PUSH1 0x20 ADD PUSH1 0x40 MLOAD DUP1 SWAP2 SUB SWAP1 KECCAK256 DUP7 DUP3 DUP2 MLOAD DUP2 LT PUSH2 0x946 JUMPI PUSH2 0x945 PUSH2 0x5836 JUMP JUMPDEST JUMPDEST PUSH1 0x20 MUL PUSH1 0x20 ADD ADD MLOAD SWAP1 DUP1 PUSH1 0x1 DUP2 SLOAD ADD DUP1 DUP3 SSTORE DUP1 SWAP2 POP POP PUSH1 0x1 SWAP1 SUB SWAP1 PUSH1 0x0 MSTORE PUSH1 0x20 PUSH1 0x0 KECCAK256 ADD PUSH1 0x0 SWAP1 SWAP2 SWAP1 SWAP2 SWAP1 SWAP2 POP SSTORE PUSH1 0xC PUSH1 0x1 PUSH1 0xC DUP1 SLOAD SWAP1 POP PUSH2 0x988 SWAP2 SWAP1 PUSH2 0x56D0 JUMP JUMPDEST DUP2 SLOAD DUP2 LT PUSH2 0x999 JUMPI PUSH2 0x998 PUSH2 0x5836 JUMP JUMPDEST JUMPDEST SWAP1 PUSH1 0x0 MSTORE PUSH1 0x20 PUSH1 0x0 KECCAK256 SWAP1 PUSH1 0xC MUL ADD PUSH1 0x7 ADD DUP8 DUP3 DUP2 MLOAD DUP2 LT PUSH2 0x9BD JUMPI PUSH2 0x9BC PUSH2 0x5836 JUMP JUMPDEST JUMPDEST PUSH1 0x20 MUL PUSH1 0x20 ADD ADD MLOAD PUSH1 0x40 MLOAD PUSH2 0x9D2 SWAP2 SWAP1 PUSH2 0x58A1 JUMP JUMPDEST SWAP1 DUP2 MSTORE PUSH1 0x20 ADD PUSH1 0x40 MLOAD DUP1 SWAP2 SUB SWAP1 KECCAK256 DUP3 SWAP1 DUP1 PUSH1 0x1 DUP2 SLOAD ADD DUP1 DUP3 SSTORE DUP1 SWAP2 POP POP PUSH1 0x1 SWAP1 SUB SWAP1 PUSH1 0x0 MSTORE PUSH1 0x20 PUSH1 0x0 KECCAK256 ADD PUSH1 0x0 SWAP1 SWAP2 SWAP1 SWAP2 SWAP1 SWAP2 POP SSTORE PUSH1 0xC PUSH1 0x1 PUSH1 0xC DUP1 SLOAD SWAP1 POP PUSH2 0xA1B SWAP2 SWAP1 PUSH2 0x56D0 JUMP JUMPDEST DUP2 SLOAD DUP2 LT PUSH2 0xA2C JUMPI PUSH2 0xA2B PUSH2 0x5836 JUMP JUMPDEST JUMPDEST SWAP1 PUSH1 0x0 MSTORE PUSH1 0x20 PUSH1 0x0 KECCAK256 SWAP1 PUSH1 0xC MUL ADD PUSH1 0x9 ADD DUP8 DUP3 DUP2 MLOAD DUP2 LT PUSH2 0xA50 JUMPI PUSH2 0xA4F PUSH2 0x5836 JUMP JUMPDEST JUMPDEST PUSH1 0x20 MUL PUSH1 0x20 ADD ADD MLOAD PUSH1 0x40 MLOAD PUSH2 0xA65 SWAP2 SWAP1 PUSH2 0x58A1 JUMP JUMPDEST SWAP1 DUP2 MSTORE PUSH1 0x20 ADD PUSH1 0x40 MLOAD DUP1 SWAP2 SUB SWAP1 KECCAK256 DUP6 DUP3 DUP2 MLOAD DUP2 LT PUSH2 0xA86 JUMPI PUSH2 0xA85 PUSH2 0x5836 JUMP JUMPDEST JUMPDEST PUSH1 0x20 MUL PUSH1 0x20 ADD ADD MLOAD SWAP1 DUP1 PUSH1 0x1 DUP2 SLOAD ADD DUP1 DUP3 SSTORE DUP1 SWAP2 POP POP PUSH1 0x1 SWAP1 SUB SWAP1 PUSH1 0x0 MSTORE PUSH1 0x20 PUSH1 0x0 KECCAK256 ADD PUSH1 0x0 SWAP1 SWAP2 SWAP1 SWAP2 SWAP1 SWAP2 POP SSTORE PUSH1 0xC PUSH1 0x1 PUSH1 0xC DUP1 SLOAD SWAP1 POP PUSH2 0xAC8 SWAP2 SWAP1 PUSH2 0x56D0 JUMP JUMPDEST DUP2 SLOAD DUP2 LT PUSH2 0xAD9 JUMPI PUSH2 0xAD8 PUSH2 0x5836 JUMP JUMPDEST JUMPDEST SWAP1 PUSH1 0x0 MSTORE PUSH1 0x20 PUSH1 0x0 KECCAK256 SWAP1 PUSH1 0xC MUL ADD PUSH1 0xA ADD DUP8 DUP3 DUP2 MLOAD DUP2 LT PUSH2 0xAFD JUMPI PUSH2 0xAFC PUSH2 0x5836 JUMP JUMPDEST JUMPDEST PUSH1 0x20 MUL PUSH1 0x20 ADD ADD MLOAD PUSH1 0x40 MLOAD PUSH2 0xB12 SWAP2 SWAP1 PUSH2 0x58A1 JUMP JUMPDEST SWAP1 DUP2 MSTORE PUSH1 0x20 ADD PUSH1 0x40 MLOAD DUP1 SWAP2 SUB SWAP1 KECCAK256 DUP5 DUP3 DUP2 MLOAD DUP2 LT PUSH2 0xB33 JUMPI PUSH2 0xB32 PUSH2 0x5836 JUMP JUMPDEST JUMPDEST PUSH1 0x20 MUL PUSH1 0x20 ADD ADD MLOAD SWAP1 DUP1 PUSH1 0x1 DUP2 SLOAD ADD DUP1 DUP3 SSTORE DUP1 SWAP2 POP POP PUSH1 0x1 SWAP1 SUB SWAP1 PUSH1 0x0 MSTORE PUSH1 0x20 PUSH1 0x0 KECCAK256 ADD PUSH1 0x0 SWAP1 SWAP2 SWAP1 SWAP2 SWAP1 SWAP2 POP SWAP1 DUP2 PUSH2 0xB6C SWAP2 SWAP1 PUSH2 0x5A64 JUMP JUMPDEST POP PUSH1 0xC PUSH1 0x1 PUSH1 0xC DUP1 SLOAD SWAP1 POP PUSH2 0xB81 SWAP2 SWAP1 PUSH2 0x56D0 JUMP JUMPDEST DUP2 SLOAD DUP2 LT PUSH2 0xB92 JUMPI PUSH2 0xB91 PUSH2 0x5836 JUMP JUMPDEST JUMPDEST SWAP1 PUSH1 0x0 MSTORE PUSH1 0x20 PUSH1 0x0 KECCAK256 SWAP1 PUSH1 0xC MUL ADD PUSH1 0xB ADD DUP8 DUP3 DUP2 MLOAD DUP2 LT PUSH2 0xBB6 JUMPI PUSH2 0xBB5 PUSH2 0x5836 JUMP JUMPDEST JUMPDEST PUSH1 0x20 MUL PUSH1 0x20 ADD ADD MLOAD PUSH1 0x40 MLOAD PUSH2 0xBCB SWAP2 SWAP1 PUSH2 0x58A1 JUMP JUMPDEST SWAP1 DUP2 MSTORE PUSH1 0x20 ADD PUSH1 0x40 MLOAD DUP1 SWAP2 SUB SWAP1 KECCAK256 DUP4 DUP3 DUP2 MLOAD DUP2 LT PUSH2 0xBEC JUMPI PUSH2 0xBEB PUSH2 0x5836 JUMP JUMPDEST JUMPDEST PUSH1 0x20 MUL PUSH1 0x20 ADD ADD MLOAD SWAP1 DUP1 PUSH1 0x1 DUP2 SLOAD ADD DUP1 DUP3 SSTORE DUP1 SWAP2 POP POP PUSH1 0x1 SWAP1 SUB SWAP1 PUSH1 0x0 MSTORE PUSH1 0x20 PUSH1 0x0 KECCAK256 ADD PUSH1 0x0 SWAP1 SWAP2 SWAP1 SWAP2 SWAP1 SWAP2 POP SWAP1 DUP2 PUSH2 0xC25 SWAP2 SWAP1 PUSH2 0x5A64 JUMP JUMPDEST POP DUP1 DUP1 PUSH2 0xC31 SWAP1 PUSH2 0x5B36 JUMP JUMPDEST SWAP2 POP POP PUSH2 0x8BE JUMP JUMPDEST POP POP POP POP POP POP POP JUMP JUMPDEST PUSH2 0xC4A PUSH2 0x486B JUMP JUMPDEST PUSH2 0xC52 PUSH2 0x4893 JUMP JUMPDEST PUSH2 0xC5A PUSH2 0x4893 JUMP JUMPDEST PUSH2 0xC62 PUSH2 0x48B6 JUMP JUMPDEST PUSH1 0x0 PUSH1 0x40 MLOAD DUP1 PUSH2 0x140 ADD PUSH1 0x40 MSTORE DUP1 PUSH1 0x40 MLOAD DUP1 PUSH1 0x40 ADD PUSH1 0x40 MSTORE DUP1 PUSH1 0x4 DUP2 MSTORE PUSH1 0x20 ADD PUSH32 0x5745544800000000000000000000000000000000000000000000000000000000 DUP2 MSTORE POP DUP2 MSTORE PUSH1 0x20 ADD PUSH1 0x40 MLOAD DUP1 PUSH1 0x40 ADD PUSH1 0x40 MSTORE DUP1 PUSH1 0x3 DUP2 MSTORE PUSH1 0x20 ADD PUSH32 0x4241540000000000000000000000000000000000000000000000000000000000 DUP2 MSTORE POP DUP2 MSTORE PUSH1 0x20 ADD PUSH1 0x40 MLOAD DUP1 PUSH1 0x40 ADD PUSH1 0x40 MSTORE DUP1 PUSH1 0x4 DUP2 MSTORE PUSH1 0x20 ADD PUSH32 0x5742544300000000000000000000000000000000000000000000000000000000 DUP2 MSTORE POP DUP2 MSTORE PUSH1 0x20 ADD PUSH1 0x40 MLOAD DUP1 PUSH1 0x40 ADD PUSH1 0x40 MSTORE DUP1 PUSH1 0x3 DUP2 MSTORE PUSH1 0x20 ADD PUSH32 0x554E490000000000000000000000000000000000000000000000000000000000 DUP2 MSTORE POP DUP2 MSTORE PUSH1 0x20 ADD PUSH1 0x40 MLOAD DUP1 PUSH1 0x40 ADD PUSH1 0x40 MSTORE DUP1 PUSH1 0x4 DUP2 MSTORE PUSH1 0x20 ADD PUSH32 0x5553445400000000000000000000000000000000000000000000000000000000 DUP2 MSTORE POP DUP2 MSTORE PUSH1 0x20 ADD PUSH1 0x40 MLOAD DUP1 PUSH1 0x40 ADD PUSH1 0x40 MSTORE DUP1 PUSH1 0x5 DUP2 MSTORE PUSH1 0x20 ADD PUSH32 0x7357455448000000000000000000000000000000000000000000000000000000 DUP2 MSTORE POP DUP2 MSTORE PUSH1 0x20 ADD PUSH1 0x40 MLOAD DUP1 PUSH1 0x40 ADD PUSH1 0x40 MSTORE DUP1 PUSH1 0x4 DUP2 MSTORE PUSH1 0x20 ADD PUSH32 0x7342415400000000000000000000000000000000000000000000000000000000 DUP2 MSTORE POP DUP2 MSTORE PUSH1 0x20 ADD PUSH1 0x40 MLOAD DUP1 PUSH1 0x40 ADD PUSH1 0x40 MSTORE DUP1 PUSH1 0x5 DUP2 MSTORE PUSH1 0x20 ADD PUSH32 0x7357425443000000000000000000000000000000000000000000000000000000 DUP2 MSTORE POP DUP2 MSTORE PUSH1 0x20 ADD PUSH1 0x40 MLOAD DUP1 PUSH1 0x40 ADD PUSH1 0x40 MSTORE DUP1 PUSH1 0x4 DUP2 MSTORE PUSH1 0x20 ADD PUSH32 0x73554E4900000000000000000000000000000000000000000000000000000000 DUP2 MSTORE POP DUP2 MSTORE PUSH1 0x20 ADD PUSH1 0x40 MLOAD DUP1 PUSH1 0x40 ADD PUSH1 0x40 MSTORE DUP1 PUSH1 0x5 DUP2 MSTORE PUSH1 0x20 ADD PUSH32 0x7355534454000000000000000000000000000000000000000000000000000000 DUP2 MSTORE POP DUP2 MSTORE POP SWAP1 POP PUSH2 0xEC6 PUSH2 0x4893 JUMP JUMPDEST PUSH2 0xECE PUSH2 0x4893 JUMP JUMPDEST PUSH2 0xED6 PUSH2 0x48B6 JUMP JUMPDEST PUSH1 0xC DUP10 DUP2 SLOAD DUP2 LT PUSH2 0xEEA JUMPI PUSH2 0xEE9 PUSH2 0x5836 JUMP JUMPDEST JUMPDEST SWAP1 PUSH1 0x0 MSTORE PUSH1 0x20 PUSH1 0x0 KECCAK256 SWAP1 PUSH1 0xC MUL ADD PUSH1 0x0 ADD SLOAD DUP2 PUSH1 0x0 PUSH1 0x2 DUP2 LT PUSH2 0xF10 JUMPI PUSH2 0xF0F PUSH2 0x5836 JUMP JUMPDEST JUMPDEST PUSH1 0x20 MUL ADD DUP2 DUP2 MSTORE POP POP PUSH1 0xC DUP10 DUP2 SLOAD DUP2 LT PUSH2 0xF2D JUMPI PUSH2 0xF2C PUSH2 0x5836 JUMP JUMPDEST JUMPDEST SWAP1 PUSH1 0x0 MSTORE PUSH1 0x20 PUSH1 0x0 KECCAK256 SWAP1 PUSH1 0xC MUL ADD PUSH1 0x1 ADD SLOAD DUP2 PUSH1 0x1 PUSH1 0x2 DUP2 LT PUSH2 0xF53 JUMPI PUSH2 0xF52 PUSH2 0x5836 JUMP JUMPDEST JUMPDEST PUSH1 0x20 MUL ADD DUP2 DUP2 MSTORE POP POP PUSH1 0xC DUP10 DUP2 SLOAD DUP2 LT PUSH2 0xF70 JUMPI PUSH2 0xF6F PUSH2 0x5836 JUMP JUMPDEST JUMPDEST SWAP1 PUSH1 0x0 MSTORE PUSH1 0x20 PUSH1 0x0 KECCAK256 SWAP1 PUSH1 0xC MUL ADD PUSH1 0x6 ADD PUSH1 0x0 DUP2 SLOAD DUP2 LT PUSH2 0xF94 JUMPI PUSH2 0xF93 PUSH2 0x5836 JUMP JUMPDEST JUMPDEST SWAP1 PUSH1 0x0 MSTORE PUSH1 0x20 PUSH1 0x0 KECCAK256 ADD SLOAD DUP3 PUSH1 0x0 PUSH1 0xA DUP2 LT PUSH2 0xFB3 JUMPI PUSH2 0xFB2 PUSH2 0x5836 JUMP JUMPDEST JUMPDEST PUSH1 0x20 MUL ADD DUP2 DUP2 MSTORE POP POP PUSH1 0xC DUP10 DUP2 SLOAD DUP2 LT PUSH2 0xFD0 JUMPI PUSH2 0xFCF PUSH2 0x5836 JUMP JUMPDEST JUMPDEST SWAP1 PUSH1 0x0 MSTORE PUSH1 0x20 PUSH1 0x0 KECCAK256 SWAP1 PUSH1 0xC MUL ADD PUSH1 0x5 ADD PUSH1 0x0 DUP2 SLOAD DUP2 LT PUSH2 0xFF4 JUMPI PUSH2 0xFF3 PUSH2 0x5836 JUMP JUMPDEST JUMPDEST SWAP1 PUSH1 0x0 MSTORE PUSH1 0x20 PUSH1 0x0 KECCAK256 ADD SLOAD DUP4 PUSH1 0x0 PUSH1 0xA DUP2 LT PUSH2 0x1013 JUMPI PUSH2 0x1012 PUSH2 0x5836 JUMP JUMPDEST JUMPDEST PUSH1 0x20 MUL ADD DUP2 DUP2 MSTORE POP POP PUSH2 0x104D PUSH1 0xC DUP11 DUP2 SLOAD DUP2 LT PUSH2 0x1033 JUMPI PUSH2 0x1032 PUSH2 0x5836 JUMP JUMPDEST JUMPDEST SWAP1 PUSH1 0x0 MSTORE PUSH1 0x20 PUSH1 0x0 KECCAK256 SWAP1 PUSH1 0xC MUL ADD PUSH1 0x4 ADD DUP1 SLOAD SWAP1 POP PUSH2 0x4593 JUMP JUMPDEST PUSH1 0x0 PUSH1 0x1 SWAP1 POP JUMPDEST PUSH1 0xA DUP2 LT ISZERO PUSH2 0x1534 JUMPI PUSH1 0xC DUP11 DUP2 SLOAD DUP2 LT PUSH2 0x1071 JUMPI PUSH2 0x1070 PUSH2 0x5836 JUMP JUMPDEST JUMPDEST SWAP1 PUSH1 0x0 MSTORE PUSH1 0x20 PUSH1 0x0 KECCAK256 SWAP1 PUSH1 0xC MUL ADD PUSH1 0x6 ADD DUP2 DUP2 SLOAD DUP2 LT PUSH2 0x1094 JUMPI PUSH2 0x1093 PUSH2 0x5836 JUMP JUMPDEST JUMPDEST SWAP1 PUSH1 0x0 MSTORE PUSH1 0x20 PUSH1 0x0 KECCAK256 ADD SLOAD DUP4 DUP3 PUSH1 0xA DUP2 LT PUSH2 0x10B2 JUMPI PUSH2 0x10B1 PUSH2 0x5836 JUMP JUMPDEST JUMPDEST PUSH1 0x20 MUL ADD DUP2 DUP2 MSTORE POP POP PUSH1 0x0 PUSH20 0xFFFFFFFFFFFFFFFFFFFFFFFFFFFFFFFFFFFFFFFF AND PUSH1 0x9 DUP7 DUP4 PUSH1 0xA DUP2 LT PUSH2 0x10E8 JUMPI PUSH2 0x10E7 PUSH2 0x5836 JUMP JUMPDEST JUMPDEST PUSH1 0x20 MUL ADD MLOAD PUSH1 0x40 MLOAD PUSH2 0x10FA SWAP2 SWAP1 PUSH2 0x58A1 JUMP JUMPDEST SWAP1 DUP2 MSTORE PUSH1 0x20 ADD PUSH1 0x40 MLOAD DUP1 SWAP2 SUB SWAP1 KECCAK256 PUSH1 0x0 SWAP1 SLOAD SWAP1 PUSH2 0x100 EXP SWAP1 DIV PUSH20 0xFFFFFFFFFFFFFFFFFFFFFFFFFFFFFFFFFFFFFFFF AND PUSH20 0xFFFFFFFFFFFFFFFFFFFFFFFFFFFFFFFFFFFFFFFF AND EQ ISZERO DUP1 ISZERO PUSH2 0x11E2 JUMPI POP PUSH20 0xC778417E063141139FCE010982780140AA0CD5AB PUSH20 0xFFFFFFFFFFFFFFFFFFFFFFFFFFFFFFFFFFFFFFFF AND PUSH1 0x9 DUP7 DUP4 PUSH1 0xA DUP2 LT PUSH2 0x1188 JUMPI PUSH2 0x1187 PUSH2 0x5836 JUMP JUMPDEST JUMPDEST PUSH1 0x20 MUL ADD MLOAD PUSH1 0x40 MLOAD PUSH2 0x119A SWAP2 SWAP1 PUSH2 0x58A1 JUMP JUMPDEST SWAP1 DUP2 MSTORE PUSH1 0x20 ADD PUSH1 0x40 MLOAD DUP1 SWAP2 SUB SWAP1 KECCAK256 PUSH1 0x0 SWAP1 SLOAD SWAP1 PUSH2 0x100 EXP SWAP1 DIV PUSH20 0xFFFFFFFFFFFFFFFFFFFFFFFFFFFFFFFFFFFFFFFF AND PUSH20 0xFFFFFFFFFFFFFFFFFFFFFFFFFFFFFFFFFFFFFFFF AND EQ ISZERO JUMPDEST DUP1 ISZERO PUSH2 0x1230 JUMPI POP PUSH1 0x0 PUSH1 0xC DUP12 DUP2 SLOAD DUP2 LT PUSH2 0x11FF JUMPI PUSH2 0x11FE PUSH2 0x5836 JUMP JUMPDEST JUMPDEST SWAP1 PUSH1 0x0 MSTORE PUSH1 0x20 PUSH1 0x0 KECCAK256 SWAP1 PUSH1 0xC MUL ADD PUSH1 0x6 ADD DUP3 DUP2 SLOAD DUP2 LT PUSH2 0x1222 JUMPI PUSH2 0x1221 PUSH2 0x5836 JUMP JUMPDEST JUMPDEST SWAP1 PUSH1 0x0 MSTORE PUSH1 0x20 PUSH1 0x0 KECCAK256 ADD SLOAD EQ ISZERO JUMPDEST ISZERO PUSH2 0x1340 JUMPI PUSH2 0x1255 DUP6 DUP3 PUSH1 0xA DUP2 LT PUSH2 0x124B JUMPI PUSH2 0x124A PUSH2 0x5836 JUMP JUMPDEST JUMPDEST PUSH1 0x20 MUL ADD MLOAD PUSH2 0x462C JUMP JUMPDEST PUSH2 0x129F PUSH1 0xC DUP12 DUP2 SLOAD DUP2 LT PUSH2 0x126C JUMPI PUSH2 0x126B PUSH2 0x5836 JUMP JUMPDEST JUMPDEST SWAP1 PUSH1 0x0 MSTORE PUSH1 0x20 PUSH1 0x0 KECCAK256 SWAP1 PUSH1 0xC MUL ADD PUSH1 0x5 ADD DUP3 DUP2 SLOAD DUP2 LT PUSH2 0x128F JUMPI PUSH2 0x128E PUSH2 0x5836 JUMP JUMPDEST JUMPDEST SWAP1 PUSH1 0x0 MSTORE PUSH1 0x20 PUSH1 0x0 KECCAK256 ADD SLOAD PUSH2 0x4593 JUMP JUMPDEST PUSH1 0xC DUP11 DUP2 SLOAD DUP2 LT PUSH2 0x12B3 JUMPI PUSH2 0x12B2 PUSH2 0x5836 JUMP JUMPDEST JUMPDEST SWAP1 PUSH1 0x0 MSTORE PUSH1 0x20 PUSH1 0x0 KECCAK256 SWAP1 PUSH1 0xC MUL ADD PUSH1 0x5 ADD DUP2 DUP2 SLOAD DUP2 LT PUSH2 0x12D6 JUMPI PUSH2 0x12D5 PUSH2 0x5836 JUMP JUMPDEST JUMPDEST SWAP1 PUSH1 0x0 MSTORE PUSH1 0x20 PUSH1 0x0 KECCAK256 ADD SLOAD DUP5 DUP3 PUSH1 0xA DUP2 LT PUSH2 0x12F4 JUMPI PUSH2 0x12F3 PUSH2 0x5836 JUMP JUMPDEST JUMPDEST PUSH1 0x20 MUL ADD DUP2 DUP2 MSTORE POP POP PUSH2 0x133B PUSH1 0x40 MLOAD DUP1 PUSH1 0x40 ADD PUSH1 0x40 MSTORE DUP1 PUSH1 0xB DUP2 MSTORE PUSH1 0x20 ADD PUSH32 0x6C6F6E6720746F6B656E73000000000000000000000000000000000000000000 DUP2 MSTORE POP PUSH2 0x462C JUMP JUMPDEST PUSH2 0x1521 JUMP JUMPDEST PUSH1 0x0 PUSH20 0xFFFFFFFFFFFFFFFFFFFFFFFFFFFFFFFFFFFFFFFF AND PUSH1 0xA DUP7 DUP4 PUSH1 0xA DUP2 LT PUSH2 0x136D JUMPI PUSH2 0x136C PUSH2 0x5836 JUMP JUMPDEST JUMPDEST PUSH1 0x20 MUL ADD MLOAD PUSH1 0x40 MLOAD PUSH2 0x137F SWAP2 SWAP1 PUSH2 0x58A1 JUMP JUMPDEST SWAP1 DUP2 MSTORE PUSH1 0x20 ADD PUSH1 0x40 MLOAD DUP1 SWAP2 SUB SWAP1 KECCAK256 PUSH1 0x0 SWAP1 SLOAD SWAP1 PUSH2 0x100 EXP SWAP1 DIV PUSH20 0xFFFFFFFFFFFFFFFFFFFFFFFFFFFFFFFFFFFFFFFF AND PUSH20 0xFFFFFFFFFFFFFFFFFFFFFFFFFFFFFFFFFFFFFFFF AND EQ ISZERO DUP1 ISZERO PUSH2 0x1414 JUMPI POP PUSH1 0x0 PUSH1 0xC DUP12 DUP2 SLOAD DUP2 LT PUSH2 0x13E3 JUMPI PUSH2 0x13E2 PUSH2 0x5836 JUMP JUMPDEST JUMPDEST SWAP1 PUSH1 0x0 MSTORE PUSH1 0x20 PUSH1 0x0 KECCAK256 SWAP1 PUSH1 0xC MUL ADD PUSH1 0x6 ADD DUP3 DUP2 SLOAD DUP2 LT PUSH2 0x1406 JUMPI PUSH2 0x1405 PUSH2 0x5836 JUMP JUMPDEST JUMPDEST SWAP1 PUSH1 0x0 MSTORE PUSH1 0x20 PUSH1 0x0 KECCAK256 ADD SLOAD EQ ISZERO JUMPDEST ISZERO PUSH2 0x1520 JUMPI PUSH2 0x1439 DUP6 DUP3 PUSH1 0xA DUP2 LT PUSH2 0x142F JUMPI PUSH2 0x142E PUSH2 0x5836 JUMP JUMPDEST JUMPDEST PUSH1 0x20 MUL ADD MLOAD PUSH2 0x462C JUMP JUMPDEST PUSH2 0x1483 PUSH1 0xC DUP12 DUP2 SLOAD DUP2 LT PUSH2 0x1450 JUMPI PUSH2 0x144F PUSH2 0x5836 JUMP JUMPDEST JUMPDEST SWAP1 PUSH1 0x0 MSTORE PUSH1 0x20 PUSH1 0x0 KECCAK256 SWAP1 PUSH1 0xC MUL ADD PUSH1 0x5 ADD DUP3 DUP2 SLOAD DUP2 LT PUSH2 0x1473 JUMPI PUSH2 0x1472 PUSH2 0x5836 JUMP JUMPDEST JUMPDEST SWAP1 PUSH1 0x0 MSTORE PUSH1 0x20 PUSH1 0x0 KECCAK256 ADD SLOAD PUSH2 0x4593 JUMP JUMPDEST PUSH1 0xC DUP11 DUP2 SLOAD DUP2 LT PUSH2 0x1497 JUMPI PUSH2 0x1496 PUSH2 0x5836 JUMP JUMPDEST JUMPDEST SWAP1 PUSH1 0x0 MSTORE PUSH1 0x20 PUSH1 0x0 KECCAK256 SWAP1 PUSH1 0xC MUL ADD PUSH1 0x5 ADD DUP2 DUP2 SLOAD DUP2 LT PUSH2 0x14BA JUMPI PUSH2 0x14B9 PUSH2 0x5836 JUMP JUMPDEST JUMPDEST SWAP1 PUSH1 0x0 MSTORE PUSH1 0x20 PUSH1 0x0 KECCAK256 ADD SLOAD DUP5 DUP3 PUSH1 0xA DUP2 LT PUSH2 0x14D8 JUMPI PUSH2 0x14D7 PUSH2 0x5836 JUMP JUMPDEST JUMPDEST PUSH1 0x20 MUL ADD DUP2 DUP2 MSTORE POP POP PUSH2 0x151F PUSH1 0x40 MLOAD DUP1 PUSH1 0x40 ADD PUSH1 0x40 MSTORE DUP1 PUSH1 0xC DUP2 MSTORE PUSH1 0x20 ADD PUSH32 0x73686F727420746F6B656E730000000000000000000000000000000000000000 DUP2 MSTORE POP PUSH2 0x462C JUMP JUMPDEST JUMPDEST JUMPDEST DUP1 DUP1 PUSH2 0x152C SWAP1 PUSH2 0x5B36 JUMP JUMPDEST SWAP2 POP POP PUSH2 0x1054 JUMP JUMPDEST POP PUSH2 0x1556 DUP4 PUSH1 0x0 PUSH1 0xA DUP2 LT PUSH2 0x154C JUMPI PUSH2 0x154B PUSH2 0x5836 JUMP JUMPDEST JUMPDEST PUSH1 0x20 MUL ADD MLOAD PUSH2 0x4593 JUMP JUMPDEST DUP4 DUP4 DUP4 DUP4 SWAP8 POP SWAP8 POP SWAP8 POP SWAP8 POP POP POP POP POP SWAP2 SWAP4 POP SWAP2 SWAP4 JUMP JUMPDEST PUSH1 0x0 DUP1 PUSH1 0x0 DUP4 PUSH20 0xFFFFFFFFFFFFFFFFFFFFFFFFFFFFFFFFFFFFFFFF AND PUSH20 0xFFFFFFFFFFFFFFFFFFFFFFFFFFFFFFFFFFFFFFFF AND DUP2 MSTORE PUSH1 0x20 ADD SWAP1 DUP2 MSTORE PUSH1 0x20 ADD PUSH1 0x0 KECCAK256 SLOAD SWAP1 POP SWAP2 SWAP1 POP JUMP JUMPDEST PUSH1 0x60 DUP1 PUSH1 0x60 DUP1 PUSH1 0x60 PUSH1 0x0 PUSH1 0xC PUSH1 0x1 PUSH1 0xC DUP1 SLOAD SWAP1 POP PUSH2 0x15D3 SWAP2 SWAP1 PUSH2 0x56D0 JUMP JUMPDEST DUP2 SLOAD DUP2 LT PUSH2 0x15E4 JUMPI PUSH2 0x15E3 PUSH2 0x5836 JUMP JUMPDEST JUMPDEST SWAP1 PUSH1 0x0 MSTORE PUSH1 0x20 PUSH1 0x0 KECCAK256 SWAP1 PUSH1 0xC MUL ADD SWAP1 POP PUSH1 0x0 DUP2 PUSH1 0x7 ADD DUP9 PUSH1 0x40 MLOAD PUSH2 0x1608 SWAP2 SWAP1 PUSH2 0x58A1 JUMP JUMPDEST SWAP1 DUP2 MSTORE PUSH1 0x20 ADD PUSH1 0x40 MLOAD DUP1 SWAP2 SUB SWAP1 KECCAK256 DUP1 SLOAD SWAP1 POP SWAP1 POP PUSH1 0x0 DUP2 PUSH8 0xFFFFFFFFFFFFFFFF DUP2 GT ISZERO PUSH2 0x1638 JUMPI PUSH2 0x1637 PUSH2 0x4BDD JUMP JUMPDEST JUMPDEST PUSH1 0x40 MLOAD SWAP1 DUP1 DUP3 MSTORE DUP1 PUSH1 0x20 MUL PUSH1 0x20 ADD DUP3 ADD PUSH1 0x40 MSTORE DUP1 ISZERO PUSH2 0x1666 JUMPI DUP2 PUSH1 0x20 ADD PUSH1 0x20 DUP3 MUL DUP1 CALLDATASIZE DUP4 CALLDATACOPY DUP1 DUP3 ADD SWAP2 POP POP SWAP1 POP JUMPDEST POP SWAP1 POP PUSH1 0x0 DUP3 PUSH8 0xFFFFFFFFFFFFFFFF DUP2 GT ISZERO PUSH2 0x1685 JUMPI PUSH2 0x1684 PUSH2 0x4BDD JUMP JUMPDEST JUMPDEST PUSH1 0x40 MLOAD SWAP1 DUP1 DUP3 MSTORE DUP1 PUSH1 0x20 MUL PUSH1 0x20 ADD DUP3 ADD PUSH1 0x40 MSTORE DUP1 ISZERO PUSH2 0x16B3 JUMPI DUP2 PUSH1 0x20 ADD PUSH1 0x20 DUP3 MUL DUP1 CALLDATASIZE DUP4 CALLDATACOPY DUP1 DUP3 ADD SWAP2 POP POP SWAP1 POP JUMPDEST POP SWAP1 POP PUSH1 0x0 DUP4 PUSH8 0xFFFFFFFFFFFFFFFF DUP2 GT ISZERO PUSH2 0x16D2 JUMPI PUSH2 0x16D1 PUSH2 0x4BDD JUMP JUMPDEST JUMPDEST PUSH1 0x40 MLOAD SWAP1 DUP1 DUP3 MSTORE DUP1 PUSH1 0x20 MUL PUSH1 0x20 ADD DUP3 ADD PUSH1 0x40 MSTORE DUP1 ISZERO PUSH2 0x1700 JUMPI DUP2 PUSH1 0x20 ADD PUSH1 0x20 DUP3 MUL DUP1 CALLDATASIZE DUP4 CALLDATACOPY DUP1 DUP3 ADD SWAP2 POP POP SWAP1 POP JUMPDEST POP SWAP1 POP PUSH1 0x0 DUP5 PUSH8 0xFFFFFFFFFFFFFFFF DUP2 GT ISZERO PUSH2 0x171F JUMPI PUSH2 0x171E PUSH2 0x4BDD JUMP JUMPDEST JUMPDEST PUSH1 0x40 MLOAD SWAP1 DUP1 DUP3 MSTORE DUP1 PUSH1 0x20 MUL PUSH1 0x20 ADD DUP3 ADD PUSH1 0x40 MSTORE DUP1 ISZERO PUSH2 0x1752 JUMPI DUP2 PUSH1 0x20 ADD JUMPDEST PUSH1 0x60 DUP2 MSTORE PUSH1 0x20 ADD SWAP1 PUSH1 0x1 SWAP1 SUB SWAP1 DUP2 PUSH2 0x173D JUMPI SWAP1 POP JUMPDEST POP SWAP1 POP PUSH1 0x0 DUP6 PUSH8 0xFFFFFFFFFFFFFFFF DUP2 GT ISZERO PUSH2 0x1771 JUMPI PUSH2 0x1770 PUSH2 0x4BDD JUMP JUMPDEST JUMPDEST PUSH1 0x40 MLOAD SWAP1 DUP1 DUP3 MSTORE DUP1 PUSH1 0x20 MUL PUSH1 0x20 ADD DUP3 ADD PUSH1 0x40 MSTORE DUP1 ISZERO PUSH2 0x17A4 JUMPI DUP2 PUSH1 0x20 ADD JUMPDEST PUSH1 0x60 DUP2 MSTORE PUSH1 0x20 ADD SWAP1 PUSH1 0x1 SWAP1 SUB SWAP1 DUP2 PUSH2 0x178F JUMPI SWAP1 POP JUMPDEST POP SWAP1 POP PUSH1 0x0 JUMPDEST DUP7 DUP2 LT ISZERO PUSH2 0x1AE4 JUMPI PUSH2 0x17F7 DUP9 PUSH1 0x7 ADD DUP16 PUSH1 0x40 MLOAD PUSH2 0x17C7 SWAP2 SWAP1 PUSH2 0x58A1 JUMP JUMPDEST SWAP1 DUP2 MSTORE PUSH1 0x20 ADD PUSH1 0x40 MLOAD DUP1 SWAP2 SUB SWAP1 KECCAK256 DUP3 DUP2 SLOAD DUP2 LT PUSH2 0x17E7 JUMPI PUSH2 0x17E6 PUSH2 0x5836 JUMP JUMPDEST JUMPDEST SWAP1 PUSH1 0x0 MSTORE PUSH1 0x20 PUSH1 0x0 KECCAK256 ADD SLOAD PUSH2 0x4593 JUMP JUMPDEST DUP8 PUSH1 0x7 ADD DUP15 PUSH1 0x40 MLOAD PUSH2 0x1809 SWAP2 SWAP1 PUSH2 0x58A1 JUMP JUMPDEST SWAP1 DUP2 MSTORE PUSH1 0x20 ADD PUSH1 0x40 MLOAD DUP1 SWAP2 SUB SWAP1 KECCAK256 DUP2 DUP2 SLOAD DUP2 LT PUSH2 0x1829 JUMPI PUSH2 0x1828 PUSH2 0x5836 JUMP JUMPDEST JUMPDEST SWAP1 PUSH1 0x0 MSTORE PUSH1 0x20 PUSH1 0x0 KECCAK256 ADD SLOAD DUP7 DUP3 DUP2 MLOAD DUP2 LT PUSH2 0x1847 JUMPI PUSH2 0x1846 PUSH2 0x5836 JUMP JUMPDEST JUMPDEST PUSH1 0x20 MUL PUSH1 0x20 ADD ADD DUP2 DUP2 MSTORE POP POP DUP8 PUSH1 0x8 ADD DUP15 PUSH1 0x40 MLOAD PUSH2 0x1865 SWAP2 SWAP1 PUSH2 0x58A1 JUMP JUMPDEST SWAP1 DUP2 MSTORE PUSH1 0x20 ADD PUSH1 0x40 MLOAD DUP1 SWAP2 SUB SWAP1 KECCAK256 DUP2 DUP2 SLOAD DUP2 LT PUSH2 0x1885 JUMPI PUSH2 0x1884 PUSH2 0x5836 JUMP JUMPDEST JUMPDEST SWAP1 PUSH1 0x0 MSTORE PUSH1 0x20 PUSH1 0x0 KECCAK256 ADD SLOAD DUP6 DUP3 DUP2 MLOAD DUP2 LT PUSH2 0x18A3 JUMPI PUSH2 0x18A2 PUSH2 0x5836 JUMP JUMPDEST JUMPDEST PUSH1 0x20 MUL PUSH1 0x20 ADD ADD DUP2 DUP2 MSTORE POP POP DUP8 PUSH1 0x9 ADD DUP15 PUSH1 0x40 MLOAD PUSH2 0x18C1 SWAP2 SWAP1 PUSH2 0x58A1 JUMP JUMPDEST SWAP1 DUP2 MSTORE PUSH1 0x20 ADD PUSH1 0x40 MLOAD DUP1 SWAP2 SUB SWAP1 KECCAK256 DUP2 DUP2 SLOAD DUP2 LT PUSH2 0x18E1 JUMPI PUSH2 0x18E0 PUSH2 0x5836 JUMP JUMPDEST JUMPDEST SWAP1 PUSH1 0x0 MSTORE PUSH1 0x20 PUSH1 0x0 KECCAK256 ADD SLOAD DUP5 DUP3 DUP2 MLOAD DUP2 LT PUSH2 0x18FF JUMPI PUSH2 0x18FE PUSH2 0x5836 JUMP JUMPDEST JUMPDEST PUSH1 0x20 MUL PUSH1 0x20 ADD ADD DUP2 DUP2 MSTORE POP POP DUP8 PUSH1 0xA ADD DUP15 PUSH1 0x40 MLOAD PUSH2 0x191D SWAP2 SWAP1 PUSH2 0x58A1 JUMP JUMPDEST SWAP1 DUP2 MSTORE PUSH1 0x20 ADD PUSH1 0x40 MLOAD DUP1 SWAP2 SUB SWAP1 KECCAK256 DUP2 DUP2 SLOAD DUP2 LT PUSH2 0x193D JUMPI PUSH2 0x193C PUSH2 0x5836 JUMP JUMPDEST JUMPDEST SWAP1 PUSH1 0x0 MSTORE PUSH1 0x20 PUSH1 0x0 KECCAK256 ADD DUP1 SLOAD PUSH2 0x1952 SWAP1 PUSH2 0x55CE JUMP JUMPDEST DUP1 PUSH1 0x1F ADD PUSH1 0x20 DUP1 SWAP2 DIV MUL PUSH1 0x20 ADD PUSH1 0x40 MLOAD SWAP1 DUP2 ADD PUSH1 0x40 MSTORE DUP1 SWAP3 SWAP2 SWAP1 DUP2 DUP2 MSTORE PUSH1 0x20 ADD DUP3 DUP1 SLOAD PUSH2 0x197E SWAP1 PUSH2 0x55CE JUMP JUMPDEST DUP1 ISZERO PUSH2 0x19CB JUMPI DUP1 PUSH1 0x1F LT PUSH2 0x19A0 JUMPI PUSH2 0x100 DUP1 DUP4 SLOAD DIV MUL DUP4 MSTORE SWAP2 PUSH1 0x20 ADD SWAP2 PUSH2 0x19CB JUMP JUMPDEST DUP3 ADD SWAP2 SWAP1 PUSH1 0x0 MSTORE PUSH1 0x20 PUSH1 0x0 KECCAK256 SWAP1 JUMPDEST DUP2 SLOAD DUP2 MSTORE SWAP1 PUSH1 0x1 ADD SWAP1 PUSH1 0x20 ADD DUP1 DUP4 GT PUSH2 0x19AE JUMPI DUP3 SWAP1 SUB PUSH1 0x1F AND DUP3 ADD SWAP2 JUMPDEST POP POP POP POP POP DUP4 DUP3 DUP2 MLOAD DUP2 LT PUSH2 0x19E3 JUMPI PUSH2 0x19E2 PUSH2 0x5836 JUMP JUMPDEST JUMPDEST PUSH1 0x20 MUL PUSH1 0x20 ADD ADD DUP2 SWAP1 MSTORE POP DUP8 PUSH1 0xB ADD DUP15 PUSH1 0x40 MLOAD PUSH2 0x1A00 SWAP2 SWAP1 PUSH2 0x58A1 JUMP JUMPDEST SWAP1 DUP2 MSTORE PUSH1 0x20 ADD PUSH1 0x40 MLOAD DUP1 SWAP2 SUB SWAP1 KECCAK256 DUP2 DUP2 SLOAD DUP2 LT PUSH2 0x1A20 JUMPI PUSH2 0x1A1F PUSH2 0x5836 JUMP JUMPDEST JUMPDEST SWAP1 PUSH1 0x0 MSTORE PUSH1 0x20 PUSH1 0x0 KECCAK256 ADD DUP1 SLOAD PUSH2 0x1A35 SWAP1 PUSH2 0x55CE JUMP JUMPDEST DUP1 PUSH1 0x1F ADD PUSH1 0x20 DUP1 SWAP2 DIV MUL PUSH1 0x20 ADD PUSH1 0x40 MLOAD SWAP1 DUP2 ADD PUSH1 0x40 MSTORE DUP1 SWAP3 SWAP2 SWAP1 DUP2 DUP2 MSTORE PUSH1 0x20 ADD DUP3 DUP1 SLOAD PUSH2 0x1A61 SWAP1 PUSH2 0x55CE JUMP JUMPDEST DUP1 ISZERO PUSH2 0x1AAE JUMPI DUP1 PUSH1 0x1F LT PUSH2 0x1A83 JUMPI PUSH2 0x100 DUP1 DUP4 SLOAD DIV MUL DUP4 MSTORE SWAP2 PUSH1 0x20 ADD SWAP2 PUSH2 0x1AAE JUMP JUMPDEST DUP3 ADD SWAP2 SWAP1 PUSH1 0x0 MSTORE PUSH1 0x20 PUSH1 0x0 KECCAK256 SWAP1 JUMPDEST DUP2 SLOAD DUP2 MSTORE SWAP1 PUSH1 0x1 ADD SWAP1 PUSH1 0x20 ADD DUP1 DUP4 GT PUSH2 0x1A91 JUMPI DUP3 SWAP1 SUB PUSH1 0x1F AND DUP3 ADD SWAP2 JUMPDEST POP POP POP POP POP DUP3 DUP3 DUP2 MLOAD DUP2 LT PUSH2 0x1AC6 JUMPI PUSH2 0x1AC5 PUSH2 0x5836 JUMP JUMPDEST JUMPDEST PUSH1 0x20 MUL PUSH1 0x20 ADD ADD DUP2 SWAP1 MSTORE POP DUP1 DUP1 PUSH2 0x1ADC SWAP1 PUSH2 0x5B36 JUMP JUMPDEST SWAP2 POP POP PUSH2 0x17AA JUMP JUMPDEST POP DUP5 DUP5 DUP5 DUP5 DUP5 SWAP12 POP SWAP12 POP SWAP12 POP SWAP12 POP SWAP12 POP POP POP POP POP POP POP POP SWAP2 SWAP4 SWAP6 SWAP1 SWAP3 SWAP5 POP JUMP JUMPDEST PUSH1 0x60 PUSH1 0x4 DUP1 SLOAD PUSH2 0x1B13 SWAP1 PUSH2 0x55CE JUMP JUMPDEST DUP1 PUSH1 0x1F ADD PUSH1 0x20 DUP1 SWAP2 DIV MUL PUSH1 0x20 ADD PUSH1 0x40 MLOAD SWAP1 DUP2 ADD PUSH1 0x40 MSTORE DUP1 SWAP3 SWAP2 SWAP1 DUP2 DUP2 MSTORE PUSH1 0x20 ADD DUP3 DUP1 SLOAD PUSH2 0x1B3F SWAP1 PUSH2 0x55CE JUMP JUMPDEST DUP1 ISZERO PUSH2 0x1B8C JUMPI DUP1 PUSH1 0x1F LT PUSH2 0x1B61 JUMPI PUSH2 0x100 DUP1 DUP4 SLOAD DIV MUL DUP4 MSTORE SWAP2 PUSH1 0x20 ADD SWAP2 PUSH2 0x1B8C JUMP JUMPDEST DUP3 ADD SWAP2 SWAP1 PUSH1 0x0 MSTORE PUSH1 0x20 PUSH1 0x0 KECCAK256 SWAP1 JUMPDEST DUP2 SLOAD DUP2 MSTORE SWAP1 PUSH1 0x1 ADD SWAP1 PUSH1 0x20 ADD DUP1 DUP4 GT PUSH2 0x1B6F JUMPI DUP3 SWAP1 SUB PUSH1 0x1F AND DUP3 ADD SWAP2 JUMPDEST POP POP POP POP POP SWAP1 POP SWAP1 JUMP JUMPDEST PUSH1 0x0 DUP1 PUSH2 0x1BA1 PUSH2 0x3EF3 JUMP JUMPDEST SWAP1 POP PUSH1 0x0 PUSH2 0x1BAF DUP3 DUP7 PUSH2 0x1C64 JUMP JUMPDEST SWAP1 POP DUP4 DUP2 LT ISZERO PUSH2 0x1BF4 JUMPI PUSH1 0x40 MLOAD PUSH32 0x8C379A000000000000000000000000000000000000000000000000000000000 DUP2 MSTORE PUSH1 0x4 ADD PUSH2 0x1BEB SWAP1 PUSH2 0x5BF0 JUMP JUMPDEST PUSH1 0x40 MLOAD DUP1 SWAP2 SUB SWAP1 REVERT JUMPDEST PUSH2 0x1C01 DUP3 DUP7 DUP7 DUP5 SUB PUSH2 0x3EFB JUMP JUMPDEST PUSH1 0x1 SWAP3 POP POP POP SWAP3 SWAP2 POP POP JUMP JUMPDEST PUSH1 0x0 DUP1 PUSH2 0x1C18 PUSH2 0x3EF3 JUMP JUMPDEST SWAP1 POP PUSH2 0x1C25 DUP2 DUP6 DUP6 PUSH2 0x431D JUMP JUMPDEST PUSH1 0x1 SWAP2 POP POP SWAP3 SWAP2 POP POP JUMP JUMPDEST PUSH1 0x7 SLOAD DUP2 JUMP JUMPDEST PUSH1 0xB DUP2 DUP1 MLOAD PUSH1 0x20 DUP2 ADD DUP3 ADD DUP1 MLOAD DUP5 DUP3 MSTORE PUSH1 0x20 DUP4 ADD PUSH1 0x20 DUP6 ADD KECCAK256 DUP2 DUP4 MSTORE DUP1 SWAP6 POP POP POP POP POP POP PUSH1 0x0 SWAP2 POP SWAP1 POP SLOAD DUP2 JUMP JUMPDEST PUSH1 0x0 PUSH1 0x1 PUSH1 0x0 DUP5 PUSH20 0xFFFFFFFFFFFFFFFFFFFFFFFFFFFFFFFFFFFFFFFF AND PUSH20 0xFFFFFFFFFFFFFFFFFFFFFFFFFFFFFFFFFFFFFFFF AND DUP2 MSTORE PUSH1 0x20 ADD SWAP1 DUP2 MSTORE PUSH1 0x20 ADD PUSH1 0x0 KECCAK256 PUSH1 0x0 DUP4 PUSH20 0xFFFFFFFFFFFFFFFFFFFFFFFFFFFFFFFFFFFFFFFF AND PUSH20 0xFFFFFFFFFFFFFFFFFFFFFFFFFFFFFFFFFFFFFFFF AND DUP2 MSTORE PUSH1 0x20 ADD SWAP1 DUP2 MSTORE PUSH1 0x20 ADD PUSH1 0x0 KECCAK256 SLOAD SWAP1 POP SWAP3 SWAP2 POP POP JUMP JUMPDEST PUSH1 0x0 PUSH1 0x40 MLOAD PUSH1 0x20 ADD PUSH2 0x1CFC SWAP1 PUSH2 0x5C5C JUMP JUMPDEST PUSH1 0x40 MLOAD PUSH1 0x20 DUP2 DUP4 SUB SUB DUP2 MSTORE SWAP1 PUSH1 0x40 MSTORE DUP1 MLOAD SWAP1 PUSH1 0x20 ADD KECCAK256 SWAP1 POP PUSH1 0x1 PUSH1 0xC DUP1 SLOAD SWAP1 POP GT ISZERO PUSH2 0x2F71 JUMPI PUSH1 0x0 JUMPDEST DUP4 MLOAD DUP2 LT ISZERO PUSH2 0x2347 JUMPI PUSH1 0x0 PUSH20 0xFFFFFFFFFFFFFFFFFFFFFFFFFFFFFFFFFFFFFFFF AND PUSH1 0x9 DUP6 DUP4 DUP2 MLOAD DUP2 LT PUSH2 0x1D5B JUMPI PUSH2 0x1D5A PUSH2 0x5836 JUMP JUMPDEST JUMPDEST PUSH1 0x20 MUL PUSH1 0x20 ADD ADD MLOAD PUSH1 0x40 MLOAD PUSH2 0x1D70 SWAP2 SWAP1 PUSH2 0x58A1 JUMP JUMPDEST SWAP1 DUP2 MSTORE PUSH1 0x20 ADD PUSH1 0x40 MLOAD DUP1 SWAP2 SUB SWAP1 KECCAK256 PUSH1 0x0 SWAP1 SLOAD SWAP1 PUSH2 0x100 EXP SWAP1 DIV PUSH20 0xFFFFFFFFFFFFFFFFFFFFFFFFFFFFFFFFFFFFFFFF AND PUSH20 0xFFFFFFFFFFFFFFFFFFFFFFFFFFFFFFFFFFFFFFFF AND EQ PUSH2 0x2031 JUMPI PUSH1 0x0 PUSH1 0x9 DUP6 DUP4 DUP2 MLOAD DUP2 LT PUSH2 0x1DD1 JUMPI PUSH2 0x1DD0 PUSH2 0x5836 JUMP JUMPDEST JUMPDEST PUSH1 0x20 MUL PUSH1 0x20 ADD ADD MLOAD PUSH1 0x40 MLOAD PUSH2 0x1DE6 SWAP2 SWAP1 PUSH2 0x58A1 JUMP JUMPDEST SWAP1 DUP2 MSTORE PUSH1 0x20 ADD PUSH1 0x40 MLOAD DUP1 SWAP2 SUB SWAP1 KECCAK256 PUSH1 0x0 SWAP1 SLOAD SWAP1 PUSH2 0x100 EXP SWAP1 DIV PUSH20 0xFFFFFFFFFFFFFFFFFFFFFFFFFFFFFFFFFFFFFFFF AND PUSH20 0xFFFFFFFFFFFFFFFFFFFFFFFFFFFFFFFFFFFFFFFF AND PUSH4 0x70A08231 ADDRESS PUSH1 0x40 MLOAD DUP3 PUSH4 0xFFFFFFFF AND PUSH1 0xE0 SHL DUP2 MSTORE PUSH1 0x4 ADD PUSH2 0x1E4D SWAP2 SWAP1 PUSH2 0x5C80 JUMP JUMPDEST PUSH1 0x20 PUSH1 0x40 MLOAD DUP1 DUP4 SUB DUP2 DUP7 GAS STATICCALL ISZERO DUP1 ISZERO PUSH2 0x1E6A JUMPI RETURNDATASIZE PUSH1 0x0 DUP1 RETURNDATACOPY RETURNDATASIZE PUSH1 0x0 REVERT JUMPDEST POP POP POP POP PUSH1 0x40 MLOAD RETURNDATASIZE PUSH1 0x1F NOT PUSH1 0x1F DUP3 ADD AND DUP3 ADD DUP1 PUSH1 0x40 MSTORE POP DUP2 ADD SWAP1 PUSH2 0x1E8E SWAP2 SWAP1 PUSH2 0x5CB0 JUMP JUMPDEST GT DUP1 ISZERO PUSH2 0x1EDB JUMPI POP DUP2 DUP5 DUP3 DUP2 MLOAD DUP2 LT PUSH2 0x1EAA JUMPI PUSH2 0x1EA9 PUSH2 0x5836 JUMP JUMPDEST JUMPDEST PUSH1 0x20 MUL PUSH1 0x20 ADD ADD MLOAD PUSH1 0x40 MLOAD PUSH1 0x20 ADD PUSH2 0x1EC2 SWAP2 SWAP1 PUSH2 0x58A1 JUMP JUMPDEST PUSH1 0x40 MLOAD PUSH1 0x20 DUP2 DUP4 SUB SUB DUP2 MSTORE SWAP1 PUSH1 0x40 MSTORE DUP1 MLOAD SWAP1 PUSH1 0x20 ADD KECCAK256 EQ ISZERO JUMPDEST ISZERO PUSH2 0x202C JUMPI PUSH2 0x202B PUSH1 0x9 DUP6 DUP4 DUP2 MLOAD DUP2 LT PUSH2 0x1EF8 JUMPI PUSH2 0x1EF7 PUSH2 0x5836 JUMP JUMPDEST JUMPDEST PUSH1 0x20 MUL PUSH1 0x20 ADD ADD MLOAD PUSH1 0x40 MLOAD PUSH2 0x1F0D SWAP2 SWAP1 PUSH2 0x58A1 JUMP JUMPDEST SWAP1 DUP2 MSTORE PUSH1 0x20 ADD PUSH1 0x40 MLOAD DUP1 SWAP2 SUB SWAP1 KECCAK256 PUSH1 0x0 SWAP1 SLOAD SWAP1 PUSH2 0x100 EXP SWAP1 DIV PUSH20 0xFFFFFFFFFFFFFFFFFFFFFFFFFFFFFFFFFFFFFFFF AND PUSH20 0xC778417E063141139FCE010982780140AA0CD5AB PUSH1 0x9 DUP8 DUP6 DUP2 MLOAD DUP2 LT PUSH2 0x1F66 JUMPI PUSH2 0x1F65 PUSH2 0x5836 JUMP JUMPDEST JUMPDEST PUSH1 0x20 MUL PUSH1 0x20 ADD ADD MLOAD PUSH1 0x40 MLOAD PUSH2 0x1F7B SWAP2 SWAP1 PUSH2 0x58A1 JUMP JUMPDEST SWAP1 DUP2 MSTORE PUSH1 0x20 ADD PUSH1 0x40 MLOAD DUP1 SWAP2 SUB SWAP1 KECCAK256 PUSH1 0x0 SWAP1 SLOAD SWAP1 PUSH2 0x100 EXP SWAP1 DIV PUSH20 0xFFFFFFFFFFFFFFFFFFFFFFFFFFFFFFFFFFFFFFFF AND PUSH20 0xFFFFFFFFFFFFFFFFFFFFFFFFFFFFFFFFFFFFFFFF AND PUSH4 0x70A08231 ADDRESS PUSH1 0x40 MLOAD DUP3 PUSH4 0xFFFFFFFF AND PUSH1 0xE0 SHL DUP2 MSTORE PUSH1 0x4 ADD PUSH2 0x1FE2 SWAP2 SWAP1 PUSH2 0x5C80 JUMP JUMPDEST PUSH1 0x20 PUSH1 0x40 MLOAD DUP1 DUP4 SUB DUP2 DUP7 GAS STATICCALL ISZERO DUP1 ISZERO PUSH2 0x1FFF JUMPI RETURNDATASIZE PUSH1 0x0 DUP1 RETURNDATACOPY RETURNDATASIZE PUSH1 0x0 REVERT JUMPDEST POP POP POP POP PUSH1 0x40 MLOAD RETURNDATASIZE PUSH1 0x1F NOT PUSH1 0x1F DUP3 ADD AND DUP3 ADD DUP1 PUSH1 0x40 MSTORE POP DUP2 ADD SWAP1 PUSH2 0x2023 SWAP2 SWAP1 PUSH2 0x5CB0 JUMP JUMPDEST PUSH1 0x0 ADDRESS PUSH2 0x39F6 JUMP JUMPDEST JUMPDEST PUSH2 0x2334 JUMP JUMPDEST PUSH1 0x0 PUSH20 0xFFFFFFFFFFFFFFFFFFFFFFFFFFFFFFFFFFFFFFFF AND PUSH1 0xA DUP6 DUP4 DUP2 MLOAD DUP2 LT PUSH2 0x205E JUMPI PUSH2 0x205D PUSH2 0x5836 JUMP JUMPDEST JUMPDEST PUSH1 0x20 MUL PUSH1 0x20 ADD ADD MLOAD PUSH1 0x40 MLOAD PUSH2 0x2073 SWAP2 SWAP1 PUSH2 0x58A1 JUMP JUMPDEST SWAP1 DUP2 MSTORE PUSH1 0x20 ADD PUSH1 0x40 MLOAD DUP1 SWAP2 SUB SWAP1 KECCAK256 PUSH1 0x0 SWAP1 SLOAD SWAP1 PUSH2 0x100 EXP SWAP1 DIV PUSH20 0xFFFFFFFFFFFFFFFFFFFFFFFFFFFFFFFFFFFFFFFF AND PUSH20 0xFFFFFFFFFFFFFFFFFFFFFFFFFFFFFFFFFFFFFFFF AND EQ ISZERO DUP1 ISZERO PUSH2 0x2197 JUMPI POP PUSH1 0x0 PUSH1 0xA DUP6 DUP4 DUP2 MLOAD DUP2 LT PUSH2 0x20D8 JUMPI PUSH2 0x20D7 PUSH2 0x5836 JUMP JUMPDEST JUMPDEST PUSH1 0x20 MUL PUSH1 0x20 ADD ADD MLOAD PUSH1 0x40 MLOAD PUSH2 0x20ED SWAP2 SWAP1 PUSH2 0x58A1 JUMP JUMPDEST SWAP1 DUP2 MSTORE PUSH1 0x20 ADD PUSH1 0x40 MLOAD DUP1 SWAP2 SUB SWAP1 KECCAK256 PUSH1 0x0 SWAP1 SLOAD SWAP1 PUSH2 0x100 EXP SWAP1 DIV PUSH20 0xFFFFFFFFFFFFFFFFFFFFFFFFFFFFFFFFFFFFFFFF AND PUSH20 0xFFFFFFFFFFFFFFFFFFFFFFFFFFFFFFFFFFFFFFFF AND PUSH4 0x70A08231 ADDRESS PUSH1 0x40 MLOAD DUP3 PUSH4 0xFFFFFFFF AND PUSH1 0xE0 SHL DUP2 MSTORE PUSH1 0x4 ADD PUSH2 0x2154 SWAP2 SWAP1 PUSH2 0x5C80 JUMP JUMPDEST PUSH1 0x20 PUSH1 0x40 MLOAD DUP1 DUP4 SUB DUP2 DUP7 GAS STATICCALL ISZERO DUP1 ISZERO PUSH2 0x2171 JUMPI RETURNDATASIZE PUSH1 0x0 DUP1 RETURNDATACOPY RETURNDATASIZE PUSH1 0x0 REVERT JUMPDEST POP POP POP POP PUSH1 0x40 MLOAD RETURNDATASIZE PUSH1 0x1F NOT PUSH1 0x1F DUP3 ADD AND DUP3 ADD DUP1 PUSH1 0x40 MSTORE POP DUP2 ADD SWAP1 PUSH2 0x2195 SWAP2 SWAP1 PUSH2 0x5CB0 JUMP JUMPDEST GT JUMPDEST ISZERO PUSH2 0x2333 JUMPI PUSH1 0xA DUP5 DUP3 DUP2 MLOAD DUP2 LT PUSH2 0x21B1 JUMPI PUSH2 0x21B0 PUSH2 0x5836 JUMP JUMPDEST JUMPDEST PUSH1 0x20 MUL PUSH1 0x20 ADD ADD MLOAD PUSH1 0x40 MLOAD PUSH2 0x21C6 SWAP2 SWAP1 PUSH2 0x58A1 JUMP JUMPDEST SWAP1 DUP2 MSTORE PUSH1 0x20 ADD PUSH1 0x40 MLOAD DUP1 SWAP2 SUB SWAP1 KECCAK256 PUSH1 0x0 SWAP1 SLOAD SWAP1 PUSH2 0x100 EXP SWAP1 DIV PUSH20 0xFFFFFFFFFFFFFFFFFFFFFFFFFFFFFFFFFFFFFFFF AND PUSH20 0xFFFFFFFFFFFFFFFFFFFFFFFFFFFFFFFFFFFFFFFF AND PUSH4 0x9DC29FAC ADDRESS PUSH1 0xA DUP8 DUP6 DUP2 MLOAD DUP2 LT PUSH2 0x2226 JUMPI PUSH2 0x2225 PUSH2 0x5836 JUMP JUMPDEST JUMPDEST PUSH1 0x20 MUL PUSH1 0x20 ADD ADD MLOAD PUSH1 0x40 MLOAD PUSH2 0x223B SWAP2 SWAP1 PUSH2 0x58A1 JUMP JUMPDEST SWAP1 DUP2 MSTORE PUSH1 0x20 ADD PUSH1 0x40 MLOAD DUP1 SWAP2 SUB SWAP1 KECCAK256 PUSH1 0x0 SWAP1 SLOAD SWAP1 PUSH2 0x100 EXP SWAP1 DIV PUSH20 0xFFFFFFFFFFFFFFFFFFFFFFFFFFFFFFFFFFFFFFFF AND PUSH20 0xFFFFFFFFFFFFFFFFFFFFFFFFFFFFFFFFFFFFFFFF AND PUSH4 0x70A08231 ADDRESS PUSH1 0x40 MLOAD DUP3 PUSH4 0xFFFFFFFF AND PUSH1 0xE0 SHL DUP2 MSTORE PUSH1 0x4 ADD PUSH2 0x22A2 SWAP2 SWAP1 PUSH2 0x5C80 JUMP JUMPDEST PUSH1 0x20 PUSH1 0x40 MLOAD DUP1 DUP4 SUB DUP2 DUP7 GAS STATICCALL ISZERO DUP1 ISZERO PUSH2 0x22BF JUMPI RETURNDATASIZE PUSH1 0x0 DUP1 RETURNDATACOPY RETURNDATASIZE PUSH1 0x0 REVERT JUMPDEST POP POP POP POP PUSH1 0x40 MLOAD RETURNDATASIZE PUSH1 0x1F NOT PUSH1 0x1F DUP3 ADD AND DUP3 ADD DUP1 PUSH1 0x40 MSTORE POP DUP2 ADD SWAP1 PUSH2 0x22E3 SWAP2 SWAP1 PUSH2 0x5CB0 JUMP JUMPDEST PUSH1 0x40 MLOAD DUP4 PUSH4 0xFFFFFFFF AND PUSH1 0xE0 SHL DUP2 MSTORE PUSH1 0x4 ADD PUSH2 0x2300 SWAP3 SWAP2 SWAP1 PUSH2 0x5CDD JUMP JUMPDEST PUSH1 0x0 PUSH1 0x40 MLOAD DUP1 DUP4 SUB DUP2 PUSH1 0x0 DUP8 DUP1 EXTCODESIZE ISZERO DUP1 ISZERO PUSH2 0x231A JUMPI PUSH1 0x0 DUP1 REVERT JUMPDEST POP GAS CALL ISZERO DUP1 ISZERO PUSH2 0x232E JUMPI RETURNDATASIZE PUSH1 0x0 DUP1 RETURNDATACOPY RETURNDATASIZE PUSH1 0x0 REVERT JUMPDEST POP POP POP POP JUMPDEST JUMPDEST DUP1 DUP1 PUSH2 0x233F SWAP1 PUSH2 0x5B36 JUMP JUMPDEST SWAP2 POP POP PUSH2 0x1D25 JUMP JUMPDEST POP PUSH20 0xC778417E063141139FCE010982780140AA0CD5AB PUSH20 0xFFFFFFFFFFFFFFFFFFFFFFFFFFFFFFFFFFFFFFFF AND PUSH4 0x70A08231 ADDRESS PUSH1 0x40 MLOAD DUP3 PUSH4 0xFFFFFFFF AND PUSH1 0xE0 SHL DUP2 MSTORE PUSH1 0x4 ADD PUSH2 0x2395 SWAP2 SWAP1 PUSH2 0x5C80 JUMP JUMPDEST PUSH1 0x20 PUSH1 0x40 MLOAD DUP1 DUP4 SUB DUP2 PUSH1 0x0 DUP8 GAS CALL ISZERO DUP1 ISZERO PUSH2 0x23B4 JUMPI RETURNDATASIZE PUSH1 0x0 DUP1 RETURNDATACOPY RETURNDATASIZE PUSH1 0x0 REVERT JUMPDEST POP POP POP POP PUSH1 0x40 MLOAD RETURNDATASIZE PUSH1 0x1F NOT PUSH1 0x1F DUP3 ADD AND DUP3 ADD DUP1 PUSH1 0x40 MSTORE POP DUP2 ADD SWAP1 PUSH2 0x23D8 SWAP2 SWAP1 PUSH2 0x5CB0 JUMP JUMPDEST PUSH1 0xC PUSH1 0x2 PUSH1 0xC DUP1 SLOAD SWAP1 POP PUSH2 0x23EC SWAP2 SWAP1 PUSH2 0x56D0 JUMP JUMPDEST DUP2 SLOAD DUP2 LT PUSH2 0x23FD JUMPI PUSH2 0x23FC PUSH2 0x5836 JUMP JUMPDEST JUMPDEST SWAP1 PUSH1 0x0 MSTORE PUSH1 0x20 PUSH1 0x0 KECCAK256 SWAP1 PUSH1 0xC MUL ADD PUSH1 0x3 ADD DUP2 SWAP1 SSTORE POP TIMESTAMP PUSH1 0xC PUSH1 0x2 PUSH1 0xC DUP1 SLOAD SWAP1 POP PUSH2 0x2427 SWAP2 SWAP1 PUSH2 0x56D0 JUMP JUMPDEST DUP2 SLOAD DUP2 LT PUSH2 0x2438 JUMPI PUSH2 0x2437 PUSH2 0x5836 JUMP JUMPDEST JUMPDEST SWAP1 PUSH1 0x0 MSTORE PUSH1 0x20 PUSH1 0x0 KECCAK256 SWAP1 PUSH1 0xC MUL ADD PUSH1 0x1 ADD DUP2 SWAP1 SSTORE POP PUSH20 0xC778417E063141139FCE010982780140AA0CD5AB PUSH20 0xFFFFFFFFFFFFFFFFFFFFFFFFFFFFFFFFFFFFFFFF AND PUSH4 0x70A08231 ADDRESS PUSH1 0x40 MLOAD DUP3 PUSH4 0xFFFFFFFF AND PUSH1 0xE0 SHL DUP2 MSTORE PUSH1 0x4 ADD PUSH2 0x249A SWAP2 SWAP1 PUSH2 0x5C80 JUMP JUMPDEST PUSH1 0x20 PUSH1 0x40 MLOAD DUP1 DUP4 SUB DUP2 PUSH1 0x0 DUP8 GAS CALL ISZERO DUP1 ISZERO PUSH2 0x24B9 JUMPI RETURNDATASIZE PUSH1 0x0 DUP1 RETURNDATACOPY RETURNDATASIZE PUSH1 0x0 REVERT JUMPDEST POP POP POP POP PUSH1 0x40 MLOAD RETURNDATASIZE PUSH1 0x1F NOT PUSH1 0x1F DUP3 ADD AND DUP3 ADD DUP1 PUSH1 0x40 MSTORE POP DUP2 ADD SWAP1 PUSH2 0x24DD SWAP2 SWAP1 PUSH2 0x5CB0 JUMP JUMPDEST PUSH1 0xC PUSH1 0x1 PUSH1 0xC DUP1 SLOAD SWAP1 POP PUSH2 0x24F1 SWAP2 SWAP1 PUSH2 0x56D0 JUMP JUMPDEST DUP2 SLOAD DUP2 LT PUSH2 0x2502 JUMPI PUSH2 0x2501 PUSH2 0x5836 JUMP JUMPDEST JUMPDEST SWAP1 PUSH1 0x0 MSTORE PUSH1 0x20 PUSH1 0x0 KECCAK256 SWAP1 PUSH1 0xC MUL ADD PUSH1 0x2 ADD DUP2 SWAP1 SSTORE POP TIMESTAMP PUSH1 0xC PUSH1 0x1 PUSH1 0xC DUP1 SLOAD SWAP1 POP PUSH2 0x252C SWAP2 SWAP1 PUSH2 0x56D0 JUMP JUMPDEST DUP2 SLOAD DUP2 LT PUSH2 0x253D JUMPI PUSH2 0x253C PUSH2 0x5836 JUMP JUMPDEST JUMPDEST SWAP1 PUSH1 0x0 MSTORE PUSH1 0x20 PUSH1 0x0 KECCAK256 SWAP1 PUSH1 0xC MUL ADD PUSH1 0x0 ADD DUP2 SWAP1 SSTORE POP PUSH20 0xC778417E063141139FCE010982780140AA0CD5AB PUSH20 0xFFFFFFFFFFFFFFFFFFFFFFFFFFFFFFFFFFFFFFFF AND PUSH4 0x70A08231 ADDRESS PUSH1 0x40 MLOAD DUP3 PUSH4 0xFFFFFFFF AND PUSH1 0xE0 SHL DUP2 MSTORE PUSH1 0x4 ADD PUSH2 0x259F SWAP2 SWAP1 PUSH2 0x5C80 JUMP JUMPDEST PUSH1 0x20 PUSH1 0x40 MLOAD DUP1 DUP4 SUB DUP2 PUSH1 0x0 DUP8 GAS CALL ISZERO DUP1 ISZERO PUSH2 0x25BE JUMPI RETURNDATASIZE PUSH1 0x0 DUP1 RETURNDATACOPY RETURNDATASIZE PUSH1 0x0 REVERT JUMPDEST POP POP POP POP PUSH1 0x40 MLOAD RETURNDATASIZE PUSH1 0x1F NOT PUSH1 0x1F DUP3 ADD AND DUP3 ADD DUP1 PUSH1 0x40 MSTORE POP DUP2 ADD SWAP1 PUSH2 0x25E2 SWAP2 SWAP1 PUSH2 0x5CB0 JUMP JUMPDEST PUSH1 0x7 DUP2 SWAP1 SSTORE POP PUSH20 0xC778417E063141139FCE010982780140AA0CD5AB PUSH20 0xFFFFFFFFFFFFFFFFFFFFFFFFFFFFFFFFFFFFFFFF AND PUSH4 0xD0E30DB0 SELFBALANCE PUSH1 0x40 MLOAD DUP3 PUSH4 0xFFFFFFFF AND PUSH1 0xE0 SHL DUP2 MSTORE PUSH1 0x4 ADD PUSH1 0x0 PUSH1 0x40 MLOAD DUP1 DUP4 SUB DUP2 DUP6 DUP9 DUP1 EXTCODESIZE ISZERO DUP1 ISZERO PUSH2 0x2644 JUMPI PUSH1 0x0 DUP1 REVERT JUMPDEST POP GAS CALL ISZERO DUP1 ISZERO PUSH2 0x2658 JUMPI RETURNDATASIZE PUSH1 0x0 DUP1 RETURNDATACOPY RETURNDATASIZE PUSH1 0x0 REVERT JUMPDEST POP POP POP POP POP PUSH1 0x0 JUMPDEST DUP4 MLOAD DUP2 LT ISZERO PUSH2 0x2F4A JUMPI DUP3 DUP2 DUP2 MLOAD DUP2 LT PUSH2 0x267C JUMPI PUSH2 0x267B PUSH2 0x5836 JUMP JUMPDEST JUMPDEST PUSH1 0x20 MUL PUSH1 0x20 ADD ADD MLOAD PUSH1 0xB DUP6 DUP4 DUP2 MLOAD DUP2 LT PUSH2 0x2699 JUMPI PUSH2 0x2698 PUSH2 0x5836 JUMP JUMPDEST JUMPDEST PUSH1 0x20 MUL PUSH1 0x20 ADD ADD MLOAD PUSH1 0x40 MLOAD PUSH2 0x26AE SWAP2 SWAP1 PUSH2 0x58A1 JUMP JUMPDEST SWAP1 DUP2 MSTORE PUSH1 0x20 ADD PUSH1 0x40 MLOAD DUP1 SWAP2 SUB SWAP1 KECCAK256 DUP2 SWAP1 SSTORE POP PUSH1 0xC PUSH1 0x1 PUSH1 0xC DUP1 SLOAD SWAP1 POP PUSH2 0x26D4 SWAP2 SWAP1 PUSH2 0x56D0 JUMP JUMPDEST DUP2 SLOAD DUP2 LT PUSH2 0x26E5 JUMPI PUSH2 0x26E4 PUSH2 0x5836 JUMP JUMPDEST JUMPDEST SWAP1 PUSH1 0x0 MSTORE PUSH1 0x20 PUSH1 0x0 KECCAK256 SWAP1 PUSH1 0xC MUL ADD PUSH1 0x6 ADD DUP4 DUP3 DUP2 MLOAD DUP2 LT PUSH2 0x2709 JUMPI PUSH2 0x2708 PUSH2 0x5836 JUMP JUMPDEST JUMPDEST PUSH1 0x20 MUL PUSH1 0x20 ADD ADD MLOAD SWAP1 DUP1 PUSH1 0x1 DUP2 SLOAD ADD DUP1 DUP3 SSTORE DUP1 SWAP2 POP POP PUSH1 0x1 SWAP1 SUB SWAP1 PUSH1 0x0 MSTORE PUSH1 0x20 PUSH1 0x0 KECCAK256 ADD PUSH1 0x0 SWAP1 SWAP2 SWAP1 SWAP2 SWAP1 SWAP2 POP SSTORE PUSH1 0xC PUSH1 0x1 PUSH1 0xC DUP1 SLOAD SWAP1 POP PUSH2 0x274B SWAP2 SWAP1 PUSH2 0x56D0 JUMP JUMPDEST DUP2 SLOAD DUP2 LT PUSH2 0x275C JUMPI PUSH2 0x275B PUSH2 0x5836 JUMP JUMPDEST JUMPDEST SWAP1 PUSH1 0x0 MSTORE PUSH1 0x20 PUSH1 0x0 KECCAK256 SWAP1 PUSH1 0xC MUL ADD PUSH1 0x4 ADD DUP5 DUP3 DUP2 MLOAD DUP2 LT PUSH2 0x2780 JUMPI PUSH2 0x277F PUSH2 0x5836 JUMP JUMPDEST JUMPDEST PUSH1 0x20 MUL PUSH1 0x20 ADD ADD MLOAD SWAP1 DUP1 PUSH1 0x1 DUP2 SLOAD ADD DUP1 DUP3 SSTORE DUP1 SWAP2 POP POP PUSH1 0x1 SWAP1 SUB SWAP1 PUSH1 0x0 MSTORE PUSH1 0x20 PUSH1 0x0 KECCAK256 ADD PUSH1 0x0 SWAP1 SWAP2 SWAP1 SWAP2 SWAP1 SWAP2 POP SWAP1 DUP2 PUSH2 0x27B9 SWAP2 SWAP1 PUSH2 0x5A64 JUMP JUMPDEST POP PUSH1 0x0 DUP4 DUP3 DUP2 MLOAD DUP2 LT PUSH2 0x27CF JUMPI PUSH2 0x27CE PUSH2 0x5836 JUMP JUMPDEST JUMPDEST PUSH1 0x20 MUL PUSH1 0x20 ADD ADD MLOAD SUB PUSH2 0x283F JUMPI PUSH1 0xC PUSH1 0x1 PUSH1 0xC DUP1 SLOAD SWAP1 POP PUSH2 0x27F0 SWAP2 SWAP1 PUSH2 0x56D0 JUMP JUMPDEST DUP2 SLOAD DUP2 LT PUSH2 0x2801 JUMPI PUSH2 0x2800 PUSH2 0x5836 JUMP JUMPDEST JUMPDEST SWAP1 PUSH1 0x0 MSTORE PUSH1 0x20 PUSH1 0x0 KECCAK256 SWAP1 PUSH1 0xC MUL ADD PUSH1 0x5 ADD PUSH1 0x0 SWAP1 DUP1 PUSH1 0x1 DUP2 SLOAD ADD DUP1 DUP3 SSTORE DUP1 SWAP2 POP POP PUSH1 0x1 SWAP1 SUB SWAP1 PUSH1 0x0 MSTORE PUSH1 0x20 PUSH1 0x0 KECCAK256 ADD PUSH1 0x0 SWAP1 SWAP2 SWAP1 SWAP2 SWAP1 SWAP2 POP SSTORE PUSH2 0x2F37 JUMP JUMPDEST PUSH20 0xC778417E063141139FCE010982780140AA0CD5AB PUSH20 0xFFFFFFFFFFFFFFFFFFFFFFFFFFFFFFFFFFFFFFFF AND PUSH1 0x9 DUP6 DUP4 DUP2 MLOAD DUP2 LT PUSH2 0x287F JUMPI PUSH2 0x287E PUSH2 0x5836 JUMP JUMPDEST JUMPDEST PUSH1 0x20 MUL PUSH1 0x20 ADD ADD MLOAD PUSH1 0x40 MLOAD PUSH2 0x2894 SWAP2 SWAP1 PUSH2 0x58A1 JUMP JUMPDEST SWAP1 DUP2 MSTORE PUSH1 0x20 ADD PUSH1 0x40 MLOAD DUP1 SWAP2 SUB SWAP1 KECCAK256 PUSH1 0x0 SWAP1 SLOAD SWAP1 PUSH2 0x100 EXP SWAP1 DIV PUSH20 0xFFFFFFFFFFFFFFFFFFFFFFFFFFFFFFFFFFFFFFFF AND PUSH20 0xFFFFFFFFFFFFFFFFFFFFFFFFFFFFFFFFFFFFFFFF AND SUB PUSH2 0x2975 JUMPI PUSH1 0x0 PUSH1 0x64 DUP5 DUP4 DUP2 MLOAD DUP2 LT PUSH2 0x28F5 JUMPI PUSH2 0x28F4 PUSH2 0x5836 JUMP JUMPDEST JUMPDEST PUSH1 0x20 MUL PUSH1 0x20 ADD ADD MLOAD PUSH1 0x7 SLOAD PUSH2 0x290A SWAP2 SWAP1 PUSH2 0x568E JUMP JUMPDEST PUSH2 0x2914 SWAP2 SWAP1 PUSH2 0x565D JUMP JUMPDEST SWAP1 POP PUSH1 0xC PUSH1 0x1 PUSH1 0xC DUP1 SLOAD SWAP1 POP PUSH2 0x292A SWAP2 SWAP1 PUSH2 0x56D0 JUMP JUMPDEST DUP2 SLOAD DUP2 LT PUSH2 0x293B JUMPI PUSH2 0x293A PUSH2 0x5836 JUMP JUMPDEST JUMPDEST SWAP1 PUSH1 0x0 MSTORE PUSH1 0x20 PUSH1 0x0 KECCAK256 SWAP1 PUSH1 0xC MUL ADD PUSH1 0x5 ADD DUP2 SWAP1 DUP1 PUSH1 0x1 DUP2 SLOAD ADD DUP1 DUP3 SSTORE DUP1 SWAP2 POP POP PUSH1 0x1 SWAP1 SUB SWAP1 PUSH1 0x0 MSTORE PUSH1 0x20 PUSH1 0x0 KECCAK256 ADD PUSH1 0x0 SWAP1 SWAP2 SWAP1 SWAP2 SWAP1 SWAP2 POP SSTORE POP JUMPDEST PUSH1 0x0 DUP4 DUP3 DUP2 MLOAD DUP2 LT PUSH2 0x298A JUMPI PUSH2 0x2989 PUSH2 0x5836 JUMP JUMPDEST JUMPDEST PUSH1 0x20 MUL PUSH1 0x20 ADD ADD MLOAD EQ ISZERO DUP1 ISZERO PUSH2 0x29E0 JUMPI POP DUP2 DUP5 DUP3 DUP2 MLOAD DUP2 LT PUSH2 0x29AF JUMPI PUSH2 0x29AE PUSH2 0x5836 JUMP JUMPDEST JUMPDEST PUSH1 0x20 MUL PUSH1 0x20 ADD ADD MLOAD PUSH1 0x40 MLOAD PUSH1 0x20 ADD PUSH2 0x29C7 SWAP2 SWAP1 PUSH2 0x58A1 JUMP JUMPDEST PUSH1 0x40 MLOAD PUSH1 0x20 DUP2 DUP4 SUB SUB DUP2 MSTORE SWAP1 PUSH1 0x40 MSTORE DUP1 MLOAD SWAP1 PUSH1 0x20 ADD KECCAK256 EQ ISZERO JUMPDEST ISZERO PUSH2 0x2F36 JUMPI PUSH1 0x0 PUSH20 0xFFFFFFFFFFFFFFFFFFFFFFFFFFFFFFFFFFFFFFFF AND PUSH1 0x9 DUP6 DUP4 DUP2 MLOAD DUP2 LT PUSH2 0x2A12 JUMPI PUSH2 0x2A11 PUSH2 0x5836 JUMP JUMPDEST JUMPDEST PUSH1 0x20 MUL PUSH1 0x20 ADD ADD MLOAD PUSH1 0x40 MLOAD PUSH2 0x2A27 SWAP2 SWAP1 PUSH2 0x58A1 JUMP JUMPDEST SWAP1 DUP2 MSTORE PUSH1 0x20 ADD PUSH1 0x40 MLOAD DUP1 SWAP2 SUB SWAP1 KECCAK256 PUSH1 0x0 SWAP1 SLOAD SWAP1 PUSH2 0x100 EXP SWAP1 DIV PUSH20 0xFFFFFFFFFFFFFFFFFFFFFFFFFFFFFFFFFFFFFFFF AND PUSH20 0xFFFFFFFFFFFFFFFFFFFFFFFFFFFFFFFFFFFFFFFF AND EQ ISZERO DUP1 ISZERO PUSH2 0x2A95 JUMPI POP PUSH1 0x0 DUP4 DUP3 DUP2 MLOAD DUP2 LT PUSH2 0x2A8A JUMPI PUSH2 0x2A89 PUSH2 0x5836 JUMP JUMPDEST JUMPDEST PUSH1 0x20 MUL PUSH1 0x20 ADD ADD MLOAD EQ ISZERO JUMPDEST ISZERO PUSH2 0x2C7C JUMPI PUSH1 0x0 PUSH1 0x64 DUP5 DUP4 DUP2 MLOAD DUP2 LT PUSH2 0x2AB1 JUMPI PUSH2 0x2AB0 PUSH2 0x5836 JUMP JUMPDEST JUMPDEST PUSH1 0x20 MUL PUSH1 0x20 ADD ADD MLOAD PUSH1 0x7 SLOAD PUSH2 0x2AC6 SWAP2 SWAP1 PUSH2 0x568E JUMP JUMPDEST PUSH2 0x2AD0 SWAP2 SWAP1 PUSH2 0x565D JUMP JUMPDEST SWAP1 POP PUSH2 0x2B4C PUSH20 0xC778417E063141139FCE010982780140AA0CD5AB PUSH1 0x9 DUP8 DUP6 DUP2 MLOAD DUP2 LT PUSH2 0x2AFF JUMPI PUSH2 0x2AFE PUSH2 0x5836 JUMP JUMPDEST JUMPDEST PUSH1 0x20 MUL PUSH1 0x20 ADD ADD MLOAD PUSH1 0x40 MLOAD PUSH2 0x2B14 SWAP2 SWAP1 PUSH2 0x58A1 JUMP JUMPDEST SWAP1 DUP2 MSTORE PUSH1 0x20 ADD PUSH1 0x40 MLOAD DUP1 SWAP2 SUB SWAP1 KECCAK256 PUSH1 0x0 SWAP1 SLOAD SWAP1 PUSH2 0x100 EXP SWAP1 DIV PUSH20 0xFFFFFFFFFFFFFFFFFFFFFFFFFFFFFFFFFFFFFFFF AND DUP4 PUSH1 0x0 ADDRESS PUSH2 0x39F6 JUMP JUMPDEST PUSH1 0xC PUSH1 0x1 PUSH1 0xC DUP1 SLOAD SWAP1 POP PUSH2 0x2B60 SWAP2 SWAP1 PUSH2 0x56D0 JUMP JUMPDEST DUP2 SLOAD DUP2 LT PUSH2 0x2B71 JUMPI PUSH2 0x2B70 PUSH2 0x5836 JUMP JUMPDEST JUMPDEST SWAP1 PUSH1 0x0 MSTORE PUSH1 0x20 PUSH1 0x0 KECCAK256 SWAP1 PUSH1 0xC MUL ADD PUSH1 0x5 ADD PUSH1 0x9 DUP7 DUP5 DUP2 MLOAD DUP2 LT PUSH2 0x2B97 JUMPI PUSH2 0x2B96 PUSH2 0x5836 JUMP JUMPDEST JUMPDEST PUSH1 0x20 MUL PUSH1 0x20 ADD ADD MLOAD PUSH1 0x40 MLOAD PUSH2 0x2BAC SWAP2 SWAP1 PUSH2 0x58A1 JUMP JUMPDEST SWAP1 DUP2 MSTORE PUSH1 0x20 ADD PUSH1 0x40 MLOAD DUP1 SWAP2 SUB SWAP1 KECCAK256 PUSH1 0x0 SWAP1 SLOAD SWAP1 PUSH2 0x100 EXP SWAP1 DIV PUSH20 0xFFFFFFFFFFFFFFFFFFFFFFFFFFFFFFFFFFFFFFFF AND PUSH20 0xFFFFFFFFFFFFFFFFFFFFFFFFFFFFFFFFFFFFFFFF AND PUSH4 0x70A08231 ADDRESS PUSH1 0x40 MLOAD DUP3 PUSH4 0xFFFFFFFF AND PUSH1 0xE0 SHL DUP2 MSTORE PUSH1 0x4 ADD PUSH2 0x2C13 SWAP2 SWAP1 PUSH2 0x5C80 JUMP JUMPDEST PUSH1 0x20 PUSH1 0x40 MLOAD DUP1 DUP4 SUB DUP2 DUP7 GAS STATICCALL ISZERO DUP1 ISZERO PUSH2 0x2C30 JUMPI RETURNDATASIZE PUSH1 0x0 DUP1 RETURNDATACOPY RETURNDATASIZE PUSH1 0x0 REVERT JUMPDEST POP POP POP POP PUSH1 0x40 MLOAD RETURNDATASIZE PUSH1 0x1F NOT PUSH1 0x1F DUP3 ADD AND DUP3 ADD DUP1 PUSH1 0x40 MSTORE POP DUP2 ADD SWAP1 PUSH2 0x2C54 SWAP2 SWAP1 PUSH2 0x5CB0 JUMP JUMPDEST SWAP1 DUP1 PUSH1 0x1 DUP2 SLOAD ADD DUP1 DUP3 SSTORE DUP1 SWAP2 POP POP PUSH1 0x1 SWAP1 SUB SWAP1 PUSH1 0x0 MSTORE PUSH1 0x20 PUSH1 0x0 KECCAK256 ADD PUSH1 0x0 SWAP1 SWAP2 SWAP1 SWAP2 SWAP1 SWAP2 POP SSTORE POP JUMPDEST PUSH1 0x0 PUSH20 0xFFFFFFFFFFFFFFFFFFFFFFFFFFFFFFFFFFFFFFFF AND PUSH1 0xA DUP6 DUP4 DUP2 MLOAD DUP2 LT PUSH2 0x2CA9 JUMPI PUSH2 0x2CA8 PUSH2 0x5836 JUMP JUMPDEST JUMPDEST PUSH1 0x20 MUL PUSH1 0x20 ADD ADD MLOAD PUSH1 0x40 MLOAD PUSH2 0x2CBE SWAP2 SWAP1 PUSH2 0x58A1 JUMP JUMPDEST SWAP1 DUP2 MSTORE PUSH1 0x20 ADD PUSH1 0x40 MLOAD DUP1 SWAP2 SUB SWAP1 KECCAK256 PUSH1 0x0 SWAP1 SLOAD SWAP1 PUSH2 0x100 EXP SWAP1 DIV PUSH20 0xFFFFFFFFFFFFFFFFFFFFFFFFFFFFFFFFFFFFFFFF AND PUSH20 0xFFFFFFFFFFFFFFFFFFFFFFFFFFFFFFFFFFFFFFFF AND EQ PUSH2 0x2F35 JUMPI PUSH1 0x0 PUSH1 0x64 DUP5 DUP4 DUP2 MLOAD DUP2 LT PUSH2 0x2D1F JUMPI PUSH2 0x2D1E PUSH2 0x5836 JUMP JUMPDEST JUMPDEST PUSH1 0x20 MUL PUSH1 0x20 ADD ADD MLOAD PUSH1 0x7 SLOAD PUSH2 0x2D34 SWAP2 SWAP1 PUSH2 0x568E JUMP JUMPDEST PUSH2 0x2D3E SWAP2 SWAP1 PUSH2 0x565D JUMP JUMPDEST SWAP1 POP PUSH1 0xA DUP6 DUP4 DUP2 MLOAD DUP2 LT PUSH2 0x2D55 JUMPI PUSH2 0x2D54 PUSH2 0x5836 JUMP JUMPDEST JUMPDEST PUSH1 0x20 MUL PUSH1 0x20 ADD ADD MLOAD PUSH1 0x40 MLOAD PUSH2 0x2D6A SWAP2 SWAP1 PUSH2 0x58A1 JUMP JUMPDEST SWAP1 DUP2 MSTORE PUSH1 0x20 ADD PUSH1 0x40 MLOAD DUP1 SWAP2 SUB SWAP1 KECCAK256 PUSH1 0x0 SWAP1 SLOAD SWAP1 PUSH2 0x100 EXP SWAP1 DIV PUSH20 0xFFFFFFFFFFFFFFFFFFFFFFFFFFFFFFFFFFFFFFFF AND PUSH20 0xFFFFFFFFFFFFFFFFFFFFFFFFFFFFFFFFFFFFFFFF AND PUSH4 0x40C10F19 ADDRESS DUP4 PUSH1 0x40 MLOAD DUP4 PUSH4 0xFFFFFFFF AND PUSH1 0xE0 SHL DUP2 MSTORE PUSH1 0x4 ADD PUSH2 0x2DD3 SWAP3 SWAP2 SWAP1 PUSH2 0x5CDD JUMP JUMPDEST PUSH1 0x0 PUSH1 0x40 MLOAD DUP1 DUP4 SUB DUP2 PUSH1 0x0 DUP8 DUP1 EXTCODESIZE ISZERO DUP1 ISZERO PUSH2 0x2DED JUMPI PUSH1 0x0 DUP1 REVERT JUMPDEST POP GAS CALL ISZERO DUP1 ISZERO PUSH2 0x2E01 JUMPI RETURNDATASIZE PUSH1 0x0 DUP1 RETURNDATACOPY RETURNDATASIZE PUSH1 0x0 REVERT JUMPDEST POP POP POP POP PUSH1 0xC PUSH1 0x1 PUSH1 0xC DUP1 SLOAD SWAP1 POP PUSH2 0x2E19 SWAP2 SWAP1 PUSH2 0x56D0 JUMP JUMPDEST DUP2 SLOAD DUP2 LT PUSH2 0x2E2A JUMPI PUSH2 0x2E29 PUSH2 0x5836 JUMP JUMPDEST JUMPDEST SWAP1 PUSH1 0x0 MSTORE PUSH1 0x20 PUSH1 0x0 KECCAK256 SWAP1 PUSH1 0xC MUL ADD PUSH1 0x5 ADD PUSH1 0xA DUP7 DUP5 DUP2 MLOAD DUP2 LT PUSH2 0x2E50 JUMPI PUSH2 0x2E4F PUSH2 0x5836 JUMP JUMPDEST JUMPDEST PUSH1 0x20 MUL PUSH1 0x20 ADD ADD MLOAD PUSH1 0x40 MLOAD PUSH2 0x2E65 SWAP2 SWAP1 PUSH2 0x58A1 JUMP JUMPDEST SWAP1 DUP2 MSTORE PUSH1 0x20 ADD PUSH1 0x40 MLOAD DUP1 SWAP2 SUB SWAP1 KECCAK256 PUSH1 0x0 SWAP1 SLOAD SWAP1 PUSH2 0x100 EXP SWAP1 DIV PUSH20 0xFFFFFFFFFFFFFFFFFFFFFFFFFFFFFFFFFFFFFFFF AND PUSH20 0xFFFFFFFFFFFFFFFFFFFFFFFFFFFFFFFFFFFFFFFF AND PUSH4 0x70A08231 ADDRESS PUSH1 0x40 MLOAD DUP3 PUSH4 0xFFFFFFFF AND PUSH1 0xE0 SHL DUP2 MSTORE PUSH1 0x4 ADD PUSH2 0x2ECC SWAP2 SWAP1 PUSH2 0x5C80 JUMP JUMPDEST PUSH1 0x20 PUSH1 0x40 MLOAD DUP1 DUP4 SUB DUP2 DUP7 GAS STATICCALL ISZERO DUP1 ISZERO PUSH2 0x2EE9 JUMPI RETURNDATASIZE PUSH1 0x0 DUP1 RETURNDATACOPY RETURNDATASIZE PUSH1 0x0 REVERT JUMPDEST POP POP POP POP PUSH1 0x40 MLOAD RETURNDATASIZE PUSH1 0x1F NOT PUSH1 0x1F DUP3 ADD AND DUP3 ADD DUP1 PUSH1 0x40 MSTORE POP DUP2 ADD SWAP1 PUSH2 0x2F0D SWAP2 SWAP1 PUSH2 0x5CB0 JUMP JUMPDEST SWAP1 DUP1 PUSH1 0x1 DUP2 SLOAD ADD DUP1 DUP3 SSTORE DUP1 SWAP2 POP POP PUSH1 0x1 SWAP1 SUB SWAP1 PUSH1 0x0 MSTORE PUSH1 0x20 PUSH1 0x0 KECCAK256 ADD PUSH1 0x0 SWAP1 SWAP2 SWAP1 SWAP2 SWAP1 SWAP2 POP SSTORE POP JUMPDEST JUMPDEST JUMPDEST DUP1 DUP1 PUSH2 0x2F42 SWAP1 PUSH2 0x5B36 JUMP JUMPDEST SWAP2 POP POP PUSH2 0x2660 JUMP JUMPDEST POP PUSH1 0x0 PUSH1 0xC PUSH1 0x1 DUP2 PUSH1 0x1 DUP2 SLOAD ADD DUP1 DUP3 SSTORE DUP1 SWAP2 POP POP SUB SWAP1 PUSH1 0x0 MSTORE PUSH1 0x20 PUSH1 0x0 KECCAK256 SWAP1 PUSH1 0xC MUL ADD SWAP1 POP POP JUMPDEST PUSH1 0x1 PUSH1 0xC DUP1 SLOAD SWAP1 POP SUB PUSH2 0x39F1 JUMPI PUSH20 0xC778417E063141139FCE010982780140AA0CD5AB PUSH20 0xFFFFFFFFFFFFFFFFFFFFFFFFFFFFFFFFFFFFFFFF AND PUSH4 0xD0E30DB0 SELFBALANCE PUSH1 0x40 MLOAD DUP3 PUSH4 0xFFFFFFFF AND PUSH1 0xE0 SHL DUP2 MSTORE PUSH1 0x4 ADD PUSH1 0x0 PUSH1 0x40 MLOAD DUP1 DUP4 SUB DUP2 DUP6 DUP9 DUP1 EXTCODESIZE ISZERO DUP1 ISZERO PUSH2 0x2FDA JUMPI PUSH1 0x0 DUP1 REVERT JUMPDEST POP GAS CALL ISZERO DUP1 ISZERO PUSH2 0x2FEE JUMPI RETURNDATASIZE PUSH1 0x0 DUP1 RETURNDATACOPY RETURNDATASIZE PUSH1 0x0 REVERT JUMPDEST POP POP POP POP POP PUSH20 0xC778417E063141139FCE010982780140AA0CD5AB PUSH20 0xFFFFFFFFFFFFFFFFFFFFFFFFFFFFFFFFFFFFFFFF AND PUSH4 0x70A08231 ADDRESS PUSH1 0x40 MLOAD DUP3 PUSH4 0xFFFFFFFF AND PUSH1 0xE0 SHL DUP2 MSTORE PUSH1 0x4 ADD PUSH2 0x3040 SWAP2 SWAP1 PUSH2 0x5C80 JUMP JUMPDEST PUSH1 0x20 PUSH1 0x40 MLOAD DUP1 DUP4 SUB DUP2 PUSH1 0x0 DUP8 GAS CALL ISZERO DUP1 ISZERO PUSH2 0x305F JUMPI RETURNDATASIZE PUSH1 0x0 DUP1 RETURNDATACOPY RETURNDATASIZE PUSH1 0x0 REVERT JUMPDEST POP POP POP POP PUSH1 0x40 MLOAD RETURNDATASIZE PUSH1 0x1F NOT PUSH1 0x1F DUP3 ADD AND DUP3 ADD DUP1 PUSH1 0x40 MSTORE POP DUP2 ADD SWAP1 PUSH2 0x3083 SWAP2 SWAP1 PUSH2 0x5CB0 JUMP JUMPDEST PUSH1 0x7 DUP2 SWAP1 SSTORE POP TIMESTAMP PUSH1 0xC PUSH1 0x1 PUSH1 0xC DUP1 SLOAD SWAP1 POP PUSH2 0x309E SWAP2 SWAP1 PUSH2 0x56D0 JUMP JUMPDEST DUP2 SLOAD DUP2 LT PUSH2 0x30AF JUMPI PUSH2 0x30AE PUSH2 0x5836 JUMP JUMPDEST JUMPDEST SWAP1 PUSH1 0x0 MSTORE PUSH1 0x20 PUSH1 0x0 KECCAK256 SWAP1 PUSH1 0xC MUL ADD PUSH1 0x0 ADD DUP2 SWAP1 SSTORE POP PUSH1 0x7 SLOAD PUSH1 0xC PUSH1 0x1 PUSH1 0xC DUP1 SLOAD SWAP1 POP PUSH2 0x30DB SWAP2 SWAP1 PUSH2 0x56D0 JUMP JUMPDEST DUP2 SLOAD DUP2 LT PUSH2 0x30EC JUMPI PUSH2 0x30EB PUSH2 0x5836 JUMP JUMPDEST JUMPDEST SWAP1 PUSH1 0x0 MSTORE PUSH1 0x20 PUSH1 0x0 KECCAK256 SWAP1 PUSH1 0xC MUL ADD PUSH1 0x2 ADD DUP2 SWAP1 SSTORE POP PUSH1 0x0 JUMPDEST DUP4 MLOAD DUP2 LT ISZERO PUSH2 0x39CA JUMPI DUP3 DUP2 DUP2 MLOAD DUP2 LT PUSH2 0x3120 JUMPI PUSH2 0x311F PUSH2 0x5836 JUMP JUMPDEST JUMPDEST PUSH1 0x20 MUL PUSH1 0x20 ADD ADD MLOAD PUSH1 0xB DUP6 DUP4 DUP2 MLOAD DUP2 LT PUSH2 0x313D JUMPI PUSH2 0x313C PUSH2 0x5836 JUMP JUMPDEST JUMPDEST PUSH1 0x20 MUL PUSH1 0x20 ADD ADD MLOAD PUSH1 0x40 MLOAD PUSH2 0x3152 SWAP2 SWAP1 PUSH2 0x58A1 JUMP JUMPDEST SWAP1 DUP2 MSTORE PUSH1 0x20 ADD PUSH1 0x40 MLOAD DUP1 SWAP2 SUB SWAP1 KECCAK256 DUP2 SWAP1 SSTORE POP PUSH1 0xC PUSH1 0x1 PUSH1 0xC DUP1 SLOAD SWAP1 POP PUSH2 0x3178 SWAP2 SWAP1 PUSH2 0x56D0 JUMP JUMPDEST DUP2 SLOAD DUP2 LT PUSH2 0x3189 JUMPI PUSH2 0x3188 PUSH2 0x5836 JUMP JUMPDEST JUMPDEST SWAP1 PUSH1 0x0 MSTORE PUSH1 0x20 PUSH1 0x0 KECCAK256 SWAP1 PUSH1 0xC MUL ADD PUSH1 0x6 ADD DUP4 DUP3 DUP2 MLOAD DUP2 LT PUSH2 0x31AD JUMPI PUSH2 0x31AC PUSH2 0x5836 JUMP JUMPDEST JUMPDEST PUSH1 0x20 MUL PUSH1 0x20 ADD ADD MLOAD SWAP1 DUP1 PUSH1 0x1 DUP2 SLOAD ADD DUP1 DUP3 SSTORE DUP1 SWAP2 POP POP PUSH1 0x1 SWAP1 SUB SWAP1 PUSH1 0x0 MSTORE PUSH1 0x20 PUSH1 0x0 KECCAK256 ADD PUSH1 0x0 SWAP1 SWAP2 SWAP1 SWAP2 SWAP1 SWAP2 POP SSTORE PUSH1 0xC PUSH1 0x1 PUSH1 0xC DUP1 SLOAD SWAP1 POP PUSH2 0x31EF SWAP2 SWAP1 PUSH2 0x56D0 JUMP JUMPDEST DUP2 SLOAD DUP2 LT PUSH2 0x3200 JUMPI PUSH2 0x31FF PUSH2 0x5836 JUMP JUMPDEST JUMPDEST SWAP1 PUSH1 0x0 MSTORE PUSH1 0x20 PUSH1 0x0 KECCAK256 SWAP1 PUSH1 0xC MUL ADD PUSH1 0x4 ADD DUP5 DUP3 DUP2 MLOAD DUP2 LT PUSH2 0x3224 JUMPI PUSH2 0x3223 PUSH2 0x5836 JUMP JUMPDEST JUMPDEST PUSH1 0x20 MUL PUSH1 0x20 ADD ADD MLOAD SWAP1 DUP1 PUSH1 0x1 DUP2 SLOAD ADD DUP1 DUP3 SSTORE DUP1 SWAP2 POP POP PUSH1 0x1 SWAP1 SUB SWAP1 PUSH1 0x0 MSTORE PUSH1 0x20 PUSH1 0x0 KECCAK256 ADD PUSH1 0x0 SWAP1 SWAP2 SWAP1 SWAP2 SWAP1 SWAP2 POP SWAP1 DUP2 PUSH2 0x325D SWAP2 SWAP1 PUSH2 0x5A64 JUMP JUMPDEST POP PUSH1 0x0 DUP4 DUP3 DUP2 MLOAD DUP2 LT PUSH2 0x3273 JUMPI PUSH2 0x3272 PUSH2 0x5836 JUMP JUMPDEST JUMPDEST PUSH1 0x20 MUL PUSH1 0x20 ADD ADD MLOAD SUB PUSH2 0x32E3 JUMPI PUSH1 0xC PUSH1 0x1 PUSH1 0xC DUP1 SLOAD SWAP1 POP PUSH2 0x3294 SWAP2 SWAP1 PUSH2 0x56D0 JUMP JUMPDEST DUP2 SLOAD DUP2 LT PUSH2 0x32A5 JUMPI PUSH2 0x32A4 PUSH2 0x5836 JUMP JUMPDEST JUMPDEST SWAP1 PUSH1 0x0 MSTORE PUSH1 0x20 PUSH1 0x0 KECCAK256 SWAP1 PUSH1 0xC MUL ADD PUSH1 0x5 ADD PUSH1 0x0 SWAP1 DUP1 PUSH1 0x1 DUP2 SLOAD ADD DUP1 DUP3 SSTORE DUP1 SWAP2 POP POP PUSH1 0x1 SWAP1 SUB SWAP1 PUSH1 0x0 MSTORE PUSH1 0x20 PUSH1 0x0 KECCAK256 ADD PUSH1 0x0 SWAP1 SWAP2 SWAP1 SWAP2 SWAP1 SWAP2 POP SSTORE PUSH2 0x39B7 JUMP JUMPDEST PUSH20 0xC778417E063141139FCE010982780140AA0CD5AB PUSH20 0xFFFFFFFFFFFFFFFFFFFFFFFFFFFFFFFFFFFFFFFF AND PUSH1 0x9 DUP6 DUP4 DUP2 MLOAD DUP2 LT PUSH2 0x3323 JUMPI PUSH2 0x3322 PUSH2 0x5836 JUMP JUMPDEST JUMPDEST PUSH1 0x20 MUL PUSH1 0x20 ADD ADD MLOAD PUSH1 0x40 MLOAD PUSH2 0x3338 SWAP2 SWAP1 PUSH2 0x58A1 JUMP JUMPDEST SWAP1 DUP2 MSTORE PUSH1 0x20 ADD PUSH1 0x40 MLOAD DUP1 SWAP2 SUB SWAP1 KECCAK256 PUSH1 0x0 SWAP1 SLOAD SWAP1 PUSH2 0x100 EXP SWAP1 DIV PUSH20 0xFFFFFFFFFFFFFFFFFFFFFFFFFFFFFFFFFFFFFFFF AND PUSH20 0xFFFFFFFFFFFFFFFFFFFFFFFFFFFFFFFFFFFFFFFF AND SUB PUSH2 0x3419 JUMPI PUSH1 0x0 PUSH1 0x64 DUP5 DUP4 DUP2 MLOAD DUP2 LT PUSH2 0x3399 JUMPI PUSH2 0x3398 PUSH2 0x5836 JUMP JUMPDEST JUMPDEST PUSH1 0x20 MUL PUSH1 0x20 ADD ADD MLOAD PUSH1 0x7 SLOAD PUSH2 0x33AE SWAP2 SWAP1 PUSH2 0x568E JUMP JUMPDEST PUSH2 0x33B8 SWAP2 SWAP1 PUSH2 0x565D JUMP JUMPDEST SWAP1 POP PUSH1 0xC PUSH1 0x1 PUSH1 0xC DUP1 SLOAD SWAP1 POP PUSH2 0x33CE SWAP2 SWAP1 PUSH2 0x56D0 JUMP JUMPDEST DUP2 SLOAD DUP2 LT PUSH2 0x33DF JUMPI PUSH2 0x33DE PUSH2 0x5836 JUMP JUMPDEST JUMPDEST SWAP1 PUSH1 0x0 MSTORE PUSH1 0x20 PUSH1 0x0 KECCAK256 SWAP1 PUSH1 0xC MUL ADD PUSH1 0x5 ADD DUP2 SWAP1 DUP1 PUSH1 0x1 DUP2 SLOAD ADD DUP1 DUP3 SSTORE DUP1 SWAP2 POP POP PUSH1 0x1 SWAP1 SUB SWAP1 PUSH1 0x0 MSTORE PUSH1 0x20 PUSH1 0x0 KECCAK256 ADD PUSH1 0x0 SWAP1 SWAP2 SWAP1 SWAP2 SWAP1 SWAP2 POP SSTORE POP JUMPDEST PUSH1 0x0 DUP4 DUP3 DUP2 MLOAD DUP2 LT PUSH2 0x342E JUMPI PUSH2 0x342D PUSH2 0x5836 JUMP JUMPDEST JUMPDEST PUSH1 0x20 MUL PUSH1 0x20 ADD ADD MLOAD EQ ISZERO DUP1 ISZERO PUSH2 0x3484 JUMPI POP DUP2 DUP5 DUP3 DUP2 MLOAD DUP2 LT PUSH2 0x3453 JUMPI PUSH2 0x3452 PUSH2 0x5836 JUMP JUMPDEST JUMPDEST PUSH1 0x20 MUL PUSH1 0x20 ADD ADD MLOAD PUSH1 0x40 MLOAD PUSH1 0x20 ADD PUSH2 0x346B SWAP2 SWAP1 PUSH2 0x58A1 JUMP JUMPDEST PUSH1 0x40 MLOAD PUSH1 0x20 DUP2 DUP4 SUB SUB DUP2 MSTORE SWAP1 PUSH1 0x40 MSTORE DUP1 MLOAD SWAP1 PUSH1 0x20 ADD KECCAK256 EQ ISZERO JUMPDEST ISZERO PUSH2 0x39B6 JUMPI PUSH1 0x0 PUSH20 0xFFFFFFFFFFFFFFFFFFFFFFFFFFFFFFFFFFFFFFFF AND PUSH1 0x9 DUP6 DUP4 DUP2 MLOAD DUP2 LT PUSH2 0x34B6 JUMPI PUSH2 0x34B5 PUSH2 0x5836 JUMP JUMPDEST JUMPDEST PUSH1 0x20 MUL PUSH1 0x20 ADD ADD MLOAD PUSH1 0x40 MLOAD PUSH2 0x34CB SWAP2 SWAP1 PUSH2 0x58A1 JUMP JUMPDEST SWAP1 DUP2 MSTORE PUSH1 0x20 ADD PUSH1 0x40 MLOAD DUP1 SWAP2 SUB SWAP1 KECCAK256 PUSH1 0x0 SWAP1 SLOAD SWAP1 PUSH2 0x100 EXP SWAP1 DIV PUSH20 0xFFFFFFFFFFFFFFFFFFFFFFFFFFFFFFFFFFFFFFFF AND PUSH20 0xFFFFFFFFFFFFFFFFFFFFFFFFFFFFFFFFFFFFFFFF AND EQ PUSH2 0x36FB JUMPI PUSH1 0x0 PUSH1 0x64 DUP5 DUP4 DUP2 MLOAD DUP2 LT PUSH2 0x352C JUMPI PUSH2 0x352B PUSH2 0x5836 JUMP JUMPDEST JUMPDEST PUSH1 0x20 MUL PUSH1 0x20 ADD ADD MLOAD PUSH1 0x7 SLOAD PUSH2 0x3541 SWAP2 SWAP1 PUSH2 0x568E JUMP JUMPDEST PUSH2 0x354B SWAP2 SWAP1 PUSH2 0x565D JUMP JUMPDEST SWAP1 POP PUSH2 0x35C7 PUSH20 0xC778417E063141139FCE010982780140AA0CD5AB PUSH1 0x9 DUP8 DUP6 DUP2 MLOAD DUP2 LT PUSH2 0x357A JUMPI PUSH2 0x3579 PUSH2 0x5836 JUMP JUMPDEST JUMPDEST PUSH1 0x20 MUL PUSH1 0x20 ADD ADD MLOAD PUSH1 0x40 MLOAD PUSH2 0x358F SWAP2 SWAP1 PUSH2 0x58A1 JUMP JUMPDEST SWAP1 DUP2 MSTORE PUSH1 0x20 ADD PUSH1 0x40 MLOAD DUP1 SWAP2 SUB SWAP1 KECCAK256 PUSH1 0x0 SWAP1 SLOAD SWAP1 PUSH2 0x100 EXP SWAP1 DIV PUSH20 0xFFFFFFFFFFFFFFFFFFFFFFFFFFFFFFFFFFFFFFFF AND DUP4 PUSH1 0x0 ADDRESS PUSH2 0x39F6 JUMP JUMPDEST PUSH1 0xC PUSH1 0x1 PUSH1 0xC DUP1 SLOAD SWAP1 POP PUSH2 0x35DB SWAP2 SWAP1 PUSH2 0x56D0 JUMP JUMPDEST DUP2 SLOAD DUP2 LT PUSH2 0x35EC JUMPI PUSH2 0x35EB PUSH2 0x5836 JUMP JUMPDEST JUMPDEST SWAP1 PUSH1 0x0 MSTORE PUSH1 0x20 PUSH1 0x0 KECCAK256 SWAP1 PUSH1 0xC MUL ADD PUSH1 0x5 ADD PUSH1 0x9 DUP7 DUP5 DUP2 MLOAD DUP2 LT PUSH2 0x3612 JUMPI PUSH2 0x3611 PUSH2 0x5836 JUMP JUMPDEST JUMPDEST PUSH1 0x20 MUL PUSH1 0x20 ADD ADD MLOAD PUSH1 0x40 MLOAD PUSH2 0x3627 SWAP2 SWAP1 PUSH2 0x58A1 JUMP JUMPDEST SWAP1 DUP2 MSTORE PUSH1 0x20 ADD PUSH1 0x40 MLOAD DUP1 SWAP2 SUB SWAP1 KECCAK256 PUSH1 0x0 SWAP1 SLOAD SWAP1 PUSH2 0x100 EXP SWAP1 DIV PUSH20 0xFFFFFFFFFFFFFFFFFFFFFFFFFFFFFFFFFFFFFFFF AND PUSH20 0xFFFFFFFFFFFFFFFFFFFFFFFFFFFFFFFFFFFFFFFF AND PUSH4 0x70A08231 ADDRESS PUSH1 0x40 MLOAD DUP3 PUSH4 0xFFFFFFFF AND PUSH1 0xE0 SHL DUP2 MSTORE PUSH1 0x4 ADD PUSH2 0x368E SWAP2 SWAP1 PUSH2 0x5C80 JUMP JUMPDEST PUSH1 0x20 PUSH1 0x40 MLOAD DUP1 DUP4 SUB DUP2 DUP7 GAS STATICCALL ISZERO DUP1 ISZERO PUSH2 0x36AB JUMPI RETURNDATASIZE PUSH1 0x0 DUP1 RETURNDATACOPY RETURNDATASIZE PUSH1 0x0 REVERT JUMPDEST POP POP POP POP PUSH1 0x40 MLOAD RETURNDATASIZE PUSH1 0x1F NOT PUSH1 0x1F DUP3 ADD AND DUP3 ADD DUP1 PUSH1 0x40 MSTORE POP DUP2 ADD SWAP1 PUSH2 0x36CF SWAP2 SWAP1 PUSH2 0x5CB0 JUMP JUMPDEST SWAP1 DUP1 PUSH1 0x1 DUP2 SLOAD ADD DUP1 DUP3 SSTORE DUP1 SWAP2 POP POP PUSH1 0x1 SWAP1 SUB SWAP1 PUSH1 0x0 MSTORE PUSH1 0x20 PUSH1 0x0 KECCAK256 ADD PUSH1 0x0 SWAP1 SWAP2 SWAP1 SWAP2 SWAP1 SWAP2 POP SSTORE POP PUSH2 0x39B5 JUMP JUMPDEST PUSH1 0x0 PUSH20 0xFFFFFFFFFFFFFFFFFFFFFFFFFFFFFFFFFFFFFFFF AND PUSH1 0xA DUP6 DUP4 DUP2 MLOAD DUP2 LT PUSH2 0x3728 JUMPI PUSH2 0x3727 PUSH2 0x5836 JUMP JUMPDEST JUMPDEST PUSH1 0x20 MUL PUSH1 0x20 ADD ADD MLOAD PUSH1 0x40 MLOAD PUSH2 0x373D SWAP2 SWAP1 PUSH2 0x58A1 JUMP JUMPDEST SWAP1 DUP2 MSTORE PUSH1 0x20 ADD PUSH1 0x40 MLOAD DUP1 SWAP2 SUB SWAP1 KECCAK256 PUSH1 0x0 SWAP1 SLOAD SWAP1 PUSH2 0x100 EXP SWAP1 DIV PUSH20 0xFFFFFFFFFFFFFFFFFFFFFFFFFFFFFFFFFFFFFFFF AND PUSH20 0xFFFFFFFFFFFFFFFFFFFFFFFFFFFFFFFFFFFFFFFF AND EQ PUSH2 0x39B4 JUMPI PUSH1 0x0 PUSH1 0x64 DUP5 DUP4 DUP2 MLOAD DUP2 LT PUSH2 0x379E JUMPI PUSH2 0x379D PUSH2 0x5836 JUMP JUMPDEST JUMPDEST PUSH1 0x20 MUL PUSH1 0x20 ADD ADD MLOAD PUSH1 0x7 SLOAD PUSH2 0x37B3 SWAP2 SWAP1 PUSH2 0x568E JUMP JUMPDEST PUSH2 0x37BD SWAP2 SWAP1 PUSH2 0x565D JUMP JUMPDEST SWAP1 POP PUSH1 0xA DUP6 DUP4 DUP2 MLOAD DUP2 LT PUSH2 0x37D4 JUMPI PUSH2 0x37D3 PUSH2 0x5836 JUMP JUMPDEST JUMPDEST PUSH1 0x20 MUL PUSH1 0x20 ADD ADD MLOAD PUSH1 0x40 MLOAD PUSH2 0x37E9 SWAP2 SWAP1 PUSH2 0x58A1 JUMP JUMPDEST SWAP1 DUP2 MSTORE PUSH1 0x20 ADD PUSH1 0x40 MLOAD DUP1 SWAP2 SUB SWAP1 KECCAK256 PUSH1 0x0 SWAP1 SLOAD SWAP1 PUSH2 0x100 EXP SWAP1 DIV PUSH20 0xFFFFFFFFFFFFFFFFFFFFFFFFFFFFFFFFFFFFFFFF AND PUSH20 0xFFFFFFFFFFFFFFFFFFFFFFFFFFFFFFFFFFFFFFFF AND PUSH4 0x40C10F19 ADDRESS DUP4 PUSH1 0x40 MLOAD DUP4 PUSH4 0xFFFFFFFF AND PUSH1 0xE0 SHL DUP2 MSTORE PUSH1 0x4 ADD PUSH2 0x3852 SWAP3 SWAP2 SWAP1 PUSH2 0x5CDD JUMP JUMPDEST PUSH1 0x0 PUSH1 0x40 MLOAD DUP1 DUP4 SUB DUP2 PUSH1 0x0 DUP8 DUP1 EXTCODESIZE ISZERO DUP1 ISZERO PUSH2 0x386C JUMPI PUSH1 0x0 DUP1 REVERT JUMPDEST POP GAS CALL ISZERO DUP1 ISZERO PUSH2 0x3880 JUMPI RETURNDATASIZE PUSH1 0x0 DUP1 RETURNDATACOPY RETURNDATASIZE PUSH1 0x0 REVERT JUMPDEST POP POP POP POP PUSH1 0xC PUSH1 0x1 PUSH1 0xC DUP1 SLOAD SWAP1 POP PUSH2 0x3898 SWAP2 SWAP1 PUSH2 0x56D0 JUMP JUMPDEST DUP2 SLOAD DUP2 LT PUSH2 0x38A9 JUMPI PUSH2 0x38A8 PUSH2 0x5836 JUMP JUMPDEST JUMPDEST SWAP1 PUSH1 0x0 MSTORE PUSH1 0x20 PUSH1 0x0 KECCAK256 SWAP1 PUSH1 0xC MUL ADD PUSH1 0x5 ADD PUSH1 0xA DUP7 DUP5 DUP2 MLOAD DUP2 LT PUSH2 0x38CF JUMPI PUSH2 0x38CE PUSH2 0x5836 JUMP JUMPDEST JUMPDEST PUSH1 0x20 MUL PUSH1 0x20 ADD ADD MLOAD PUSH1 0x40 MLOAD PUSH2 0x38E4 SWAP2 SWAP1 PUSH2 0x58A1 JUMP JUMPDEST SWAP1 DUP2 MSTORE PUSH1 0x20 ADD PUSH1 0x40 MLOAD DUP1 SWAP2 SUB SWAP1 KECCAK256 PUSH1 0x0 SWAP1 SLOAD SWAP1 PUSH2 0x100 EXP SWAP1 DIV PUSH20 0xFFFFFFFFFFFFFFFFFFFFFFFFFFFFFFFFFFFFFFFF AND PUSH20 0xFFFFFFFFFFFFFFFFFFFFFFFFFFFFFFFFFFFFFFFF AND PUSH4 0x70A08231 ADDRESS PUSH1 0x40 MLOAD DUP3 PUSH4 0xFFFFFFFF AND PUSH1 0xE0 SHL DUP2 MSTORE PUSH1 0x4 ADD PUSH2 0x394B SWAP2 SWAP1 PUSH2 0x5C80 JUMP JUMPDEST PUSH1 0x20 PUSH1 0x40 MLOAD DUP1 DUP4 SUB DUP2 DUP7 GAS STATICCALL ISZERO DUP1 ISZERO PUSH2 0x3968 JUMPI RETURNDATASIZE PUSH1 0x0 DUP1 RETURNDATACOPY RETURNDATASIZE PUSH1 0x0 REVERT JUMPDEST POP POP POP POP PUSH1 0x40 MLOAD RETURNDATASIZE PUSH1 0x1F NOT PUSH1 0x1F DUP3 ADD AND DUP3 ADD DUP1 PUSH1 0x40 MSTORE POP DUP2 ADD SWAP1 PUSH2 0x398C SWAP2 SWAP1 PUSH2 0x5CB0 JUMP JUMPDEST SWAP1 DUP1 PUSH1 0x1 DUP2 SLOAD ADD DUP1 DUP3 SSTORE DUP1 SWAP2 POP POP PUSH1 0x1 SWAP1 SUB SWAP1 PUSH1 0x0 MSTORE PUSH1 0x20 PUSH1 0x0 KECCAK256 ADD PUSH1 0x0 SWAP1 SWAP2 SWAP1 SWAP2 SWAP1 SWAP2 POP SSTORE POP JUMPDEST JUMPDEST JUMPDEST JUMPDEST DUP1 DUP1 PUSH2 0x39C2 SWAP1 PUSH2 0x5B36 JUMP JUMPDEST SWAP2 POP POP PUSH2 0x3104 JUMP JUMPDEST POP PUSH1 0x0 PUSH1 0xC PUSH1 0x1 DUP2 PUSH1 0x1 DUP2 SLOAD ADD DUP1 DUP3 SSTORE DUP1 SWAP2 POP POP SUB SWAP1 PUSH1 0x0 MSTORE PUSH1 0x20 PUSH1 0x0 KECCAK256 SWAP1 PUSH1 0xC MUL ADD SWAP1 POP POP JUMPDEST POP POP POP JUMP JUMPDEST DUP5 PUSH20 0xFFFFFFFFFFFFFFFFFFFFFFFFFFFFFFFFFFFFFFFF AND PUSH4 0x95EA7B3 PUSH20 0x7A250D5630B4CF539739DF2C5DACB4C659F2488D DUP6 PUSH1 0x40 MLOAD DUP4 PUSH4 0xFFFFFFFF AND PUSH1 0xE0 SHL DUP2 MSTORE PUSH1 0x4 ADD PUSH2 0x3A45 SWAP3 SWAP2 SWAP1 PUSH2 0x5CDD JUMP JUMPDEST PUSH1 0x20 PUSH1 0x40 MLOAD DUP1 DUP4 SUB DUP2 PUSH1 0x0 DUP8 GAS CALL ISZERO DUP1 ISZERO PUSH2 0x3A64 JUMPI RETURNDATASIZE PUSH1 0x0 DUP1 RETURNDATACOPY RETURNDATASIZE PUSH1 0x0 REVERT JUMPDEST POP POP POP POP PUSH1 0x40 MLOAD RETURNDATASIZE PUSH1 0x1F NOT PUSH1 0x1F DUP3 ADD AND DUP3 ADD DUP1 PUSH1 0x40 MSTORE POP DUP2 ADD SWAP1 PUSH2 0x3A88 SWAP2 SWAP1 PUSH2 0x5D32 JUMP JUMPDEST POP PUSH1 0x60 PUSH20 0xC778417E063141139FCE010982780140AA0CD5AB PUSH20 0xFFFFFFFFFFFFFFFFFFFFFFFFFFFFFFFFFFFFFFFF AND DUP7 PUSH20 0xFFFFFFFFFFFFFFFFFFFFFFFFFFFFFFFFFFFFFFFF AND EQ DUP1 PUSH2 0x3B18 JUMPI POP PUSH20 0xC778417E063141139FCE010982780140AA0CD5AB PUSH20 0xFFFFFFFFFFFFFFFFFFFFFFFFFFFFFFFFFFFFFFFF AND DUP6 PUSH20 0xFFFFFFFFFFFFFFFFFFFFFFFFFFFFFFFFFFFFFFFF AND EQ JUMPDEST ISZERO PUSH2 0x3C0C JUMPI PUSH1 0x2 PUSH8 0xFFFFFFFFFFFFFFFF DUP2 GT ISZERO PUSH2 0x3B38 JUMPI PUSH2 0x3B37 PUSH2 0x4BDD JUMP JUMPDEST JUMPDEST PUSH1 0x40 MLOAD SWAP1 DUP1 DUP3 MSTORE DUP1 PUSH1 0x20 MUL PUSH1 0x20 ADD DUP3 ADD PUSH1 0x40 MSTORE DUP1 ISZERO PUSH2 0x3B66 JUMPI DUP2 PUSH1 0x20 ADD PUSH1 0x20 DUP3 MUL DUP1 CALLDATASIZE DUP4 CALLDATACOPY DUP1 DUP3 ADD SWAP2 POP POP SWAP1 POP JUMPDEST POP SWAP1 POP DUP6 DUP2 PUSH1 0x0 DUP2 MLOAD DUP2 LT PUSH2 0x3B7E JUMPI PUSH2 0x3B7D PUSH2 0x5836 JUMP JUMPDEST JUMPDEST PUSH1 0x20 MUL PUSH1 0x20 ADD ADD SWAP1 PUSH20 0xFFFFFFFFFFFFFFFFFFFFFFFFFFFFFFFFFFFFFFFF AND SWAP1 DUP2 PUSH20 0xFFFFFFFFFFFFFFFFFFFFFFFFFFFFFFFFFFFFFFFF AND DUP2 MSTORE POP POP DUP5 DUP2 PUSH1 0x1 DUP2 MLOAD DUP2 LT PUSH2 0x3BCD JUMPI PUSH2 0x3BCC PUSH2 0x5836 JUMP JUMPDEST JUMPDEST PUSH1 0x20 MUL PUSH1 0x20 ADD ADD SWAP1 PUSH20 0xFFFFFFFFFFFFFFFFFFFFFFFFFFFFFFFFFFFFFFFF AND SWAP1 DUP2 PUSH20 0xFFFFFFFFFFFFFFFFFFFFFFFFFFFFFFFFFFFFFFFF AND DUP2 MSTORE POP POP PUSH2 0x3D5A JUMP JUMPDEST PUSH1 0x3 PUSH8 0xFFFFFFFFFFFFFFFF DUP2 GT ISZERO PUSH2 0x3C27 JUMPI PUSH2 0x3C26 PUSH2 0x4BDD JUMP JUMPDEST JUMPDEST PUSH1 0x40 MLOAD SWAP1 DUP1 DUP3 MSTORE DUP1 PUSH1 0x20 MUL PUSH1 0x20 ADD DUP3 ADD PUSH1 0x40 MSTORE DUP1 ISZERO PUSH2 0x3C55 JUMPI DUP2 PUSH1 0x20 ADD PUSH1 0x20 DUP3 MUL DUP1 CALLDATASIZE DUP4 CALLDATACOPY DUP1 DUP3 ADD SWAP2 POP POP SWAP1 POP JUMPDEST POP SWAP1 POP DUP6 DUP2 PUSH1 0x0 DUP2 MLOAD DUP2 LT PUSH2 0x3C6D JUMPI PUSH2 0x3C6C PUSH2 0x5836 JUMP JUMPDEST JUMPDEST PUSH1 0x20 MUL PUSH1 0x20 ADD ADD SWAP1 PUSH20 0xFFFFFFFFFFFFFFFFFFFFFFFFFFFFFFFFFFFFFFFF AND SWAP1 DUP2 PUSH20 0xFFFFFFFFFFFFFFFFFFFFFFFFFFFFFFFFFFFFFFFF AND DUP2 MSTORE POP POP PUSH20 0xC778417E063141139FCE010982780140AA0CD5AB DUP2 PUSH1 0x1 DUP2 MLOAD DUP2 LT PUSH2 0x3CD0 JUMPI PUSH2 0x3CCF PUSH2 0x5836 JUMP JUMPDEST JUMPDEST PUSH1 0x20 MUL PUSH1 0x20 ADD ADD SWAP1 PUSH20 0xFFFFFFFFFFFFFFFFFFFFFFFFFFFFFFFFFFFFFFFF AND SWAP1 DUP2 PUSH20 0xFFFFFFFFFFFFFFFFFFFFFFFFFFFFFFFFFFFFFFFF AND DUP2 MSTORE POP POP DUP5 DUP2 PUSH1 0x2 DUP2 MLOAD DUP2 LT PUSH2 0x3D1F JUMPI PUSH2 0x3D1E PUSH2 0x5836 JUMP JUMPDEST JUMPDEST PUSH1 0x20 MUL PUSH1 0x20 ADD ADD SWAP1 PUSH20 0xFFFFFFFFFFFFFFFFFFFFFFFFFFFFFFFFFFFFFFFF AND SWAP1 DUP2 PUSH20 0xFFFFFFFFFFFFFFFFFFFFFFFFFFFFFFFFFFFFFFFF AND DUP2 MSTORE POP POP JUMPDEST PUSH20 0x7A250D5630B4CF539739DF2C5DACB4C659F2488D PUSH20 0xFFFFFFFFFFFFFFFFFFFFFFFFFFFFFFFFFFFFFFFF AND PUSH4 0x38ED1739 DUP6 DUP6 DUP5 DUP7 TIMESTAMP PUSH1 0x40 MLOAD DUP7 PUSH4 0xFFFFFFFF AND PUSH1 0xE0 SHL DUP2 MSTORE PUSH1 0x4 ADD PUSH2 0x3DAF SWAP6 SWAP5 SWAP4 SWAP3 SWAP2 SWAP1 PUSH2 0x5E1D JUMP JUMPDEST PUSH1 0x0 PUSH1 0x40 MLOAD DUP1 DUP4 SUB DUP2 PUSH1 0x0 DUP8 GAS CALL ISZERO DUP1 ISZERO PUSH2 0x3DCE JUMPI RETURNDATASIZE PUSH1 0x0 DUP1 RETURNDATACOPY RETURNDATASIZE PUSH1 0x0 REVERT JUMPDEST POP POP POP POP PUSH1 0x40 MLOAD RETURNDATASIZE PUSH1 0x0 DUP3 RETURNDATACOPY RETURNDATASIZE PUSH1 0x1F NOT PUSH1 0x1F DUP3 ADD AND DUP3 ADD DUP1 PUSH1 0x40 MSTORE POP DUP2 ADD SWAP1 PUSH2 0x3DF7 SWAP2 SWAP1 PUSH2 0x5F0E JUMP JUMPDEST POP POP POP POP POP POP POP JUMP JUMPDEST PUSH1 0x0 PUSH1 0x1 PUSH1 0xC DUP1 SLOAD SWAP1 POP PUSH2 0x3E14 SWAP2 SWAP1 PUSH2 0x56D0 JUMP JUMPDEST SWAP1 POP SWAP1 JUMP JUMPDEST PUSH7 0xB1A2BC2EC50000 CALLVALUE LT ISZERO PUSH2 0x3E63 JUMPI PUSH1 0x40 MLOAD PUSH32 0x8C379A000000000000000000000000000000000000000000000000000000000 DUP2 MSTORE PUSH1 0x4 ADD PUSH2 0x3E5A SWAP1 PUSH2 0x5FA3 JUMP JUMPDEST PUSH1 0x40 MLOAD DUP1 SWAP2 SUB SWAP1 REVERT JUMPDEST PUSH1 0x0 PUSH1 0x5 SLOAD SUB PUSH2 0x3E8E JUMPI CALLVALUE PUSH1 0x5 DUP2 SWAP1 SSTORE POP PUSH1 0x5 SLOAD PUSH1 0x6 DUP2 SWAP1 SSTORE POP PUSH2 0x3E89 CALLER PUSH1 0x5 SLOAD PUSH2 0x46C5 JUMP JUMPDEST PUSH2 0x3EF1 JUMP JUMPDEST CALLVALUE PUSH1 0x5 PUSH1 0x0 DUP3 DUP3 SLOAD PUSH2 0x3EA0 SWAP2 SWAP1 PUSH2 0x5704 JUMP JUMPDEST SWAP3 POP POP DUP2 SWAP1 SSTORE POP PUSH1 0x5 SLOAD PUSH1 0x6 DUP2 SWAP1 SSTORE POP PUSH1 0x0 CALLVALUE PUSH1 0x5 SLOAD PUSH2 0x3EC0 SWAP2 SWAP1 PUSH2 0x56D0 JUMP JUMPDEST SWAP1 POP PUSH1 0x0 DUP2 PUSH2 0x3ECD PUSH2 0x6E7 JUMP JUMPDEST CALLVALUE PUSH2 0x3ED8 SWAP2 SWAP1 PUSH2 0x568E JUMP JUMPDEST PUSH2 0x3EE2 SWAP2 SWAP1 PUSH2 0x565D JUMP JUMPDEST SWAP1 POP PUSH2 0x3EEE CALLER DUP3 PUSH2 0x46C5 JUMP JUMPDEST POP POP JUMPDEST JUMP JUMPDEST PUSH1 0x0 CALLER SWAP1 POP SWAP1 JUMP JUMPDEST PUSH1 0x0 PUSH20 0xFFFFFFFFFFFFFFFFFFFFFFFFFFFFFFFFFFFFFFFF AND DUP4 PUSH20 0xFFFFFFFFFFFFFFFFFFFFFFFFFFFFFFFFFFFFFFFF AND SUB PUSH2 0x3F6A JUMPI PUSH1 0x40 MLOAD PUSH32 0x8C379A000000000000000000000000000000000000000000000000000000000 DUP2 MSTORE PUSH1 0x4 ADD PUSH2 0x3F61 SWAP1 PUSH2 0x6035 JUMP JUMPDEST PUSH1 0x40 MLOAD DUP1 SWAP2 SUB SWAP1 REVERT JUMPDEST PUSH1 0x0 PUSH20 0xFFFFFFFFFFFFFFFFFFFFFFFFFFFFFFFFFFFFFFFF AND DUP3 PUSH20 0xFFFFFFFFFFFFFFFFFFFFFFFFFFFFFFFFFFFFFFFF AND SUB PUSH2 0x3FD9 JUMPI PUSH1 0x40 MLOAD PUSH32 0x8C379A000000000000000000000000000000000000000000000000000000000 DUP2 MSTORE PUSH1 0x4 ADD PUSH2 0x3FD0 SWAP1 PUSH2 0x60C7 JUMP JUMPDEST PUSH1 0x40 MLOAD DUP1 SWAP2 SUB SWAP1 REVERT JUMPDEST DUP1 PUSH1 0x1 PUSH1 0x0 DUP6 PUSH20 0xFFFFFFFFFFFFFFFFFFFFFFFFFFFFFFFFFFFFFFFF AND PUSH20 0xFFFFFFFFFFFFFFFFFFFFFFFFFFFFFFFFFFFFFFFF AND DUP2 MSTORE PUSH1 0x20 ADD SWAP1 DUP2 MSTORE PUSH1 0x20 ADD PUSH1 0x0 KECCAK256 PUSH1 0x0 DUP5 PUSH20 0xFFFFFFFFFFFFFFFFFFFFFFFFFFFFFFFFFFFFFFFF AND PUSH20 0xFFFFFFFFFFFFFFFFFFFFFFFFFFFFFFFFFFFFFFFF AND DUP2 MSTORE PUSH1 0x20 ADD SWAP1 DUP2 MSTORE PUSH1 0x20 ADD PUSH1 0x0 KECCAK256 DUP2 SWAP1 SSTORE POP DUP2 PUSH20 0xFFFFFFFFFFFFFFFFFFFFFFFFFFFFFFFFFFFFFFFF AND DUP4 PUSH20 0xFFFFFFFFFFFFFFFFFFFFFFFFFFFFFFFFFFFFFFFF AND PUSH32 0x8C5BE1E5EBEC7D5BD14F71427D1E84F3DD0314C0F7B2291E5B200AC8C7C3B925 DUP4 PUSH1 0x40 MLOAD PUSH2 0x40B7 SWAP2 SWAP1 PUSH2 0x48FB JUMP JUMPDEST PUSH1 0x40 MLOAD DUP1 SWAP2 SUB SWAP1 LOG3 POP POP POP JUMP JUMPDEST PUSH1 0x0 PUSH20 0xFFFFFFFFFFFFFFFFFFFFFFFFFFFFFFFFFFFFFFFF AND DUP3 PUSH20 0xFFFFFFFFFFFFFFFFFFFFFFFFFFFFFFFFFFFFFFFF AND SUB PUSH2 0x4133 JUMPI PUSH1 0x40 MLOAD PUSH32 0x8C379A000000000000000000000000000000000000000000000000000000000 DUP2 MSTORE PUSH1 0x4 ADD PUSH2 0x412A SWAP1 PUSH2 0x6159 JUMP JUMPDEST PUSH1 0x40 MLOAD DUP1 SWAP2 SUB SWAP1 REVERT JUMPDEST PUSH2 0x413F DUP3 PUSH1 0x0 DUP4 PUSH2 0x481B JUMP JUMPDEST PUSH1 0x0 DUP1 PUSH1 0x0 DUP5 PUSH20 0xFFFFFFFFFFFFFFFFFFFFFFFFFFFFFFFFFFFFFFFF AND PUSH20 0xFFFFFFFFFFFFFFFFFFFFFFFFFFFFFFFFFFFFFFFF AND DUP2 MSTORE PUSH1 0x20 ADD SWAP1 DUP2 MSTORE PUSH1 0x20 ADD PUSH1 0x0 KECCAK256 SLOAD SWAP1 POP DUP2 DUP2 LT ISZERO PUSH2 0x41C5 JUMPI PUSH1 0x40 MLOAD PUSH32 0x8C379A000000000000000000000000000000000000000000000000000000000 DUP2 MSTORE PUSH1 0x4 ADD PUSH2 0x41BC SWAP1 PUSH2 0x61EB JUMP JUMPDEST PUSH1 0x40 MLOAD DUP1 SWAP2 SUB SWAP1 REVERT JUMPDEST DUP2 DUP2 SUB PUSH1 0x0 DUP1 DUP6 PUSH20 0xFFFFFFFFFFFFFFFFFFFFFFFFFFFFFFFFFFFFFFFF AND PUSH20 0xFFFFFFFFFFFFFFFFFFFFFFFFFFFFFFFFFFFFFFFF AND DUP2 MSTORE PUSH1 0x20 ADD SWAP1 DUP2 MSTORE PUSH1 0x20 ADD PUSH1 0x0 KECCAK256 DUP2 SWAP1 SSTORE POP DUP2 PUSH1 0x2 PUSH1 0x0 DUP3 DUP3 SLOAD SUB SWAP3 POP POP DUP2 SWAP1 SSTORE POP PUSH1 0x0 PUSH20 0xFFFFFFFFFFFFFFFFFFFFFFFFFFFFFFFFFFFFFFFF AND DUP4 PUSH20 0xFFFFFFFFFFFFFFFFFFFFFFFFFFFFFFFFFFFFFFFF AND PUSH32 0xDDF252AD1BE2C89B69C2B068FC378DAA952BA7F163C4A11628F55A4DF523B3EF DUP5 PUSH1 0x40 MLOAD PUSH2 0x4278 SWAP2 SWAP1 PUSH2 0x48FB JUMP JUMPDEST PUSH1 0x40 MLOAD DUP1 SWAP2 SUB SWAP1 LOG3 PUSH2 0x428C DUP4 PUSH1 0x0 DUP5 PUSH2 0x4820 JUMP JUMPDEST POP POP POP JUMP JUMPDEST PUSH1 0x0 PUSH2 0x429D DUP5 DUP5 PUSH2 0x1C64 JUMP JUMPDEST SWAP1 POP PUSH32 0xFFFFFFFFFFFFFFFFFFFFFFFFFFFFFFFFFFFFFFFFFFFFFFFFFFFFFFFFFFFFFFFF DUP2 EQ PUSH2 0x4317 JUMPI DUP2 DUP2 LT ISZERO PUSH2 0x4309 JUMPI PUSH1 0x40 MLOAD PUSH32 0x8C379A000000000000000000000000000000000000000000000000000000000 DUP2 MSTORE PUSH1 0x4 ADD PUSH2 0x4300 SWAP1 PUSH2 0x6257 JUMP JUMPDEST PUSH1 0x40 MLOAD DUP1 SWAP2 SUB SWAP1 REVERT JUMPDEST PUSH2 0x4316 DUP5 DUP5 DUP5 DUP5 SUB PUSH2 0x3EFB JUMP JUMPDEST JUMPDEST POP POP POP POP JUMP JUMPDEST PUSH1 0x0 PUSH20 0xFFFFFFFFFFFFFFFFFFFFFFFFFFFFFFFFFFFFFFFF AND DUP4 PUSH20 0xFFFFFFFFFFFFFFFFFFFFFFFFFFFFFFFFFFFFFFFF AND SUB PUSH2 0x438C JUMPI PUSH1 0x40 MLOAD PUSH32 0x8C379A000000000000000000000000000000000000000000000000000000000 DUP2 MSTORE PUSH1 0x4 ADD PUSH2 0x4383 SWAP1 PUSH2 0x62E9 JUMP JUMPDEST PUSH1 0x40 MLOAD DUP1 SWAP2 SUB SWAP1 REVERT JUMPDEST PUSH1 0x0 PUSH20 0xFFFFFFFFFFFFFFFFFFFFFFFFFFFFFFFFFFFFFFFF AND DUP3 PUSH20 0xFFFFFFFFFFFFFFFFFFFFFFFFFFFFFFFFFFFFFFFF AND SUB PUSH2 0x43FB JUMPI PUSH1 0x40 MLOAD PUSH32 0x8C379A000000000000000000000000000000000000000000000000000000000 DUP2 MSTORE PUSH1 0x4 ADD PUSH2 0x43F2 SWAP1 PUSH2 0x637B JUMP JUMPDEST PUSH1 0x40 MLOAD DUP1 SWAP2 SUB SWAP1 REVERT JUMPDEST PUSH2 0x4406 DUP4 DUP4 DUP4 PUSH2 0x481B JUMP JUMPDEST PUSH1 0x0 DUP1 PUSH1 0x0 DUP6 PUSH20 0xFFFFFFFFFFFFFFFFFFFFFFFFFFFFFFFFFFFFFFFF AND PUSH20 0xFFFFFFFFFFFFFFFFFFFFFFFFFFFFFFFFFFFFFFFF AND DUP2 MSTORE PUSH1 0x20 ADD SWAP1 DUP2 MSTORE PUSH1 0x20 ADD PUSH1 0x0 KECCAK256 SLOAD SWAP1 POP DUP2 DUP2 LT ISZERO PUSH2 0x448C JUMPI PUSH1 0x40 MLOAD PUSH32 0x8C379A000000000000000000000000000000000000000000000000000000000 DUP2 MSTORE PUSH1 0x4 ADD PUSH2 0x4483 SWAP1 PUSH2 0x640D JUMP JUMPDEST PUSH1 0x40 MLOAD DUP1 SWAP2 SUB SWAP1 REVERT JUMPDEST DUP2 DUP2 SUB PUSH1 0x0 DUP1 DUP7 PUSH20 0xFFFFFFFFFFFFFFFFFFFFFFFFFFFFFFFFFFFFFFFF AND PUSH20 0xFFFFFFFFFFFFFFFFFFFFFFFFFFFFFFFFFFFFFFFF AND DUP2 MSTORE PUSH1 0x20 ADD SWAP1 DUP2 MSTORE PUSH1 0x20 ADD PUSH1 0x0 KECCAK256 DUP2 SWAP1 SSTORE POP DUP2 PUSH1 0x0 DUP1 DUP6 PUSH20 0xFFFFFFFFFFFFFFFFFFFFFFFFFFFFFFFFFFFFFFFF AND PUSH20 0xFFFFFFFFFFFFFFFFFFFFFFFFFFFFFFFFFFFFFFFF AND DUP2 MSTORE PUSH1 0x20 ADD SWAP1 DUP2 MSTORE PUSH1 0x20 ADD PUSH1 0x0 KECCAK256 PUSH1 0x0 DUP3 DUP3 SLOAD ADD SWAP3 POP POP DUP2 SWAP1 SSTORE POP DUP3 PUSH20 0xFFFFFFFFFFFFFFFFFFFFFFFFFFFFFFFFFFFFFFFF AND DUP5 PUSH20 0xFFFFFFFFFFFFFFFFFFFFFFFFFFFFFFFFFFFFFFFF AND PUSH32 0xDDF252AD1BE2C89B69C2B068FC378DAA952BA7F163C4A11628F55A4DF523B3EF DUP5 PUSH1 0x40 MLOAD PUSH2 0x457A SWAP2 SWAP1 PUSH2 0x48FB JUMP JUMPDEST PUSH1 0x40 MLOAD DUP1 SWAP2 SUB SWAP1 LOG3 PUSH2 0x458D DUP5 DUP5 DUP5 PUSH2 0x4820 JUMP JUMPDEST POP POP POP POP JUMP JUMPDEST PUSH2 0x4629 DUP2 PUSH1 0x40 MLOAD PUSH1 0x24 ADD PUSH2 0x45A7 SWAP2 SWAP1 PUSH2 0x48FB JUMP JUMPDEST PUSH1 0x40 MLOAD PUSH1 0x20 DUP2 DUP4 SUB SUB DUP2 MSTORE SWAP1 PUSH1 0x40 MSTORE PUSH32 0xF82C50F100000000000000000000000000000000000000000000000000000000 PUSH28 0xFFFFFFFFFFFFFFFFFFFFFFFFFFFFFFFFFFFFFFFFFFFFFFFFFFFFFFFF NOT AND PUSH1 0x20 DUP3 ADD DUP1 MLOAD PUSH28 0xFFFFFFFFFFFFFFFFFFFFFFFFFFFFFFFFFFFFFFFFFFFFFFFFFFFFFFFF DUP4 DUP2 DUP4 AND OR DUP4 MSTORE POP POP POP POP PUSH2 0x4825 JUMP JUMPDEST POP JUMP JUMPDEST PUSH2 0x46C2 DUP2 PUSH1 0x40 MLOAD PUSH1 0x24 ADD PUSH2 0x4640 SWAP2 SWAP1 PUSH2 0x4A58 JUMP JUMPDEST PUSH1 0x40 MLOAD PUSH1 0x20 DUP2 DUP4 SUB SUB DUP2 MSTORE SWAP1 PUSH1 0x40 MSTORE PUSH32 0x41304FAC00000000000000000000000000000000000000000000000000000000 PUSH28 0xFFFFFFFFFFFFFFFFFFFFFFFFFFFFFFFFFFFFFFFFFFFFFFFFFFFFFFFF NOT AND PUSH1 0x20 DUP3 ADD DUP1 MLOAD PUSH28 0xFFFFFFFFFFFFFFFFFFFFFFFFFFFFFFFFFFFFFFFFFFFFFFFFFFFFFFFF DUP4 DUP2 DUP4 AND OR DUP4 MSTORE POP POP POP POP PUSH2 0x4825 JUMP JUMPDEST POP JUMP JUMPDEST PUSH1 0x0 PUSH20 0xFFFFFFFFFFFFFFFFFFFFFFFFFFFFFFFFFFFFFFFF AND DUP3 PUSH20 0xFFFFFFFFFFFFFFFFFFFFFFFFFFFFFFFFFFFFFFFF AND SUB PUSH2 0x4734 JUMPI PUSH1 0x40 MLOAD PUSH32 0x8C379A000000000000000000000000000000000000000000000000000000000 DUP2 MSTORE PUSH1 0x4 ADD PUSH2 0x472B SWAP1 PUSH2 0x6479 JUMP JUMPDEST PUSH1 0x40 MLOAD DUP1 SWAP2 SUB SWAP1 REVERT JUMPDEST PUSH2 0x4740 PUSH1 0x0 DUP4 DUP4 PUSH2 0x481B JUMP JUMPDEST DUP1 PUSH1 0x2 PUSH1 0x0 DUP3 DUP3 SLOAD PUSH2 0x4752 SWAP2 SWAP1 PUSH2 0x5704 JUMP JUMPDEST SWAP3 POP POP DUP2 SWAP1 SSTORE POP DUP1 PUSH1 0x0 DUP1 DUP5 PUSH20 0xFFFFFFFFFFFFFFFFFFFFFFFFFFFFFFFFFFFFFFFF AND PUSH20 0xFFFFFFFFFFFFFFFFFFFFFFFFFFFFFFFFFFFFFFFF AND DUP2 MSTORE PUSH1 0x20 ADD SWAP1 DUP2 MSTORE PUSH1 0x20 ADD PUSH1 0x0 KECCAK256 PUSH1 0x0 DUP3 DUP3 SLOAD ADD SWAP3 POP POP DUP2 SWAP1 SSTORE POP DUP2 PUSH20 0xFFFFFFFFFFFFFFFFFFFFFFFFFFFFFFFFFFFFFFFF AND PUSH1 0x0 PUSH20 0xFFFFFFFFFFFFFFFFFFFFFFFFFFFFFFFFFFFFFFFF AND PUSH32 0xDDF252AD1BE2C89B69C2B068FC378DAA952BA7F163C4A11628F55A4DF523B3EF DUP4 PUSH1 0x40 MLOAD PUSH2 0x4803 SWAP2 SWAP1 PUSH2 0x48FB JUMP JUMPDEST PUSH1 0x40 MLOAD DUP1 SWAP2 SUB SWAP1 LOG3 PUSH2 0x4817 PUSH1 0x0 DUP4 DUP4 PUSH2 0x4820 JUMP JUMPDEST POP POP JUMP JUMPDEST POP POP POP JUMP JUMPDEST POP POP POP JUMP JUMPDEST PUSH2 0x483C DUP2 PUSH2 0x4834 PUSH2 0x483F PUSH2 0x4860 JUMP JUMPDEST PUSH4 0xFFFFFFFF AND JUMP JUMPDEST POP JUMP JUMPDEST PUSH1 0x0 PUSH11 0x636F6E736F6C652E6C6F67 SWAP1 POP PUSH1 0x0 DUP1 DUP4 MLOAD PUSH1 0x20 DUP6 ADD DUP5 GAS STATICCALL POP POP POP JUMP JUMPDEST PUSH2 0x48D8 DUP2 SWAP1 POP SWAP2 SWAP1 POP JUMP JUMPDEST PUSH1 0x40 MLOAD DUP1 PUSH2 0x140 ADD PUSH1 0x40 MSTORE DUP1 PUSH1 0xA SWAP1 JUMPDEST PUSH1 0x60 DUP2 MSTORE PUSH1 0x20 ADD SWAP1 PUSH1 0x1 SWAP1 SUB SWAP1 DUP2 PUSH2 0x487B JUMPI SWAP1 POP POP SWAP1 JUMP JUMPDEST PUSH1 0x40 MLOAD DUP1 PUSH2 0x140 ADD PUSH1 0x40 MSTORE DUP1 PUSH1 0xA SWAP1 PUSH1 0x20 DUP3 MUL DUP1 CALLDATASIZE DUP4 CALLDATACOPY DUP1 DUP3 ADD SWAP2 POP POP SWAP1 POP POP SWAP1 JUMP JUMPDEST PUSH1 0x40 MLOAD DUP1 PUSH1 0x40 ADD PUSH1 0x40 MSTORE DUP1 PUSH1 0x2 SWAP1 PUSH1 0x20 DUP3 MUL DUP1 CALLDATASIZE DUP4 CALLDATACOPY DUP1 DUP3 ADD SWAP2 POP POP SWAP1 POP POP SWAP1 JUMP JUMPDEST PUSH2 0x48E0 PUSH2 0x6499 JUMP JUMPDEST JUMP JUMPDEST PUSH1 0x0 DUP2 SWAP1 POP SWAP2 SWAP1 POP JUMP JUMPDEST PUSH2 0x48F5 DUP2 PUSH2 0x48E2 JUMP JUMPDEST DUP3 MSTORE POP POP JUMP JUMPDEST PUSH1 0x0 PUSH1 0x20 DUP3 ADD SWAP1 POP PUSH2 0x4910 PUSH1 0x0 DUP4 ADD DUP5 PUSH2 0x48EC JUMP JUMPDEST SWAP3 SWAP2 POP POP JUMP JUMPDEST PUSH1 0x0 PUSH1 0x40 MLOAD SWAP1 POP SWAP1 JUMP JUMPDEST PUSH1 0x0 DUP1 REVERT JUMPDEST PUSH1 0x0 DUP1 REVERT JUMPDEST PUSH2 0x4933 DUP2 PUSH2 0x48E2 JUMP JUMPDEST DUP2 EQ PUSH2 0x493E JUMPI PUSH1 0x0 DUP1 REVERT JUMPDEST POP JUMP JUMPDEST PUSH1 0x0 DUP2 CALLDATALOAD SWAP1 POP PUSH2 0x4950 DUP2 PUSH2 0x492A JUMP JUMPDEST SWAP3 SWAP2 POP POP JUMP JUMPDEST PUSH1 0x0 PUSH1 0x20 DUP3 DUP5 SUB SLT ISZERO PUSH2 0x496C JUMPI PUSH2 0x496B PUSH2 0x4920 JUMP JUMPDEST JUMPDEST PUSH1 0x0 PUSH2 0x497A DUP5 DUP3 DUP6 ADD PUSH2 0x4941 JUMP JUMPDEST SWAP2 POP POP SWAP3 SWAP2 POP POP JUMP JUMPDEST PUSH1 0x0 PUSH1 0x80 DUP3 ADD SWAP1 POP PUSH2 0x4998 PUSH1 0x0 DUP4 ADD DUP8 PUSH2 0x48EC JUMP JUMPDEST PUSH2 0x49A5 PUSH1 0x20 DUP4 ADD DUP7 PUSH2 0x48EC JUMP JUMPDEST PUSH2 0x49B2 PUSH1 0x40 DUP4 ADD DUP6 PUSH2 0x48EC JUMP JUMPDEST PUSH2 0x49BF PUSH1 0x60 DUP4 ADD DUP5 PUSH2 0x48EC JUMP JUMPDEST SWAP6 SWAP5 POP POP POP POP POP JUMP JUMPDEST PUSH1 0x0 DUP2 MLOAD SWAP1 POP SWAP2 SWAP1 POP JUMP JUMPDEST PUSH1 0x0 DUP3 DUP3 MSTORE PUSH1 0x20 DUP3 ADD SWAP1 POP SWAP3 SWAP2 POP POP JUMP JUMPDEST PUSH1 0x0 JUMPDEST DUP4 DUP2 LT ISZERO PUSH2 0x4A02 JUMPI DUP1 DUP3 ADD MLOAD DUP2 DUP5 ADD MSTORE PUSH1 0x20 DUP2 ADD SWAP1 POP PUSH2 0x49E7 JUMP JUMPDEST PUSH1 0x0 DUP5 DUP5 ADD MSTORE POP POP POP POP JUMP JUMPDEST PUSH1 0x0 PUSH1 0x1F NOT PUSH1 0x1F DUP4 ADD AND SWAP1 POP SWAP2 SWAP1 POP JUMP JUMPDEST PUSH1 0x0 PUSH2 0x4A2A DUP3 PUSH2 0x49C8 JUMP JUMPDEST PUSH2 0x4A34 DUP2 DUP6 PUSH2 0x49D3 JUMP JUMPDEST SWAP4 POP PUSH2 0x4A44 DUP2 DUP6 PUSH1 0x20 DUP7 ADD PUSH2 0x49E4 JUMP JUMPDEST PUSH2 0x4A4D DUP2 PUSH2 0x4A0E JUMP JUMPDEST DUP5 ADD SWAP2 POP POP SWAP3 SWAP2 POP POP JUMP JUMPDEST PUSH1 0x0 PUSH1 0x20 DUP3 ADD SWAP1 POP DUP2 DUP2 SUB PUSH1 0x0 DUP4 ADD MSTORE PUSH2 0x4A72 DUP2 DUP5 PUSH2 0x4A1F JUMP JUMPDEST SWAP1 POP SWAP3 SWAP2 POP POP JUMP JUMPDEST PUSH1 0x0 PUSH20 0xFFFFFFFFFFFFFFFFFFFFFFFFFFFFFFFFFFFFFFFF DUP3 AND SWAP1 POP SWAP2 SWAP1 POP JUMP JUMPDEST PUSH1 0x0 PUSH2 0x4AA5 DUP3 PUSH2 0x4A7A JUMP JUMPDEST SWAP1 POP SWAP2 SWAP1 POP JUMP JUMPDEST PUSH2 0x4AB5 DUP2 PUSH2 0x4A9A JUMP JUMPDEST DUP2 EQ PUSH2 0x4AC0 JUMPI PUSH1 0x0 DUP1 REVERT JUMPDEST POP JUMP JUMPDEST PUSH1 0x0 DUP2 CALLDATALOAD SWAP1 POP PUSH2 0x4AD2 DUP2 PUSH2 0x4AAC JUMP JUMPDEST SWAP3 SWAP2 POP POP JUMP JUMPDEST PUSH1 0x0 DUP1 PUSH1 0x40 DUP4 DUP6 SUB SLT ISZERO PUSH2 0x4AEF JUMPI PUSH2 0x4AEE PUSH2 0x4920 JUMP JUMPDEST JUMPDEST PUSH1 0x0 PUSH2 0x4AFD DUP6 DUP3 DUP7 ADD PUSH2 0x4AC3 JUMP JUMPDEST SWAP3 POP POP PUSH1 0x20 PUSH2 0x4B0E DUP6 DUP3 DUP7 ADD PUSH2 0x4941 JUMP JUMPDEST SWAP2 POP POP SWAP3 POP SWAP3 SWAP1 POP JUMP JUMPDEST PUSH1 0x0 DUP2 ISZERO ISZERO SWAP1 POP SWAP2 SWAP1 POP JUMP JUMPDEST PUSH2 0x4B2D DUP2 PUSH2 0x4B18 JUMP JUMPDEST DUP3 MSTORE POP POP JUMP JUMPDEST PUSH1 0x0 PUSH1 0x20 DUP3 ADD SWAP1 POP PUSH2 0x4B48 PUSH1 0x0 DUP4 ADD DUP5 PUSH2 0x4B24 JUMP JUMPDEST SWAP3 SWAP2 POP POP JUMP JUMPDEST PUSH1 0x0 DUP1 PUSH1 0x0 PUSH1 0x60 DUP5 DUP7 SUB SLT ISZERO PUSH2 0x4B67 JUMPI PUSH2 0x4B66 PUSH2 0x4920 JUMP JUMPDEST JUMPDEST PUSH1 0x0 PUSH2 0x4B75 DUP7 DUP3 DUP8 ADD PUSH2 0x4AC3 JUMP JUMPDEST SWAP4 POP POP PUSH1 0x20 PUSH2 0x4B86 DUP7 DUP3 DUP8 ADD PUSH2 0x4AC3 JUMP JUMPDEST SWAP3 POP POP PUSH1 0x40 PUSH2 0x4B97 DUP7 DUP3 DUP8 ADD PUSH2 0x4941 JUMP JUMPDEST SWAP2 POP POP SWAP3 POP SWAP3 POP SWAP3 JUMP JUMPDEST PUSH1 0x0 PUSH1 0xFF DUP3 AND SWAP1 POP SWAP2 SWAP1 POP JUMP JUMPDEST PUSH2 0x4BB7 DUP2 PUSH2 0x4BA1 JUMP JUMPDEST DUP3 MSTORE POP POP JUMP JUMPDEST PUSH1 0x0 PUSH1 0x20 DUP3 ADD SWAP1 POP PUSH2 0x4BD2 PUSH1 0x0 DUP4 ADD DUP5 PUSH2 0x4BAE JUMP JUMPDEST SWAP3 SWAP2 POP POP JUMP JUMPDEST PUSH1 0x0 DUP1 REVERT JUMPDEST PUSH32 0x4E487B7100000000000000000000000000000000000000000000000000000000 PUSH1 0x0 MSTORE PUSH1 0x41 PUSH1 0x4 MSTORE PUSH1 0x24 PUSH1 0x0 REVERT JUMPDEST PUSH2 0x4C15 DUP3 PUSH2 0x4A0E JUMP JUMPDEST DUP2 ADD DUP2 DUP2 LT PUSH8 0xFFFFFFFFFFFFFFFF DUP3 GT OR ISZERO PUSH2 0x4C34 JUMPI PUSH2 0x4C33 PUSH2 0x4BDD JUMP JUMPDEST JUMPDEST DUP1 PUSH1 0x40 MSTORE POP POP POP JUMP JUMPDEST PUSH1 0x0 PUSH2 0x4C47 PUSH2 0x4916 JUMP JUMPDEST SWAP1 POP PUSH2 0x4C53 DUP3 DUP3 PUSH2 0x4C0C JUMP JUMPDEST SWAP2 SWAP1 POP JUMP JUMPDEST PUSH1 0x0 PUSH8 0xFFFFFFFFFFFFFFFF DUP3 GT ISZERO PUSH2 0x4C73 JUMPI PUSH2 0x4C72 PUSH2 0x4BDD JUMP JUMPDEST JUMPDEST PUSH1 0x20 DUP3 MUL SWAP1 POP PUSH1 0x20 DUP2 ADD SWAP1 POP SWAP2 SWAP1 POP JUMP JUMPDEST PUSH1 0x0 DUP1 REVERT JUMPDEST PUSH1 0x0 DUP1 REVERT JUMPDEST PUSH1 0x0 PUSH8 0xFFFFFFFFFFFFFFFF DUP3 GT ISZERO PUSH2 0x4CA9 JUMPI PUSH2 0x4CA8 PUSH2 0x4BDD JUMP JUMPDEST JUMPDEST PUSH2 0x4CB2 DUP3 PUSH2 0x4A0E JUMP JUMPDEST SWAP1 POP PUSH1 0x20 DUP2 ADD SWAP1 POP SWAP2 SWAP1 POP JUMP JUMPDEST DUP3 DUP2 DUP4 CALLDATACOPY PUSH1 0x0 DUP4 DUP4 ADD MSTORE POP POP POP JUMP JUMPDEST PUSH1 0x0 PUSH2 0x4CE1 PUSH2 0x4CDC DUP5 PUSH2 0x4C8E JUMP JUMPDEST PUSH2 0x4C3D JUMP JUMPDEST SWAP1 POP DUP3 DUP2 MSTORE PUSH1 0x20 DUP2 ADD DUP5 DUP5 DUP5 ADD GT ISZERO PUSH2 0x4CFD JUMPI PUSH2 0x4CFC PUSH2 0x4C89 JUMP JUMPDEST JUMPDEST PUSH2 0x4D08 DUP5 DUP3 DUP6 PUSH2 0x4CBF JUMP JUMPDEST POP SWAP4 SWAP3 POP POP POP JUMP JUMPDEST PUSH1 0x0 DUP3 PUSH1 0x1F DUP4 ADD SLT PUSH2 0x4D25 JUMPI PUSH2 0x4D24 PUSH2 0x4BD8 JUMP JUMPDEST JUMPDEST DUP2 CALLDATALOAD PUSH2 0x4D35 DUP5 DUP3 PUSH1 0x20 DUP7 ADD PUSH2 0x4CCE JUMP JUMPDEST SWAP2 POP POP SWAP3 SWAP2 POP POP JUMP JUMPDEST PUSH1 0x0 PUSH2 0x4D51 PUSH2 0x4D4C DUP5 PUSH2 0x4C58 JUMP JUMPDEST PUSH2 0x4C3D JUMP JUMPDEST SWAP1 POP DUP1 DUP4 DUP3 MSTORE PUSH1 0x20 DUP3 ADD SWAP1 POP PUSH1 0x20 DUP5 MUL DUP4 ADD DUP6 DUP2 GT ISZERO PUSH2 0x4D74 JUMPI PUSH2 0x4D73 PUSH2 0x4C84 JUMP JUMPDEST JUMPDEST DUP4 JUMPDEST DUP2 DUP2 LT ISZERO PUSH2 0x4DBB JUMPI DUP1 CALLDATALOAD PUSH8 0xFFFFFFFFFFFFFFFF DUP2 GT ISZERO PUSH2 0x4D99 JUMPI PUSH2 0x4D98 PUSH2 0x4BD8 JUMP JUMPDEST JUMPDEST DUP1 DUP7 ADD PUSH2 0x4DA6 DUP10 DUP3 PUSH2 0x4D10 JUMP JUMPDEST DUP6 MSTORE PUSH1 0x20 DUP6 ADD SWAP5 POP POP POP PUSH1 0x20 DUP2 ADD SWAP1 POP PUSH2 0x4D76 JUMP JUMPDEST POP POP POP SWAP4 SWAP3 POP POP POP JUMP JUMPDEST PUSH1 0x0 DUP3 PUSH1 0x1F DUP4 ADD SLT PUSH2 0x4DDA JUMPI PUSH2 0x4DD9 PUSH2 0x4BD8 JUMP JUMPDEST JUMPDEST DUP2 CALLDATALOAD PUSH2 0x4DEA DUP5 DUP3 PUSH1 0x20 DUP7 ADD PUSH2 0x4D3E JUMP JUMPDEST SWAP2 POP POP SWAP3 SWAP2 POP POP JUMP JUMPDEST PUSH1 0x0 PUSH8 0xFFFFFFFFFFFFFFFF DUP3 GT ISZERO PUSH2 0x4E0E JUMPI PUSH2 0x4E0D PUSH2 0x4BDD JUMP JUMPDEST JUMPDEST PUSH1 0x20 DUP3 MUL SWAP1 POP PUSH1 0x20 DUP2 ADD SWAP1 POP SWAP2 SWAP1 POP JUMP JUMPDEST PUSH1 0x0 PUSH2 0x4E32 PUSH2 0x4E2D DUP5 PUSH2 0x4DF3 JUMP JUMPDEST PUSH2 0x4C3D JUMP JUMPDEST SWAP1 POP DUP1 DUP4 DUP3 MSTORE PUSH1 0x20 DUP3 ADD SWAP1 POP PUSH1 0x20 DUP5 MUL DUP4 ADD DUP6 DUP2 GT ISZERO PUSH2 0x4E55 JUMPI PUSH2 0x4E54 PUSH2 0x4C84 JUMP JUMPDEST JUMPDEST DUP4 JUMPDEST DUP2 DUP2 LT ISZERO PUSH2 0x4E7E JUMPI DUP1 PUSH2 0x4E6A DUP9 DUP3 PUSH2 0x4941 JUMP JUMPDEST DUP5 MSTORE PUSH1 0x20 DUP5 ADD SWAP4 POP POP PUSH1 0x20 DUP2 ADD SWAP1 POP PUSH2 0x4E57 JUMP JUMPDEST POP POP POP SWAP4 SWAP3 POP POP POP JUMP JUMPDEST PUSH1 0x0 DUP3 PUSH1 0x1F DUP4 ADD SLT PUSH2 0x4E9D JUMPI PUSH2 0x4E9C PUSH2 0x4BD8 JUMP JUMPDEST JUMPDEST DUP2 CALLDATALOAD PUSH2 0x4EAD DUP5 DUP3 PUSH1 0x20 DUP7 ADD PUSH2 0x4E1F JUMP JUMPDEST SWAP2 POP POP SWAP3 SWAP2 POP POP JUMP JUMPDEST PUSH1 0x0 DUP1 PUSH1 0x0 DUP1 PUSH1 0x0 PUSH1 0xA0 DUP7 DUP9 SUB SLT ISZERO PUSH2 0x4ED2 JUMPI PUSH2 0x4ED1 PUSH2 0x4920 JUMP JUMPDEST JUMPDEST PUSH1 0x0 DUP7 ADD CALLDATALOAD PUSH8 0xFFFFFFFFFFFFFFFF DUP2 GT ISZERO PUSH2 0x4EF0 JUMPI PUSH2 0x4EEF PUSH2 0x4925 JUMP JUMPDEST JUMPDEST PUSH2 0x4EFC DUP9 DUP3 DUP10 ADD PUSH2 0x4DC5 JUMP JUMPDEST SWAP6 POP POP PUSH1 0x20 DUP7 ADD CALLDATALOAD PUSH8 0xFFFFFFFFFFFFFFFF DUP2 GT ISZERO PUSH2 0x4F1D JUMPI PUSH2 0x4F1C PUSH2 0x4925 JUMP JUMPDEST JUMPDEST PUSH2 0x4F29 DUP9 DUP3 DUP10 ADD PUSH2 0x4E88 JUMP JUMPDEST SWAP5 POP POP PUSH1 0x40 DUP7 ADD CALLDATALOAD PUSH8 0xFFFFFFFFFFFFFFFF DUP2 GT ISZERO PUSH2 0x4F4A JUMPI PUSH2 0x4F49 PUSH2 0x4925 JUMP JUMPDEST JUMPDEST PUSH2 0x4F56 DUP9 DUP3 DUP10 ADD PUSH2 0x4E88 JUMP JUMPDEST SWAP4 POP POP PUSH1 0x60 DUP7 ADD CALLDATALOAD PUSH8 0xFFFFFFFFFFFFFFFF DUP2 GT ISZERO PUSH2 0x4F77 JUMPI PUSH2 0x4F76 PUSH2 0x4925 JUMP JUMPDEST JUMPDEST PUSH2 0x4F83 DUP9 DUP3 DUP10 ADD PUSH2 0x4DC5 JUMP JUMPDEST SWAP3 POP POP PUSH1 0x80 DUP7 ADD CALLDATALOAD PUSH8 0xFFFFFFFFFFFFFFFF DUP2 GT ISZERO PUSH2 0x4FA4 JUMPI PUSH2 0x4FA3 PUSH2 0x4925 JUMP JUMPDEST JUMPDEST PUSH2 0x4FB0 DUP9 DUP3 DUP10 ADD PUSH2 0x4DC5 JUMP JUMPDEST SWAP2 POP POP SWAP3 SWAP6 POP SWAP3 SWAP6 SWAP1 SWAP4 POP JUMP JUMPDEST PUSH1 0x0 PUSH1 0xA SWAP1 POP SWAP2 SWAP1 POP JUMP JUMPDEST PUSH1 0x0 DUP2 SWAP1 POP SWAP3 SWAP2 POP POP JUMP JUMPDEST PUSH1 0x0 DUP2 SWAP1 POP SWAP2 SWAP1 POP JUMP JUMPDEST PUSH1 0x0 DUP3 DUP3 MSTORE PUSH1 0x20 DUP3 ADD SWAP1 POP SWAP3 SWAP2 POP POP JUMP JUMPDEST PUSH1 0x0 PUSH2 0x4FF9 DUP3 PUSH2 0x49C8 JUMP JUMPDEST PUSH2 0x5003 DUP2 DUP6 PUSH2 0x4FDD JUMP JUMPDEST SWAP4 POP PUSH2 0x5013 DUP2 DUP6 PUSH1 0x20 DUP7 ADD PUSH2 0x49E4 JUMP JUMPDEST PUSH2 0x501C DUP2 PUSH2 0x4A0E JUMP JUMPDEST DUP5 ADD SWAP2 POP POP SWAP3 SWAP2 POP POP JUMP JUMPDEST PUSH1 0x0 PUSH2 0x5033 DUP4 DUP4 PUSH2 0x4FEE JUMP JUMPDEST SWAP1 POP SWAP3 SWAP2 POP POP JUMP JUMPDEST PUSH1 0x0 PUSH1 0x20 DUP3 ADD SWAP1 POP SWAP2 SWAP1 POP JUMP JUMPDEST PUSH1 0x0 PUSH2 0x5053 DUP3 PUSH2 0x4FBD JUMP JUMPDEST PUSH2 0x505D DUP2 DUP6 PUSH2 0x4FC8 JUMP JUMPDEST SWAP4 POP DUP4 PUSH1 0x20 DUP3 MUL DUP6 ADD PUSH2 0x506F DUP6 PUSH2 0x4FD3 JUMP JUMPDEST DUP1 PUSH1 0x0 JUMPDEST DUP6 DUP2 LT ISZERO PUSH2 0x50AB JUMPI DUP5 DUP5 SUB DUP10 MSTORE DUP2 MLOAD PUSH2 0x508C DUP6 DUP3 PUSH2 0x5027 JUMP JUMPDEST SWAP5 POP PUSH2 0x5097 DUP4 PUSH2 0x503B JUMP JUMPDEST SWAP3 POP PUSH1 0x20 DUP11 ADD SWAP10 POP POP PUSH1 0x1 DUP2 ADD SWAP1 POP PUSH2 0x5073 JUMP JUMPDEST POP DUP3 SWAP8 POP DUP8 SWAP6 POP POP POP POP POP POP SWAP3 SWAP2 POP POP JUMP JUMPDEST PUSH1 0x0 PUSH1 0xA SWAP1 POP SWAP2 SWAP1 POP JUMP JUMPDEST PUSH1 0x0 DUP2 SWAP1 POP SWAP3 SWAP2 POP POP JUMP JUMPDEST PUSH1 0x0 DUP2 SWAP1 POP SWAP2 SWAP1 POP JUMP JUMPDEST PUSH2 0x50E6 DUP2 PUSH2 0x48E2 JUMP JUMPDEST DUP3 MSTORE POP POP JUMP JUMPDEST PUSH1 0x0 PUSH2 0x50F8 DUP4 DUP4 PUSH2 0x50DD JUMP JUMPDEST PUSH1 0x20 DUP4 ADD SWAP1 POP SWAP3 SWAP2 POP POP JUMP JUMPDEST PUSH1 0x0 PUSH1 0x20 DUP3 ADD SWAP1 POP SWAP2 SWAP1 POP JUMP JUMPDEST PUSH2 0x511A DUP2 PUSH2 0x50BD JUMP JUMPDEST PUSH2 0x5124 DUP2 DUP5 PUSH2 0x50C8 JUMP JUMPDEST SWAP3 POP PUSH2 0x512F DUP3 PUSH2 0x50D3 JUMP JUMPDEST DUP1 PUSH1 0x0 JUMPDEST DUP4 DUP2 LT ISZERO PUSH2 0x5160 JUMPI DUP2 MLOAD PUSH2 0x5147 DUP8 DUP3 PUSH2 0x50EC JUMP JUMPDEST SWAP7 POP PUSH2 0x5152 DUP4 PUSH2 0x5104 JUMP JUMPDEST SWAP3 POP POP PUSH1 0x1 DUP2 ADD SWAP1 POP PUSH2 0x5133 JUMP JUMPDEST POP POP POP POP POP POP JUMP JUMPDEST PUSH1 0x0 PUSH1 0x2 SWAP1 POP SWAP2 SWAP1 POP JUMP JUMPDEST PUSH1 0x0 DUP2 SWAP1 POP SWAP3 SWAP2 POP POP JUMP JUMPDEST PUSH1 0x0 DUP2 SWAP1 POP SWAP2 SWAP1 POP JUMP JUMPDEST PUSH1 0x0 PUSH1 0x20 DUP3 ADD SWAP1 POP SWAP2 SWAP1 POP JUMP JUMPDEST PUSH2 0x519E DUP2 PUSH2 0x5168 JUMP JUMPDEST PUSH2 0x51A8 DUP2 DUP5 PUSH2 0x5173 JUMP JUMPDEST SWAP3 POP PUSH2 0x51B3 DUP3 PUSH2 0x517E JUMP JUMPDEST DUP1 PUSH1 0x0 JUMPDEST DUP4 DUP2 LT ISZERO PUSH2 0x51E4 JUMPI DUP2 MLOAD PUSH2 0x51CB DUP8 DUP3 PUSH2 0x50EC JUMP JUMPDEST SWAP7 POP PUSH2 0x51D6 DUP4 PUSH2 0x5188 JUMP JUMPDEST SWAP3 POP POP PUSH1 0x1 DUP2 ADD SWAP1 POP PUSH2 0x51B7 JUMP JUMPDEST POP POP POP POP POP POP JUMP JUMPDEST PUSH1 0x0 PUSH2 0x2E0 DUP3 ADD SWAP1 POP DUP2 DUP2 SUB PUSH1 0x0 DUP4 ADD MSTORE PUSH2 0x5207 DUP2 DUP8 PUSH2 0x5048 JUMP JUMPDEST SWAP1 POP PUSH2 0x5216 PUSH1 0x20 DUP4 ADD DUP7 PUSH2 0x5111 JUMP JUMPDEST PUSH2 0x5224 PUSH2 0x160 DUP4 ADD DUP6 PUSH2 0x5111 JUMP JUMPDEST PUSH2 0x5232 PUSH2 0x2A0 DUP4 ADD DUP5 PUSH2 0x5195 JUMP JUMPDEST SWAP6 SWAP5 POP POP POP POP POP JUMP JUMPDEST PUSH1 0x0 PUSH1 0x20 DUP3 DUP5 SUB SLT ISZERO PUSH2 0x5251 JUMPI PUSH2 0x5250 PUSH2 0x4920 JUMP JUMPDEST JUMPDEST PUSH1 0x0 PUSH2 0x525F DUP5 DUP3 DUP6 ADD PUSH2 0x4AC3 JUMP JUMPDEST SWAP2 POP POP SWAP3 SWAP2 POP POP JUMP JUMPDEST PUSH1 0x0 PUSH1 0x20 DUP3 DUP5 SUB SLT ISZERO PUSH2 0x527E JUMPI PUSH2 0x527D PUSH2 0x4920 JUMP JUMPDEST JUMPDEST PUSH1 0x0 DUP3 ADD CALLDATALOAD PUSH8 0xFFFFFFFFFFFFFFFF DUP2 GT ISZERO PUSH2 0x529C JUMPI PUSH2 0x529B PUSH2 0x4925 JUMP JUMPDEST JUMPDEST PUSH2 0x52A8 DUP5 DUP3 DUP6 ADD PUSH2 0x4D10 JUMP JUMPDEST SWAP2 POP POP SWAP3 SWAP2 POP POP JUMP JUMPDEST PUSH1 0x0 DUP2 MLOAD SWAP1 POP SWAP2 SWAP1 POP JUMP JUMPDEST PUSH1 0x0 DUP3 DUP3 MSTORE PUSH1 0x20 DUP3 ADD SWAP1 POP SWAP3 SWAP2 POP POP JUMP JUMPDEST PUSH1 0x0 DUP2 SWAP1 POP PUSH1 0x20 DUP3 ADD SWAP1 POP SWAP2 SWAP1 POP JUMP JUMPDEST PUSH1 0x0 PUSH1 0x20 DUP3 ADD SWAP1 POP SWAP2 SWAP1 POP JUMP JUMPDEST PUSH1 0x0 PUSH2 0x52F5 DUP3 PUSH2 0x52B1 JUMP JUMPDEST PUSH2 0x52FF DUP2 DUP6 PUSH2 0x52BC JUMP JUMPDEST SWAP4 POP PUSH2 0x530A DUP4 PUSH2 0x52CD JUMP JUMPDEST DUP1 PUSH1 0x0 JUMPDEST DUP4 DUP2 LT ISZERO PUSH2 0x533B JUMPI DUP2 MLOAD PUSH2 0x5322 DUP9 DUP3 PUSH2 0x50EC JUMP JUMPDEST SWAP8 POP PUSH2 0x532D DUP4 PUSH2 0x52DD JUMP JUMPDEST SWAP3 POP POP PUSH1 0x1 DUP2 ADD SWAP1 POP PUSH2 0x530E JUMP JUMPDEST POP DUP6 SWAP4 POP POP POP POP SWAP3 SWAP2 POP POP JUMP JUMPDEST PUSH1 0x0 DUP2 MLOAD SWAP1 POP SWAP2 SWAP1 POP JUMP JUMPDEST PUSH1 0x0 DUP3 DUP3 MSTORE PUSH1 0x20 DUP3 ADD SWAP1 POP SWAP3 SWAP2 POP POP JUMP JUMPDEST PUSH1 0x0 DUP2 SWAP1 POP PUSH1 0x20 DUP3 ADD SWAP1 POP SWAP2 SWAP1 POP JUMP JUMPDEST PUSH1 0x0 PUSH1 0x20 DUP3 ADD SWAP1 POP SWAP2 SWAP1 POP JUMP JUMPDEST PUSH1 0x0 PUSH2 0x538C DUP3 PUSH2 0x5348 JUMP JUMPDEST PUSH2 0x5396 DUP2 DUP6 PUSH2 0x5353 JUMP JUMPDEST SWAP4 POP DUP4 PUSH1 0x20 DUP3 MUL DUP6 ADD PUSH2 0x53A8 DUP6 PUSH2 0x5364 JUMP JUMPDEST DUP1 PUSH1 0x0 JUMPDEST DUP6 DUP2 LT ISZERO PUSH2 0x53E4 JUMPI DUP5 DUP5 SUB DUP10 MSTORE DUP2 MLOAD PUSH2 0x53C5 DUP6 DUP3 PUSH2 0x5027 JUMP JUMPDEST SWAP5 POP PUSH2 0x53D0 DUP4 PUSH2 0x5374 JUMP JUMPDEST SWAP3 POP PUSH1 0x20 DUP11 ADD SWAP10 POP POP PUSH1 0x1 DUP2 ADD SWAP1 POP PUSH2 0x53AC JUMP JUMPDEST POP DUP3 SWAP8 POP DUP8 SWAP6 POP POP POP POP POP POP SWAP3 SWAP2 POP POP JUMP JUMPDEST PUSH1 0x0 PUSH1 0xA0 DUP3 ADD SWAP1 POP DUP2 DUP2 SUB PUSH1 0x0 DUP4 ADD MSTORE PUSH2 0x5410 DUP2 DUP9 PUSH2 0x52EA JUMP JUMPDEST SWAP1 POP DUP2 DUP2 SUB PUSH1 0x20 DUP4 ADD MSTORE PUSH2 0x5424 DUP2 DUP8 PUSH2 0x52EA JUMP JUMPDEST SWAP1 POP DUP2 DUP2 SUB PUSH1 0x40 DUP4 ADD MSTORE PUSH2 0x5438 DUP2 DUP7 PUSH2 0x52EA JUMP JUMPDEST SWAP1 POP DUP2 DUP2 SUB PUSH1 0x60 DUP4 ADD MSTORE PUSH2 0x544C DUP2 DUP6 PUSH2 0x5381 JUMP JUMPDEST SWAP1 POP DUP2 DUP2 SUB PUSH1 0x80 DUP4 ADD MSTORE PUSH2 0x5460 DUP2 DUP5 PUSH2 0x5381 JUMP JUMPDEST SWAP1 POP SWAP7 SWAP6 POP POP POP POP POP POP JUMP JUMPDEST PUSH1 0x0 DUP1 PUSH1 0x40 DUP4 DUP6 SUB SLT ISZERO PUSH2 0x5483 JUMPI PUSH2 0x5482 PUSH2 0x4920 JUMP JUMPDEST JUMPDEST PUSH1 0x0 PUSH2 0x5491 DUP6 DUP3 DUP7 ADD PUSH2 0x4AC3 JUMP JUMPDEST SWAP3 POP POP PUSH1 0x20 PUSH2 0x54A2 DUP6 DUP3 DUP7 ADD PUSH2 0x4AC3 JUMP JUMPDEST SWAP2 POP POP SWAP3 POP SWAP3 SWAP1 POP JUMP JUMPDEST PUSH1 0x0 DUP1 PUSH1 0x40 DUP4 DUP6 SUB SLT ISZERO PUSH2 0x54C3 JUMPI PUSH2 0x54C2 PUSH2 0x4920 JUMP JUMPDEST JUMPDEST PUSH1 0x0 DUP4 ADD CALLDATALOAD PUSH8 0xFFFFFFFFFFFFFFFF DUP2 GT ISZERO PUSH2 0x54E1 JUMPI PUSH2 0x54E0 PUSH2 0x4925 JUMP JUMPDEST JUMPDEST PUSH2 0x54ED DUP6 DUP3 DUP7 ADD PUSH2 0x4DC5 JUMP JUMPDEST SWAP3 POP POP PUSH1 0x20 DUP4 ADD CALLDATALOAD PUSH8 0xFFFFFFFFFFFFFFFF DUP2 GT ISZERO PUSH2 0x550E JUMPI PUSH2 0x550D PUSH2 0x4925 JUMP JUMPDEST JUMPDEST PUSH2 0x551A DUP6 DUP3 DUP7 ADD PUSH2 0x4E88 JUMP JUMPDEST SWAP2 POP POP SWAP3 POP SWAP3 SWAP1 POP JUMP JUMPDEST PUSH1 0x0 DUP1 PUSH1 0x0 DUP1 PUSH1 0x0 PUSH1 0xA0 DUP7 DUP9 SUB SLT ISZERO PUSH2 0x5540 JUMPI PUSH2 0x553F PUSH2 0x4920 JUMP JUMPDEST JUMPDEST PUSH1 0x0 PUSH2 0x554E DUP9 DUP3 DUP10 ADD PUSH2 0x4AC3 JUMP JUMPDEST SWAP6 POP POP PUSH1 0x20 PUSH2 0x555F DUP9 DUP3 DUP10 ADD PUSH2 0x4AC3 JUMP JUMPDEST SWAP5 POP POP PUSH1 0x40 PUSH2 0x5570 DUP9 DUP3 DUP10 ADD PUSH2 0x4941 JUMP JUMPDEST SWAP4 POP POP PUSH1 0x60 PUSH2 0x5581 DUP9 DUP3 DUP10 ADD PUSH2 0x4941 JUMP JUMPDEST SWAP3 POP POP PUSH1 0x80 PUSH2 0x5592 DUP9 DUP3 DUP10 ADD PUSH2 0x4AC3 JUMP JUMPDEST SWAP2 POP POP SWAP3 SWAP6 POP SWAP3 SWAP6 SWAP1 SWAP4 POP JUMP JUMPDEST PUSH32 0x4E487B7100000000000000000000000000000000000000000000000000000000 PUSH1 0x0 MSTORE PUSH1 0x22 PUSH1 0x4 MSTORE PUSH1 0x24 PUSH1 0x0 REVERT JUMPDEST PUSH1 0x0 PUSH1 0x2 DUP3 DIV SWAP1 POP PUSH1 0x1 DUP3 AND DUP1 PUSH2 0x55E6 JUMPI PUSH1 0x7F DUP3 AND SWAP2 POP JUMPDEST PUSH1 0x20 DUP3 LT DUP2 SUB PUSH2 0x55F9 JUMPI PUSH2 0x55F8 PUSH2 0x559F JUMP JUMPDEST JUMPDEST POP SWAP2 SWAP1 POP JUMP JUMPDEST PUSH32 0x4E487B7100000000000000000000000000000000000000000000000000000000 PUSH1 0x0 MSTORE PUSH1 0x12 PUSH1 0x4 MSTORE PUSH1 0x24 PUSH1 0x0 REVERT JUMPDEST PUSH32 0x4E487B7100000000000000000000000000000000000000000000000000000000 PUSH1 0x0 MSTORE PUSH1 0x11 PUSH1 0x4 MSTORE PUSH1 0x24 PUSH1 0x0 REVERT JUMPDEST PUSH1 0x0 PUSH2 0x5668 DUP3 PUSH2 0x48E2 JUMP JUMPDEST SWAP2 POP PUSH2 0x5673 DUP4 PUSH2 0x48E2 JUMP JUMPDEST SWAP3 POP DUP3 PUSH2 0x5683 JUMPI PUSH2 0x5682 PUSH2 0x55FF JUMP JUMPDEST JUMPDEST DUP3 DUP3 DIV SWAP1 POP SWAP3 SWAP2 POP POP JUMP JUMPDEST PUSH1 0x0 PUSH2 0x5699 DUP3 PUSH2 0x48E2 JUMP JUMPDEST SWAP2 POP PUSH2 0x56A4 DUP4 PUSH2 0x48E2 JUMP JUMPDEST SWAP3 POP DUP3 DUP3 MUL PUSH2 0x56B2 DUP2 PUSH2 0x48E2 JUMP JUMPDEST SWAP2 POP DUP3 DUP3 DIV DUP5 EQ DUP4 ISZERO OR PUSH2 0x56C9 JUMPI PUSH2 0x56C8 PUSH2 0x562E JUMP JUMPDEST JUMPDEST POP SWAP3 SWAP2 POP POP JUMP JUMPDEST PUSH1 0x0 PUSH2 0x56DB DUP3 PUSH2 0x48E2 JUMP JUMPDEST SWAP2 POP PUSH2 0x56E6 DUP4 PUSH2 0x48E2 JUMP JUMPDEST SWAP3 POP DUP3 DUP3 SUB SWAP1 POP DUP2 DUP2 GT ISZERO PUSH2 0x56FE JUMPI PUSH2 0x56FD PUSH2 0x562E JUMP JUMPDEST JUMPDEST SWAP3 SWAP2 POP POP JUMP JUMPDEST PUSH1 0x0 PUSH2 0x570F DUP3 PUSH2 0x48E2 JUMP JUMPDEST SWAP2 POP PUSH2 0x571A DUP4 PUSH2 0x48E2 JUMP JUMPDEST SWAP3 POP DUP3 DUP3 ADD SWAP1 POP DUP1 DUP3 GT ISZERO PUSH2 0x5732 JUMPI PUSH2 0x5731 PUSH2 0x562E JUMP JUMPDEST JUMPDEST SWAP3 SWAP2 POP POP JUMP JUMPDEST PUSH32 0x4D7573742062652061206D656D62657220746F207573652044414F2066756E63 PUSH1 0x0 DUP3 ADD MSTORE PUSH32 0x74696F6E00000000000000000000000000000000000000000000000000000000 PUSH1 0x20 DUP3 ADD MSTORE POP JUMP JUMPDEST PUSH1 0x0 PUSH2 0x5794 PUSH1 0x24 DUP4 PUSH2 0x49D3 JUMP JUMPDEST SWAP2 POP PUSH2 0x579F DUP3 PUSH2 0x5738 JUMP JUMPDEST PUSH1 0x40 DUP3 ADD SWAP1 POP SWAP2 SWAP1 POP JUMP JUMPDEST PUSH1 0x0 PUSH1 0x20 DUP3 ADD SWAP1 POP DUP2 DUP2 SUB PUSH1 0x0 DUP4 ADD MSTORE PUSH2 0x57C3 DUP2 PUSH2 0x5787 JUMP JUMPDEST SWAP1 POP SWAP2 SWAP1 POP JUMP JUMPDEST PUSH32 0x417272617973206D757374206265207468652073616D652073697A6500000000 PUSH1 0x0 DUP3 ADD MSTORE POP JUMP JUMPDEST PUSH1 0x0 PUSH2 0x5800 PUSH1 0x1C DUP4 PUSH2 0x49D3 JUMP JUMPDEST SWAP2 POP PUSH2 0x580B DUP3 PUSH2 0x57CA JUMP JUMPDEST PUSH1 0x20 DUP3 ADD SWAP1 POP SWAP2 SWAP1 POP JUMP JUMPDEST PUSH1 0x0 PUSH1 0x20 DUP3 ADD SWAP1 POP DUP2 DUP2 SUB PUSH1 0x0 DUP4 ADD MSTORE PUSH2 0x582F DUP2 PUSH2 0x57F3 JUMP JUMPDEST SWAP1 POP SWAP2 SWAP1 POP JUMP JUMPDEST PUSH32 0x4E487B7100000000000000000000000000000000000000000000000000000000 PUSH1 0x0 MSTORE PUSH1 0x32 PUSH1 0x4 MSTORE PUSH1 0x24 PUSH1 0x0 REVERT JUMPDEST PUSH1 0x0 DUP2 SWAP1 POP SWAP3 SWAP2 POP POP JUMP JUMPDEST PUSH1 0x0 PUSH2 0x587B DUP3 PUSH2 0x49C8 JUMP JUMPDEST PUSH2 0x5885 DUP2 DUP6 PUSH2 0x5865 JUMP JUMPDEST SWAP4 POP PUSH2 0x5895 DUP2 DUP6 PUSH1 0x20 DUP7 ADD PUSH2 0x49E4 JUMP JUMPDEST DUP1 DUP5 ADD SWAP2 POP POP SWAP3 SWAP2 POP POP JUMP JUMPDEST PUSH1 0x0 PUSH2 0x58AD DUP3 DUP5 PUSH2 0x5870 JUMP JUMPDEST SWAP2 POP DUP2 SWAP1 POP SWAP3 SWAP2 POP POP JUMP JUMPDEST PUSH1 0x0 DUP2 SWAP1 POP DUP2 PUSH1 0x0 MSTORE PUSH1 0x20 PUSH1 0x0 KECCAK256 SWAP1 POP SWAP2 SWAP1 POP JUMP JUMPDEST PUSH1 0x0 PUSH1 0x20 PUSH1 0x1F DUP4 ADD DIV SWAP1 POP SWAP2 SWAP1 POP JUMP JUMPDEST PUSH1 0x0 DUP3 DUP3 SHL SWAP1 POP SWAP3 SWAP2 POP POP JUMP JUMPDEST PUSH1 0x0 PUSH1 0x8 DUP4 MUL PUSH2 0x591A PUSH32 0xFFFFFFFFFFFFFFFFFFFFFFFFFFFFFFFFFFFFFFFFFFFFFFFFFFFFFFFFFFFFFFFF DUP3 PUSH2 0x58DD JUMP JUMPDEST PUSH2 0x5924 DUP7 DUP4 PUSH2 0x58DD JUMP JUMPDEST SWAP6 POP DUP1 NOT DUP5 AND SWAP4 POP DUP1 DUP7 AND DUP5 OR SWAP3 POP POP POP SWAP4 SWAP3 POP POP POP JUMP JUMPDEST PUSH1 0x0 DUP2 SWAP1 POP SWAP2 SWAP1 POP JUMP JUMPDEST PUSH1 0x0 PUSH2 0x5961 PUSH2 0x595C PUSH2 0x5957 DUP5 PUSH2 0x48E2 JUMP JUMPDEST PUSH2 0x593C JUMP JUMPDEST PUSH2 0x48E2 JUMP JUMPDEST SWAP1 POP SWAP2 SWAP1 POP JUMP JUMPDEST PUSH1 0x0 DUP2 SWAP1 POP SWAP2 SWAP1 POP JUMP JUMPDEST PUSH2 0x597B DUP4 PUSH2 0x5946 JUMP JUMPDEST PUSH2 0x598F PUSH2 0x5987 DUP3 PUSH2 0x5968 JUMP JUMPDEST DUP5 DUP5 SLOAD PUSH2 0x58EA JUMP JUMPDEST DUP3 SSTORE POP POP POP POP JUMP JUMPDEST PUSH1 0x0 SWAP1 JUMP JUMPDEST PUSH2 0x59A4 PUSH2 0x5997 JUMP JUMPDEST PUSH2 0x59AF DUP2 DUP5 DUP5 PUSH2 0x5972 JUMP JUMPDEST POP POP POP JUMP JUMPDEST JUMPDEST DUP2 DUP2 LT ISZERO PUSH2 0x59D3 JUMPI PUSH2 0x59C8 PUSH1 0x0 DUP3 PUSH2 0x599C JUMP JUMPDEST PUSH1 0x1 DUP2 ADD SWAP1 POP PUSH2 0x59B5 JUMP JUMPDEST POP POP JUMP JUMPDEST PUSH1 0x1F DUP3 GT ISZERO PUSH2 0x5A18 JUMPI PUSH2 0x59E9 DUP2 PUSH2 0x58B8 JUMP JUMPDEST PUSH2 0x59F2 DUP5 PUSH2 0x58CD JUMP JUMPDEST DUP2 ADD PUSH1 0x20 DUP6 LT ISZERO PUSH2 0x5A01 JUMPI DUP2 SWAP1 POP JUMPDEST PUSH2 0x5A15 PUSH2 0x5A0D DUP6 PUSH2 0x58CD JUMP JUMPDEST DUP4 ADD DUP3 PUSH2 0x59B4 JUMP JUMPDEST POP POP JUMPDEST POP POP POP JUMP JUMPDEST PUSH1 0x0 DUP3 DUP3 SHR SWAP1 POP SWAP3 SWAP2 POP POP JUMP JUMPDEST PUSH1 0x0 PUSH2 0x5A3B PUSH1 0x0 NOT DUP5 PUSH1 0x8 MUL PUSH2 0x5A1D JUMP JUMPDEST NOT DUP1 DUP4 AND SWAP2 POP POP SWAP3 SWAP2 POP POP JUMP JUMPDEST PUSH1 0x0 PUSH2 0x5A54 DUP4 DUP4 PUSH2 0x5A2A JUMP JUMPDEST SWAP2 POP DUP3 PUSH1 0x2 MUL DUP3 OR SWAP1 POP SWAP3 SWAP2 POP POP JUMP JUMPDEST PUSH2 0x5A6D DUP3 PUSH2 0x49C8 JUMP JUMPDEST PUSH8 0xFFFFFFFFFFFFFFFF DUP2 GT ISZERO PUSH2 0x5A86 JUMPI PUSH2 0x5A85 PUSH2 0x4BDD JUMP JUMPDEST JUMPDEST PUSH2 0x5A90 DUP3 SLOAD PUSH2 0x55CE JUMP JUMPDEST PUSH2 0x5A9B DUP3 DUP3 DUP6 PUSH2 0x59D7 JUMP JUMPDEST PUSH1 0x0 PUSH1 0x20 SWAP1 POP PUSH1 0x1F DUP4 GT PUSH1 0x1 DUP2 EQ PUSH2 0x5ACE JUMPI PUSH1 0x0 DUP5 ISZERO PUSH2 0x5ABC JUMPI DUP3 DUP8 ADD MLOAD SWAP1 POP JUMPDEST PUSH2 0x5AC6 DUP6 DUP3 PUSH2 0x5A48 JUMP JUMPDEST DUP7 SSTORE POP PUSH2 0x5B2E JUMP JUMPDEST PUSH1 0x1F NOT DUP5 AND PUSH2 0x5ADC DUP7 PUSH2 0x58B8 JUMP JUMPDEST PUSH1 0x0 JUMPDEST DUP3 DUP2 LT ISZERO PUSH2 0x5B04 JUMPI DUP5 DUP10 ADD MLOAD DUP3 SSTORE PUSH1 0x1 DUP3 ADD SWAP2 POP PUSH1 0x20 DUP6 ADD SWAP5 POP PUSH1 0x20 DUP2 ADD SWAP1 POP PUSH2 0x5ADF JUMP JUMPDEST DUP7 DUP4 LT ISZERO PUSH2 0x5B21 JUMPI DUP5 DUP10 ADD MLOAD PUSH2 0x5B1D PUSH1 0x1F DUP10 AND DUP3 PUSH2 0x5A2A JUMP JUMPDEST DUP4 SSTORE POP JUMPDEST PUSH1 0x1 PUSH1 0x2 DUP9 MUL ADD DUP9 SSTORE POP POP POP JUMPDEST POP POP POP POP POP POP JUMP JUMPDEST PUSH1 0x0 PUSH2 0x5B41 DUP3 PUSH2 0x48E2 JUMP JUMPDEST SWAP2 POP PUSH32 0xFFFFFFFFFFFFFFFFFFFFFFFFFFFFFFFFFFFFFFFFFFFFFFFFFFFFFFFFFFFFFFFF DUP3 SUB PUSH2 0x5B73 JUMPI PUSH2 0x5B72 PUSH2 0x562E JUMP JUMPDEST JUMPDEST PUSH1 0x1 DUP3 ADD SWAP1 POP SWAP2 SWAP1 POP JUMP JUMPDEST PUSH32 0x45524332303A2064656372656173656420616C6C6F77616E63652062656C6F77 PUSH1 0x0 DUP3 ADD MSTORE PUSH32 0x207A65726F000000000000000000000000000000000000000000000000000000 PUSH1 0x20 DUP3 ADD MSTORE POP JUMP JUMPDEST PUSH1 0x0 PUSH2 0x5BDA PUSH1 0x25 DUP4 PUSH2 0x49D3 JUMP JUMPDEST SWAP2 POP PUSH2 0x5BE5 DUP3 PUSH2 0x5B7E JUMP JUMPDEST PUSH1 0x40 DUP3 ADD SWAP1 POP SWAP2 SWAP1 POP JUMP JUMPDEST PUSH1 0x0 PUSH1 0x20 DUP3 ADD SWAP1 POP DUP2 DUP2 SUB PUSH1 0x0 DUP4 ADD MSTORE PUSH2 0x5C09 DUP2 PUSH2 0x5BCD JUMP JUMPDEST SWAP1 POP SWAP2 SWAP1 POP JUMP JUMPDEST PUSH32 0x5745544800000000000000000000000000000000000000000000000000000000 PUSH1 0x0 DUP3 ADD MSTORE POP JUMP JUMPDEST PUSH1 0x0 PUSH2 0x5C46 PUSH1 0x4 DUP4 PUSH2 0x5865 JUMP JUMPDEST SWAP2 POP PUSH2 0x5C51 DUP3 PUSH2 0x5C10 JUMP JUMPDEST PUSH1 0x4 DUP3 ADD SWAP1 POP SWAP2 SWAP1 POP JUMP JUMPDEST PUSH1 0x0 PUSH2 0x5C67 DUP3 PUSH2 0x5C39 JUMP JUMPDEST SWAP2 POP DUP2 SWAP1 POP SWAP2 SWAP1 POP JUMP JUMPDEST PUSH2 0x5C7A DUP2 PUSH2 0x4A9A JUMP JUMPDEST DUP3 MSTORE POP POP JUMP JUMPDEST PUSH1 0x0 PUSH1 0x20 DUP3 ADD SWAP1 POP PUSH2 0x5C95 PUSH1 0x0 DUP4 ADD DUP5 PUSH2 0x5C71 JUMP JUMPDEST SWAP3 SWAP2 POP POP JUMP JUMPDEST PUSH1 0x0 DUP2 MLOAD SWAP1 POP PUSH2 0x5CAA DUP2 PUSH2 0x492A JUMP JUMPDEST SWAP3 SWAP2 POP POP JUMP JUMPDEST PUSH1 0x0 PUSH1 0x20 DUP3 DUP5 SUB SLT ISZERO PUSH2 0x5CC6 JUMPI PUSH2 0x5CC5 PUSH2 0x4920 JUMP JUMPDEST JUMPDEST PUSH1 0x0 PUSH2 0x5CD4 DUP5 DUP3 DUP6 ADD PUSH2 0x5C9B JUMP JUMPDEST SWAP2 POP POP SWAP3 SWAP2 POP POP JUMP JUMPDEST PUSH1 0x0 PUSH1 0x40 DUP3 ADD SWAP1 POP PUSH2 0x5CF2 PUSH1 0x0 DUP4 ADD DUP6 PUSH2 0x5C71 JUMP JUMPDEST PUSH2 0x5CFF PUSH1 0x20 DUP4 ADD DUP5 PUSH2 0x48EC JUMP JUMPDEST SWAP4 SWAP3 POP POP POP JUMP JUMPDEST PUSH2 0x5D0F DUP2 PUSH2 0x4B18 JUMP JUMPDEST DUP2 EQ PUSH2 0x5D1A JUMPI PUSH1 0x0 DUP1 REVERT JUMPDEST POP JUMP JUMPDEST PUSH1 0x0 DUP2 MLOAD SWAP1 POP PUSH2 0x5D2C DUP2 PUSH2 0x5D06 JUMP JUMPDEST SWAP3 SWAP2 POP POP JUMP JUMPDEST PUSH1 0x0 PUSH1 0x20 DUP3 DUP5 SUB SLT ISZERO PUSH2 0x5D48 JUMPI PUSH2 0x5D47 PUSH2 0x4920 JUMP JUMPDEST JUMPDEST PUSH1 0x0 PUSH2 0x5D56 DUP5 DUP3 DUP6 ADD PUSH2 0x5D1D JUMP JUMPDEST SWAP2 POP POP SWAP3 SWAP2 POP POP JUMP JUMPDEST PUSH1 0x0 DUP2 MLOAD SWAP1 POP SWAP2 SWAP1 POP JUMP JUMPDEST PUSH1 0x0 DUP3 DUP3 MSTORE PUSH1 0x20 DUP3 ADD SWAP1 POP SWAP3 SWAP2 POP POP JUMP JUMPDEST PUSH1 0x0 DUP2 SWAP1 POP PUSH1 0x20 DUP3 ADD SWAP1 POP SWAP2 SWAP1 POP JUMP JUMPDEST PUSH2 0x5D94 DUP2 PUSH2 0x4A9A JUMP JUMPDEST DUP3 MSTORE POP POP JUMP JUMPDEST PUSH1 0x0 PUSH2 0x5DA6 DUP4 DUP4 PUSH2 0x5D8B JUMP JUMPDEST PUSH1 0x20 DUP4 ADD SWAP1 POP SWAP3 SWAP2 POP POP JUMP JUMPDEST PUSH1 0x0 PUSH1 0x20 DUP3 ADD SWAP1 POP SWAP2 SWAP1 POP JUMP JUMPDEST PUSH1 0x0 PUSH2 0x5DCA DUP3 PUSH2 0x5D5F JUMP JUMPDEST PUSH2 0x5DD4 DUP2 DUP6 PUSH2 0x5D6A JUMP JUMPDEST SWAP4 POP PUSH2 0x5DDF DUP4 PUSH2 0x5D7B JUMP JUMPDEST DUP1 PUSH1 0x0 JUMPDEST DUP4 DUP2 LT ISZERO PUSH2 0x5E10 JUMPI DUP2 MLOAD PUSH2 0x5DF7 DUP9 DUP3 PUSH2 0x5D9A JUMP JUMPDEST SWAP8 POP PUSH2 0x5E02 DUP4 PUSH2 0x5DB2 JUMP JUMPDEST SWAP3 POP POP PUSH1 0x1 DUP2 ADD SWAP1 POP PUSH2 0x5DE3 JUMP JUMPDEST POP DUP6 SWAP4 POP POP POP POP SWAP3 SWAP2 POP POP JUMP JUMPDEST PUSH1 0x0 PUSH1 0xA0 DUP3 ADD SWAP1 POP PUSH2 0x5E32 PUSH1 0x0 DUP4 ADD DUP9 PUSH2 0x48EC JUMP JUMPDEST PUSH2 0x5E3F PUSH1 0x20 DUP4 ADD DUP8 PUSH2 0x48EC JUMP JUMPDEST DUP2 DUP2 SUB PUSH1 0x40 DUP4 ADD MSTORE PUSH2 0x5E51 DUP2 DUP7 PUSH2 0x5DBF JUMP JUMPDEST SWAP1 POP PUSH2 0x5E60 PUSH1 0x60 DUP4 ADD DUP6 PUSH2 0x5C71 JUMP JUMPDEST PUSH2 0x5E6D PUSH1 0x80 DUP4 ADD DUP5 PUSH2 0x48EC JUMP JUMPDEST SWAP7 SWAP6 POP POP POP POP POP POP JUMP JUMPDEST PUSH1 0x0 PUSH2 0x5E8A PUSH2 0x5E85 DUP5 PUSH2 0x4DF3 JUMP JUMPDEST PUSH2 0x4C3D JUMP JUMPDEST SWAP1 POP DUP1 DUP4 DUP3 MSTORE PUSH1 0x20 DUP3 ADD SWAP1 POP PUSH1 0x20 DUP5 MUL DUP4 ADD DUP6 DUP2 GT ISZERO PUSH2 0x5EAD JUMPI PUSH2 0x5EAC PUSH2 0x4C84 JUMP JUMPDEST JUMPDEST DUP4 JUMPDEST DUP2 DUP2 LT ISZERO PUSH2 0x5ED6 JUMPI DUP1 PUSH2 0x5EC2 DUP9 DUP3 PUSH2 0x5C9B JUMP JUMPDEST DUP5 MSTORE PUSH1 0x20 DUP5 ADD SWAP4 POP POP PUSH1 0x20 DUP2 ADD SWAP1 POP PUSH2 0x5EAF JUMP JUMPDEST POP POP POP SWAP4 SWAP3 POP POP POP JUMP JUMPDEST PUSH1 0x0 DUP3 PUSH1 0x1F DUP4 ADD SLT PUSH2 0x5EF5 JUMPI PUSH2 0x5EF4 PUSH2 0x4BD8 JUMP JUMPDEST JUMPDEST DUP2 MLOAD PUSH2 0x5F05 DUP5 DUP3 PUSH1 0x20 DUP7 ADD PUSH2 0x5E77 JUMP JUMPDEST SWAP2 POP POP SWAP3 SWAP2 POP POP JUMP JUMPDEST PUSH1 0x0 PUSH1 0x20 DUP3 DUP5 SUB SLT ISZERO PUSH2 0x5F24 JUMPI PUSH2 0x5F23 PUSH2 0x4920 JUMP JUMPDEST JUMPDEST PUSH1 0x0 DUP3 ADD MLOAD PUSH8 0xFFFFFFFFFFFFFFFF DUP2 GT ISZERO PUSH2 0x5F42 JUMPI PUSH2 0x5F41 PUSH2 0x4925 JUMP JUMPDEST JUMPDEST PUSH2 0x5F4E DUP5 DUP3 DUP6 ADD PUSH2 0x5EE0 JUMP JUMPDEST SWAP2 POP POP SWAP3 SWAP2 POP POP JUMP JUMPDEST PUSH32 0x4D696E696D756D2062757920696E20697320302E312065746865720000000000 PUSH1 0x0 DUP3 ADD MSTORE POP JUMP JUMPDEST PUSH1 0x0 PUSH2 0x5F8D PUSH1 0x1B DUP4 PUSH2 0x49D3 JUMP JUMPDEST SWAP2 POP PUSH2 0x5F98 DUP3 PUSH2 0x5F57 JUMP JUMPDEST PUSH1 0x20 DUP3 ADD SWAP1 POP SWAP2 SWAP1 POP JUMP JUMPDEST PUSH1 0x0 PUSH1 0x20 DUP3 ADD SWAP1 POP DUP2 DUP2 SUB PUSH1 0x0 DUP4 ADD MSTORE PUSH2 0x5FBC DUP2 PUSH2 0x5F80 JUMP JUMPDEST SWAP1 POP SWAP2 SWAP1 POP JUMP JUMPDEST PUSH32 0x45524332303A20617070726F76652066726F6D20746865207A65726F20616464 PUSH1 0x0 DUP3 ADD MSTORE PUSH32 0x7265737300000000000000000000000000000000000000000000000000000000 PUSH1 0x20 DUP3 ADD MSTORE POP JUMP JUMPDEST PUSH1 0x0 PUSH2 0x601F PUSH1 0x24 DUP4 PUSH2 0x49D3 JUMP JUMPDEST SWAP2 POP PUSH2 0x602A DUP3 PUSH2 0x5FC3 JUMP JUMPDEST PUSH1 0x40 DUP3 ADD SWAP1 POP SWAP2 SWAP1 POP JUMP JUMPDEST PUSH1 0x0 PUSH1 0x20 DUP3 ADD SWAP1 POP DUP2 DUP2 SUB PUSH1 0x0 DUP4 ADD MSTORE PUSH2 0x604E DUP2 PUSH2 0x6012 JUMP JUMPDEST SWAP1 POP SWAP2 SWAP1 POP JUMP JUMPDEST PUSH32 0x45524332303A20617070726F766520746F20746865207A65726F206164647265 PUSH1 0x0 DUP3 ADD MSTORE PUSH32 0x7373000000000000000000000000000000000000000000000000000000000000 PUSH1 0x20 DUP3 ADD MSTORE POP JUMP JUMPDEST PUSH1 0x0 PUSH2 0x60B1 PUSH1 0x22 DUP4 PUSH2 0x49D3 JUMP JUMPDEST SWAP2 POP PUSH2 0x60BC DUP3 PUSH2 0x6055 JUMP JUMPDEST PUSH1 0x40 DUP3 ADD SWAP1 POP SWAP2 SWAP1 POP JUMP JUMPDEST PUSH1 0x0 PUSH1 0x20 DUP3 ADD SWAP1 POP DUP2 DUP2 SUB PUSH1 0x0 DUP4 ADD MSTORE PUSH2 0x60E0 DUP2 PUSH2 0x60A4 JUMP JUMPDEST SWAP1 POP SWAP2 SWAP1 POP JUMP JUMPDEST PUSH32 0x45524332303A206275726E2066726F6D20746865207A65726F20616464726573 PUSH1 0x0 DUP3 ADD MSTORE PUSH32 0x7300000000000000000000000000000000000000000000000000000000000000 PUSH1 0x20 DUP3 ADD MSTORE POP JUMP JUMPDEST PUSH1 0x0 PUSH2 0x6143 PUSH1 0x21 DUP4 PUSH2 0x49D3 JUMP JUMPDEST SWAP2 POP PUSH2 0x614E DUP3 PUSH2 0x60E7 JUMP JUMPDEST PUSH1 0x40 DUP3 ADD SWAP1 POP SWAP2 SWAP1 POP JUMP JUMPDEST PUSH1 0x0 PUSH1 0x20 DUP3 ADD SWAP1 POP DUP2 DUP2 SUB PUSH1 0x0 DUP4 ADD MSTORE PUSH2 0x6172 DUP2 PUSH2 0x6136 JUMP JUMPDEST SWAP1 POP SWAP2 SWAP1 POP JUMP JUMPDEST PUSH32 0x45524332303A206275726E20616D6F756E7420657863656564732062616C616E PUSH1 0x0 DUP3 ADD MSTORE PUSH32 0x6365000000000000000000000000000000000000000000000000000000000000 PUSH1 0x20 DUP3 ADD MSTORE POP JUMP JUMPDEST PUSH1 0x0 PUSH2 0x61D5 PUSH1 0x22 DUP4 PUSH2 0x49D3 JUMP JUMPDEST SWAP2 POP PUSH2 0x61E0 DUP3 PUSH2 0x6179 JUMP JUMPDEST PUSH1 0x40 DUP3 ADD SWAP1 POP SWAP2 SWAP1 POP JUMP JUMPDEST PUSH1 0x0 PUSH1 0x20 DUP3 ADD SWAP1 POP DUP2 DUP2 SUB PUSH1 0x0 DUP4 ADD MSTORE PUSH2 0x6204 DUP2 PUSH2 0x61C8 JUMP JUMPDEST SWAP1 POP SWAP2 SWAP1 POP JUMP JUMPDEST PUSH32 0x45524332303A20696E73756666696369656E7420616C6C6F77616E6365000000 PUSH1 0x0 DUP3 ADD MSTORE POP JUMP JUMPDEST PUSH1 0x0 PUSH2 0x6241 PUSH1 0x1D DUP4 PUSH2 0x49D3 JUMP JUMPDEST SWAP2 POP PUSH2 0x624C DUP3 PUSH2 0x620B JUMP JUMPDEST PUSH1 0x20 DUP3 ADD SWAP1 POP SWAP2 SWAP1 POP JUMP JUMPDEST PUSH1 0x0 PUSH1 0x20 DUP3 ADD SWAP1 POP DUP2 DUP2 SUB PUSH1 0x0 DUP4 ADD MSTORE PUSH2 0x6270 DUP2 PUSH2 0x6234 JUMP JUMPDEST SWAP1 POP SWAP2 SWAP1 POP JUMP JUMPDEST PUSH32 0x45524332303A207472616E736665722066726F6D20746865207A65726F206164 PUSH1 0x0 DUP3 ADD MSTORE PUSH32 0x6472657373000000000000000000000000000000000000000000000000000000 PUSH1 0x20 DUP3 ADD MSTORE POP JUMP JUMPDEST PUSH1 0x0 PUSH2 0x62D3 PUSH1 0x25 DUP4 PUSH2 0x49D3 JUMP JUMPDEST SWAP2 POP PUSH2 0x62DE DUP3 PUSH2 0x6277 JUMP JUMPDEST PUSH1 0x40 DUP3 ADD SWAP1 POP SWAP2 SWAP1 POP JUMP JUMPDEST PUSH1 0x0 PUSH1 0x20 DUP3 ADD SWAP1 POP DUP2 DUP2 SUB PUSH1 0x0 DUP4 ADD MSTORE PUSH2 0x6302 DUP2 PUSH2 0x62C6 JUMP JUMPDEST SWAP1 POP SWAP2 SWAP1 POP JUMP JUMPDEST PUSH32 0x45524332303A207472616E7366657220746F20746865207A65726F2061646472 PUSH1 0x0 DUP3 ADD MSTORE PUSH32 0x6573730000000000000000000000000000000000000000000000000000000000 PUSH1 0x20 DUP3 ADD MSTORE POP JUMP JUMPDEST PUSH1 0x0 PUSH2 0x6365 PUSH1 0x23 DUP4 PUSH2 0x49D3 JUMP JUMPDEST SWAP2 POP PUSH2 0x6370 DUP3 PUSH2 0x6309 JUMP JUMPDEST PUSH1 0x40 DUP3 ADD SWAP1 POP SWAP2 SWAP1 POP JUMP JUMPDEST PUSH1 0x0 PUSH1 0x20 DUP3 ADD SWAP1 POP DUP2 DUP2 SUB PUSH1 0x0 DUP4 ADD MSTORE PUSH2 0x6394 DUP2 PUSH2 0x6358 JUMP JUMPDEST SWAP1 POP SWAP2 SWAP1 POP JUMP JUMPDEST PUSH32 0x45524332303A207472616E7366657220616D6F756E7420657863656564732062 PUSH1 0x0 DUP3 ADD MSTORE PUSH32 0x616C616E63650000000000000000000000000000000000000000000000000000 PUSH1 0x20 DUP3 ADD MSTORE POP JUMP JUMPDEST PUSH1 0x0 PUSH2 0x63F7 PUSH1 0x26 DUP4 PUSH2 0x49D3 JUMP JUMPDEST SWAP2 POP PUSH2 0x6402 DUP3 PUSH2 0x639B JUMP JUMPDEST PUSH1 0x40 DUP3 ADD SWAP1 POP SWAP2 SWAP1 POP JUMP JUMPDEST PUSH1 0x0 PUSH1 0x20 DUP3 ADD SWAP1 POP DUP2 DUP2 SUB PUSH1 0x0 DUP4 ADD MSTORE PUSH2 0x6426 DUP2 PUSH2 0x63EA JUMP JUMPDEST SWAP1 POP SWAP2 SWAP1 POP JUMP JUMPDEST PUSH32 0x45524332303A206D696E7420746F20746865207A65726F206164647265737300 PUSH1 0x0 DUP3 ADD MSTORE POP JUMP JUMPDEST PUSH1 0x0 PUSH2 0x6463 PUSH1 0x1F DUP4 PUSH2 0x49D3 JUMP JUMPDEST SWAP2 POP PUSH2 0x646E DUP3 PUSH2 0x642D JUMP JUMPDEST PUSH1 0x20 DUP3 ADD SWAP1 POP SWAP2 SWAP1 POP JUMP JUMPDEST PUSH1 0x0 PUSH1 0x20 DUP3 ADD SWAP1 POP DUP2 DUP2 SUB PUSH1 0x0 DUP4 ADD MSTORE PUSH2 0x6492 DUP2 PUSH2 0x6456 JUMP JUMPDEST SWAP1 POP SWAP2 SWAP1 POP JUMP JUMPDEST PUSH32 0x4E487B7100000000000000000000000000000000000000000000000000000000 PUSH1 0x0 MSTORE PUSH1 0x51 PUSH1 0x4 MSTORE PUSH1 0x24 PUSH1 0x0 REVERT INVALID LOG2 PUSH5 0x6970667358 0x22 SLT KECCAK256 0xDA PUSH31 0xB0366B5C77DC956BE4DF1817FF5B7E393654058A91FD6CD4C8B8FEAA5DF64 PUSH20 0x6F6C634300081300330000000000000000000000 "},"methodIdentifiers":{"_swap(address,address,uint256,uint256,address)":"e47b2279","allowance(address,address)":"dd62ed3e","approve(address,uint256)":"095ea7b3","assetWeightings(string)":"b4f301c8","balanceOf(address)":"70a08231","decimals()":"313ce567","decreaseAllowance(address,uint256)":"a457c2d7","getHoldingsDataOfProposal(uint256)":"4c26b8a2","getProposalVotes(string)":"8b1fdf24","increaseAllowance(address,uint256)":"39509351","initiateTradesOnUniswap(string[],uint256[])":"e430fcb6","joinDAO()":"f63d13d7","lastSnapshotEth()":"a91f3b51","leaveDAO()":"1de7df41","lengthOfProposals()":"ef2091bc","name()":"06fdde03","proposals(uint256)":"013cf08b","startingEth()":"32d184dc","submitVote(string[],uint256[],uint256[],string[],string[])":"472ad1f4","symbol()":"95d89b41","totalSupply()":"18160ddd","transfer(address,uint256)":"a9059cbb","transferFrom(address,address,uint256)":"23b872dd","treasuryEth()":"00c7f3fb"}}}}}